{
	"data": {
		"bytecode": {
			"linkReferences": {},
			"object": "6080604052604051806102c001604052806040518060400160405280600a81526020017f302054686520466f6f6c0000000000000000000000000000000000000000000081525081526020016040518060400160405280600e81526020017f4920546865204d6167696369616e00000000000000000000000000000000000081525081526020016040518060400160405280601581526020017f494920546865204869676820507269657374657373000000000000000000000081525081526020016040518060400160405280600f81526020017f4949492054686520456d7072657373000000000000000000000000000000000081525081526020016040518060400160405280600e81526020017f49562054686520456d7065726f7200000000000000000000000000000000000081525081526020016040518060400160405280601081526020017f562054686520486965726f7068616e740000000000000000000000000000000081525081526020016040518060400160405280600d81526020017f564920546865204c6f766572730000000000000000000000000000000000000081525081526020016040518060400160405280600f81526020017f564949205468652043686172696f74000000000000000000000000000000000081525081526020016040518060400160405280600d81526020017f5649494920537472656e6774680000000000000000000000000000000000000081525081526020016040518060400160405280600d81526020017f495820546865204865726d69740000000000000000000000000000000000000081525081526020016040518060400160405280601681526020017f582054686520576865656c206f6620466f7274756e650000000000000000000081525081526020016040518060400160405280600a81526020017f5849204a7573746963650000000000000000000000000000000000000000000081525081526020016040518060400160405280601281526020017f584949205468652048616e676564204d616e000000000000000000000000000081525081526020016040518060400160405280600a81526020017f584949492044656174680000000000000000000000000000000000000000000081525081526020016040518060400160405280600e81526020017f5849562054656d706572616e636500000000000000000000000000000000000081525081526020016040518060400160405280600c81526020017f58562054686520446576696c000000000000000000000000000000000000000081525081526020016040518060400160405280600d81526020017f5856492054686520546f7765720000000000000000000000000000000000000081525081526020016040518060400160405280600d81526020017f585649492054686520537461720000000000000000000000000000000000000081525081526020016040518060400160405280600e81526020017f585649494920546865204d6f6f6e00000000000000000000000000000000000081525081526020016040518060400160405280600b81526020017f584958205468652053756e00000000000000000000000000000000000000000081525081526020016040518060400160405280600c81526020017f5858204a756467656d656e74000000000000000000000000000000000000000081525081526020016040518060400160405280600d81526020017f5858492054686520576f726c640000000000000000000000000000000000000081525081525060089060166200053292919062000660565b507fc799bd1e3bd4d1a41cd4968997a4e03dfd2a3c7c04b695881138580163f428875f1b602255620186a060235f6101000a81548163ffffffff021916908363ffffffff1602179055506003602360046101000a81548161ffff021916908361ffff1602179055506002602360066101000a81548163ffffffff021916908363ffffffff160217905550348015620005c8575f80fd5b506040518060400160405280600b81526020017f417263616e655461726f740000000000000000000000000000000000000000008152506040518060400160405280600281526020017f4154000000000000000000000000000000000000000000000000000000000000815250815f90816200064591906200099e565b5080600190816200065791906200099e565b50505062000a82565b8260168101928215620006a0579160200282015b828111156200069f5782518290816200068e91906200099e565b509160200191906001019062000674565b5b509050620006af9190620006b3565b5090565b5b80821115620006d6575f8181620006cc9190620006da565b50600101620006b4565b5090565b508054620006e8906200079e565b5f825580601f10620006fb57506200071a565b601f0160209004905f5260205f20908101906200071991906200071d565b5b50565b5b8082111562000736575f815f9055506001016200071e565b5090565b5f81519050919050565b7f4e487b71000000000000000000000000000000000000000000000000000000005f52604160045260245ffd5b7f4e487b71000000000000000000000000000000000000000000000000000000005f52602260045260245ffd5b5f6002820490506001821680620007b657607f821691505b602082108103620007cc57620007cb62000771565b5b50919050565b5f819050815f5260205f209050919050565b5f6020601f8301049050919050565b5f82821b905092915050565b5f60088302620008307fffffffffffffffffffffffffffffffffffffffffffffffffffffffffffffffff82620007f3565b6200083c8683620007f3565b95508019841693508086168417925050509392505050565b5f819050919050565b5f819050919050565b5f62000886620008806200087a8462000854565b6200085d565b62000854565b9050919050565b5f819050919050565b620008a18362000866565b620008b9620008b0826200088d565b848454620007ff565b825550505050565b5f90565b620008cf620008c1565b620008dc81848462000896565b505050565b5b818110156200090357620008f75f82620008c5565b600181019050620008e2565b5050565b601f82111562000952576200091c81620007d2565b6200092784620007e4565b8101602085101562000937578190505b6200094f6200094685620007e4565b830182620008e1565b50505b505050565b5f82821c905092915050565b5f620009745f198460080262000957565b1980831691505092915050565b5f6200098e838362000963565b9150826002028217905092915050565b620009a9826200073a565b67ffffffffffffffff811115620009c557620009c462000744565b5b620009d182546200079e565b620009de82828562000907565b5f60209050601f83116001811462000a14575f8415620009ff578287015190505b62000a0b858262000981565b86555062000a7a565b601f19841662000a2486620007d2565b5f5b8281101562000a4d5784890151825560018201915060208501945060208101905062000a26565b8683101562000a6d578489015162000a69601f89168262000963565b8355505b6001600288020188555050505b505050505050565b612aac8062000a905f395ff3fe608060405234801561000f575f80fd5b5060043610610171575f3560e01c806370a08231116100dc578063a22cb46511610095578063b88d4fde1161006f578063b88d4fde1461044e578063c87b56dd1461046a578063e985e9c51461049a578063fc2a88c3146104ca57610171565b8063a22cb465146103f6578063a8f137c014610412578063b0fb162f1461043057610171565b806370a082311461030b5780637ccfd7fc1461033b5780638796ba8c146103595780638ac000211461038957806395d89b41146103a7578063a168fa89146103c557610171565b80632f5be23e1161012e5780632f5be23e146102495780633c2b2ac11461026757806342842e0e14610283578063561892361461029f57806361728f39146102bd5780636352211e146102db57610171565b806301ffc9a71461017557806306fdde03146101a5578063081812fc146101c3578063095ea7b3146101f357806323b872dd1461020f57806324f746971461022b575b5f80fd5b61018f600480360381019061018a9190611d34565b6104e8565b60405161019c9190611d79565b60405180910390f35b6101ad610548565b6040516101ba9190611e1c565b60405180910390f35b6101dd60048036038101906101d89190611e6f565b6105d7565b6040516101ea9190611ed9565b60405180910390f35b61020d60048036038101906102089190611f1c565b6105f2565b005b61022960048036038101906102249190611f5a565b610608565b005b610233610707565b6040516102409190611fc8565b60405180910390f35b61025161071c565b60405161025e9190611e1c565b60405180910390f35b610281600480360381019061027c919061210d565b610951565b005b61029d60048036038101906102989190611f5a565b610981565b005b6102a76109a0565b6040516102b49190612176565b60405180910390f35b6102c56109b0565b6040516102d291906121a7565b60405180910390f35b6102f560048036038101906102f09190611e6f565b6109b6565b6040516103029190611ed9565b60405180910390f35b610325600480360381019061032091906121c0565b6109c7565b6040516103329190612176565b60405180910390f35b610343610a7d565b6040516103509190611fc8565b60405180910390f35b610373600480360381019061036e9190611e6f565b610a93565b6040516103809190612176565b60405180910390f35b610391610ab3565b60405161039e9190612176565b60405180910390f35b6103af610ab9565b6040516103bc9190611e1c565b60405180910390f35b6103df60048036038101906103da9190611e6f565b610b49565b6040516103ed9291906121eb565b60405180910390f35b610410600480360381019061040b919061223c565b610b81565b005b61041a610b97565b6040516104279190611e1c565b60405180910390f35b610438610bb3565b6040516104459190612296565b60405180910390f35b6104686004803603810190610463919061234d565b610bc7565b005b610484600480360381019061047f9190611e6f565b610be4565b6040516104919190611e1c565b60405180910390f35b6104b460048036038101906104af91906123cd565b610cef565b6040516104c19190611d79565b60405180910390f35b6104d2610d7d565b6040516104df9190612176565b60405180910390f35b5f634906490660e01b7bffffffffffffffffffffffffffffffffffffffffffffffffffffffff1916827bffffffffffffffffffffffffffffffffffffffffffffffffffffffff19161480610541575061054082610d83565b5b9050919050565b60605f805461055690612438565b80601f016020809104026020016040519081016040528092919081815260200182805461058290612438565b80156105cd5780601f106105a4576101008083540402835291602001916105cd565b820191905f5260205f20905b8154815290600101906020018083116105b057829003601f168201915b5050505050905090565b5f6105e182610e64565b506105eb82610eea565b9050919050565b61060482826105ff610f23565b610f2a565b5050565b5f73ffffffffffffffffffffffffffffffffffffffff168273ffffffffffffffffffffffffffffffffffffffff1603610678575f6040517f64a0ae9200000000000000000000000000000000000000000000000000000000815260040161066f9190611ed9565b60405180910390fd5b5f61068b8383610686610f23565b610f3c565b90508373ffffffffffffffffffffffffffffffffffffffff168173ffffffffffffffffffffffffffffffffffffffff1614610701578382826040517f64283d7b0000000000000000000000000000000000000000000000000000000081526004016106f893929190612468565b60405180910390fd5b50505050565b60235f9054906101000a900463ffffffff1681565b60605f6107296016611147565b90505f600882601681106107405761073f61249d565b5b01805461074c90612438565b80601f016020809104026020016040519081016040528092919081815260200182805461077890612438565b80156107c35780601f1061079a576101008083540402835291602001916107c3565b820191905f5260205f20905b8154815290600101906020018083116107a657829003601f168201915b5050505050905060605f6107d76002611147565b03610819576040518060400160405280600781526020017f72657665727365000000000000000000000000000000000000000000000000008152509050610852565b6040518060400160405280600781526020017f757072696768740000000000000000000000000000000000000000000000000081525090505b5f604051806080016040528060438152602001612a34604391396108758561118a565b604051602001610886929190612504565b6040516020818303038152906040529050806040516020016108a8919061254d565b60405160208183030381529060405290505f836040516020016108cb9190612598565b604051602081830303815290604052905080836040516020016108ef929190612504565b6040516020818303038152906040529050806040516020016109119190612598565b60405160208183030381529060405290508082604051602001610935929190612504565b6040516020818303038152906040529050809550505050505090565b5f61095c6007611254565b90506109686007611260565b610972838261127d565b61097c818361129a565b505050565b61099b83838360405180602001604052805f815250610bc7565b505050565b5f6109ab6007611254565b905090565b60225481565b5f6109c082610e64565b9050919050565b5f8073ffffffffffffffffffffffffffffffffffffffff168273ffffffffffffffffffffffffffffffffffffffff1603610a38575f6040517f89c62b64000000000000000000000000000000000000000000000000000000008152600401610a2f9190611ed9565b60405180910390fd5b60035f8373ffffffffffffffffffffffffffffffffffffffff1673ffffffffffffffffffffffffffffffffffffffff1681526020019081526020015f20549050919050565b602360069054906101000a900463ffffffff1681565b60208181548110610aa2575f80fd5b905f5260205f20015f915090505481565b601f5481565b606060018054610ac890612438565b80601f0160208091040260200160405190810160405280929190818152602001828054610af490612438565b8015610b3f5780601f10610b1657610100808354040283529160200191610b3f565b820191905f5260205f20905b815481529060010190602001808311610b2257829003601f168201915b5050505050905090565b601e602052805f5260405f205f91509050805f015f9054906101000a900460ff1690805f0160019054906101000a900460ff16905082565b610b93610b8c610f23565b83836112f4565b5050565b604051806080016040528060438152602001612a346043913981565b602360049054906101000a900461ffff1681565b610bd2848484610608565b610bde8484848461145d565b50505050565b6060610bef82610e64565b505f60065f8481526020019081526020015f208054610c0d90612438565b80601f0160208091040260200160405190810160405280929190818152602001828054610c3990612438565b8015610c845780601f10610c5b57610100808354040283529160200191610c84565b820191905f5260205f20905b815481529060010190602001808311610c6757829003601f168201915b505050505090505f610c9461160f565b90505f815103610ca8578192505050610cea565b5f82511115610cdc578082604051602001610cc4929190612504565b60405160208183030381529060405292505050610cea565b610ce584611625565b925050505b919050565b5f60055f8473ffffffffffffffffffffffffffffffffffffffff1673ffffffffffffffffffffffffffffffffffffffff1681526020019081526020015f205f8373ffffffffffffffffffffffffffffffffffffffff1673ffffffffffffffffffffffffffffffffffffffff1681526020019081526020015f205f9054906101000a900460ff16905092915050565b60215481565b5f7f80ac58cd000000000000000000000000000000000000000000000000000000007bffffffffffffffffffffffffffffffffffffffffffffffffffffffff1916827bffffffffffffffffffffffffffffffffffffffffffffffffffffffff19161480610e4d57507f5b5e139f000000000000000000000000000000000000000000000000000000007bffffffffffffffffffffffffffffffffffffffffffffffffffffffff1916827bffffffffffffffffffffffffffffffffffffffffffffffffffffffff1916145b80610e5d5750610e5c8261168b565b5b9050919050565b5f80610e6f836116f4565b90505f73ffffffffffffffffffffffffffffffffffffffff168173ffffffffffffffffffffffffffffffffffffffff1603610ee157826040517f7e273289000000000000000000000000000000000000000000000000000000008152600401610ed89190612176565b60405180910390fd5b80915050919050565b5f60045f8381526020019081526020015f205f9054906101000a900473ffffffffffffffffffffffffffffffffffffffff169050919050565b5f33905090565b610f37838383600161172d565b505050565b5f80610f47846116f4565b90505f73ffffffffffffffffffffffffffffffffffffffff168373ffffffffffffffffffffffffffffffffffffffff1614610f8857610f878184866118ec565b5b5f73ffffffffffffffffffffffffffffffffffffffff168173ffffffffffffffffffffffffffffffffffffffff161461101357610fc75f855f8061172d565b600160035f8373ffffffffffffffffffffffffffffffffffffffff1673ffffffffffffffffffffffffffffffffffffffff1681526020019081526020015f205f82825403925050819055505b5f73ffffffffffffffffffffffffffffffffffffffff168573ffffffffffffffffffffffffffffffffffffffff161461109257600160035f8773ffffffffffffffffffffffffffffffffffffffff1673ffffffffffffffffffffffffffffffffffffffff1681526020019081526020015f205f82825401925050819055505b8460025f8681526020019081526020015f205f6101000a81548173ffffffffffffffffffffffffffffffffffffffff021916908373ffffffffffffffffffffffffffffffffffffffff160217905550838573ffffffffffffffffffffffffffffffffffffffff168273ffffffffffffffffffffffffffffffffffffffff167fddf252ad1be2c89b69c2b068fc378daa952ba7f163c4a11628f55a4df523b3ef60405160405180910390a4809150509392505050565b5f80444260405160200161115c9291906125dd565b604051602081830303815290604052805190602001205f1c905082816111829190612635565b915050919050565b60605f6001611198846119af565b0190505f8167ffffffffffffffff8111156111b6576111b5611fe9565b5b6040519080825280601f01601f1916602001820160405280156111e85781602001600182028036833780820191505090505b5090505f82602001820190505b600115611249578080600190039150507f3031323334353637383961626364656600000000000000000000000000000000600a86061a8153600a858161123e5761123d612608565b5b0494505f85036111f5575b819350505050919050565b5f815f01549050919050565b6001815f015f8282546112739190612692565b9250508190555050565b611296828260405180602001604052805f815250611b00565b5050565b8060065f8481526020019081526020015f2090816112b89190612862565b507ff8e1a15aba9398e019f0b49df1a4fde98ee17ae345cb5f6b5e2c27f5033e8ce7826040516112e89190612176565b60405180910390a15050565b5f73ffffffffffffffffffffffffffffffffffffffff168273ffffffffffffffffffffffffffffffffffffffff160361136457816040517f5b08ba1800000000000000000000000000000000000000000000000000000000815260040161135b9190611ed9565b60405180910390fd5b8060055f8573ffffffffffffffffffffffffffffffffffffffff1673ffffffffffffffffffffffffffffffffffffffff1681526020019081526020015f205f8473ffffffffffffffffffffffffffffffffffffffff1673ffffffffffffffffffffffffffffffffffffffff1681526020019081526020015f205f6101000a81548160ff0219169083151502179055508173ffffffffffffffffffffffffffffffffffffffff168373ffffffffffffffffffffffffffffffffffffffff167f17307eab39ab6107e8899845ad3d59bd9653f200f220920489ca2b5937696c31836040516114509190611d79565b60405180910390a3505050565b5f8373ffffffffffffffffffffffffffffffffffffffff163b1115611609578273ffffffffffffffffffffffffffffffffffffffff1663150b7a026114a0610f23565b8685856040518563ffffffff1660e01b81526004016114c29493929190612983565b6020604051808303815f875af19250505080156114fd57506040513d601f19601f820116820180604052508101906114fa91906129e1565b60015b61157e573d805f811461152b576040519150601f19603f3d011682016040523d82523d5f602084013e611530565b606091505b505f81510361157657836040517f64a0ae9200000000000000000000000000000000000000000000000000000000815260040161156d9190611ed9565b60405180910390fd5b805181602001fd5b63150b7a0260e01b7bffffffffffffffffffffffffffffffffffffffffffffffffffffffff1916817bffffffffffffffffffffffffffffffffffffffffffffffffffffffff19161461160757836040517f64a0ae920000000000000000000000000000000000000000000000000000000081526004016115fe9190611ed9565b60405180910390fd5b505b50505050565b606060405180602001604052805f815250905090565b606061163082610e64565b505f61163a61160f565b90505f8151116116585760405180602001604052805f815250611683565b806116628461118a565b604051602001611673929190612504565b6040516020818303038152906040525b915050919050565b5f7f01ffc9a7000000000000000000000000000000000000000000000000000000007bffffffffffffffffffffffffffffffffffffffffffffffffffffffff1916827bffffffffffffffffffffffffffffffffffffffffffffffffffffffff1916149050919050565b5f60025f8381526020019081526020015f205f9054906101000a900473ffffffffffffffffffffffffffffffffffffffff169050919050565b808061176557505f73ffffffffffffffffffffffffffffffffffffffff168273ffffffffffffffffffffffffffffffffffffffff1614155b15611897575f61177484610e64565b90505f73ffffffffffffffffffffffffffffffffffffffff168373ffffffffffffffffffffffffffffffffffffffff16141580156117de57508273ffffffffffffffffffffffffffffffffffffffff168173ffffffffffffffffffffffffffffffffffffffff1614155b80156117f157506117ef8184610cef565b155b1561183357826040517fa9fbf51f00000000000000000000000000000000000000000000000000000000815260040161182a9190611ed9565b60405180910390fd5b811561189557838573ffffffffffffffffffffffffffffffffffffffff168273ffffffffffffffffffffffffffffffffffffffff167f8c5be1e5ebec7d5bd14f71427d1e84f3dd0314c0f7b2291e5b200ac8c7c3b92560405160405180910390a45b505b8360045f8581526020019081526020015f205f6101000a81548173ffffffffffffffffffffffffffffffffffffffff021916908373ffffffffffffffffffffffffffffffffffffffff16021790555050505050565b6118f7838383611b1b565b6119aa575f73ffffffffffffffffffffffffffffffffffffffff168373ffffffffffffffffffffffffffffffffffffffff160361196b57806040517f7e2732890000000000000000000000000000000000000000000000000000000081526004016119629190612176565b60405180910390fd5b81816040517f177e802f0000000000000000000000000000000000000000000000000000000081526004016119a1929190612a0c565b60405180910390fd5b505050565b5f805f90507a184f03e93ff9f4daa797ed6e38ed64bf6a1f0100000000000000008310611a0b577a184f03e93ff9f4daa797ed6e38ed64bf6a1f0100000000000000008381611a0157611a00612608565b5b0492506040810190505b6d04ee2d6d415b85acef81000000008310611a48576d04ee2d6d415b85acef81000000008381611a3e57611a3d612608565b5b0492506020810190505b662386f26fc100008310611a7757662386f26fc100008381611a6d57611a6c612608565b5b0492506010810190505b6305f5e1008310611aa0576305f5e1008381611a9657611a95612608565b5b0492506008810190505b6127108310611ac5576127108381611abb57611aba612608565b5b0492506004810190505b60648310611ae85760648381611ade57611add612608565b5b0492506002810190505b600a8310611af7576001810190505b80915050919050565b611b0a8383611bdb565b611b165f84848461145d565b505050565b5f8073ffffffffffffffffffffffffffffffffffffffff168373ffffffffffffffffffffffffffffffffffffffff1614158015611bd257508273ffffffffffffffffffffffffffffffffffffffff168473ffffffffffffffffffffffffffffffffffffffff161480611b935750611b928484610cef565b5b80611bd157508273ffffffffffffffffffffffffffffffffffffffff16611bb983610eea565b73ffffffffffffffffffffffffffffffffffffffff16145b5b90509392505050565b5f73ffffffffffffffffffffffffffffffffffffffff168273ffffffffffffffffffffffffffffffffffffffff1603611c4b575f6040517f64a0ae92000000000000000000000000000000000000000000000000000000008152600401611c429190611ed9565b60405180910390fd5b5f611c5783835f610f3c565b90505f73ffffffffffffffffffffffffffffffffffffffff168173ffffffffffffffffffffffffffffffffffffffff1614611cc9575f6040517f73c6ac6e000000000000000000000000000000000000000000000000000000008152600401611cc09190611ed9565b60405180910390fd5b505050565b5f604051905090565b5f80fd5b5f80fd5b5f7fffffffff0000000000000000000000000000000000000000000000000000000082169050919050565b611d1381611cdf565b8114611d1d575f80fd5b50565b5f81359050611d2e81611d0a565b92915050565b5f60208284031215611d4957611d48611cd7565b5b5f611d5684828501611d20565b91505092915050565b5f8115159050919050565b611d7381611d5f565b82525050565b5f602082019050611d8c5f830184611d6a565b92915050565b5f81519050919050565b5f82825260208201905092915050565b5f5b83811015611dc9578082015181840152602081019050611dae565b5f8484015250505050565b5f601f19601f8301169050919050565b5f611dee82611d92565b611df88185611d9c565b9350611e08818560208601611dac565b611e1181611dd4565b840191505092915050565b5f6020820190508181035f830152611e348184611de4565b905092915050565b5f819050919050565b611e4e81611e3c565b8114611e58575f80fd5b50565b5f81359050611e6981611e45565b92915050565b5f60208284031215611e8457611e83611cd7565b5b5f611e9184828501611e5b565b91505092915050565b5f73ffffffffffffffffffffffffffffffffffffffff82169050919050565b5f611ec382611e9a565b9050919050565b611ed381611eb9565b82525050565b5f602082019050611eec5f830184611eca565b92915050565b611efb81611eb9565b8114611f05575f80fd5b50565b5f81359050611f1681611ef2565b92915050565b5f8060408385031215611f3257611f31611cd7565b5b5f611f3f85828601611f08565b9250506020611f5085828601611e5b565b9150509250929050565b5f805f60608486031215611f7157611f70611cd7565b5b5f611f7e86828701611f08565b9350506020611f8f86828701611f08565b9250506040611fa086828701611e5b565b9150509250925092565b5f63ffffffff82169050919050565b611fc281611faa565b82525050565b5f602082019050611fdb5f830184611fb9565b92915050565b5f80fd5b5f80fd5b7f4e487b71000000000000000000000000000000000000000000000000000000005f52604160045260245ffd5b61201f82611dd4565b810181811067ffffffffffffffff8211171561203e5761203d611fe9565b5b80604052505050565b5f612050611cce565b905061205c8282612016565b919050565b5f67ffffffffffffffff82111561207b5761207a611fe9565b5b61208482611dd4565b9050602081019050919050565b828183375f83830152505050565b5f6120b16120ac84612061565b612047565b9050828152602081018484840111156120cd576120cc611fe5565b5b6120d8848285612091565b509392505050565b5f82601f8301126120f4576120f3611fe1565b5b813561210484826020860161209f565b91505092915050565b5f806040838503121561212357612122611cd7565b5b5f61213085828601611f08565b925050602083013567ffffffffffffffff81111561215157612150611cdb565b5b61215d858286016120e0565b9150509250929050565b61217081611e3c565b82525050565b5f6020820190506121895f830184612167565b92915050565b5f819050919050565b6121a18161218f565b82525050565b5f6020820190506121ba5f830184612198565b92915050565b5f602082840312156121d5576121d4611cd7565b5b5f6121e284828501611f08565b91505092915050565b5f6040820190506121fe5f830185611d6a565b61220b6020830184611d6a565b9392505050565b61221b81611d5f565b8114612225575f80fd5b50565b5f8135905061223681612212565b92915050565b5f806040838503121561225257612251611cd7565b5b5f61225f85828601611f08565b925050602061227085828601612228565b9150509250929050565b5f61ffff82169050919050565b6122908161227a565b82525050565b5f6020820190506122a95f830184612287565b92915050565b5f67ffffffffffffffff8211156122c9576122c8611fe9565b5b6122d282611dd4565b9050602081019050919050565b5f6122f16122ec846122af565b612047565b90508281526020810184848401111561230d5761230c611fe5565b5b612318848285612091565b509392505050565b5f82601f83011261233457612333611fe1565b5b81356123448482602086016122df565b91505092915050565b5f805f806080858703121561236557612364611cd7565b5b5f61237287828801611f08565b945050602061238387828801611f08565b935050604061239487828801611e5b565b925050606085013567ffffffffffffffff8111156123b5576123b4611cdb565b5b6123c187828801612320565b91505092959194509250565b5f80604083850312156123e3576123e2611cd7565b5b5f6123f085828601611f08565b925050602061240185828601611f08565b9150509250929050565b7f4e487b71000000000000000000000000000000000000000000000000000000005f52602260045260245ffd5b5f600282049050600182168061244f57607f821691505b6020821081036124625761246161240b565b5b50919050565b5f60608201905061247b5f830186611eca565b6124886020830185612167565b6124956040830184611eca565b949350505050565b7f4e487b71000000000000000000000000000000000000000000000000000000005f52603260045260245ffd5b5f81905092915050565b5f6124de82611d92565b6124e881856124ca565b93506124f8818560208601611dac565b80840191505092915050565b5f61250f82856124d4565b915061251b82846124d4565b91508190509392505050565b7f2e706e6700000000000000000000000000000000000000000000000000000000815250565b5f61255882846124d4565b915061256382612527565b60048201915081905092915050565b7f3b20000000000000000000000000000000000000000000000000000000000000815250565b5f6125a382846124d4565b91506125ae82612572565b60028201915081905092915050565b5f819050919050565b6125d76125d282611e3c565b6125bd565b82525050565b5f6125e882856125c6565b6020820191506125f882846125c6565b6020820191508190509392505050565b7f4e487b71000000000000000000000000000000000000000000000000000000005f52601260045260245ffd5b5f61263f82611e3c565b915061264a83611e3c565b92508261265a57612659612608565b5b828206905092915050565b7f4e487b71000000000000000000000000000000000000000000000000000000005f52601160045260245ffd5b5f61269c82611e3c565b91506126a783611e3c565b92508282019050808211156126bf576126be612665565b5b92915050565b5f819050815f5260205f209050919050565b5f6020601f8301049050919050565b5f82821b905092915050565b5f600883026127217fffffffffffffffffffffffffffffffffffffffffffffffffffffffffffffffff826126e6565b61272b86836126e6565b95508019841693508086168417925050509392505050565b5f819050919050565b5f61276661276161275c84611e3c565b612743565b611e3c565b9050919050565b5f819050919050565b61277f8361274c565b61279361278b8261276d565b8484546126f2565b825550505050565b5f90565b6127a761279b565b6127b2818484612776565b505050565b5b818110156127d5576127ca5f8261279f565b6001810190506127b8565b5050565b601f82111561281a576127eb816126c5565b6127f4846126d7565b81016020851015612803578190505b61281761280f856126d7565b8301826127b7565b50505b505050565b5f82821c905092915050565b5f61283a5f198460080261281f565b1980831691505092915050565b5f612852838361282b565b9150826002028217905092915050565b61286b82611d92565b67ffffffffffffffff81111561288457612883611fe9565b5b61288e8254612438565b6128998282856127d9565b5f60209050601f8311600181146128ca575f84156128b8578287015190505b6128c28582612847565b865550612929565b601f1984166128d8866126c5565b5f5b828110156128ff578489015182556001820191506020850194506020810190506128da565b8683101561291c5784890151612918601f89168261282b565b8355505b6001600288020188555050505b505050505050565b5f81519050919050565b5f82825260208201905092915050565b5f61295582612931565b61295f818561293b565b935061296f818560208601611dac565b61297881611dd4565b840191505092915050565b5f6080820190506129965f830187611eca565b6129a36020830186611eca565b6129b06040830185612167565b81810360608301526129c2818461294b565b905095945050505050565b5f815190506129db81611d0a565b92915050565b5f602082840312156129f6576129f5611cd7565b5b5f612a03848285016129cd565b91505092915050565b5f604082019050612a1f5f830185611eca565b612a2c6020830184612167565b939250505056fe697066733a2f2f6261667962656968726e686a7634636571766c7467336d7967696669756b657479347375687a6264377132676976686265707563766c32786e32652fa2646970667358221220a15b0f32fc0e06b7f82b7eda1dd3974d0be639b3ae093c73ac0075feb229135664736f6c63430008140033",
			"opcodes": "PUSH1 0x80 PUSH1 0x40 MSTORE PUSH1 0x40 MLOAD DUP1 PUSH2 0x2C0 ADD PUSH1 0x40 MSTORE DUP1 PUSH1 0x40 MLOAD DUP1 PUSH1 0x40 ADD PUSH1 0x40 MSTORE DUP1 PUSH1 0xA DUP2 MSTORE PUSH1 0x20 ADD PUSH32 0x302054686520466F6F6C00000000000000000000000000000000000000000000 DUP2 MSTORE POP DUP2 MSTORE PUSH1 0x20 ADD PUSH1 0x40 MLOAD DUP1 PUSH1 0x40 ADD PUSH1 0x40 MSTORE DUP1 PUSH1 0xE DUP2 MSTORE PUSH1 0x20 ADD PUSH32 0x4920546865204D6167696369616E000000000000000000000000000000000000 DUP2 MSTORE POP DUP2 MSTORE PUSH1 0x20 ADD PUSH1 0x40 MLOAD DUP1 PUSH1 0x40 ADD PUSH1 0x40 MSTORE DUP1 PUSH1 0x15 DUP2 MSTORE PUSH1 0x20 ADD PUSH32 0x4949205468652048696768205072696573746573730000000000000000000000 DUP2 MSTORE POP DUP2 MSTORE PUSH1 0x20 ADD PUSH1 0x40 MLOAD DUP1 PUSH1 0x40 ADD PUSH1 0x40 MSTORE DUP1 PUSH1 0xF DUP2 MSTORE PUSH1 0x20 ADD PUSH32 0x4949492054686520456D70726573730000000000000000000000000000000000 DUP2 MSTORE POP DUP2 MSTORE PUSH1 0x20 ADD PUSH1 0x40 MLOAD DUP1 PUSH1 0x40 ADD PUSH1 0x40 MSTORE DUP1 PUSH1 0xE DUP2 MSTORE PUSH1 0x20 ADD PUSH32 0x49562054686520456D7065726F72000000000000000000000000000000000000 DUP2 MSTORE POP DUP2 MSTORE PUSH1 0x20 ADD PUSH1 0x40 MLOAD DUP1 PUSH1 0x40 ADD PUSH1 0x40 MSTORE DUP1 PUSH1 0x10 DUP2 MSTORE PUSH1 0x20 ADD PUSH32 0x562054686520486965726F7068616E7400000000000000000000000000000000 DUP2 MSTORE POP DUP2 MSTORE PUSH1 0x20 ADD PUSH1 0x40 MLOAD DUP1 PUSH1 0x40 ADD PUSH1 0x40 MSTORE DUP1 PUSH1 0xD DUP2 MSTORE PUSH1 0x20 ADD PUSH32 0x564920546865204C6F7665727300000000000000000000000000000000000000 DUP2 MSTORE POP DUP2 MSTORE PUSH1 0x20 ADD PUSH1 0x40 MLOAD DUP1 PUSH1 0x40 ADD PUSH1 0x40 MSTORE DUP1 PUSH1 0xF DUP2 MSTORE PUSH1 0x20 ADD PUSH32 0x564949205468652043686172696F740000000000000000000000000000000000 DUP2 MSTORE POP DUP2 MSTORE PUSH1 0x20 ADD PUSH1 0x40 MLOAD DUP1 PUSH1 0x40 ADD PUSH1 0x40 MSTORE DUP1 PUSH1 0xD DUP2 MSTORE PUSH1 0x20 ADD PUSH32 0x5649494920537472656E67746800000000000000000000000000000000000000 DUP2 MSTORE POP DUP2 MSTORE PUSH1 0x20 ADD PUSH1 0x40 MLOAD DUP1 PUSH1 0x40 ADD PUSH1 0x40 MSTORE DUP1 PUSH1 0xD DUP2 MSTORE PUSH1 0x20 ADD PUSH32 0x495820546865204865726D697400000000000000000000000000000000000000 DUP2 MSTORE POP DUP2 MSTORE PUSH1 0x20 ADD PUSH1 0x40 MLOAD DUP1 PUSH1 0x40 ADD PUSH1 0x40 MSTORE DUP1 PUSH1 0x16 DUP2 MSTORE PUSH1 0x20 ADD PUSH32 0x582054686520576865656C206F6620466F7274756E6500000000000000000000 DUP2 MSTORE POP DUP2 MSTORE PUSH1 0x20 ADD PUSH1 0x40 MLOAD DUP1 PUSH1 0x40 ADD PUSH1 0x40 MSTORE DUP1 PUSH1 0xA DUP2 MSTORE PUSH1 0x20 ADD PUSH32 0x5849204A75737469636500000000000000000000000000000000000000000000 DUP2 MSTORE POP DUP2 MSTORE PUSH1 0x20 ADD PUSH1 0x40 MLOAD DUP1 PUSH1 0x40 ADD PUSH1 0x40 MSTORE DUP1 PUSH1 0x12 DUP2 MSTORE PUSH1 0x20 ADD PUSH32 0x584949205468652048616E676564204D616E0000000000000000000000000000 DUP2 MSTORE POP DUP2 MSTORE PUSH1 0x20 ADD PUSH1 0x40 MLOAD DUP1 PUSH1 0x40 ADD PUSH1 0x40 MSTORE DUP1 PUSH1 0xA DUP2 MSTORE PUSH1 0x20 ADD PUSH32 0x5849494920446561746800000000000000000000000000000000000000000000 DUP2 MSTORE POP DUP2 MSTORE PUSH1 0x20 ADD PUSH1 0x40 MLOAD DUP1 PUSH1 0x40 ADD PUSH1 0x40 MSTORE DUP1 PUSH1 0xE DUP2 MSTORE PUSH1 0x20 ADD PUSH32 0x5849562054656D706572616E6365000000000000000000000000000000000000 DUP2 MSTORE POP DUP2 MSTORE PUSH1 0x20 ADD PUSH1 0x40 MLOAD DUP1 PUSH1 0x40 ADD PUSH1 0x40 MSTORE DUP1 PUSH1 0xC DUP2 MSTORE PUSH1 0x20 ADD PUSH32 0x58562054686520446576696C0000000000000000000000000000000000000000 DUP2 MSTORE POP DUP2 MSTORE PUSH1 0x20 ADD PUSH1 0x40 MLOAD DUP1 PUSH1 0x40 ADD PUSH1 0x40 MSTORE DUP1 PUSH1 0xD DUP2 MSTORE PUSH1 0x20 ADD PUSH32 0x5856492054686520546F77657200000000000000000000000000000000000000 DUP2 MSTORE POP DUP2 MSTORE PUSH1 0x20 ADD PUSH1 0x40 MLOAD DUP1 PUSH1 0x40 ADD PUSH1 0x40 MSTORE DUP1 PUSH1 0xD DUP2 MSTORE PUSH1 0x20 ADD PUSH32 0x5856494920546865205374617200000000000000000000000000000000000000 DUP2 MSTORE POP DUP2 MSTORE PUSH1 0x20 ADD PUSH1 0x40 MLOAD DUP1 PUSH1 0x40 ADD PUSH1 0x40 MSTORE DUP1 PUSH1 0xE DUP2 MSTORE PUSH1 0x20 ADD PUSH32 0x585649494920546865204D6F6F6E000000000000000000000000000000000000 DUP2 MSTORE POP DUP2 MSTORE PUSH1 0x20 ADD PUSH1 0x40 MLOAD DUP1 PUSH1 0x40 ADD PUSH1 0x40 MSTORE DUP1 PUSH1 0xB DUP2 MSTORE PUSH1 0x20 ADD PUSH32 0x584958205468652053756E000000000000000000000000000000000000000000 DUP2 MSTORE POP DUP2 MSTORE PUSH1 0x20 ADD PUSH1 0x40 MLOAD DUP1 PUSH1 0x40 ADD PUSH1 0x40 MSTORE DUP1 PUSH1 0xC DUP2 MSTORE PUSH1 0x20 ADD PUSH32 0x5858204A756467656D656E740000000000000000000000000000000000000000 DUP2 MSTORE POP DUP2 MSTORE PUSH1 0x20 ADD PUSH1 0x40 MLOAD DUP1 PUSH1 0x40 ADD PUSH1 0x40 MSTORE DUP1 PUSH1 0xD DUP2 MSTORE PUSH1 0x20 ADD PUSH32 0x5858492054686520576F726C6400000000000000000000000000000000000000 DUP2 MSTORE POP DUP2 MSTORE POP PUSH1 0x8 SWAP1 PUSH1 0x16 PUSH3 0x532 SWAP3 SWAP2 SWAP1 PUSH3 0x660 JUMP JUMPDEST POP PUSH32 0xC799BD1E3BD4D1A41CD4968997A4E03DFD2A3C7C04B695881138580163F42887 PUSH0 SHL PUSH1 0x22 SSTORE PUSH3 0x186A0 PUSH1 0x23 PUSH0 PUSH2 0x100 EXP DUP2 SLOAD DUP2 PUSH4 0xFFFFFFFF MUL NOT AND SWAP1 DUP4 PUSH4 0xFFFFFFFF AND MUL OR SWAP1 SSTORE POP PUSH1 0x3 PUSH1 0x23 PUSH1 0x4 PUSH2 0x100 EXP DUP2 SLOAD DUP2 PUSH2 0xFFFF MUL NOT AND SWAP1 DUP4 PUSH2 0xFFFF AND MUL OR SWAP1 SSTORE POP PUSH1 0x2 PUSH1 0x23 PUSH1 0x6 PUSH2 0x100 EXP DUP2 SLOAD DUP2 PUSH4 0xFFFFFFFF MUL NOT AND SWAP1 DUP4 PUSH4 0xFFFFFFFF AND MUL OR SWAP1 SSTORE POP CALLVALUE DUP1 ISZERO PUSH3 0x5C8 JUMPI PUSH0 DUP1 REVERT JUMPDEST POP PUSH1 0x40 MLOAD DUP1 PUSH1 0x40 ADD PUSH1 0x40 MSTORE DUP1 PUSH1 0xB DUP2 MSTORE PUSH1 0x20 ADD PUSH32 0x417263616E655461726F74000000000000000000000000000000000000000000 DUP2 MSTORE POP PUSH1 0x40 MLOAD DUP1 PUSH1 0x40 ADD PUSH1 0x40 MSTORE DUP1 PUSH1 0x2 DUP2 MSTORE PUSH1 0x20 ADD PUSH32 0x4154000000000000000000000000000000000000000000000000000000000000 DUP2 MSTORE POP DUP2 PUSH0 SWAP1 DUP2 PUSH3 0x645 SWAP2 SWAP1 PUSH3 0x99E JUMP JUMPDEST POP DUP1 PUSH1 0x1 SWAP1 DUP2 PUSH3 0x657 SWAP2 SWAP1 PUSH3 0x99E JUMP JUMPDEST POP POP POP PUSH3 0xA82 JUMP JUMPDEST DUP3 PUSH1 0x16 DUP2 ADD SWAP3 DUP3 ISZERO PUSH3 0x6A0 JUMPI SWAP2 PUSH1 0x20 MUL DUP3 ADD JUMPDEST DUP3 DUP2 GT ISZERO PUSH3 0x69F JUMPI DUP3 MLOAD DUP3 SWAP1 DUP2 PUSH3 0x68E SWAP2 SWAP1 PUSH3 0x99E JUMP JUMPDEST POP SWAP2 PUSH1 0x20 ADD SWAP2 SWAP1 PUSH1 0x1 ADD SWAP1 PUSH3 0x674 JUMP JUMPDEST JUMPDEST POP SWAP1 POP PUSH3 0x6AF SWAP2 SWAP1 PUSH3 0x6B3 JUMP JUMPDEST POP SWAP1 JUMP JUMPDEST JUMPDEST DUP1 DUP3 GT ISZERO PUSH3 0x6D6 JUMPI PUSH0 DUP2 DUP2 PUSH3 0x6CC SWAP2 SWAP1 PUSH3 0x6DA JUMP JUMPDEST POP PUSH1 0x1 ADD PUSH3 0x6B4 JUMP JUMPDEST POP SWAP1 JUMP JUMPDEST POP DUP1 SLOAD PUSH3 0x6E8 SWAP1 PUSH3 0x79E JUMP JUMPDEST PUSH0 DUP3 SSTORE DUP1 PUSH1 0x1F LT PUSH3 0x6FB JUMPI POP PUSH3 0x71A JUMP JUMPDEST PUSH1 0x1F ADD PUSH1 0x20 SWAP1 DIV SWAP1 PUSH0 MSTORE PUSH1 0x20 PUSH0 KECCAK256 SWAP1 DUP2 ADD SWAP1 PUSH3 0x719 SWAP2 SWAP1 PUSH3 0x71D JUMP JUMPDEST JUMPDEST POP JUMP JUMPDEST JUMPDEST DUP1 DUP3 GT ISZERO PUSH3 0x736 JUMPI PUSH0 DUP2 PUSH0 SWAP1 SSTORE POP PUSH1 0x1 ADD PUSH3 0x71E JUMP JUMPDEST POP SWAP1 JUMP JUMPDEST PUSH0 DUP2 MLOAD SWAP1 POP SWAP2 SWAP1 POP JUMP JUMPDEST PUSH32 0x4E487B7100000000000000000000000000000000000000000000000000000000 PUSH0 MSTORE PUSH1 0x41 PUSH1 0x4 MSTORE PUSH1 0x24 PUSH0 REVERT JUMPDEST PUSH32 0x4E487B7100000000000000000000000000000000000000000000000000000000 PUSH0 MSTORE PUSH1 0x22 PUSH1 0x4 MSTORE PUSH1 0x24 PUSH0 REVERT JUMPDEST PUSH0 PUSH1 0x2 DUP3 DIV SWAP1 POP PUSH1 0x1 DUP3 AND DUP1 PUSH3 0x7B6 JUMPI PUSH1 0x7F DUP3 AND SWAP2 POP JUMPDEST PUSH1 0x20 DUP3 LT DUP2 SUB PUSH3 0x7CC JUMPI PUSH3 0x7CB PUSH3 0x771 JUMP JUMPDEST JUMPDEST POP SWAP2 SWAP1 POP JUMP JUMPDEST PUSH0 DUP2 SWAP1 POP DUP2 PUSH0 MSTORE PUSH1 0x20 PUSH0 KECCAK256 SWAP1 POP SWAP2 SWAP1 POP JUMP JUMPDEST PUSH0 PUSH1 0x20 PUSH1 0x1F DUP4 ADD DIV SWAP1 POP SWAP2 SWAP1 POP JUMP JUMPDEST PUSH0 DUP3 DUP3 SHL SWAP1 POP SWAP3 SWAP2 POP POP JUMP JUMPDEST PUSH0 PUSH1 0x8 DUP4 MUL PUSH3 0x830 PUSH32 0xFFFFFFFFFFFFFFFFFFFFFFFFFFFFFFFFFFFFFFFFFFFFFFFFFFFFFFFFFFFFFFFF DUP3 PUSH3 0x7F3 JUMP JUMPDEST PUSH3 0x83C DUP7 DUP4 PUSH3 0x7F3 JUMP JUMPDEST SWAP6 POP DUP1 NOT DUP5 AND SWAP4 POP DUP1 DUP7 AND DUP5 OR SWAP3 POP POP POP SWAP4 SWAP3 POP POP POP JUMP JUMPDEST PUSH0 DUP2 SWAP1 POP SWAP2 SWAP1 POP JUMP JUMPDEST PUSH0 DUP2 SWAP1 POP SWAP2 SWAP1 POP JUMP JUMPDEST PUSH0 PUSH3 0x886 PUSH3 0x880 PUSH3 0x87A DUP5 PUSH3 0x854 JUMP JUMPDEST PUSH3 0x85D JUMP JUMPDEST PUSH3 0x854 JUMP JUMPDEST SWAP1 POP SWAP2 SWAP1 POP JUMP JUMPDEST PUSH0 DUP2 SWAP1 POP SWAP2 SWAP1 POP JUMP JUMPDEST PUSH3 0x8A1 DUP4 PUSH3 0x866 JUMP JUMPDEST PUSH3 0x8B9 PUSH3 0x8B0 DUP3 PUSH3 0x88D JUMP JUMPDEST DUP5 DUP5 SLOAD PUSH3 0x7FF JUMP JUMPDEST DUP3 SSTORE POP POP POP POP JUMP JUMPDEST PUSH0 SWAP1 JUMP JUMPDEST PUSH3 0x8CF PUSH3 0x8C1 JUMP JUMPDEST PUSH3 0x8DC DUP2 DUP5 DUP5 PUSH3 0x896 JUMP JUMPDEST POP POP POP JUMP JUMPDEST JUMPDEST DUP2 DUP2 LT ISZERO PUSH3 0x903 JUMPI PUSH3 0x8F7 PUSH0 DUP3 PUSH3 0x8C5 JUMP JUMPDEST PUSH1 0x1 DUP2 ADD SWAP1 POP PUSH3 0x8E2 JUMP JUMPDEST POP POP JUMP JUMPDEST PUSH1 0x1F DUP3 GT ISZERO PUSH3 0x952 JUMPI PUSH3 0x91C DUP2 PUSH3 0x7D2 JUMP JUMPDEST PUSH3 0x927 DUP5 PUSH3 0x7E4 JUMP JUMPDEST DUP2 ADD PUSH1 0x20 DUP6 LT ISZERO PUSH3 0x937 JUMPI DUP2 SWAP1 POP JUMPDEST PUSH3 0x94F PUSH3 0x946 DUP6 PUSH3 0x7E4 JUMP JUMPDEST DUP4 ADD DUP3 PUSH3 0x8E1 JUMP JUMPDEST POP POP JUMPDEST POP POP POP JUMP JUMPDEST PUSH0 DUP3 DUP3 SHR SWAP1 POP SWAP3 SWAP2 POP POP JUMP JUMPDEST PUSH0 PUSH3 0x974 PUSH0 NOT DUP5 PUSH1 0x8 MUL PUSH3 0x957 JUMP JUMPDEST NOT DUP1 DUP4 AND SWAP2 POP POP SWAP3 SWAP2 POP POP JUMP JUMPDEST PUSH0 PUSH3 0x98E DUP4 DUP4 PUSH3 0x963 JUMP JUMPDEST SWAP2 POP DUP3 PUSH1 0x2 MUL DUP3 OR SWAP1 POP SWAP3 SWAP2 POP POP JUMP JUMPDEST PUSH3 0x9A9 DUP3 PUSH3 0x73A JUMP JUMPDEST PUSH8 0xFFFFFFFFFFFFFFFF DUP2 GT ISZERO PUSH3 0x9C5 JUMPI PUSH3 0x9C4 PUSH3 0x744 JUMP JUMPDEST JUMPDEST PUSH3 0x9D1 DUP3 SLOAD PUSH3 0x79E JUMP JUMPDEST PUSH3 0x9DE DUP3 DUP3 DUP6 PUSH3 0x907 JUMP JUMPDEST PUSH0 PUSH1 0x20 SWAP1 POP PUSH1 0x1F DUP4 GT PUSH1 0x1 DUP2 EQ PUSH3 0xA14 JUMPI PUSH0 DUP5 ISZERO PUSH3 0x9FF JUMPI DUP3 DUP8 ADD MLOAD SWAP1 POP JUMPDEST PUSH3 0xA0B DUP6 DUP3 PUSH3 0x981 JUMP JUMPDEST DUP7 SSTORE POP PUSH3 0xA7A JUMP JUMPDEST PUSH1 0x1F NOT DUP5 AND PUSH3 0xA24 DUP7 PUSH3 0x7D2 JUMP JUMPDEST PUSH0 JUMPDEST DUP3 DUP2 LT ISZERO PUSH3 0xA4D JUMPI DUP5 DUP10 ADD MLOAD DUP3 SSTORE PUSH1 0x1 DUP3 ADD SWAP2 POP PUSH1 0x20 DUP6 ADD SWAP5 POP PUSH1 0x20 DUP2 ADD SWAP1 POP PUSH3 0xA26 JUMP JUMPDEST DUP7 DUP4 LT ISZERO PUSH3 0xA6D JUMPI DUP5 DUP10 ADD MLOAD PUSH3 0xA69 PUSH1 0x1F DUP10 AND DUP3 PUSH3 0x963 JUMP JUMPDEST DUP4 SSTORE POP JUMPDEST PUSH1 0x1 PUSH1 0x2 DUP9 MUL ADD DUP9 SSTORE POP POP POP JUMPDEST POP POP POP POP POP POP JUMP JUMPDEST PUSH2 0x2AAC DUP1 PUSH3 0xA90 PUSH0 CODECOPY PUSH0 RETURN INVALID PUSH1 0x80 PUSH1 0x40 MSTORE CALLVALUE DUP1 ISZERO PUSH2 0xF JUMPI PUSH0 DUP1 REVERT JUMPDEST POP PUSH1 0x4 CALLDATASIZE LT PUSH2 0x171 JUMPI PUSH0 CALLDATALOAD PUSH1 0xE0 SHR DUP1 PUSH4 0x70A08231 GT PUSH2 0xDC JUMPI DUP1 PUSH4 0xA22CB465 GT PUSH2 0x95 JUMPI DUP1 PUSH4 0xB88D4FDE GT PUSH2 0x6F JUMPI DUP1 PUSH4 0xB88D4FDE EQ PUSH2 0x44E JUMPI DUP1 PUSH4 0xC87B56DD EQ PUSH2 0x46A JUMPI DUP1 PUSH4 0xE985E9C5 EQ PUSH2 0x49A JUMPI DUP1 PUSH4 0xFC2A88C3 EQ PUSH2 0x4CA JUMPI PUSH2 0x171 JUMP JUMPDEST DUP1 PUSH4 0xA22CB465 EQ PUSH2 0x3F6 JUMPI DUP1 PUSH4 0xA8F137C0 EQ PUSH2 0x412 JUMPI DUP1 PUSH4 0xB0FB162F EQ PUSH2 0x430 JUMPI PUSH2 0x171 JUMP JUMPDEST DUP1 PUSH4 0x70A08231 EQ PUSH2 0x30B JUMPI DUP1 PUSH4 0x7CCFD7FC EQ PUSH2 0x33B JUMPI DUP1 PUSH4 0x8796BA8C EQ PUSH2 0x359 JUMPI DUP1 PUSH4 0x8AC00021 EQ PUSH2 0x389 JUMPI DUP1 PUSH4 0x95D89B41 EQ PUSH2 0x3A7 JUMPI DUP1 PUSH4 0xA168FA89 EQ PUSH2 0x3C5 JUMPI PUSH2 0x171 JUMP JUMPDEST DUP1 PUSH4 0x2F5BE23E GT PUSH2 0x12E JUMPI DUP1 PUSH4 0x2F5BE23E EQ PUSH2 0x249 JUMPI DUP1 PUSH4 0x3C2B2AC1 EQ PUSH2 0x267 JUMPI DUP1 PUSH4 0x42842E0E EQ PUSH2 0x283 JUMPI DUP1 PUSH4 0x56189236 EQ PUSH2 0x29F JUMPI DUP1 PUSH4 0x61728F39 EQ PUSH2 0x2BD JUMPI DUP1 PUSH4 0x6352211E EQ PUSH2 0x2DB JUMPI PUSH2 0x171 JUMP JUMPDEST DUP1 PUSH4 0x1FFC9A7 EQ PUSH2 0x175 JUMPI DUP1 PUSH4 0x6FDDE03 EQ PUSH2 0x1A5 JUMPI DUP1 PUSH4 0x81812FC EQ PUSH2 0x1C3 JUMPI DUP1 PUSH4 0x95EA7B3 EQ PUSH2 0x1F3 JUMPI DUP1 PUSH4 0x23B872DD EQ PUSH2 0x20F JUMPI DUP1 PUSH4 0x24F74697 EQ PUSH2 0x22B JUMPI JUMPDEST PUSH0 DUP1 REVERT JUMPDEST PUSH2 0x18F PUSH1 0x4 DUP1 CALLDATASIZE SUB DUP2 ADD SWAP1 PUSH2 0x18A SWAP2 SWAP1 PUSH2 0x1D34 JUMP JUMPDEST PUSH2 0x4E8 JUMP JUMPDEST PUSH1 0x40 MLOAD PUSH2 0x19C SWAP2 SWAP1 PUSH2 0x1D79 JUMP JUMPDEST PUSH1 0x40 MLOAD DUP1 SWAP2 SUB SWAP1 RETURN JUMPDEST PUSH2 0x1AD PUSH2 0x548 JUMP JUMPDEST PUSH1 0x40 MLOAD PUSH2 0x1BA SWAP2 SWAP1 PUSH2 0x1E1C JUMP JUMPDEST PUSH1 0x40 MLOAD DUP1 SWAP2 SUB SWAP1 RETURN JUMPDEST PUSH2 0x1DD PUSH1 0x4 DUP1 CALLDATASIZE SUB DUP2 ADD SWAP1 PUSH2 0x1D8 SWAP2 SWAP1 PUSH2 0x1E6F JUMP JUMPDEST PUSH2 0x5D7 JUMP JUMPDEST PUSH1 0x40 MLOAD PUSH2 0x1EA SWAP2 SWAP1 PUSH2 0x1ED9 JUMP JUMPDEST PUSH1 0x40 MLOAD DUP1 SWAP2 SUB SWAP1 RETURN JUMPDEST PUSH2 0x20D PUSH1 0x4 DUP1 CALLDATASIZE SUB DUP2 ADD SWAP1 PUSH2 0x208 SWAP2 SWAP1 PUSH2 0x1F1C JUMP JUMPDEST PUSH2 0x5F2 JUMP JUMPDEST STOP JUMPDEST PUSH2 0x229 PUSH1 0x4 DUP1 CALLDATASIZE SUB DUP2 ADD SWAP1 PUSH2 0x224 SWAP2 SWAP1 PUSH2 0x1F5A JUMP JUMPDEST PUSH2 0x608 JUMP JUMPDEST STOP JUMPDEST PUSH2 0x233 PUSH2 0x707 JUMP JUMPDEST PUSH1 0x40 MLOAD PUSH2 0x240 SWAP2 SWAP1 PUSH2 0x1FC8 JUMP JUMPDEST PUSH1 0x40 MLOAD DUP1 SWAP2 SUB SWAP1 RETURN JUMPDEST PUSH2 0x251 PUSH2 0x71C JUMP JUMPDEST PUSH1 0x40 MLOAD PUSH2 0x25E SWAP2 SWAP1 PUSH2 0x1E1C JUMP JUMPDEST PUSH1 0x40 MLOAD DUP1 SWAP2 SUB SWAP1 RETURN JUMPDEST PUSH2 0x281 PUSH1 0x4 DUP1 CALLDATASIZE SUB DUP2 ADD SWAP1 PUSH2 0x27C SWAP2 SWAP1 PUSH2 0x210D JUMP JUMPDEST PUSH2 0x951 JUMP JUMPDEST STOP JUMPDEST PUSH2 0x29D PUSH1 0x4 DUP1 CALLDATASIZE SUB DUP2 ADD SWAP1 PUSH2 0x298 SWAP2 SWAP1 PUSH2 0x1F5A JUMP JUMPDEST PUSH2 0x981 JUMP JUMPDEST STOP JUMPDEST PUSH2 0x2A7 PUSH2 0x9A0 JUMP JUMPDEST PUSH1 0x40 MLOAD PUSH2 0x2B4 SWAP2 SWAP1 PUSH2 0x2176 JUMP JUMPDEST PUSH1 0x40 MLOAD DUP1 SWAP2 SUB SWAP1 RETURN JUMPDEST PUSH2 0x2C5 PUSH2 0x9B0 JUMP JUMPDEST PUSH1 0x40 MLOAD PUSH2 0x2D2 SWAP2 SWAP1 PUSH2 0x21A7 JUMP JUMPDEST PUSH1 0x40 MLOAD DUP1 SWAP2 SUB SWAP1 RETURN JUMPDEST PUSH2 0x2F5 PUSH1 0x4 DUP1 CALLDATASIZE SUB DUP2 ADD SWAP1 PUSH2 0x2F0 SWAP2 SWAP1 PUSH2 0x1E6F JUMP JUMPDEST PUSH2 0x9B6 JUMP JUMPDEST PUSH1 0x40 MLOAD PUSH2 0x302 SWAP2 SWAP1 PUSH2 0x1ED9 JUMP JUMPDEST PUSH1 0x40 MLOAD DUP1 SWAP2 SUB SWAP1 RETURN JUMPDEST PUSH2 0x325 PUSH1 0x4 DUP1 CALLDATASIZE SUB DUP2 ADD SWAP1 PUSH2 0x320 SWAP2 SWAP1 PUSH2 0x21C0 JUMP JUMPDEST PUSH2 0x9C7 JUMP JUMPDEST PUSH1 0x40 MLOAD PUSH2 0x332 SWAP2 SWAP1 PUSH2 0x2176 JUMP JUMPDEST PUSH1 0x40 MLOAD DUP1 SWAP2 SUB SWAP1 RETURN JUMPDEST PUSH2 0x343 PUSH2 0xA7D JUMP JUMPDEST PUSH1 0x40 MLOAD PUSH2 0x350 SWAP2 SWAP1 PUSH2 0x1FC8 JUMP JUMPDEST PUSH1 0x40 MLOAD DUP1 SWAP2 SUB SWAP1 RETURN JUMPDEST PUSH2 0x373 PUSH1 0x4 DUP1 CALLDATASIZE SUB DUP2 ADD SWAP1 PUSH2 0x36E SWAP2 SWAP1 PUSH2 0x1E6F JUMP JUMPDEST PUSH2 0xA93 JUMP JUMPDEST PUSH1 0x40 MLOAD PUSH2 0x380 SWAP2 SWAP1 PUSH2 0x2176 JUMP JUMPDEST PUSH1 0x40 MLOAD DUP1 SWAP2 SUB SWAP1 RETURN JUMPDEST PUSH2 0x391 PUSH2 0xAB3 JUMP JUMPDEST PUSH1 0x40 MLOAD PUSH2 0x39E SWAP2 SWAP1 PUSH2 0x2176 JUMP JUMPDEST PUSH1 0x40 MLOAD DUP1 SWAP2 SUB SWAP1 RETURN JUMPDEST PUSH2 0x3AF PUSH2 0xAB9 JUMP JUMPDEST PUSH1 0x40 MLOAD PUSH2 0x3BC SWAP2 SWAP1 PUSH2 0x1E1C JUMP JUMPDEST PUSH1 0x40 MLOAD DUP1 SWAP2 SUB SWAP1 RETURN JUMPDEST PUSH2 0x3DF PUSH1 0x4 DUP1 CALLDATASIZE SUB DUP2 ADD SWAP1 PUSH2 0x3DA SWAP2 SWAP1 PUSH2 0x1E6F JUMP JUMPDEST PUSH2 0xB49 JUMP JUMPDEST PUSH1 0x40 MLOAD PUSH2 0x3ED SWAP3 SWAP2 SWAP1 PUSH2 0x21EB JUMP JUMPDEST PUSH1 0x40 MLOAD DUP1 SWAP2 SUB SWAP1 RETURN JUMPDEST PUSH2 0x410 PUSH1 0x4 DUP1 CALLDATASIZE SUB DUP2 ADD SWAP1 PUSH2 0x40B SWAP2 SWAP1 PUSH2 0x223C JUMP JUMPDEST PUSH2 0xB81 JUMP JUMPDEST STOP JUMPDEST PUSH2 0x41A PUSH2 0xB97 JUMP JUMPDEST PUSH1 0x40 MLOAD PUSH2 0x427 SWAP2 SWAP1 PUSH2 0x1E1C JUMP JUMPDEST PUSH1 0x40 MLOAD DUP1 SWAP2 SUB SWAP1 RETURN JUMPDEST PUSH2 0x438 PUSH2 0xBB3 JUMP JUMPDEST PUSH1 0x40 MLOAD PUSH2 0x445 SWAP2 SWAP1 PUSH2 0x2296 JUMP JUMPDEST PUSH1 0x40 MLOAD DUP1 SWAP2 SUB SWAP1 RETURN JUMPDEST PUSH2 0x468 PUSH1 0x4 DUP1 CALLDATASIZE SUB DUP2 ADD SWAP1 PUSH2 0x463 SWAP2 SWAP1 PUSH2 0x234D JUMP JUMPDEST PUSH2 0xBC7 JUMP JUMPDEST STOP JUMPDEST PUSH2 0x484 PUSH1 0x4 DUP1 CALLDATASIZE SUB DUP2 ADD SWAP1 PUSH2 0x47F SWAP2 SWAP1 PUSH2 0x1E6F JUMP JUMPDEST PUSH2 0xBE4 JUMP JUMPDEST PUSH1 0x40 MLOAD PUSH2 0x491 SWAP2 SWAP1 PUSH2 0x1E1C JUMP JUMPDEST PUSH1 0x40 MLOAD DUP1 SWAP2 SUB SWAP1 RETURN JUMPDEST PUSH2 0x4B4 PUSH1 0x4 DUP1 CALLDATASIZE SUB DUP2 ADD SWAP1 PUSH2 0x4AF SWAP2 SWAP1 PUSH2 0x23CD JUMP JUMPDEST PUSH2 0xCEF JUMP JUMPDEST PUSH1 0x40 MLOAD PUSH2 0x4C1 SWAP2 SWAP1 PUSH2 0x1D79 JUMP JUMPDEST PUSH1 0x40 MLOAD DUP1 SWAP2 SUB SWAP1 RETURN JUMPDEST PUSH2 0x4D2 PUSH2 0xD7D JUMP JUMPDEST PUSH1 0x40 MLOAD PUSH2 0x4DF SWAP2 SWAP1 PUSH2 0x2176 JUMP JUMPDEST PUSH1 0x40 MLOAD DUP1 SWAP2 SUB SWAP1 RETURN JUMPDEST PUSH0 PUSH4 0x49064906 PUSH1 0xE0 SHL PUSH28 0xFFFFFFFFFFFFFFFFFFFFFFFFFFFFFFFFFFFFFFFFFFFFFFFFFFFFFFFF NOT AND DUP3 PUSH28 0xFFFFFFFFFFFFFFFFFFFFFFFFFFFFFFFFFFFFFFFFFFFFFFFFFFFFFFFF NOT AND EQ DUP1 PUSH2 0x541 JUMPI POP PUSH2 0x540 DUP3 PUSH2 0xD83 JUMP JUMPDEST JUMPDEST SWAP1 POP SWAP2 SWAP1 POP JUMP JUMPDEST PUSH1 0x60 PUSH0 DUP1 SLOAD PUSH2 0x556 SWAP1 PUSH2 0x2438 JUMP JUMPDEST DUP1 PUSH1 0x1F ADD PUSH1 0x20 DUP1 SWAP2 DIV MUL PUSH1 0x20 ADD PUSH1 0x40 MLOAD SWAP1 DUP2 ADD PUSH1 0x40 MSTORE DUP1 SWAP3 SWAP2 SWAP1 DUP2 DUP2 MSTORE PUSH1 0x20 ADD DUP3 DUP1 SLOAD PUSH2 0x582 SWAP1 PUSH2 0x2438 JUMP JUMPDEST DUP1 ISZERO PUSH2 0x5CD JUMPI DUP1 PUSH1 0x1F LT PUSH2 0x5A4 JUMPI PUSH2 0x100 DUP1 DUP4 SLOAD DIV MUL DUP4 MSTORE SWAP2 PUSH1 0x20 ADD SWAP2 PUSH2 0x5CD JUMP JUMPDEST DUP3 ADD SWAP2 SWAP1 PUSH0 MSTORE PUSH1 0x20 PUSH0 KECCAK256 SWAP1 JUMPDEST DUP2 SLOAD DUP2 MSTORE SWAP1 PUSH1 0x1 ADD SWAP1 PUSH1 0x20 ADD DUP1 DUP4 GT PUSH2 0x5B0 JUMPI DUP3 SWAP1 SUB PUSH1 0x1F AND DUP3 ADD SWAP2 JUMPDEST POP POP POP POP POP SWAP1 POP SWAP1 JUMP JUMPDEST PUSH0 PUSH2 0x5E1 DUP3 PUSH2 0xE64 JUMP JUMPDEST POP PUSH2 0x5EB DUP3 PUSH2 0xEEA JUMP JUMPDEST SWAP1 POP SWAP2 SWAP1 POP JUMP JUMPDEST PUSH2 0x604 DUP3 DUP3 PUSH2 0x5FF PUSH2 0xF23 JUMP JUMPDEST PUSH2 0xF2A JUMP JUMPDEST POP POP JUMP JUMPDEST PUSH0 PUSH20 0xFFFFFFFFFFFFFFFFFFFFFFFFFFFFFFFFFFFFFFFF AND DUP3 PUSH20 0xFFFFFFFFFFFFFFFFFFFFFFFFFFFFFFFFFFFFFFFF AND SUB PUSH2 0x678 JUMPI PUSH0 PUSH1 0x40 MLOAD PUSH32 0x64A0AE9200000000000000000000000000000000000000000000000000000000 DUP2 MSTORE PUSH1 0x4 ADD PUSH2 0x66F SWAP2 SWAP1 PUSH2 0x1ED9 JUMP JUMPDEST PUSH1 0x40 MLOAD DUP1 SWAP2 SUB SWAP1 REVERT JUMPDEST PUSH0 PUSH2 0x68B DUP4 DUP4 PUSH2 0x686 PUSH2 0xF23 JUMP JUMPDEST PUSH2 0xF3C JUMP JUMPDEST SWAP1 POP DUP4 PUSH20 0xFFFFFFFFFFFFFFFFFFFFFFFFFFFFFFFFFFFFFFFF AND DUP2 PUSH20 0xFFFFFFFFFFFFFFFFFFFFFFFFFFFFFFFFFFFFFFFF AND EQ PUSH2 0x701 JUMPI DUP4 DUP3 DUP3 PUSH1 0x40 MLOAD PUSH32 0x64283D7B00000000000000000000000000000000000000000000000000000000 DUP2 MSTORE PUSH1 0x4 ADD PUSH2 0x6F8 SWAP4 SWAP3 SWAP2 SWAP1 PUSH2 0x2468 JUMP JUMPDEST PUSH1 0x40 MLOAD DUP1 SWAP2 SUB SWAP1 REVERT JUMPDEST POP POP POP POP JUMP JUMPDEST PUSH1 0x23 PUSH0 SWAP1 SLOAD SWAP1 PUSH2 0x100 EXP SWAP1 DIV PUSH4 0xFFFFFFFF AND DUP2 JUMP JUMPDEST PUSH1 0x60 PUSH0 PUSH2 0x729 PUSH1 0x16 PUSH2 0x1147 JUMP JUMPDEST SWAP1 POP PUSH0 PUSH1 0x8 DUP3 PUSH1 0x16 DUP2 LT PUSH2 0x740 JUMPI PUSH2 0x73F PUSH2 0x249D JUMP JUMPDEST JUMPDEST ADD DUP1 SLOAD PUSH2 0x74C SWAP1 PUSH2 0x2438 JUMP JUMPDEST DUP1 PUSH1 0x1F ADD PUSH1 0x20 DUP1 SWAP2 DIV MUL PUSH1 0x20 ADD PUSH1 0x40 MLOAD SWAP1 DUP2 ADD PUSH1 0x40 MSTORE DUP1 SWAP3 SWAP2 SWAP1 DUP2 DUP2 MSTORE PUSH1 0x20 ADD DUP3 DUP1 SLOAD PUSH2 0x778 SWAP1 PUSH2 0x2438 JUMP JUMPDEST DUP1 ISZERO PUSH2 0x7C3 JUMPI DUP1 PUSH1 0x1F LT PUSH2 0x79A JUMPI PUSH2 0x100 DUP1 DUP4 SLOAD DIV MUL DUP4 MSTORE SWAP2 PUSH1 0x20 ADD SWAP2 PUSH2 0x7C3 JUMP JUMPDEST DUP3 ADD SWAP2 SWAP1 PUSH0 MSTORE PUSH1 0x20 PUSH0 KECCAK256 SWAP1 JUMPDEST DUP2 SLOAD DUP2 MSTORE SWAP1 PUSH1 0x1 ADD SWAP1 PUSH1 0x20 ADD DUP1 DUP4 GT PUSH2 0x7A6 JUMPI DUP3 SWAP1 SUB PUSH1 0x1F AND DUP3 ADD SWAP2 JUMPDEST POP POP POP POP POP SWAP1 POP PUSH1 0x60 PUSH0 PUSH2 0x7D7 PUSH1 0x2 PUSH2 0x1147 JUMP JUMPDEST SUB PUSH2 0x819 JUMPI PUSH1 0x40 MLOAD DUP1 PUSH1 0x40 ADD PUSH1 0x40 MSTORE DUP1 PUSH1 0x7 DUP2 MSTORE PUSH1 0x20 ADD PUSH32 0x7265766572736500000000000000000000000000000000000000000000000000 DUP2 MSTORE POP SWAP1 POP PUSH2 0x852 JUMP JUMPDEST PUSH1 0x40 MLOAD DUP1 PUSH1 0x40 ADD PUSH1 0x40 MSTORE DUP1 PUSH1 0x7 DUP2 MSTORE PUSH1 0x20 ADD PUSH32 0x7570726967687400000000000000000000000000000000000000000000000000 DUP2 MSTORE POP SWAP1 POP JUMPDEST PUSH0 PUSH1 0x40 MLOAD DUP1 PUSH1 0x80 ADD PUSH1 0x40 MSTORE DUP1 PUSH1 0x43 DUP2 MSTORE PUSH1 0x20 ADD PUSH2 0x2A34 PUSH1 0x43 SWAP2 CODECOPY PUSH2 0x875 DUP6 PUSH2 0x118A JUMP JUMPDEST PUSH1 0x40 MLOAD PUSH1 0x20 ADD PUSH2 0x886 SWAP3 SWAP2 SWAP1 PUSH2 0x2504 JUMP JUMPDEST PUSH1 0x40 MLOAD PUSH1 0x20 DUP2 DUP4 SUB SUB DUP2 MSTORE SWAP1 PUSH1 0x40 MSTORE SWAP1 POP DUP1 PUSH1 0x40 MLOAD PUSH1 0x20 ADD PUSH2 0x8A8 SWAP2 SWAP1 PUSH2 0x254D JUMP JUMPDEST PUSH1 0x40 MLOAD PUSH1 0x20 DUP2 DUP4 SUB SUB DUP2 MSTORE SWAP1 PUSH1 0x40 MSTORE SWAP1 POP PUSH0 DUP4 PUSH1 0x40 MLOAD PUSH1 0x20 ADD PUSH2 0x8CB SWAP2 SWAP1 PUSH2 0x2598 JUMP JUMPDEST PUSH1 0x40 MLOAD PUSH1 0x20 DUP2 DUP4 SUB SUB DUP2 MSTORE SWAP1 PUSH1 0x40 MSTORE SWAP1 POP DUP1 DUP4 PUSH1 0x40 MLOAD PUSH1 0x20 ADD PUSH2 0x8EF SWAP3 SWAP2 SWAP1 PUSH2 0x2504 JUMP JUMPDEST PUSH1 0x40 MLOAD PUSH1 0x20 DUP2 DUP4 SUB SUB DUP2 MSTORE SWAP1 PUSH1 0x40 MSTORE SWAP1 POP DUP1 PUSH1 0x40 MLOAD PUSH1 0x20 ADD PUSH2 0x911 SWAP2 SWAP1 PUSH2 0x2598 JUMP JUMPDEST PUSH1 0x40 MLOAD PUSH1 0x20 DUP2 DUP4 SUB SUB DUP2 MSTORE SWAP1 PUSH1 0x40 MSTORE SWAP1 POP DUP1 DUP3 PUSH1 0x40 MLOAD PUSH1 0x20 ADD PUSH2 0x935 SWAP3 SWAP2 SWAP1 PUSH2 0x2504 JUMP JUMPDEST PUSH1 0x40 MLOAD PUSH1 0x20 DUP2 DUP4 SUB SUB DUP2 MSTORE SWAP1 PUSH1 0x40 MSTORE SWAP1 POP DUP1 SWAP6 POP POP POP POP POP POP SWAP1 JUMP JUMPDEST PUSH0 PUSH2 0x95C PUSH1 0x7 PUSH2 0x1254 JUMP JUMPDEST SWAP1 POP PUSH2 0x968 PUSH1 0x7 PUSH2 0x1260 JUMP JUMPDEST PUSH2 0x972 DUP4 DUP3 PUSH2 0x127D JUMP JUMPDEST PUSH2 0x97C DUP2 DUP4 PUSH2 0x129A JUMP JUMPDEST POP POP POP JUMP JUMPDEST PUSH2 0x99B DUP4 DUP4 DUP4 PUSH1 0x40 MLOAD DUP1 PUSH1 0x20 ADD PUSH1 0x40 MSTORE DUP1 PUSH0 DUP2 MSTORE POP PUSH2 0xBC7 JUMP JUMPDEST POP POP POP JUMP JUMPDEST PUSH0 PUSH2 0x9AB PUSH1 0x7 PUSH2 0x1254 JUMP JUMPDEST SWAP1 POP SWAP1 JUMP JUMPDEST PUSH1 0x22 SLOAD DUP2 JUMP JUMPDEST PUSH0 PUSH2 0x9C0 DUP3 PUSH2 0xE64 JUMP JUMPDEST SWAP1 POP SWAP2 SWAP1 POP JUMP JUMPDEST PUSH0 DUP1 PUSH20 0xFFFFFFFFFFFFFFFFFFFFFFFFFFFFFFFFFFFFFFFF AND DUP3 PUSH20 0xFFFFFFFFFFFFFFFFFFFFFFFFFFFFFFFFFFFFFFFF AND SUB PUSH2 0xA38 JUMPI PUSH0 PUSH1 0x40 MLOAD PUSH32 0x89C62B6400000000000000000000000000000000000000000000000000000000 DUP2 MSTORE PUSH1 0x4 ADD PUSH2 0xA2F SWAP2 SWAP1 PUSH2 0x1ED9 JUMP JUMPDEST PUSH1 0x40 MLOAD DUP1 SWAP2 SUB SWAP1 REVERT JUMPDEST PUSH1 0x3 PUSH0 DUP4 PUSH20 0xFFFFFFFFFFFFFFFFFFFFFFFFFFFFFFFFFFFFFFFF AND PUSH20 0xFFFFFFFFFFFFFFFFFFFFFFFFFFFFFFFFFFFFFFFF AND DUP2 MSTORE PUSH1 0x20 ADD SWAP1 DUP2 MSTORE PUSH1 0x20 ADD PUSH0 KECCAK256 SLOAD SWAP1 POP SWAP2 SWAP1 POP JUMP JUMPDEST PUSH1 0x23 PUSH1 0x6 SWAP1 SLOAD SWAP1 PUSH2 0x100 EXP SWAP1 DIV PUSH4 0xFFFFFFFF AND DUP2 JUMP JUMPDEST PUSH1 0x20 DUP2 DUP2 SLOAD DUP2 LT PUSH2 0xAA2 JUMPI PUSH0 DUP1 REVERT JUMPDEST SWAP1 PUSH0 MSTORE PUSH1 0x20 PUSH0 KECCAK256 ADD PUSH0 SWAP2 POP SWAP1 POP SLOAD DUP2 JUMP JUMPDEST PUSH1 0x1F SLOAD DUP2 JUMP JUMPDEST PUSH1 0x60 PUSH1 0x1 DUP1 SLOAD PUSH2 0xAC8 SWAP1 PUSH2 0x2438 JUMP JUMPDEST DUP1 PUSH1 0x1F ADD PUSH1 0x20 DUP1 SWAP2 DIV MUL PUSH1 0x20 ADD PUSH1 0x40 MLOAD SWAP1 DUP2 ADD PUSH1 0x40 MSTORE DUP1 SWAP3 SWAP2 SWAP1 DUP2 DUP2 MSTORE PUSH1 0x20 ADD DUP3 DUP1 SLOAD PUSH2 0xAF4 SWAP1 PUSH2 0x2438 JUMP JUMPDEST DUP1 ISZERO PUSH2 0xB3F JUMPI DUP1 PUSH1 0x1F LT PUSH2 0xB16 JUMPI PUSH2 0x100 DUP1 DUP4 SLOAD DIV MUL DUP4 MSTORE SWAP2 PUSH1 0x20 ADD SWAP2 PUSH2 0xB3F JUMP JUMPDEST DUP3 ADD SWAP2 SWAP1 PUSH0 MSTORE PUSH1 0x20 PUSH0 KECCAK256 SWAP1 JUMPDEST DUP2 SLOAD DUP2 MSTORE SWAP1 PUSH1 0x1 ADD SWAP1 PUSH1 0x20 ADD DUP1 DUP4 GT PUSH2 0xB22 JUMPI DUP3 SWAP1 SUB PUSH1 0x1F AND DUP3 ADD SWAP2 JUMPDEST POP POP POP POP POP SWAP1 POP SWAP1 JUMP JUMPDEST PUSH1 0x1E PUSH1 0x20 MSTORE DUP1 PUSH0 MSTORE PUSH1 0x40 PUSH0 KECCAK256 PUSH0 SWAP2 POP SWAP1 POP DUP1 PUSH0 ADD PUSH0 SWAP1 SLOAD SWAP1 PUSH2 0x100 EXP SWAP1 DIV PUSH1 0xFF AND SWAP1 DUP1 PUSH0 ADD PUSH1 0x1 SWAP1 SLOAD SWAP1 PUSH2 0x100 EXP SWAP1 DIV PUSH1 0xFF AND SWAP1 POP DUP3 JUMP JUMPDEST PUSH2 0xB93 PUSH2 0xB8C PUSH2 0xF23 JUMP JUMPDEST DUP4 DUP4 PUSH2 0x12F4 JUMP JUMPDEST POP POP JUMP JUMPDEST PUSH1 0x40 MLOAD DUP1 PUSH1 0x80 ADD PUSH1 0x40 MSTORE DUP1 PUSH1 0x43 DUP2 MSTORE PUSH1 0x20 ADD PUSH2 0x2A34 PUSH1 0x43 SWAP2 CODECOPY DUP2 JUMP JUMPDEST PUSH1 0x23 PUSH1 0x4 SWAP1 SLOAD SWAP1 PUSH2 0x100 EXP SWAP1 DIV PUSH2 0xFFFF AND DUP2 JUMP JUMPDEST PUSH2 0xBD2 DUP5 DUP5 DUP5 PUSH2 0x608 JUMP JUMPDEST PUSH2 0xBDE DUP5 DUP5 DUP5 DUP5 PUSH2 0x145D JUMP JUMPDEST POP POP POP POP JUMP JUMPDEST PUSH1 0x60 PUSH2 0xBEF DUP3 PUSH2 0xE64 JUMP JUMPDEST POP PUSH0 PUSH1 0x6 PUSH0 DUP5 DUP2 MSTORE PUSH1 0x20 ADD SWAP1 DUP2 MSTORE PUSH1 0x20 ADD PUSH0 KECCAK256 DUP1 SLOAD PUSH2 0xC0D SWAP1 PUSH2 0x2438 JUMP JUMPDEST DUP1 PUSH1 0x1F ADD PUSH1 0x20 DUP1 SWAP2 DIV MUL PUSH1 0x20 ADD PUSH1 0x40 MLOAD SWAP1 DUP2 ADD PUSH1 0x40 MSTORE DUP1 SWAP3 SWAP2 SWAP1 DUP2 DUP2 MSTORE PUSH1 0x20 ADD DUP3 DUP1 SLOAD PUSH2 0xC39 SWAP1 PUSH2 0x2438 JUMP JUMPDEST DUP1 ISZERO PUSH2 0xC84 JUMPI DUP1 PUSH1 0x1F LT PUSH2 0xC5B JUMPI PUSH2 0x100 DUP1 DUP4 SLOAD DIV MUL DUP4 MSTORE SWAP2 PUSH1 0x20 ADD SWAP2 PUSH2 0xC84 JUMP JUMPDEST DUP3 ADD SWAP2 SWAP1 PUSH0 MSTORE PUSH1 0x20 PUSH0 KECCAK256 SWAP1 JUMPDEST DUP2 SLOAD DUP2 MSTORE SWAP1 PUSH1 0x1 ADD SWAP1 PUSH1 0x20 ADD DUP1 DUP4 GT PUSH2 0xC67 JUMPI DUP3 SWAP1 SUB PUSH1 0x1F AND DUP3 ADD SWAP2 JUMPDEST POP POP POP POP POP SWAP1 POP PUSH0 PUSH2 0xC94 PUSH2 0x160F JUMP JUMPDEST SWAP1 POP PUSH0 DUP2 MLOAD SUB PUSH2 0xCA8 JUMPI DUP2 SWAP3 POP POP POP PUSH2 0xCEA JUMP JUMPDEST PUSH0 DUP3 MLOAD GT ISZERO PUSH2 0xCDC JUMPI DUP1 DUP3 PUSH1 0x40 MLOAD PUSH1 0x20 ADD PUSH2 0xCC4 SWAP3 SWAP2 SWAP1 PUSH2 0x2504 JUMP JUMPDEST PUSH1 0x40 MLOAD PUSH1 0x20 DUP2 DUP4 SUB SUB DUP2 MSTORE SWAP1 PUSH1 0x40 MSTORE SWAP3 POP POP POP PUSH2 0xCEA JUMP JUMPDEST PUSH2 0xCE5 DUP5 PUSH2 0x1625 JUMP JUMPDEST SWAP3 POP POP POP JUMPDEST SWAP2 SWAP1 POP JUMP JUMPDEST PUSH0 PUSH1 0x5 PUSH0 DUP5 PUSH20 0xFFFFFFFFFFFFFFFFFFFFFFFFFFFFFFFFFFFFFFFF AND PUSH20 0xFFFFFFFFFFFFFFFFFFFFFFFFFFFFFFFFFFFFFFFF AND DUP2 MSTORE PUSH1 0x20 ADD SWAP1 DUP2 MSTORE PUSH1 0x20 ADD PUSH0 KECCAK256 PUSH0 DUP4 PUSH20 0xFFFFFFFFFFFFFFFFFFFFFFFFFFFFFFFFFFFFFFFF AND PUSH20 0xFFFFFFFFFFFFFFFFFFFFFFFFFFFFFFFFFFFFFFFF AND DUP2 MSTORE PUSH1 0x20 ADD SWAP1 DUP2 MSTORE PUSH1 0x20 ADD PUSH0 KECCAK256 PUSH0 SWAP1 SLOAD SWAP1 PUSH2 0x100 EXP SWAP1 DIV PUSH1 0xFF AND SWAP1 POP SWAP3 SWAP2 POP POP JUMP JUMPDEST PUSH1 0x21 SLOAD DUP2 JUMP JUMPDEST PUSH0 PUSH32 0x80AC58CD00000000000000000000000000000000000000000000000000000000 PUSH28 0xFFFFFFFFFFFFFFFFFFFFFFFFFFFFFFFFFFFFFFFFFFFFFFFFFFFFFFFF NOT AND DUP3 PUSH28 0xFFFFFFFFFFFFFFFFFFFFFFFFFFFFFFFFFFFFFFFFFFFFFFFFFFFFFFFF NOT AND EQ DUP1 PUSH2 0xE4D JUMPI POP PUSH32 0x5B5E139F00000000000000000000000000000000000000000000000000000000 PUSH28 0xFFFFFFFFFFFFFFFFFFFFFFFFFFFFFFFFFFFFFFFFFFFFFFFFFFFFFFFF NOT AND DUP3 PUSH28 0xFFFFFFFFFFFFFFFFFFFFFFFFFFFFFFFFFFFFFFFFFFFFFFFFFFFFFFFF NOT AND EQ JUMPDEST DUP1 PUSH2 0xE5D JUMPI POP PUSH2 0xE5C DUP3 PUSH2 0x168B JUMP JUMPDEST JUMPDEST SWAP1 POP SWAP2 SWAP1 POP JUMP JUMPDEST PUSH0 DUP1 PUSH2 0xE6F DUP4 PUSH2 0x16F4 JUMP JUMPDEST SWAP1 POP PUSH0 PUSH20 0xFFFFFFFFFFFFFFFFFFFFFFFFFFFFFFFFFFFFFFFF AND DUP2 PUSH20 0xFFFFFFFFFFFFFFFFFFFFFFFFFFFFFFFFFFFFFFFF AND SUB PUSH2 0xEE1 JUMPI DUP3 PUSH1 0x40 MLOAD PUSH32 0x7E27328900000000000000000000000000000000000000000000000000000000 DUP2 MSTORE PUSH1 0x4 ADD PUSH2 0xED8 SWAP2 SWAP1 PUSH2 0x2176 JUMP JUMPDEST PUSH1 0x40 MLOAD DUP1 SWAP2 SUB SWAP1 REVERT JUMPDEST DUP1 SWAP2 POP POP SWAP2 SWAP1 POP JUMP JUMPDEST PUSH0 PUSH1 0x4 PUSH0 DUP4 DUP2 MSTORE PUSH1 0x20 ADD SWAP1 DUP2 MSTORE PUSH1 0x20 ADD PUSH0 KECCAK256 PUSH0 SWAP1 SLOAD SWAP1 PUSH2 0x100 EXP SWAP1 DIV PUSH20 0xFFFFFFFFFFFFFFFFFFFFFFFFFFFFFFFFFFFFFFFF AND SWAP1 POP SWAP2 SWAP1 POP JUMP JUMPDEST PUSH0 CALLER SWAP1 POP SWAP1 JUMP JUMPDEST PUSH2 0xF37 DUP4 DUP4 DUP4 PUSH1 0x1 PUSH2 0x172D JUMP JUMPDEST POP POP POP JUMP JUMPDEST PUSH0 DUP1 PUSH2 0xF47 DUP5 PUSH2 0x16F4 JUMP JUMPDEST SWAP1 POP PUSH0 PUSH20 0xFFFFFFFFFFFFFFFFFFFFFFFFFFFFFFFFFFFFFFFF AND DUP4 PUSH20 0xFFFFFFFFFFFFFFFFFFFFFFFFFFFFFFFFFFFFFFFF AND EQ PUSH2 0xF88 JUMPI PUSH2 0xF87 DUP2 DUP5 DUP7 PUSH2 0x18EC JUMP JUMPDEST JUMPDEST PUSH0 PUSH20 0xFFFFFFFFFFFFFFFFFFFFFFFFFFFFFFFFFFFFFFFF AND DUP2 PUSH20 0xFFFFFFFFFFFFFFFFFFFFFFFFFFFFFFFFFFFFFFFF AND EQ PUSH2 0x1013 JUMPI PUSH2 0xFC7 PUSH0 DUP6 PUSH0 DUP1 PUSH2 0x172D JUMP JUMPDEST PUSH1 0x1 PUSH1 0x3 PUSH0 DUP4 PUSH20 0xFFFFFFFFFFFFFFFFFFFFFFFFFFFFFFFFFFFFFFFF AND PUSH20 0xFFFFFFFFFFFFFFFFFFFFFFFFFFFFFFFFFFFFFFFF AND DUP2 MSTORE PUSH1 0x20 ADD SWAP1 DUP2 MSTORE PUSH1 0x20 ADD PUSH0 KECCAK256 PUSH0 DUP3 DUP3 SLOAD SUB SWAP3 POP POP DUP2 SWAP1 SSTORE POP JUMPDEST PUSH0 PUSH20 0xFFFFFFFFFFFFFFFFFFFFFFFFFFFFFFFFFFFFFFFF AND DUP6 PUSH20 0xFFFFFFFFFFFFFFFFFFFFFFFFFFFFFFFFFFFFFFFF AND EQ PUSH2 0x1092 JUMPI PUSH1 0x1 PUSH1 0x3 PUSH0 DUP8 PUSH20 0xFFFFFFFFFFFFFFFFFFFFFFFFFFFFFFFFFFFFFFFF AND PUSH20 0xFFFFFFFFFFFFFFFFFFFFFFFFFFFFFFFFFFFFFFFF AND DUP2 MSTORE PUSH1 0x20 ADD SWAP1 DUP2 MSTORE PUSH1 0x20 ADD PUSH0 KECCAK256 PUSH0 DUP3 DUP3 SLOAD ADD SWAP3 POP POP DUP2 SWAP1 SSTORE POP JUMPDEST DUP5 PUSH1 0x2 PUSH0 DUP7 DUP2 MSTORE PUSH1 0x20 ADD SWAP1 DUP2 MSTORE PUSH1 0x20 ADD PUSH0 KECCAK256 PUSH0 PUSH2 0x100 EXP DUP2 SLOAD DUP2 PUSH20 0xFFFFFFFFFFFFFFFFFFFFFFFFFFFFFFFFFFFFFFFF MUL NOT AND SWAP1 DUP4 PUSH20 0xFFFFFFFFFFFFFFFFFFFFFFFFFFFFFFFFFFFFFFFF AND MUL OR SWAP1 SSTORE POP DUP4 DUP6 PUSH20 0xFFFFFFFFFFFFFFFFFFFFFFFFFFFFFFFFFFFFFFFF AND DUP3 PUSH20 0xFFFFFFFFFFFFFFFFFFFFFFFFFFFFFFFFFFFFFFFF AND PUSH32 0xDDF252AD1BE2C89B69C2B068FC378DAA952BA7F163C4A11628F55A4DF523B3EF PUSH1 0x40 MLOAD PUSH1 0x40 MLOAD DUP1 SWAP2 SUB SWAP1 LOG4 DUP1 SWAP2 POP POP SWAP4 SWAP3 POP POP POP JUMP JUMPDEST PUSH0 DUP1 PREVRANDAO TIMESTAMP PUSH1 0x40 MLOAD PUSH1 0x20 ADD PUSH2 0x115C SWAP3 SWAP2 SWAP1 PUSH2 0x25DD JUMP JUMPDEST PUSH1 0x40 MLOAD PUSH1 0x20 DUP2 DUP4 SUB SUB DUP2 MSTORE SWAP1 PUSH1 0x40 MSTORE DUP1 MLOAD SWAP1 PUSH1 0x20 ADD KECCAK256 PUSH0 SHR SWAP1 POP DUP3 DUP2 PUSH2 0x1182 SWAP2 SWAP1 PUSH2 0x2635 JUMP JUMPDEST SWAP2 POP POP SWAP2 SWAP1 POP JUMP JUMPDEST PUSH1 0x60 PUSH0 PUSH1 0x1 PUSH2 0x1198 DUP5 PUSH2 0x19AF JUMP JUMPDEST ADD SWAP1 POP PUSH0 DUP2 PUSH8 0xFFFFFFFFFFFFFFFF DUP2 GT ISZERO PUSH2 0x11B6 JUMPI PUSH2 0x11B5 PUSH2 0x1FE9 JUMP JUMPDEST JUMPDEST PUSH1 0x40 MLOAD SWAP1 DUP1 DUP3 MSTORE DUP1 PUSH1 0x1F ADD PUSH1 0x1F NOT AND PUSH1 0x20 ADD DUP3 ADD PUSH1 0x40 MSTORE DUP1 ISZERO PUSH2 0x11E8 JUMPI DUP2 PUSH1 0x20 ADD PUSH1 0x1 DUP3 MUL DUP1 CALLDATASIZE DUP4 CALLDATACOPY DUP1 DUP3 ADD SWAP2 POP POP SWAP1 POP JUMPDEST POP SWAP1 POP PUSH0 DUP3 PUSH1 0x20 ADD DUP3 ADD SWAP1 POP JUMPDEST PUSH1 0x1 ISZERO PUSH2 0x1249 JUMPI DUP1 DUP1 PUSH1 0x1 SWAP1 SUB SWAP2 POP POP PUSH32 0x3031323334353637383961626364656600000000000000000000000000000000 PUSH1 0xA DUP7 MOD BYTE DUP2 MSTORE8 PUSH1 0xA DUP6 DUP2 PUSH2 0x123E JUMPI PUSH2 0x123D PUSH2 0x2608 JUMP JUMPDEST JUMPDEST DIV SWAP5 POP PUSH0 DUP6 SUB PUSH2 0x11F5 JUMPI JUMPDEST DUP2 SWAP4 POP POP POP POP SWAP2 SWAP1 POP JUMP JUMPDEST PUSH0 DUP2 PUSH0 ADD SLOAD SWAP1 POP SWAP2 SWAP1 POP JUMP JUMPDEST PUSH1 0x1 DUP2 PUSH0 ADD PUSH0 DUP3 DUP3 SLOAD PUSH2 0x1273 SWAP2 SWAP1 PUSH2 0x2692 JUMP JUMPDEST SWAP3 POP POP DUP2 SWAP1 SSTORE POP POP JUMP JUMPDEST PUSH2 0x1296 DUP3 DUP3 PUSH1 0x40 MLOAD DUP1 PUSH1 0x20 ADD PUSH1 0x40 MSTORE DUP1 PUSH0 DUP2 MSTORE POP PUSH2 0x1B00 JUMP JUMPDEST POP POP JUMP JUMPDEST DUP1 PUSH1 0x6 PUSH0 DUP5 DUP2 MSTORE PUSH1 0x20 ADD SWAP1 DUP2 MSTORE PUSH1 0x20 ADD PUSH0 KECCAK256 SWAP1 DUP2 PUSH2 0x12B8 SWAP2 SWAP1 PUSH2 0x2862 JUMP JUMPDEST POP PUSH32 0xF8E1A15ABA9398E019F0B49DF1A4FDE98EE17AE345CB5F6B5E2C27F5033E8CE7 DUP3 PUSH1 0x40 MLOAD PUSH2 0x12E8 SWAP2 SWAP1 PUSH2 0x2176 JUMP JUMPDEST PUSH1 0x40 MLOAD DUP1 SWAP2 SUB SWAP1 LOG1 POP POP JUMP JUMPDEST PUSH0 PUSH20 0xFFFFFFFFFFFFFFFFFFFFFFFFFFFFFFFFFFFFFFFF AND DUP3 PUSH20 0xFFFFFFFFFFFFFFFFFFFFFFFFFFFFFFFFFFFFFFFF AND SUB PUSH2 0x1364 JUMPI DUP2 PUSH1 0x40 MLOAD PUSH32 0x5B08BA1800000000000000000000000000000000000000000000000000000000 DUP2 MSTORE PUSH1 0x4 ADD PUSH2 0x135B SWAP2 SWAP1 PUSH2 0x1ED9 JUMP JUMPDEST PUSH1 0x40 MLOAD DUP1 SWAP2 SUB SWAP1 REVERT JUMPDEST DUP1 PUSH1 0x5 PUSH0 DUP6 PUSH20 0xFFFFFFFFFFFFFFFFFFFFFFFFFFFFFFFFFFFFFFFF AND PUSH20 0xFFFFFFFFFFFFFFFFFFFFFFFFFFFFFFFFFFFFFFFF AND DUP2 MSTORE PUSH1 0x20 ADD SWAP1 DUP2 MSTORE PUSH1 0x20 ADD PUSH0 KECCAK256 PUSH0 DUP5 PUSH20 0xFFFFFFFFFFFFFFFFFFFFFFFFFFFFFFFFFFFFFFFF AND PUSH20 0xFFFFFFFFFFFFFFFFFFFFFFFFFFFFFFFFFFFFFFFF AND DUP2 MSTORE PUSH1 0x20 ADD SWAP1 DUP2 MSTORE PUSH1 0x20 ADD PUSH0 KECCAK256 PUSH0 PUSH2 0x100 EXP DUP2 SLOAD DUP2 PUSH1 0xFF MUL NOT AND SWAP1 DUP4 ISZERO ISZERO MUL OR SWAP1 SSTORE POP DUP2 PUSH20 0xFFFFFFFFFFFFFFFFFFFFFFFFFFFFFFFFFFFFFFFF AND DUP4 PUSH20 0xFFFFFFFFFFFFFFFFFFFFFFFFFFFFFFFFFFFFFFFF AND PUSH32 0x17307EAB39AB6107E8899845AD3D59BD9653F200F220920489CA2B5937696C31 DUP4 PUSH1 0x40 MLOAD PUSH2 0x1450 SWAP2 SWAP1 PUSH2 0x1D79 JUMP JUMPDEST PUSH1 0x40 MLOAD DUP1 SWAP2 SUB SWAP1 LOG3 POP POP POP JUMP JUMPDEST PUSH0 DUP4 PUSH20 0xFFFFFFFFFFFFFFFFFFFFFFFFFFFFFFFFFFFFFFFF AND EXTCODESIZE GT ISZERO PUSH2 0x1609 JUMPI DUP3 PUSH20 0xFFFFFFFFFFFFFFFFFFFFFFFFFFFFFFFFFFFFFFFF AND PUSH4 0x150B7A02 PUSH2 0x14A0 PUSH2 0xF23 JUMP JUMPDEST DUP7 DUP6 DUP6 PUSH1 0x40 MLOAD DUP6 PUSH4 0xFFFFFFFF AND PUSH1 0xE0 SHL DUP2 MSTORE PUSH1 0x4 ADD PUSH2 0x14C2 SWAP5 SWAP4 SWAP3 SWAP2 SWAP1 PUSH2 0x2983 JUMP JUMPDEST PUSH1 0x20 PUSH1 0x40 MLOAD DUP1 DUP4 SUB DUP2 PUSH0 DUP8 GAS CALL SWAP3 POP POP POP DUP1 ISZERO PUSH2 0x14FD JUMPI POP PUSH1 0x40 MLOAD RETURNDATASIZE PUSH1 0x1F NOT PUSH1 0x1F DUP3 ADD AND DUP3 ADD DUP1 PUSH1 0x40 MSTORE POP DUP2 ADD SWAP1 PUSH2 0x14FA SWAP2 SWAP1 PUSH2 0x29E1 JUMP JUMPDEST PUSH1 0x1 JUMPDEST PUSH2 0x157E JUMPI RETURNDATASIZE DUP1 PUSH0 DUP2 EQ PUSH2 0x152B JUMPI PUSH1 0x40 MLOAD SWAP2 POP PUSH1 0x1F NOT PUSH1 0x3F RETURNDATASIZE ADD AND DUP3 ADD PUSH1 0x40 MSTORE RETURNDATASIZE DUP3 MSTORE RETURNDATASIZE PUSH0 PUSH1 0x20 DUP5 ADD RETURNDATACOPY PUSH2 0x1530 JUMP JUMPDEST PUSH1 0x60 SWAP2 POP JUMPDEST POP PUSH0 DUP2 MLOAD SUB PUSH2 0x1576 JUMPI DUP4 PUSH1 0x40 MLOAD PUSH32 0x64A0AE9200000000000000000000000000000000000000000000000000000000 DUP2 MSTORE PUSH1 0x4 ADD PUSH2 0x156D SWAP2 SWAP1 PUSH2 0x1ED9 JUMP JUMPDEST PUSH1 0x40 MLOAD DUP1 SWAP2 SUB SWAP1 REVERT JUMPDEST DUP1 MLOAD DUP2 PUSH1 0x20 ADD REVERT JUMPDEST PUSH4 0x150B7A02 PUSH1 0xE0 SHL PUSH28 0xFFFFFFFFFFFFFFFFFFFFFFFFFFFFFFFFFFFFFFFFFFFFFFFFFFFFFFFF NOT AND DUP2 PUSH28 0xFFFFFFFFFFFFFFFFFFFFFFFFFFFFFFFFFFFFFFFFFFFFFFFFFFFFFFFF NOT AND EQ PUSH2 0x1607 JUMPI DUP4 PUSH1 0x40 MLOAD PUSH32 0x64A0AE9200000000000000000000000000000000000000000000000000000000 DUP2 MSTORE PUSH1 0x4 ADD PUSH2 0x15FE SWAP2 SWAP1 PUSH2 0x1ED9 JUMP JUMPDEST PUSH1 0x40 MLOAD DUP1 SWAP2 SUB SWAP1 REVERT JUMPDEST POP JUMPDEST POP POP POP POP JUMP JUMPDEST PUSH1 0x60 PUSH1 0x40 MLOAD DUP1 PUSH1 0x20 ADD PUSH1 0x40 MSTORE DUP1 PUSH0 DUP2 MSTORE POP SWAP1 POP SWAP1 JUMP JUMPDEST PUSH1 0x60 PUSH2 0x1630 DUP3 PUSH2 0xE64 JUMP JUMPDEST POP PUSH0 PUSH2 0x163A PUSH2 0x160F JUMP JUMPDEST SWAP1 POP PUSH0 DUP2 MLOAD GT PUSH2 0x1658 JUMPI PUSH1 0x40 MLOAD DUP1 PUSH1 0x20 ADD PUSH1 0x40 MSTORE DUP1 PUSH0 DUP2 MSTORE POP PUSH2 0x1683 JUMP JUMPDEST DUP1 PUSH2 0x1662 DUP5 PUSH2 0x118A JUMP JUMPDEST PUSH1 0x40 MLOAD PUSH1 0x20 ADD PUSH2 0x1673 SWAP3 SWAP2 SWAP1 PUSH2 0x2504 JUMP JUMPDEST PUSH1 0x40 MLOAD PUSH1 0x20 DUP2 DUP4 SUB SUB DUP2 MSTORE SWAP1 PUSH1 0x40 MSTORE JUMPDEST SWAP2 POP POP SWAP2 SWAP1 POP JUMP JUMPDEST PUSH0 PUSH32 0x1FFC9A700000000000000000000000000000000000000000000000000000000 PUSH28 0xFFFFFFFFFFFFFFFFFFFFFFFFFFFFFFFFFFFFFFFFFFFFFFFFFFFFFFFF NOT AND DUP3 PUSH28 0xFFFFFFFFFFFFFFFFFFFFFFFFFFFFFFFFFFFFFFFFFFFFFFFFFFFFFFFF NOT AND EQ SWAP1 POP SWAP2 SWAP1 POP JUMP JUMPDEST PUSH0 PUSH1 0x2 PUSH0 DUP4 DUP2 MSTORE PUSH1 0x20 ADD SWAP1 DUP2 MSTORE PUSH1 0x20 ADD PUSH0 KECCAK256 PUSH0 SWAP1 SLOAD SWAP1 PUSH2 0x100 EXP SWAP1 DIV PUSH20 0xFFFFFFFFFFFFFFFFFFFFFFFFFFFFFFFFFFFFFFFF AND SWAP1 POP SWAP2 SWAP1 POP JUMP JUMPDEST DUP1 DUP1 PUSH2 0x1765 JUMPI POP PUSH0 PUSH20 0xFFFFFFFFFFFFFFFFFFFFFFFFFFFFFFFFFFFFFFFF AND DUP3 PUSH20 0xFFFFFFFFFFFFFFFFFFFFFFFFFFFFFFFFFFFFFFFF AND EQ ISZERO JUMPDEST ISZERO PUSH2 0x1897 JUMPI PUSH0 PUSH2 0x1774 DUP5 PUSH2 0xE64 JUMP JUMPDEST SWAP1 POP PUSH0 PUSH20 0xFFFFFFFFFFFFFFFFFFFFFFFFFFFFFFFFFFFFFFFF AND DUP4 PUSH20 0xFFFFFFFFFFFFFFFFFFFFFFFFFFFFFFFFFFFFFFFF AND EQ ISZERO DUP1 ISZERO PUSH2 0x17DE JUMPI POP DUP3 PUSH20 0xFFFFFFFFFFFFFFFFFFFFFFFFFFFFFFFFFFFFFFFF AND DUP2 PUSH20 0xFFFFFFFFFFFFFFFFFFFFFFFFFFFFFFFFFFFFFFFF AND EQ ISZERO JUMPDEST DUP1 ISZERO PUSH2 0x17F1 JUMPI POP PUSH2 0x17EF DUP2 DUP5 PUSH2 0xCEF JUMP JUMPDEST ISZERO JUMPDEST ISZERO PUSH2 0x1833 JUMPI DUP3 PUSH1 0x40 MLOAD PUSH32 0xA9FBF51F00000000000000000000000000000000000000000000000000000000 DUP2 MSTORE PUSH1 0x4 ADD PUSH2 0x182A SWAP2 SWAP1 PUSH2 0x1ED9 JUMP JUMPDEST PUSH1 0x40 MLOAD DUP1 SWAP2 SUB SWAP1 REVERT JUMPDEST DUP2 ISZERO PUSH2 0x1895 JUMPI DUP4 DUP6 PUSH20 0xFFFFFFFFFFFFFFFFFFFFFFFFFFFFFFFFFFFFFFFF AND DUP3 PUSH20 0xFFFFFFFFFFFFFFFFFFFFFFFFFFFFFFFFFFFFFFFF AND PUSH32 0x8C5BE1E5EBEC7D5BD14F71427D1E84F3DD0314C0F7B2291E5B200AC8C7C3B925 PUSH1 0x40 MLOAD PUSH1 0x40 MLOAD DUP1 SWAP2 SUB SWAP1 LOG4 JUMPDEST POP JUMPDEST DUP4 PUSH1 0x4 PUSH0 DUP6 DUP2 MSTORE PUSH1 0x20 ADD SWAP1 DUP2 MSTORE PUSH1 0x20 ADD PUSH0 KECCAK256 PUSH0 PUSH2 0x100 EXP DUP2 SLOAD DUP2 PUSH20 0xFFFFFFFFFFFFFFFFFFFFFFFFFFFFFFFFFFFFFFFF MUL NOT AND SWAP1 DUP4 PUSH20 0xFFFFFFFFFFFFFFFFFFFFFFFFFFFFFFFFFFFFFFFF AND MUL OR SWAP1 SSTORE POP POP POP POP POP JUMP JUMPDEST PUSH2 0x18F7 DUP4 DUP4 DUP4 PUSH2 0x1B1B JUMP JUMPDEST PUSH2 0x19AA JUMPI PUSH0 PUSH20 0xFFFFFFFFFFFFFFFFFFFFFFFFFFFFFFFFFFFFFFFF AND DUP4 PUSH20 0xFFFFFFFFFFFFFFFFFFFFFFFFFFFFFFFFFFFFFFFF AND SUB PUSH2 0x196B JUMPI DUP1 PUSH1 0x40 MLOAD PUSH32 0x7E27328900000000000000000000000000000000000000000000000000000000 DUP2 MSTORE PUSH1 0x4 ADD PUSH2 0x1962 SWAP2 SWAP1 PUSH2 0x2176 JUMP JUMPDEST PUSH1 0x40 MLOAD DUP1 SWAP2 SUB SWAP1 REVERT JUMPDEST DUP2 DUP2 PUSH1 0x40 MLOAD PUSH32 0x177E802F00000000000000000000000000000000000000000000000000000000 DUP2 MSTORE PUSH1 0x4 ADD PUSH2 0x19A1 SWAP3 SWAP2 SWAP1 PUSH2 0x2A0C JUMP JUMPDEST PUSH1 0x40 MLOAD DUP1 SWAP2 SUB SWAP1 REVERT JUMPDEST POP POP POP JUMP JUMPDEST PUSH0 DUP1 PUSH0 SWAP1 POP PUSH27 0x184F03E93FF9F4DAA797ED6E38ED64BF6A1F010000000000000000 DUP4 LT PUSH2 0x1A0B JUMPI PUSH27 0x184F03E93FF9F4DAA797ED6E38ED64BF6A1F010000000000000000 DUP4 DUP2 PUSH2 0x1A01 JUMPI PUSH2 0x1A00 PUSH2 0x2608 JUMP JUMPDEST JUMPDEST DIV SWAP3 POP PUSH1 0x40 DUP2 ADD SWAP1 POP JUMPDEST PUSH14 0x4EE2D6D415B85ACEF8100000000 DUP4 LT PUSH2 0x1A48 JUMPI PUSH14 0x4EE2D6D415B85ACEF8100000000 DUP4 DUP2 PUSH2 0x1A3E JUMPI PUSH2 0x1A3D PUSH2 0x2608 JUMP JUMPDEST JUMPDEST DIV SWAP3 POP PUSH1 0x20 DUP2 ADD SWAP1 POP JUMPDEST PUSH7 0x2386F26FC10000 DUP4 LT PUSH2 0x1A77 JUMPI PUSH7 0x2386F26FC10000 DUP4 DUP2 PUSH2 0x1A6D JUMPI PUSH2 0x1A6C PUSH2 0x2608 JUMP JUMPDEST JUMPDEST DIV SWAP3 POP PUSH1 0x10 DUP2 ADD SWAP1 POP JUMPDEST PUSH4 0x5F5E100 DUP4 LT PUSH2 0x1AA0 JUMPI PUSH4 0x5F5E100 DUP4 DUP2 PUSH2 0x1A96 JUMPI PUSH2 0x1A95 PUSH2 0x2608 JUMP JUMPDEST JUMPDEST DIV SWAP3 POP PUSH1 0x8 DUP2 ADD SWAP1 POP JUMPDEST PUSH2 0x2710 DUP4 LT PUSH2 0x1AC5 JUMPI PUSH2 0x2710 DUP4 DUP2 PUSH2 0x1ABB JUMPI PUSH2 0x1ABA PUSH2 0x2608 JUMP JUMPDEST JUMPDEST DIV SWAP3 POP PUSH1 0x4 DUP2 ADD SWAP1 POP JUMPDEST PUSH1 0x64 DUP4 LT PUSH2 0x1AE8 JUMPI PUSH1 0x64 DUP4 DUP2 PUSH2 0x1ADE JUMPI PUSH2 0x1ADD PUSH2 0x2608 JUMP JUMPDEST JUMPDEST DIV SWAP3 POP PUSH1 0x2 DUP2 ADD SWAP1 POP JUMPDEST PUSH1 0xA DUP4 LT PUSH2 0x1AF7 JUMPI PUSH1 0x1 DUP2 ADD SWAP1 POP JUMPDEST DUP1 SWAP2 POP POP SWAP2 SWAP1 POP JUMP JUMPDEST PUSH2 0x1B0A DUP4 DUP4 PUSH2 0x1BDB JUMP JUMPDEST PUSH2 0x1B16 PUSH0 DUP5 DUP5 DUP5 PUSH2 0x145D JUMP JUMPDEST POP POP POP JUMP JUMPDEST PUSH0 DUP1 PUSH20 0xFFFFFFFFFFFFFFFFFFFFFFFFFFFFFFFFFFFFFFFF AND DUP4 PUSH20 0xFFFFFFFFFFFFFFFFFFFFFFFFFFFFFFFFFFFFFFFF AND EQ ISZERO DUP1 ISZERO PUSH2 0x1BD2 JUMPI POP DUP3 PUSH20 0xFFFFFFFFFFFFFFFFFFFFFFFFFFFFFFFFFFFFFFFF AND DUP5 PUSH20 0xFFFFFFFFFFFFFFFFFFFFFFFFFFFFFFFFFFFFFFFF AND EQ DUP1 PUSH2 0x1B93 JUMPI POP PUSH2 0x1B92 DUP5 DUP5 PUSH2 0xCEF JUMP JUMPDEST JUMPDEST DUP1 PUSH2 0x1BD1 JUMPI POP DUP3 PUSH20 0xFFFFFFFFFFFFFFFFFFFFFFFFFFFFFFFFFFFFFFFF AND PUSH2 0x1BB9 DUP4 PUSH2 0xEEA JUMP JUMPDEST PUSH20 0xFFFFFFFFFFFFFFFFFFFFFFFFFFFFFFFFFFFFFFFF AND EQ JUMPDEST JUMPDEST SWAP1 POP SWAP4 SWAP3 POP POP POP JUMP JUMPDEST PUSH0 PUSH20 0xFFFFFFFFFFFFFFFFFFFFFFFFFFFFFFFFFFFFFFFF AND DUP3 PUSH20 0xFFFFFFFFFFFFFFFFFFFFFFFFFFFFFFFFFFFFFFFF AND SUB PUSH2 0x1C4B JUMPI PUSH0 PUSH1 0x40 MLOAD PUSH32 0x64A0AE9200000000000000000000000000000000000000000000000000000000 DUP2 MSTORE PUSH1 0x4 ADD PUSH2 0x1C42 SWAP2 SWAP1 PUSH2 0x1ED9 JUMP JUMPDEST PUSH1 0x40 MLOAD DUP1 SWAP2 SUB SWAP1 REVERT JUMPDEST PUSH0 PUSH2 0x1C57 DUP4 DUP4 PUSH0 PUSH2 0xF3C JUMP JUMPDEST SWAP1 POP PUSH0 PUSH20 0xFFFFFFFFFFFFFFFFFFFFFFFFFFFFFFFFFFFFFFFF AND DUP2 PUSH20 0xFFFFFFFFFFFFFFFFFFFFFFFFFFFFFFFFFFFFFFFF AND EQ PUSH2 0x1CC9 JUMPI PUSH0 PUSH1 0x40 MLOAD PUSH32 0x73C6AC6E00000000000000000000000000000000000000000000000000000000 DUP2 MSTORE PUSH1 0x4 ADD PUSH2 0x1CC0 SWAP2 SWAP1 PUSH2 0x1ED9 JUMP JUMPDEST PUSH1 0x40 MLOAD DUP1 SWAP2 SUB SWAP1 REVERT JUMPDEST POP POP POP JUMP JUMPDEST PUSH0 PUSH1 0x40 MLOAD SWAP1 POP SWAP1 JUMP JUMPDEST PUSH0 DUP1 REVERT JUMPDEST PUSH0 DUP1 REVERT JUMPDEST PUSH0 PUSH32 0xFFFFFFFF00000000000000000000000000000000000000000000000000000000 DUP3 AND SWAP1 POP SWAP2 SWAP1 POP JUMP JUMPDEST PUSH2 0x1D13 DUP2 PUSH2 0x1CDF JUMP JUMPDEST DUP2 EQ PUSH2 0x1D1D JUMPI PUSH0 DUP1 REVERT JUMPDEST POP JUMP JUMPDEST PUSH0 DUP2 CALLDATALOAD SWAP1 POP PUSH2 0x1D2E DUP2 PUSH2 0x1D0A JUMP JUMPDEST SWAP3 SWAP2 POP POP JUMP JUMPDEST PUSH0 PUSH1 0x20 DUP3 DUP5 SUB SLT ISZERO PUSH2 0x1D49 JUMPI PUSH2 0x1D48 PUSH2 0x1CD7 JUMP JUMPDEST JUMPDEST PUSH0 PUSH2 0x1D56 DUP5 DUP3 DUP6 ADD PUSH2 0x1D20 JUMP JUMPDEST SWAP2 POP POP SWAP3 SWAP2 POP POP JUMP JUMPDEST PUSH0 DUP2 ISZERO ISZERO SWAP1 POP SWAP2 SWAP1 POP JUMP JUMPDEST PUSH2 0x1D73 DUP2 PUSH2 0x1D5F JUMP JUMPDEST DUP3 MSTORE POP POP JUMP JUMPDEST PUSH0 PUSH1 0x20 DUP3 ADD SWAP1 POP PUSH2 0x1D8C PUSH0 DUP4 ADD DUP5 PUSH2 0x1D6A JUMP JUMPDEST SWAP3 SWAP2 POP POP JUMP JUMPDEST PUSH0 DUP2 MLOAD SWAP1 POP SWAP2 SWAP1 POP JUMP JUMPDEST PUSH0 DUP3 DUP3 MSTORE PUSH1 0x20 DUP3 ADD SWAP1 POP SWAP3 SWAP2 POP POP JUMP JUMPDEST PUSH0 JUMPDEST DUP4 DUP2 LT ISZERO PUSH2 0x1DC9 JUMPI DUP1 DUP3 ADD MLOAD DUP2 DUP5 ADD MSTORE PUSH1 0x20 DUP2 ADD SWAP1 POP PUSH2 0x1DAE JUMP JUMPDEST PUSH0 DUP5 DUP5 ADD MSTORE POP POP POP POP JUMP JUMPDEST PUSH0 PUSH1 0x1F NOT PUSH1 0x1F DUP4 ADD AND SWAP1 POP SWAP2 SWAP1 POP JUMP JUMPDEST PUSH0 PUSH2 0x1DEE DUP3 PUSH2 0x1D92 JUMP JUMPDEST PUSH2 0x1DF8 DUP2 DUP6 PUSH2 0x1D9C JUMP JUMPDEST SWAP4 POP PUSH2 0x1E08 DUP2 DUP6 PUSH1 0x20 DUP7 ADD PUSH2 0x1DAC JUMP JUMPDEST PUSH2 0x1E11 DUP2 PUSH2 0x1DD4 JUMP JUMPDEST DUP5 ADD SWAP2 POP POP SWAP3 SWAP2 POP POP JUMP JUMPDEST PUSH0 PUSH1 0x20 DUP3 ADD SWAP1 POP DUP2 DUP2 SUB PUSH0 DUP4 ADD MSTORE PUSH2 0x1E34 DUP2 DUP5 PUSH2 0x1DE4 JUMP JUMPDEST SWAP1 POP SWAP3 SWAP2 POP POP JUMP JUMPDEST PUSH0 DUP2 SWAP1 POP SWAP2 SWAP1 POP JUMP JUMPDEST PUSH2 0x1E4E DUP2 PUSH2 0x1E3C JUMP JUMPDEST DUP2 EQ PUSH2 0x1E58 JUMPI PUSH0 DUP1 REVERT JUMPDEST POP JUMP JUMPDEST PUSH0 DUP2 CALLDATALOAD SWAP1 POP PUSH2 0x1E69 DUP2 PUSH2 0x1E45 JUMP JUMPDEST SWAP3 SWAP2 POP POP JUMP JUMPDEST PUSH0 PUSH1 0x20 DUP3 DUP5 SUB SLT ISZERO PUSH2 0x1E84 JUMPI PUSH2 0x1E83 PUSH2 0x1CD7 JUMP JUMPDEST JUMPDEST PUSH0 PUSH2 0x1E91 DUP5 DUP3 DUP6 ADD PUSH2 0x1E5B JUMP JUMPDEST SWAP2 POP POP SWAP3 SWAP2 POP POP JUMP JUMPDEST PUSH0 PUSH20 0xFFFFFFFFFFFFFFFFFFFFFFFFFFFFFFFFFFFFFFFF DUP3 AND SWAP1 POP SWAP2 SWAP1 POP JUMP JUMPDEST PUSH0 PUSH2 0x1EC3 DUP3 PUSH2 0x1E9A JUMP JUMPDEST SWAP1 POP SWAP2 SWAP1 POP JUMP JUMPDEST PUSH2 0x1ED3 DUP2 PUSH2 0x1EB9 JUMP JUMPDEST DUP3 MSTORE POP POP JUMP JUMPDEST PUSH0 PUSH1 0x20 DUP3 ADD SWAP1 POP PUSH2 0x1EEC PUSH0 DUP4 ADD DUP5 PUSH2 0x1ECA JUMP JUMPDEST SWAP3 SWAP2 POP POP JUMP JUMPDEST PUSH2 0x1EFB DUP2 PUSH2 0x1EB9 JUMP JUMPDEST DUP2 EQ PUSH2 0x1F05 JUMPI PUSH0 DUP1 REVERT JUMPDEST POP JUMP JUMPDEST PUSH0 DUP2 CALLDATALOAD SWAP1 POP PUSH2 0x1F16 DUP2 PUSH2 0x1EF2 JUMP JUMPDEST SWAP3 SWAP2 POP POP JUMP JUMPDEST PUSH0 DUP1 PUSH1 0x40 DUP4 DUP6 SUB SLT ISZERO PUSH2 0x1F32 JUMPI PUSH2 0x1F31 PUSH2 0x1CD7 JUMP JUMPDEST JUMPDEST PUSH0 PUSH2 0x1F3F DUP6 DUP3 DUP7 ADD PUSH2 0x1F08 JUMP JUMPDEST SWAP3 POP POP PUSH1 0x20 PUSH2 0x1F50 DUP6 DUP3 DUP7 ADD PUSH2 0x1E5B JUMP JUMPDEST SWAP2 POP POP SWAP3 POP SWAP3 SWAP1 POP JUMP JUMPDEST PUSH0 DUP1 PUSH0 PUSH1 0x60 DUP5 DUP7 SUB SLT ISZERO PUSH2 0x1F71 JUMPI PUSH2 0x1F70 PUSH2 0x1CD7 JUMP JUMPDEST JUMPDEST PUSH0 PUSH2 0x1F7E DUP7 DUP3 DUP8 ADD PUSH2 0x1F08 JUMP JUMPDEST SWAP4 POP POP PUSH1 0x20 PUSH2 0x1F8F DUP7 DUP3 DUP8 ADD PUSH2 0x1F08 JUMP JUMPDEST SWAP3 POP POP PUSH1 0x40 PUSH2 0x1FA0 DUP7 DUP3 DUP8 ADD PUSH2 0x1E5B JUMP JUMPDEST SWAP2 POP POP SWAP3 POP SWAP3 POP SWAP3 JUMP JUMPDEST PUSH0 PUSH4 0xFFFFFFFF DUP3 AND SWAP1 POP SWAP2 SWAP1 POP JUMP JUMPDEST PUSH2 0x1FC2 DUP2 PUSH2 0x1FAA JUMP JUMPDEST DUP3 MSTORE POP POP JUMP JUMPDEST PUSH0 PUSH1 0x20 DUP3 ADD SWAP1 POP PUSH2 0x1FDB PUSH0 DUP4 ADD DUP5 PUSH2 0x1FB9 JUMP JUMPDEST SWAP3 SWAP2 POP POP JUMP JUMPDEST PUSH0 DUP1 REVERT JUMPDEST PUSH0 DUP1 REVERT JUMPDEST PUSH32 0x4E487B7100000000000000000000000000000000000000000000000000000000 PUSH0 MSTORE PUSH1 0x41 PUSH1 0x4 MSTORE PUSH1 0x24 PUSH0 REVERT JUMPDEST PUSH2 0x201F DUP3 PUSH2 0x1DD4 JUMP JUMPDEST DUP2 ADD DUP2 DUP2 LT PUSH8 0xFFFFFFFFFFFFFFFF DUP3 GT OR ISZERO PUSH2 0x203E JUMPI PUSH2 0x203D PUSH2 0x1FE9 JUMP JUMPDEST JUMPDEST DUP1 PUSH1 0x40 MSTORE POP POP POP JUMP JUMPDEST PUSH0 PUSH2 0x2050 PUSH2 0x1CCE JUMP JUMPDEST SWAP1 POP PUSH2 0x205C DUP3 DUP3 PUSH2 0x2016 JUMP JUMPDEST SWAP2 SWAP1 POP JUMP JUMPDEST PUSH0 PUSH8 0xFFFFFFFFFFFFFFFF DUP3 GT ISZERO PUSH2 0x207B JUMPI PUSH2 0x207A PUSH2 0x1FE9 JUMP JUMPDEST JUMPDEST PUSH2 0x2084 DUP3 PUSH2 0x1DD4 JUMP JUMPDEST SWAP1 POP PUSH1 0x20 DUP2 ADD SWAP1 POP SWAP2 SWAP1 POP JUMP JUMPDEST DUP3 DUP2 DUP4 CALLDATACOPY PUSH0 DUP4 DUP4 ADD MSTORE POP POP POP JUMP JUMPDEST PUSH0 PUSH2 0x20B1 PUSH2 0x20AC DUP5 PUSH2 0x2061 JUMP JUMPDEST PUSH2 0x2047 JUMP JUMPDEST SWAP1 POP DUP3 DUP2 MSTORE PUSH1 0x20 DUP2 ADD DUP5 DUP5 DUP5 ADD GT ISZERO PUSH2 0x20CD JUMPI PUSH2 0x20CC PUSH2 0x1FE5 JUMP JUMPDEST JUMPDEST PUSH2 0x20D8 DUP5 DUP3 DUP6 PUSH2 0x2091 JUMP JUMPDEST POP SWAP4 SWAP3 POP POP POP JUMP JUMPDEST PUSH0 DUP3 PUSH1 0x1F DUP4 ADD SLT PUSH2 0x20F4 JUMPI PUSH2 0x20F3 PUSH2 0x1FE1 JUMP JUMPDEST JUMPDEST DUP2 CALLDATALOAD PUSH2 0x2104 DUP5 DUP3 PUSH1 0x20 DUP7 ADD PUSH2 0x209F JUMP JUMPDEST SWAP2 POP POP SWAP3 SWAP2 POP POP JUMP JUMPDEST PUSH0 DUP1 PUSH1 0x40 DUP4 DUP6 SUB SLT ISZERO PUSH2 0x2123 JUMPI PUSH2 0x2122 PUSH2 0x1CD7 JUMP JUMPDEST JUMPDEST PUSH0 PUSH2 0x2130 DUP6 DUP3 DUP7 ADD PUSH2 0x1F08 JUMP JUMPDEST SWAP3 POP POP PUSH1 0x20 DUP4 ADD CALLDATALOAD PUSH8 0xFFFFFFFFFFFFFFFF DUP2 GT ISZERO PUSH2 0x2151 JUMPI PUSH2 0x2150 PUSH2 0x1CDB JUMP JUMPDEST JUMPDEST PUSH2 0x215D DUP6 DUP3 DUP7 ADD PUSH2 0x20E0 JUMP JUMPDEST SWAP2 POP POP SWAP3 POP SWAP3 SWAP1 POP JUMP JUMPDEST PUSH2 0x2170 DUP2 PUSH2 0x1E3C JUMP JUMPDEST DUP3 MSTORE POP POP JUMP JUMPDEST PUSH0 PUSH1 0x20 DUP3 ADD SWAP1 POP PUSH2 0x2189 PUSH0 DUP4 ADD DUP5 PUSH2 0x2167 JUMP JUMPDEST SWAP3 SWAP2 POP POP JUMP JUMPDEST PUSH0 DUP2 SWAP1 POP SWAP2 SWAP1 POP JUMP JUMPDEST PUSH2 0x21A1 DUP2 PUSH2 0x218F JUMP JUMPDEST DUP3 MSTORE POP POP JUMP JUMPDEST PUSH0 PUSH1 0x20 DUP3 ADD SWAP1 POP PUSH2 0x21BA PUSH0 DUP4 ADD DUP5 PUSH2 0x2198 JUMP JUMPDEST SWAP3 SWAP2 POP POP JUMP JUMPDEST PUSH0 PUSH1 0x20 DUP3 DUP5 SUB SLT ISZERO PUSH2 0x21D5 JUMPI PUSH2 0x21D4 PUSH2 0x1CD7 JUMP JUMPDEST JUMPDEST PUSH0 PUSH2 0x21E2 DUP5 DUP3 DUP6 ADD PUSH2 0x1F08 JUMP JUMPDEST SWAP2 POP POP SWAP3 SWAP2 POP POP JUMP JUMPDEST PUSH0 PUSH1 0x40 DUP3 ADD SWAP1 POP PUSH2 0x21FE PUSH0 DUP4 ADD DUP6 PUSH2 0x1D6A JUMP JUMPDEST PUSH2 0x220B PUSH1 0x20 DUP4 ADD DUP5 PUSH2 0x1D6A JUMP JUMPDEST SWAP4 SWAP3 POP POP POP JUMP JUMPDEST PUSH2 0x221B DUP2 PUSH2 0x1D5F JUMP JUMPDEST DUP2 EQ PUSH2 0x2225 JUMPI PUSH0 DUP1 REVERT JUMPDEST POP JUMP JUMPDEST PUSH0 DUP2 CALLDATALOAD SWAP1 POP PUSH2 0x2236 DUP2 PUSH2 0x2212 JUMP JUMPDEST SWAP3 SWAP2 POP POP JUMP JUMPDEST PUSH0 DUP1 PUSH1 0x40 DUP4 DUP6 SUB SLT ISZERO PUSH2 0x2252 JUMPI PUSH2 0x2251 PUSH2 0x1CD7 JUMP JUMPDEST JUMPDEST PUSH0 PUSH2 0x225F DUP6 DUP3 DUP7 ADD PUSH2 0x1F08 JUMP JUMPDEST SWAP3 POP POP PUSH1 0x20 PUSH2 0x2270 DUP6 DUP3 DUP7 ADD PUSH2 0x2228 JUMP JUMPDEST SWAP2 POP POP SWAP3 POP SWAP3 SWAP1 POP JUMP JUMPDEST PUSH0 PUSH2 0xFFFF DUP3 AND SWAP1 POP SWAP2 SWAP1 POP JUMP JUMPDEST PUSH2 0x2290 DUP2 PUSH2 0x227A JUMP JUMPDEST DUP3 MSTORE POP POP JUMP JUMPDEST PUSH0 PUSH1 0x20 DUP3 ADD SWAP1 POP PUSH2 0x22A9 PUSH0 DUP4 ADD DUP5 PUSH2 0x2287 JUMP JUMPDEST SWAP3 SWAP2 POP POP JUMP JUMPDEST PUSH0 PUSH8 0xFFFFFFFFFFFFFFFF DUP3 GT ISZERO PUSH2 0x22C9 JUMPI PUSH2 0x22C8 PUSH2 0x1FE9 JUMP JUMPDEST JUMPDEST PUSH2 0x22D2 DUP3 PUSH2 0x1DD4 JUMP JUMPDEST SWAP1 POP PUSH1 0x20 DUP2 ADD SWAP1 POP SWAP2 SWAP1 POP JUMP JUMPDEST PUSH0 PUSH2 0x22F1 PUSH2 0x22EC DUP5 PUSH2 0x22AF JUMP JUMPDEST PUSH2 0x2047 JUMP JUMPDEST SWAP1 POP DUP3 DUP2 MSTORE PUSH1 0x20 DUP2 ADD DUP5 DUP5 DUP5 ADD GT ISZERO PUSH2 0x230D JUMPI PUSH2 0x230C PUSH2 0x1FE5 JUMP JUMPDEST JUMPDEST PUSH2 0x2318 DUP5 DUP3 DUP6 PUSH2 0x2091 JUMP JUMPDEST POP SWAP4 SWAP3 POP POP POP JUMP JUMPDEST PUSH0 DUP3 PUSH1 0x1F DUP4 ADD SLT PUSH2 0x2334 JUMPI PUSH2 0x2333 PUSH2 0x1FE1 JUMP JUMPDEST JUMPDEST DUP2 CALLDATALOAD PUSH2 0x2344 DUP5 DUP3 PUSH1 0x20 DUP7 ADD PUSH2 0x22DF JUMP JUMPDEST SWAP2 POP POP SWAP3 SWAP2 POP POP JUMP JUMPDEST PUSH0 DUP1 PUSH0 DUP1 PUSH1 0x80 DUP6 DUP8 SUB SLT ISZERO PUSH2 0x2365 JUMPI PUSH2 0x2364 PUSH2 0x1CD7 JUMP JUMPDEST JUMPDEST PUSH0 PUSH2 0x2372 DUP8 DUP3 DUP9 ADD PUSH2 0x1F08 JUMP JUMPDEST SWAP5 POP POP PUSH1 0x20 PUSH2 0x2383 DUP8 DUP3 DUP9 ADD PUSH2 0x1F08 JUMP JUMPDEST SWAP4 POP POP PUSH1 0x40 PUSH2 0x2394 DUP8 DUP3 DUP9 ADD PUSH2 0x1E5B JUMP JUMPDEST SWAP3 POP POP PUSH1 0x60 DUP6 ADD CALLDATALOAD PUSH8 0xFFFFFFFFFFFFFFFF DUP2 GT ISZERO PUSH2 0x23B5 JUMPI PUSH2 0x23B4 PUSH2 0x1CDB JUMP JUMPDEST JUMPDEST PUSH2 0x23C1 DUP8 DUP3 DUP9 ADD PUSH2 0x2320 JUMP JUMPDEST SWAP2 POP POP SWAP3 SWAP6 SWAP2 SWAP5 POP SWAP3 POP JUMP JUMPDEST PUSH0 DUP1 PUSH1 0x40 DUP4 DUP6 SUB SLT ISZERO PUSH2 0x23E3 JUMPI PUSH2 0x23E2 PUSH2 0x1CD7 JUMP JUMPDEST JUMPDEST PUSH0 PUSH2 0x23F0 DUP6 DUP3 DUP7 ADD PUSH2 0x1F08 JUMP JUMPDEST SWAP3 POP POP PUSH1 0x20 PUSH2 0x2401 DUP6 DUP3 DUP7 ADD PUSH2 0x1F08 JUMP JUMPDEST SWAP2 POP POP SWAP3 POP SWAP3 SWAP1 POP JUMP JUMPDEST PUSH32 0x4E487B7100000000000000000000000000000000000000000000000000000000 PUSH0 MSTORE PUSH1 0x22 PUSH1 0x4 MSTORE PUSH1 0x24 PUSH0 REVERT JUMPDEST PUSH0 PUSH1 0x2 DUP3 DIV SWAP1 POP PUSH1 0x1 DUP3 AND DUP1 PUSH2 0x244F JUMPI PUSH1 0x7F DUP3 AND SWAP2 POP JUMPDEST PUSH1 0x20 DUP3 LT DUP2 SUB PUSH2 0x2462 JUMPI PUSH2 0x2461 PUSH2 0x240B JUMP JUMPDEST JUMPDEST POP SWAP2 SWAP1 POP JUMP JUMPDEST PUSH0 PUSH1 0x60 DUP3 ADD SWAP1 POP PUSH2 0x247B PUSH0 DUP4 ADD DUP7 PUSH2 0x1ECA JUMP JUMPDEST PUSH2 0x2488 PUSH1 0x20 DUP4 ADD DUP6 PUSH2 0x2167 JUMP JUMPDEST PUSH2 0x2495 PUSH1 0x40 DUP4 ADD DUP5 PUSH2 0x1ECA JUMP JUMPDEST SWAP5 SWAP4 POP POP POP POP JUMP JUMPDEST PUSH32 0x4E487B7100000000000000000000000000000000000000000000000000000000 PUSH0 MSTORE PUSH1 0x32 PUSH1 0x4 MSTORE PUSH1 0x24 PUSH0 REVERT JUMPDEST PUSH0 DUP2 SWAP1 POP SWAP3 SWAP2 POP POP JUMP JUMPDEST PUSH0 PUSH2 0x24DE DUP3 PUSH2 0x1D92 JUMP JUMPDEST PUSH2 0x24E8 DUP2 DUP6 PUSH2 0x24CA JUMP JUMPDEST SWAP4 POP PUSH2 0x24F8 DUP2 DUP6 PUSH1 0x20 DUP7 ADD PUSH2 0x1DAC JUMP JUMPDEST DUP1 DUP5 ADD SWAP2 POP POP SWAP3 SWAP2 POP POP JUMP JUMPDEST PUSH0 PUSH2 0x250F DUP3 DUP6 PUSH2 0x24D4 JUMP JUMPDEST SWAP2 POP PUSH2 0x251B DUP3 DUP5 PUSH2 0x24D4 JUMP JUMPDEST SWAP2 POP DUP2 SWAP1 POP SWAP4 SWAP3 POP POP POP JUMP JUMPDEST PUSH32 0x2E706E6700000000000000000000000000000000000000000000000000000000 DUP2 MSTORE POP JUMP JUMPDEST PUSH0 PUSH2 0x2558 DUP3 DUP5 PUSH2 0x24D4 JUMP JUMPDEST SWAP2 POP PUSH2 0x2563 DUP3 PUSH2 0x2527 JUMP JUMPDEST PUSH1 0x4 DUP3 ADD SWAP2 POP DUP2 SWAP1 POP SWAP3 SWAP2 POP POP JUMP JUMPDEST PUSH32 0x3B20000000000000000000000000000000000000000000000000000000000000 DUP2 MSTORE POP JUMP JUMPDEST PUSH0 PUSH2 0x25A3 DUP3 DUP5 PUSH2 0x24D4 JUMP JUMPDEST SWAP2 POP PUSH2 0x25AE DUP3 PUSH2 0x2572 JUMP JUMPDEST PUSH1 0x2 DUP3 ADD SWAP2 POP DUP2 SWAP1 POP SWAP3 SWAP2 POP POP JUMP JUMPDEST PUSH0 DUP2 SWAP1 POP SWAP2 SWAP1 POP JUMP JUMPDEST PUSH2 0x25D7 PUSH2 0x25D2 DUP3 PUSH2 0x1E3C JUMP JUMPDEST PUSH2 0x25BD JUMP JUMPDEST DUP3 MSTORE POP POP JUMP JUMPDEST PUSH0 PUSH2 0x25E8 DUP3 DUP6 PUSH2 0x25C6 JUMP JUMPDEST PUSH1 0x20 DUP3 ADD SWAP2 POP PUSH2 0x25F8 DUP3 DUP5 PUSH2 0x25C6 JUMP JUMPDEST PUSH1 0x20 DUP3 ADD SWAP2 POP DUP2 SWAP1 POP SWAP4 SWAP3 POP POP POP JUMP JUMPDEST PUSH32 0x4E487B7100000000000000000000000000000000000000000000000000000000 PUSH0 MSTORE PUSH1 0x12 PUSH1 0x4 MSTORE PUSH1 0x24 PUSH0 REVERT JUMPDEST PUSH0 PUSH2 0x263F DUP3 PUSH2 0x1E3C JUMP JUMPDEST SWAP2 POP PUSH2 0x264A DUP4 PUSH2 0x1E3C JUMP JUMPDEST SWAP3 POP DUP3 PUSH2 0x265A JUMPI PUSH2 0x2659 PUSH2 0x2608 JUMP JUMPDEST JUMPDEST DUP3 DUP3 MOD SWAP1 POP SWAP3 SWAP2 POP POP JUMP JUMPDEST PUSH32 0x4E487B7100000000000000000000000000000000000000000000000000000000 PUSH0 MSTORE PUSH1 0x11 PUSH1 0x4 MSTORE PUSH1 0x24 PUSH0 REVERT JUMPDEST PUSH0 PUSH2 0x269C DUP3 PUSH2 0x1E3C JUMP JUMPDEST SWAP2 POP PUSH2 0x26A7 DUP4 PUSH2 0x1E3C JUMP JUMPDEST SWAP3 POP DUP3 DUP3 ADD SWAP1 POP DUP1 DUP3 GT ISZERO PUSH2 0x26BF JUMPI PUSH2 0x26BE PUSH2 0x2665 JUMP JUMPDEST JUMPDEST SWAP3 SWAP2 POP POP JUMP JUMPDEST PUSH0 DUP2 SWAP1 POP DUP2 PUSH0 MSTORE PUSH1 0x20 PUSH0 KECCAK256 SWAP1 POP SWAP2 SWAP1 POP JUMP JUMPDEST PUSH0 PUSH1 0x20 PUSH1 0x1F DUP4 ADD DIV SWAP1 POP SWAP2 SWAP1 POP JUMP JUMPDEST PUSH0 DUP3 DUP3 SHL SWAP1 POP SWAP3 SWAP2 POP POP JUMP JUMPDEST PUSH0 PUSH1 0x8 DUP4 MUL PUSH2 0x2721 PUSH32 0xFFFFFFFFFFFFFFFFFFFFFFFFFFFFFFFFFFFFFFFFFFFFFFFFFFFFFFFFFFFFFFFF DUP3 PUSH2 0x26E6 JUMP JUMPDEST PUSH2 0x272B DUP7 DUP4 PUSH2 0x26E6 JUMP JUMPDEST SWAP6 POP DUP1 NOT DUP5 AND SWAP4 POP DUP1 DUP7 AND DUP5 OR SWAP3 POP POP POP SWAP4 SWAP3 POP POP POP JUMP JUMPDEST PUSH0 DUP2 SWAP1 POP SWAP2 SWAP1 POP JUMP JUMPDEST PUSH0 PUSH2 0x2766 PUSH2 0x2761 PUSH2 0x275C DUP5 PUSH2 0x1E3C JUMP JUMPDEST PUSH2 0x2743 JUMP JUMPDEST PUSH2 0x1E3C JUMP JUMPDEST SWAP1 POP SWAP2 SWAP1 POP JUMP JUMPDEST PUSH0 DUP2 SWAP1 POP SWAP2 SWAP1 POP JUMP JUMPDEST PUSH2 0x277F DUP4 PUSH2 0x274C JUMP JUMPDEST PUSH2 0x2793 PUSH2 0x278B DUP3 PUSH2 0x276D JUMP JUMPDEST DUP5 DUP5 SLOAD PUSH2 0x26F2 JUMP JUMPDEST DUP3 SSTORE POP POP POP POP JUMP JUMPDEST PUSH0 SWAP1 JUMP JUMPDEST PUSH2 0x27A7 PUSH2 0x279B JUMP JUMPDEST PUSH2 0x27B2 DUP2 DUP5 DUP5 PUSH2 0x2776 JUMP JUMPDEST POP POP POP JUMP JUMPDEST JUMPDEST DUP2 DUP2 LT ISZERO PUSH2 0x27D5 JUMPI PUSH2 0x27CA PUSH0 DUP3 PUSH2 0x279F JUMP JUMPDEST PUSH1 0x1 DUP2 ADD SWAP1 POP PUSH2 0x27B8 JUMP JUMPDEST POP POP JUMP JUMPDEST PUSH1 0x1F DUP3 GT ISZERO PUSH2 0x281A JUMPI PUSH2 0x27EB DUP2 PUSH2 0x26C5 JUMP JUMPDEST PUSH2 0x27F4 DUP5 PUSH2 0x26D7 JUMP JUMPDEST DUP2 ADD PUSH1 0x20 DUP6 LT ISZERO PUSH2 0x2803 JUMPI DUP2 SWAP1 POP JUMPDEST PUSH2 0x2817 PUSH2 0x280F DUP6 PUSH2 0x26D7 JUMP JUMPDEST DUP4 ADD DUP3 PUSH2 0x27B7 JUMP JUMPDEST POP POP JUMPDEST POP POP POP JUMP JUMPDEST PUSH0 DUP3 DUP3 SHR SWAP1 POP SWAP3 SWAP2 POP POP JUMP JUMPDEST PUSH0 PUSH2 0x283A PUSH0 NOT DUP5 PUSH1 0x8 MUL PUSH2 0x281F JUMP JUMPDEST NOT DUP1 DUP4 AND SWAP2 POP POP SWAP3 SWAP2 POP POP JUMP JUMPDEST PUSH0 PUSH2 0x2852 DUP4 DUP4 PUSH2 0x282B JUMP JUMPDEST SWAP2 POP DUP3 PUSH1 0x2 MUL DUP3 OR SWAP1 POP SWAP3 SWAP2 POP POP JUMP JUMPDEST PUSH2 0x286B DUP3 PUSH2 0x1D92 JUMP JUMPDEST PUSH8 0xFFFFFFFFFFFFFFFF DUP2 GT ISZERO PUSH2 0x2884 JUMPI PUSH2 0x2883 PUSH2 0x1FE9 JUMP JUMPDEST JUMPDEST PUSH2 0x288E DUP3 SLOAD PUSH2 0x2438 JUMP JUMPDEST PUSH2 0x2899 DUP3 DUP3 DUP6 PUSH2 0x27D9 JUMP JUMPDEST PUSH0 PUSH1 0x20 SWAP1 POP PUSH1 0x1F DUP4 GT PUSH1 0x1 DUP2 EQ PUSH2 0x28CA JUMPI PUSH0 DUP5 ISZERO PUSH2 0x28B8 JUMPI DUP3 DUP8 ADD MLOAD SWAP1 POP JUMPDEST PUSH2 0x28C2 DUP6 DUP3 PUSH2 0x2847 JUMP JUMPDEST DUP7 SSTORE POP PUSH2 0x2929 JUMP JUMPDEST PUSH1 0x1F NOT DUP5 AND PUSH2 0x28D8 DUP7 PUSH2 0x26C5 JUMP JUMPDEST PUSH0 JUMPDEST DUP3 DUP2 LT ISZERO PUSH2 0x28FF JUMPI DUP5 DUP10 ADD MLOAD DUP3 SSTORE PUSH1 0x1 DUP3 ADD SWAP2 POP PUSH1 0x20 DUP6 ADD SWAP5 POP PUSH1 0x20 DUP2 ADD SWAP1 POP PUSH2 0x28DA JUMP JUMPDEST DUP7 DUP4 LT ISZERO PUSH2 0x291C JUMPI DUP5 DUP10 ADD MLOAD PUSH2 0x2918 PUSH1 0x1F DUP10 AND DUP3 PUSH2 0x282B JUMP JUMPDEST DUP4 SSTORE POP JUMPDEST PUSH1 0x1 PUSH1 0x2 DUP9 MUL ADD DUP9 SSTORE POP POP POP JUMPDEST POP POP POP POP POP POP JUMP JUMPDEST PUSH0 DUP2 MLOAD SWAP1 POP SWAP2 SWAP1 POP JUMP JUMPDEST PUSH0 DUP3 DUP3 MSTORE PUSH1 0x20 DUP3 ADD SWAP1 POP SWAP3 SWAP2 POP POP JUMP JUMPDEST PUSH0 PUSH2 0x2955 DUP3 PUSH2 0x2931 JUMP JUMPDEST PUSH2 0x295F DUP2 DUP6 PUSH2 0x293B JUMP JUMPDEST SWAP4 POP PUSH2 0x296F DUP2 DUP6 PUSH1 0x20 DUP7 ADD PUSH2 0x1DAC JUMP JUMPDEST PUSH2 0x2978 DUP2 PUSH2 0x1DD4 JUMP JUMPDEST DUP5 ADD SWAP2 POP POP SWAP3 SWAP2 POP POP JUMP JUMPDEST PUSH0 PUSH1 0x80 DUP3 ADD SWAP1 POP PUSH2 0x2996 PUSH0 DUP4 ADD DUP8 PUSH2 0x1ECA JUMP JUMPDEST PUSH2 0x29A3 PUSH1 0x20 DUP4 ADD DUP7 PUSH2 0x1ECA JUMP JUMPDEST PUSH2 0x29B0 PUSH1 0x40 DUP4 ADD DUP6 PUSH2 0x2167 JUMP JUMPDEST DUP2 DUP2 SUB PUSH1 0x60 DUP4 ADD MSTORE PUSH2 0x29C2 DUP2 DUP5 PUSH2 0x294B JUMP JUMPDEST SWAP1 POP SWAP6 SWAP5 POP POP POP POP POP JUMP JUMPDEST PUSH0 DUP2 MLOAD SWAP1 POP PUSH2 0x29DB DUP2 PUSH2 0x1D0A JUMP JUMPDEST SWAP3 SWAP2 POP POP JUMP JUMPDEST PUSH0 PUSH1 0x20 DUP3 DUP5 SUB SLT ISZERO PUSH2 0x29F6 JUMPI PUSH2 0x29F5 PUSH2 0x1CD7 JUMP JUMPDEST JUMPDEST PUSH0 PUSH2 0x2A03 DUP5 DUP3 DUP6 ADD PUSH2 0x29CD JUMP JUMPDEST SWAP2 POP POP SWAP3 SWAP2 POP POP JUMP JUMPDEST PUSH0 PUSH1 0x40 DUP3 ADD SWAP1 POP PUSH2 0x2A1F PUSH0 DUP4 ADD DUP6 PUSH2 0x1ECA JUMP JUMPDEST PUSH2 0x2A2C PUSH1 0x20 DUP4 ADD DUP5 PUSH2 0x2167 JUMP JUMPDEST SWAP4 SWAP3 POP POP POP JUMP INVALID PUSH10 0x7066733A2F2F62616679 PUSH3 0x656968 PUSH19 0x6E686A7634636571766C7467336D7967696669 PUSH22 0x6B657479347375687A62643771326769766862657075 PUSH4 0x766C3278 PUSH15 0x32652FA2646970667358221220A15B 0xF ORIGIN 0xFC 0xE MOD 0xB7 0xF8 0x2B PUSH31 0xDA1DD3974D0BE639B3AE093C73AC0075FEB229135664736F6C634300081400 CALLER "
		},
		"gasEstimates": {
			"creation": {
				"codeDepositCost": "2184800",
				"executionCost": "infinite",
				"totalCost": "infinite"
			},
			"external": {
				"MAJOR_ARCANA_URI()": "infinite",
				"approve(address,uint256)": "infinite",
				"balanceOf(address)": "infinite",
				"callbackGasLimit()": "2600",
				"drawCard()": "infinite",
				"getApproved(uint256)": "infinite",
				"getCurrentTokenId()": "2568",
				"isApprovedForAll(address,address)": "infinite",
				"keyHash()": "2536",
				"lastRequestId()": "2535",
				"mintReading(address,string)": "infinite",
				"name()": "infinite",
				"numWords()": "2562",
				"ownerOf(uint256)": "infinite",
				"requestConfirmations()": "2606",
				"requestIds(uint256)": "infinite",
				"s_requests(uint256)": "infinite",
				"s_subscriptionId()": "2514",
				"safeTransferFrom(address,address,uint256)": "infinite",
				"safeTransferFrom(address,address,uint256,bytes)": "infinite",
				"setApprovalForAll(address,bool)": "infinite",
				"supportsInterface(bytes4)": "881",
				"symbol()": "infinite",
				"tokenURI(uint256)": "infinite",
				"transferFrom(address,address,uint256)": "infinite"
			},
			"internal": {
				"indexOf(string memory[] memory,string memory)": "infinite",
				"random(uint256)": "infinite"
			}
		},
		"methodIdentifiers": {
			"MAJOR_ARCANA_URI()": "a8f137c0",
			"approve(address,uint256)": "095ea7b3",
			"balanceOf(address)": "70a08231",
			"callbackGasLimit()": "24f74697",
			"drawCard()": "2f5be23e",
			"getApproved(uint256)": "081812fc",
			"getCurrentTokenId()": "56189236",
			"isApprovedForAll(address,address)": "e985e9c5",
			"keyHash()": "61728f39",
			"lastRequestId()": "fc2a88c3",
			"mintReading(address,string)": "3c2b2ac1",
			"name()": "06fdde03",
			"numWords()": "7ccfd7fc",
			"ownerOf(uint256)": "6352211e",
			"requestConfirmations()": "b0fb162f",
			"requestIds(uint256)": "8796ba8c",
			"s_requests(uint256)": "a168fa89",
			"s_subscriptionId()": "8ac00021",
			"safeTransferFrom(address,address,uint256)": "42842e0e",
			"safeTransferFrom(address,address,uint256,bytes)": "b88d4fde",
			"setApprovalForAll(address,bool)": "a22cb465",
			"supportsInterface(bytes4)": "01ffc9a7",
			"symbol()": "95d89b41",
			"tokenURI(uint256)": "c87b56dd",
			"transferFrom(address,address,uint256)": "23b872dd"
		}
	},
	"abi": [
		{
			"inputs": [],
			"stateMutability": "nonpayable",
			"type": "constructor"
		},
		{
			"inputs": [
				{
					"internalType": "address",
					"name": "sender",
					"type": "address"
				},
				{
					"internalType": "uint256",
					"name": "tokenId",
					"type": "uint256"
				},
				{
					"internalType": "address",
					"name": "owner",
					"type": "address"
				}
			],
			"name": "ERC721IncorrectOwner",
			"type": "error"
		},
		{
			"inputs": [
				{
					"internalType": "address",
					"name": "operator",
					"type": "address"
				},
				{
					"internalType": "uint256",
					"name": "tokenId",
					"type": "uint256"
				}
			],
			"name": "ERC721InsufficientApproval",
			"type": "error"
		},
		{
			"inputs": [
				{
					"internalType": "address",
					"name": "approver",
					"type": "address"
				}
			],
			"name": "ERC721InvalidApprover",
			"type": "error"
		},
		{
			"inputs": [
				{
					"internalType": "address",
					"name": "operator",
					"type": "address"
				}
			],
			"name": "ERC721InvalidOperator",
			"type": "error"
		},
		{
			"inputs": [
				{
					"internalType": "address",
					"name": "owner",
					"type": "address"
				}
			],
			"name": "ERC721InvalidOwner",
			"type": "error"
		},
		{
			"inputs": [
				{
					"internalType": "address",
					"name": "receiver",
					"type": "address"
				}
			],
			"name": "ERC721InvalidReceiver",
			"type": "error"
		},
		{
			"inputs": [
				{
					"internalType": "address",
					"name": "sender",
					"type": "address"
				}
			],
			"name": "ERC721InvalidSender",
			"type": "error"
		},
		{
			"inputs": [
				{
					"internalType": "uint256",
					"name": "tokenId",
					"type": "uint256"
				}
			],
			"name": "ERC721NonexistentToken",
			"type": "error"
		},
		{
			"anonymous": false,
			"inputs": [
				{
					"indexed": true,
					"internalType": "address",
					"name": "owner",
					"type": "address"
				},
				{
					"indexed": true,
					"internalType": "address",
					"name": "approved",
					"type": "address"
				},
				{
					"indexed": true,
					"internalType": "uint256",
					"name": "tokenId",
					"type": "uint256"
				}
			],
			"name": "Approval",
			"type": "event"
		},
		{
			"anonymous": false,
			"inputs": [
				{
					"indexed": true,
					"internalType": "address",
					"name": "owner",
					"type": "address"
				},
				{
					"indexed": true,
					"internalType": "address",
					"name": "operator",
					"type": "address"
				},
				{
					"indexed": false,
					"internalType": "bool",
					"name": "approved",
					"type": "bool"
				}
			],
			"name": "ApprovalForAll",
			"type": "event"
		},
		{
			"anonymous": false,
			"inputs": [
				{
					"indexed": false,
					"internalType": "uint256",
					"name": "_fromTokenId",
					"type": "uint256"
				},
				{
					"indexed": false,
					"internalType": "uint256",
					"name": "_toTokenId",
					"type": "uint256"
				}
			],
			"name": "BatchMetadataUpdate",
			"type": "event"
		},
		{
			"anonymous": false,
			"inputs": [
				{
					"indexed": false,
					"internalType": "uint256",
					"name": "_tokenId",
					"type": "uint256"
				}
			],
			"name": "MetadataUpdate",
			"type": "event"
		},
		{
			"anonymous": false,
			"inputs": [
				{
					"indexed": false,
					"internalType": "uint256",
					"name": "requestId",
					"type": "uint256"
				},
				{
					"indexed": false,
					"internalType": "uint256[]",
					"name": "randomWords",
					"type": "uint256[]"
				}
			],
			"name": "RequestFulfilled",
			"type": "event"
		},
		{
			"anonymous": false,
			"inputs": [
				{
					"indexed": false,
					"internalType": "uint256",
					"name": "requestId",
					"type": "uint256"
				},
				{
					"indexed": false,
					"internalType": "uint32",
					"name": "numWords",
					"type": "uint32"
				}
			],
			"name": "RequestSent",
			"type": "event"
		},
		{
			"anonymous": false,
			"inputs": [
				{
					"indexed": true,
					"internalType": "address",
					"name": "from",
					"type": "address"
				},
				{
					"indexed": true,
					"internalType": "address",
					"name": "to",
					"type": "address"
				},
				{
					"indexed": true,
					"internalType": "uint256",
					"name": "tokenId",
					"type": "uint256"
				}
			],
			"name": "Transfer",
			"type": "event"
		},
		{
			"inputs": [],
			"name": "MAJOR_ARCANA_URI",
			"outputs": [
				{
					"internalType": "string",
					"name": "",
					"type": "string"
				}
			],
			"stateMutability": "view",
			"type": "function"
		},
		{
			"inputs": [
				{
					"internalType": "address",
					"name": "to",
					"type": "address"
				},
				{
					"internalType": "uint256",
					"name": "tokenId",
					"type": "uint256"
				}
			],
			"name": "approve",
			"outputs": [],
			"stateMutability": "nonpayable",
			"type": "function"
		},
		{
			"inputs": [
				{
					"internalType": "address",
					"name": "owner",
					"type": "address"
				}
			],
			"name": "balanceOf",
			"outputs": [
				{
					"internalType": "uint256",
					"name": "",
					"type": "uint256"
				}
			],
			"stateMutability": "view",
			"type": "function"
		},
		{
			"inputs": [],
			"name": "callbackGasLimit",
			"outputs": [
				{
					"internalType": "uint32",
					"name": "",
					"type": "uint32"
				}
			],
			"stateMutability": "view",
			"type": "function"
		},
		{
			"inputs": [],
			"name": "drawCard",
			"outputs": [
				{
					"internalType": "string",
					"name": "",
					"type": "string"
				}
			],
			"stateMutability": "view",
			"type": "function"
		},
		{
			"inputs": [
				{
					"internalType": "uint256",
					"name": "tokenId",
					"type": "uint256"
				}
			],
			"name": "getApproved",
			"outputs": [
				{
					"internalType": "address",
					"name": "",
					"type": "address"
				}
			],
			"stateMutability": "view",
			"type": "function"
		},
		{
			"inputs": [],
			"name": "getCurrentTokenId",
			"outputs": [
				{
					"internalType": "uint256",
					"name": "",
					"type": "uint256"
				}
			],
			"stateMutability": "view",
			"type": "function"
		},
		{
			"inputs": [
				{
					"internalType": "address",
					"name": "owner",
					"type": "address"
				},
				{
					"internalType": "address",
					"name": "operator",
					"type": "address"
				}
			],
			"name": "isApprovedForAll",
			"outputs": [
				{
					"internalType": "bool",
					"name": "",
					"type": "bool"
				}
			],
			"stateMutability": "view",
			"type": "function"
		},
		{
			"inputs": [],
			"name": "keyHash",
			"outputs": [
				{
					"internalType": "bytes32",
					"name": "",
					"type": "bytes32"
				}
			],
			"stateMutability": "view",
			"type": "function"
		},
		{
			"inputs": [],
			"name": "lastRequestId",
			"outputs": [
				{
					"internalType": "uint256",
					"name": "",
					"type": "uint256"
				}
			],
			"stateMutability": "view",
			"type": "function"
		},
		{
			"inputs": [
				{
					"internalType": "address",
					"name": "to",
					"type": "address"
				},
				{
					"internalType": "string",
					"name": "tokenURI",
					"type": "string"
				}
			],
			"name": "mintReading",
			"outputs": [],
			"stateMutability": "nonpayable",
			"type": "function"
		},
		{
			"inputs": [],
			"name": "name",
			"outputs": [
				{
					"internalType": "string",
					"name": "",
					"type": "string"
				}
			],
			"stateMutability": "view",
			"type": "function"
		},
		{
			"inputs": [],
			"name": "numWords",
			"outputs": [
				{
					"internalType": "uint32",
					"name": "",
					"type": "uint32"
				}
			],
			"stateMutability": "view",
			"type": "function"
		},
		{
			"inputs": [
				{
					"internalType": "uint256",
					"name": "tokenId",
					"type": "uint256"
				}
			],
			"name": "ownerOf",
			"outputs": [
				{
					"internalType": "address",
					"name": "",
					"type": "address"
				}
			],
			"stateMutability": "view",
			"type": "function"
		},
		{
			"inputs": [],
			"name": "requestConfirmations",
			"outputs": [
				{
					"internalType": "uint16",
					"name": "",
					"type": "uint16"
				}
			],
			"stateMutability": "view",
			"type": "function"
		},
		{
			"inputs": [
				{
					"internalType": "uint256",
					"name": "",
					"type": "uint256"
				}
			],
			"name": "requestIds",
			"outputs": [
				{
					"internalType": "uint256",
					"name": "",
					"type": "uint256"
				}
			],
			"stateMutability": "view",
			"type": "function"
		},
		{
			"inputs": [
				{
					"internalType": "uint256",
					"name": "",
					"type": "uint256"
				}
			],
			"name": "s_requests",
			"outputs": [
				{
					"internalType": "bool",
					"name": "fulfilled",
					"type": "bool"
				},
				{
					"internalType": "bool",
					"name": "exists",
					"type": "bool"
				}
			],
			"stateMutability": "view",
			"type": "function"
		},
		{
			"inputs": [],
			"name": "s_subscriptionId",
			"outputs": [
				{
					"internalType": "uint256",
					"name": "",
					"type": "uint256"
				}
			],
			"stateMutability": "view",
			"type": "function"
		},
		{
			"inputs": [
				{
					"internalType": "address",
					"name": "from",
					"type": "address"
				},
				{
					"internalType": "address",
					"name": "to",
					"type": "address"
				},
				{
					"internalType": "uint256",
					"name": "tokenId",
					"type": "uint256"
				}
			],
			"name": "safeTransferFrom",
			"outputs": [],
			"stateMutability": "nonpayable",
			"type": "function"
		},
		{
			"inputs": [
				{
					"internalType": "address",
					"name": "from",
					"type": "address"
				},
				{
					"internalType": "address",
					"name": "to",
					"type": "address"
				},
				{
					"internalType": "uint256",
					"name": "tokenId",
					"type": "uint256"
				},
				{
					"internalType": "bytes",
					"name": "data",
					"type": "bytes"
				}
			],
			"name": "safeTransferFrom",
			"outputs": [],
			"stateMutability": "nonpayable",
			"type": "function"
		},
		{
			"inputs": [
				{
					"internalType": "address",
					"name": "operator",
					"type": "address"
				},
				{
					"internalType": "bool",
					"name": "approved",
					"type": "bool"
				}
			],
			"name": "setApprovalForAll",
			"outputs": [],
			"stateMutability": "nonpayable",
			"type": "function"
		},
		{
			"inputs": [
				{
					"internalType": "bytes4",
					"name": "interfaceId",
					"type": "bytes4"
				}
			],
			"name": "supportsInterface",
			"outputs": [
				{
					"internalType": "bool",
					"name": "",
					"type": "bool"
				}
			],
			"stateMutability": "view",
			"type": "function"
		},
		{
			"inputs": [],
			"name": "symbol",
			"outputs": [
				{
					"internalType": "string",
					"name": "",
					"type": "string"
				}
			],
			"stateMutability": "view",
			"type": "function"
		},
		{
			"inputs": [
				{
					"internalType": "uint256",
					"name": "tokenId",
					"type": "uint256"
				}
			],
			"name": "tokenURI",
			"outputs": [
				{
					"internalType": "string",
					"name": "",
					"type": "string"
				}
			],
			"stateMutability": "view",
			"type": "function"
		},
		{
			"inputs": [
				{
					"internalType": "address",
					"name": "from",
					"type": "address"
				},
				{
					"internalType": "address",
					"name": "to",
					"type": "address"
				},
				{
					"internalType": "uint256",
					"name": "tokenId",
					"type": "uint256"
				}
			],
			"name": "transferFrom",
			"outputs": [],
			"stateMutability": "nonpayable",
			"type": "function"
		}
	]
}