{
	"art3mis/Art3mis.sol": {
		"Art3mis": {
			"abi": [
				{
					"inputs": [],
					"stateMutability": "nonpayable",
					"type": "constructor"
				},
				{
					"inputs": [
						{
							"internalType": "address",
							"name": "sender",
							"type": "address"
						},
						{
							"internalType": "uint256",
							"name": "tokenId",
							"type": "uint256"
						},
						{
							"internalType": "address",
							"name": "owner",
							"type": "address"
						}
					],
					"name": "ERC721IncorrectOwner",
					"type": "error"
				},
				{
					"inputs": [
						{
							"internalType": "address",
							"name": "operator",
							"type": "address"
						},
						{
							"internalType": "uint256",
							"name": "tokenId",
							"type": "uint256"
						}
					],
					"name": "ERC721InsufficientApproval",
					"type": "error"
				},
				{
					"inputs": [
						{
							"internalType": "address",
							"name": "approver",
							"type": "address"
						}
					],
					"name": "ERC721InvalidApprover",
					"type": "error"
				},
				{
					"inputs": [
						{
							"internalType": "address",
							"name": "operator",
							"type": "address"
						}
					],
					"name": "ERC721InvalidOperator",
					"type": "error"
				},
				{
					"inputs": [
						{
							"internalType": "address",
							"name": "owner",
							"type": "address"
						}
					],
					"name": "ERC721InvalidOwner",
					"type": "error"
				},
				{
					"inputs": [
						{
							"internalType": "address",
							"name": "receiver",
							"type": "address"
						}
					],
					"name": "ERC721InvalidReceiver",
					"type": "error"
				},
				{
					"inputs": [
						{
							"internalType": "address",
							"name": "sender",
							"type": "address"
						}
					],
					"name": "ERC721InvalidSender",
					"type": "error"
				},
				{
					"inputs": [
						{
							"internalType": "uint256",
							"name": "tokenId",
							"type": "uint256"
						}
					],
					"name": "ERC721NonexistentToken",
					"type": "error"
				},
				{
					"anonymous": false,
					"inputs": [
						{
							"indexed": true,
							"internalType": "address",
							"name": "owner",
							"type": "address"
						},
						{
							"indexed": true,
							"internalType": "address",
							"name": "approved",
							"type": "address"
						},
						{
							"indexed": true,
							"internalType": "uint256",
							"name": "tokenId",
							"type": "uint256"
						}
					],
					"name": "Approval",
					"type": "event"
				},
				{
					"anonymous": false,
					"inputs": [
						{
							"indexed": true,
							"internalType": "address",
							"name": "owner",
							"type": "address"
						},
						{
							"indexed": true,
							"internalType": "address",
							"name": "operator",
							"type": "address"
						},
						{
							"indexed": false,
							"internalType": "bool",
							"name": "approved",
							"type": "bool"
						}
					],
					"name": "ApprovalForAll",
					"type": "event"
				},
				{
					"anonymous": false,
					"inputs": [
						{
							"indexed": false,
							"internalType": "uint256",
							"name": "_fromTokenId",
							"type": "uint256"
						},
						{
							"indexed": false,
							"internalType": "uint256",
							"name": "_toTokenId",
							"type": "uint256"
						}
					],
					"name": "BatchMetadataUpdate",
					"type": "event"
				},
				{
					"anonymous": false,
					"inputs": [
						{
							"indexed": false,
							"internalType": "uint256",
							"name": "_tokenId",
							"type": "uint256"
						}
					],
					"name": "MetadataUpdate",
					"type": "event"
				},
				{
					"anonymous": false,
					"inputs": [
						{
							"indexed": true,
							"internalType": "address",
							"name": "from",
							"type": "address"
						},
						{
							"indexed": true,
							"internalType": "address",
							"name": "to",
							"type": "address"
						},
						{
							"indexed": true,
							"internalType": "uint256",
							"name": "tokenId",
							"type": "uint256"
						}
					],
					"name": "Transfer",
					"type": "event"
				},
				{
					"inputs": [],
					"name": "MAJOR_ARCANA_URI",
					"outputs": [
						{
							"internalType": "string",
							"name": "",
							"type": "string"
						}
					],
					"stateMutability": "view",
					"type": "function"
				},
				{
					"inputs": [
						{
							"internalType": "address",
							"name": "to",
							"type": "address"
						},
						{
							"internalType": "uint256",
							"name": "tokenId",
							"type": "uint256"
						}
					],
					"name": "approve",
					"outputs": [],
					"stateMutability": "nonpayable",
					"type": "function"
				},
				{
					"inputs": [
						{
							"internalType": "address",
							"name": "owner",
							"type": "address"
						}
					],
					"name": "balanceOf",
					"outputs": [
						{
							"internalType": "uint256",
							"name": "",
							"type": "uint256"
						}
					],
					"stateMutability": "view",
					"type": "function"
				},
				{
					"inputs": [],
					"name": "drawCard",
					"outputs": [
						{
							"internalType": "string",
							"name": "",
							"type": "string"
						}
					],
					"stateMutability": "view",
					"type": "function"
				},
				{
					"inputs": [
						{
							"internalType": "uint256",
							"name": "tokenId",
							"type": "uint256"
						}
					],
					"name": "getApproved",
					"outputs": [
						{
							"internalType": "address",
							"name": "",
							"type": "address"
						}
					],
					"stateMutability": "view",
					"type": "function"
				},
				{
					"inputs": [],
					"name": "getCurrentTokenId",
					"outputs": [
						{
							"internalType": "uint256",
							"name": "",
							"type": "uint256"
						}
					],
					"stateMutability": "view",
					"type": "function"
				},
				{
					"inputs": [
						{
							"internalType": "address",
							"name": "owner",
							"type": "address"
						},
						{
							"internalType": "address",
							"name": "operator",
							"type": "address"
						}
					],
					"name": "isApprovedForAll",
					"outputs": [
						{
							"internalType": "bool",
							"name": "",
							"type": "bool"
						}
					],
					"stateMutability": "view",
					"type": "function"
				},
				{
					"inputs": [
						{
							"internalType": "address",
							"name": "to",
							"type": "address"
						},
						{
							"internalType": "string",
							"name": "tokenURI",
							"type": "string"
						}
					],
					"name": "mintReading",
					"outputs": [],
					"stateMutability": "nonpayable",
					"type": "function"
				},
				{
					"inputs": [],
					"name": "name",
					"outputs": [
						{
							"internalType": "string",
							"name": "",
							"type": "string"
						}
					],
					"stateMutability": "view",
					"type": "function"
				},
				{
					"inputs": [
						{
							"internalType": "uint256",
							"name": "tokenId",
							"type": "uint256"
						}
					],
					"name": "ownerOf",
					"outputs": [
						{
							"internalType": "address",
							"name": "",
							"type": "address"
						}
					],
					"stateMutability": "view",
					"type": "function"
				},
				{
					"inputs": [
						{
							"internalType": "address",
							"name": "from",
							"type": "address"
						},
						{
							"internalType": "address",
							"name": "to",
							"type": "address"
						},
						{
							"internalType": "uint256",
							"name": "tokenId",
							"type": "uint256"
						}
					],
					"name": "safeTransferFrom",
					"outputs": [],
					"stateMutability": "nonpayable",
					"type": "function"
				},
				{
					"inputs": [
						{
							"internalType": "address",
							"name": "from",
							"type": "address"
						},
						{
							"internalType": "address",
							"name": "to",
							"type": "address"
						},
						{
							"internalType": "uint256",
							"name": "tokenId",
							"type": "uint256"
						},
						{
							"internalType": "bytes",
							"name": "data",
							"type": "bytes"
						}
					],
					"name": "safeTransferFrom",
					"outputs": [],
					"stateMutability": "nonpayable",
					"type": "function"
				},
				{
					"inputs": [
						{
							"internalType": "address",
							"name": "operator",
							"type": "address"
						},
						{
							"internalType": "bool",
							"name": "approved",
							"type": "bool"
						}
					],
					"name": "setApprovalForAll",
					"outputs": [],
					"stateMutability": "nonpayable",
					"type": "function"
				},
				{
					"inputs": [
						{
							"internalType": "bytes4",
							"name": "interfaceId",
							"type": "bytes4"
						}
					],
					"name": "supportsInterface",
					"outputs": [
						{
							"internalType": "bool",
							"name": "",
							"type": "bool"
						}
					],
					"stateMutability": "view",
					"type": "function"
				},
				{
					"inputs": [],
					"name": "symbol",
					"outputs": [
						{
							"internalType": "string",
							"name": "",
							"type": "string"
						}
					],
					"stateMutability": "view",
					"type": "function"
				},
				{
					"inputs": [
						{
							"internalType": "uint256",
							"name": "tokenId",
							"type": "uint256"
						}
					],
					"name": "tokenURI",
					"outputs": [
						{
							"internalType": "string",
							"name": "",
							"type": "string"
						}
					],
					"stateMutability": "view",
					"type": "function"
				},
				{
					"inputs": [
						{
							"internalType": "address",
							"name": "from",
							"type": "address"
						},
						{
							"internalType": "address",
							"name": "to",
							"type": "address"
						},
						{
							"internalType": "uint256",
							"name": "tokenId",
							"type": "uint256"
						}
					],
					"name": "transferFrom",
					"outputs": [],
					"stateMutability": "nonpayable",
					"type": "function"
				}
			],
			"devdoc": {
				"errors": {
					"ERC721IncorrectOwner(address,uint256,address)": [
						{
							"details": "Indicates an error related to the ownership over a particular token. Used in transfers.",
							"params": {
								"owner": "Address of the current owner of a token.",
								"sender": "Address whose tokens are being transferred.",
								"tokenId": "Identifier number of a token."
							}
						}
					],
					"ERC721InsufficientApproval(address,uint256)": [
						{
							"details": "Indicates a failure with the `operator`’s approval. Used in transfers.",
							"params": {
								"operator": "Address that may be allowed to operate on tokens without being their owner.",
								"tokenId": "Identifier number of a token."
							}
						}
					],
					"ERC721InvalidApprover(address)": [
						{
							"details": "Indicates a failure with the `approver` of a token to be approved. Used in approvals.",
							"params": {
								"approver": "Address initiating an approval operation."
							}
						}
					],
					"ERC721InvalidOperator(address)": [
						{
							"details": "Indicates a failure with the `operator` to be approved. Used in approvals.",
							"params": {
								"operator": "Address that may be allowed to operate on tokens without being their owner."
							}
						}
					],
					"ERC721InvalidOwner(address)": [
						{
							"details": "Indicates that an address can't be an owner. For example, `address(0)` is a forbidden owner in EIP-20. Used in balance queries.",
							"params": {
								"owner": "Address of the current owner of a token."
							}
						}
					],
					"ERC721InvalidReceiver(address)": [
						{
							"details": "Indicates a failure with the token `receiver`. Used in transfers.",
							"params": {
								"receiver": "Address to which tokens are being transferred."
							}
						}
					],
					"ERC721InvalidSender(address)": [
						{
							"details": "Indicates a failure with the token `sender`. Used in transfers.",
							"params": {
								"sender": "Address whose tokens are being transferred."
							}
						}
					],
					"ERC721NonexistentToken(uint256)": [
						{
							"details": "Indicates a `tokenId` whose `owner` is the zero address.",
							"params": {
								"tokenId": "Identifier number of a token."
							}
						}
					]
				},
				"events": {
					"Approval(address,address,uint256)": {
						"details": "Emitted when `owner` enables `approved` to manage the `tokenId` token."
					},
					"ApprovalForAll(address,address,bool)": {
						"details": "Emitted when `owner` enables or disables (`approved`) `operator` to manage all of its assets."
					},
					"BatchMetadataUpdate(uint256,uint256)": {
						"details": "This event emits when the metadata of a range of tokens is changed. So that the third-party platforms such as NFT market could timely update the images and related attributes of the NFTs."
					},
					"MetadataUpdate(uint256)": {
						"details": "This event emits when the metadata of a token is changed. So that the third-party platforms such as NFT market could timely update the images and related attributes of the NFT."
					},
					"Transfer(address,address,uint256)": {
						"details": "Emitted when `tokenId` token is transferred from `from` to `to`."
					}
				},
				"kind": "dev",
				"methods": {
					"approve(address,uint256)": {
						"details": "See {IERC721-approve}."
					},
					"balanceOf(address)": {
						"details": "See {IERC721-balanceOf}."
					},
					"getApproved(uint256)": {
						"details": "See {IERC721-getApproved}."
					},
					"isApprovedForAll(address,address)": {
						"details": "See {IERC721-isApprovedForAll}."
					},
					"name()": {
						"details": "See {IERC721Metadata-name}."
					},
					"ownerOf(uint256)": {
						"details": "See {IERC721-ownerOf}."
					},
					"safeTransferFrom(address,address,uint256)": {
						"details": "See {IERC721-safeTransferFrom}."
					},
					"safeTransferFrom(address,address,uint256,bytes)": {
						"details": "See {IERC721-safeTransferFrom}."
					},
					"setApprovalForAll(address,bool)": {
						"details": "See {IERC721-setApprovalForAll}."
					},
					"supportsInterface(bytes4)": {
						"details": "See {IERC165-supportsInterface}"
					},
					"symbol()": {
						"details": "See {IERC721Metadata-symbol}."
					},
					"tokenURI(uint256)": {
						"details": "See {IERC721Metadata-tokenURI}."
					},
					"transferFrom(address,address,uint256)": {
						"details": "See {IERC721-transferFrom}."
					}
				},
				"version": 1
			},
			"evm": {
				"assembly": "    /* \"art3mis/Art3mis.sol\":248:3405  contract Art3mis is ERC721URIStorage {... */\n  mstore(0x40, 0x80)\n    /* \"art3mis/Art3mis.sol\":499:1114  string[22] private MAJOR_ARCANA_NAME = [... */\n  mload(0x40)\n  dup1\n  0x02c0\n  add\n  0x40\n  mstore\n  dup1\n  mload(0x40)\n  dup1\n  0x40\n  add\n  0x40\n  mstore\n  dup1\n  0x0a\n  dup2\n  mstore\n  0x20\n  add\n  0x302054686520466f6f6c00000000000000000000000000000000000000000000\n  dup2\n  mstore\n  pop\n  dup2\n  mstore\n  0x20\n  add\n  mload(0x40)\n  dup1\n  0x40\n  add\n  0x40\n  mstore\n  dup1\n  0x0e\n  dup2\n  mstore\n  0x20\n  add\n  0x4920546865204d6167696369616e000000000000000000000000000000000000\n  dup2\n  mstore\n  pop\n  dup2\n  mstore\n  0x20\n  add\n  mload(0x40)\n  dup1\n  0x40\n  add\n  0x40\n  mstore\n  dup1\n  0x15\n  dup2\n  mstore\n  0x20\n  add\n  0x4949205468652048696768205072696573746573730000000000000000000000\n  dup2\n  mstore\n  pop\n  dup2\n  mstore\n  0x20\n  add\n  mload(0x40)\n  dup1\n  0x40\n  add\n  0x40\n  mstore\n  dup1\n  0x0f\n  dup2\n  mstore\n  0x20\n  add\n  0x4949492054686520456d70726573730000000000000000000000000000000000\n  dup2\n  mstore\n  pop\n  dup2\n  mstore\n  0x20\n  add\n  mload(0x40)\n  dup1\n  0x40\n  add\n  0x40\n  mstore\n  dup1\n  0x0e\n  dup2\n  mstore\n  0x20\n  add\n  0x49562054686520456d7065726f72000000000000000000000000000000000000\n  dup2\n  mstore\n  pop\n  dup2\n  mstore\n  0x20\n  add\n  mload(0x40)\n  dup1\n  0x40\n  add\n  0x40\n  mstore\n  dup1\n  0x10\n  dup2\n  mstore\n  0x20\n  add\n  0x562054686520486965726f7068616e7400000000000000000000000000000000\n  dup2\n  mstore\n  pop\n  dup2\n  mstore\n  0x20\n  add\n  mload(0x40)\n  dup1\n  0x40\n  add\n  0x40\n  mstore\n  dup1\n  0x0d\n  dup2\n  mstore\n  0x20\n  add\n  0x564920546865204c6f7665727300000000000000000000000000000000000000\n  dup2\n  mstore\n  pop\n  dup2\n  mstore\n  0x20\n  add\n  mload(0x40)\n  dup1\n  0x40\n  add\n  0x40\n  mstore\n  dup1\n  0x0f\n  dup2\n  mstore\n  0x20\n  add\n  0x564949205468652043686172696f740000000000000000000000000000000000\n  dup2\n  mstore\n  pop\n  dup2\n  mstore\n  0x20\n  add\n  mload(0x40)\n  dup1\n  0x40\n  add\n  0x40\n  mstore\n  dup1\n  0x0d\n  dup2\n  mstore\n  0x20\n  add\n  0x5649494920537472656e67746800000000000000000000000000000000000000\n  dup2\n  mstore\n  pop\n  dup2\n  mstore\n  0x20\n  add\n  mload(0x40)\n  dup1\n  0x40\n  add\n  0x40\n  mstore\n  dup1\n  0x0d\n  dup2\n  mstore\n  0x20\n  add\n  0x495820546865204865726d697400000000000000000000000000000000000000\n  dup2\n  mstore\n  pop\n  dup2\n  mstore\n  0x20\n  add\n  mload(0x40)\n  dup1\n  0x40\n  add\n  0x40\n  mstore\n  dup1\n  0x16\n  dup2\n  mstore\n  0x20\n  add\n  0x582054686520576865656c206f6620466f7274756e6500000000000000000000\n  dup2\n  mstore\n  pop\n  dup2\n  mstore\n  0x20\n  add\n  mload(0x40)\n  dup1\n  0x40\n  add\n  0x40\n  mstore\n  dup1\n  0x0a\n  dup2\n  mstore\n  0x20\n  add\n  0x5849204a75737469636500000000000000000000000000000000000000000000\n  dup2\n  mstore\n  pop\n  dup2\n  mstore\n  0x20\n  add\n  mload(0x40)\n  dup1\n  0x40\n  add\n  0x40\n  mstore\n  dup1\n  0x12\n  dup2\n  mstore\n  0x20\n  add\n  0x584949205468652048616e676564204d616e0000000000000000000000000000\n  dup2\n  mstore\n  pop\n  dup2\n  mstore\n  0x20\n  add\n  mload(0x40)\n  dup1\n  0x40\n  add\n  0x40\n  mstore\n  dup1\n  0x0a\n  dup2\n  mstore\n  0x20\n  add\n  0x5849494920446561746800000000000000000000000000000000000000000000\n  dup2\n  mstore\n  pop\n  dup2\n  mstore\n  0x20\n  add\n  mload(0x40)\n  dup1\n  0x40\n  add\n  0x40\n  mstore\n  dup1\n  0x0e\n  dup2\n  mstore\n  0x20\n  add\n  0x5849562054656d706572616e6365000000000000000000000000000000000000\n  dup2\n  mstore\n  pop\n  dup2\n  mstore\n  0x20\n  add\n  mload(0x40)\n  dup1\n  0x40\n  add\n  0x40\n  mstore\n  dup1\n  0x0c\n  dup2\n  mstore\n  0x20\n  add\n  0x58562054686520446576696c0000000000000000000000000000000000000000\n  dup2\n  mstore\n  pop\n  dup2\n  mstore\n  0x20\n  add\n  mload(0x40)\n  dup1\n  0x40\n  add\n  0x40\n  mstore\n  dup1\n  0x0d\n  dup2\n  mstore\n  0x20\n  add\n  0x5856492054686520546f77657200000000000000000000000000000000000000\n  dup2\n  mstore\n  pop\n  dup2\n  mstore\n  0x20\n  add\n  mload(0x40)\n  dup1\n  0x40\n  add\n  0x40\n  mstore\n  dup1\n  0x0d\n  dup2\n  mstore\n  0x20\n  add\n  0x5856494920546865205374617200000000000000000000000000000000000000\n  dup2\n  mstore\n  pop\n  dup2\n  mstore\n  0x20\n  add\n  mload(0x40)\n  dup1\n  0x40\n  add\n  0x40\n  mstore\n  dup1\n  0x0e\n  dup2\n  mstore\n  0x20\n  add\n  0x585649494920546865204d6f6f6e000000000000000000000000000000000000\n  dup2\n  mstore\n  pop\n  dup2\n  mstore\n  0x20\n  add\n  mload(0x40)\n  dup1\n  0x40\n  add\n  0x40\n  mstore\n  dup1\n  0x0b\n  dup2\n  mstore\n  0x20\n  add\n  0x584958205468652053756e000000000000000000000000000000000000000000\n  dup2\n  mstore\n  pop\n  dup2\n  mstore\n  0x20\n  add\n  mload(0x40)\n  dup1\n  0x40\n  add\n  0x40\n  mstore\n  dup1\n  0x0c\n  dup2\n  mstore\n  0x20\n  add\n  0x5858204a756467656d656e740000000000000000000000000000000000000000\n  dup2\n  mstore\n  pop\n  dup2\n  mstore\n  0x20\n  add\n  mload(0x40)\n  dup1\n  0x40\n  add\n  0x40\n  mstore\n  dup1\n  0x0d\n  dup2\n  mstore\n  0x20\n  add\n  0x5858492054686520576f726c6400000000000000000000000000000000000000\n  dup2\n  mstore\n  pop\n  dup2\n  mstore\n  pop\n  0x08\n  swap1\n  0x16\n  tag_1\n  swap3\n  swap2\n  swap1\n  tag_2\n  jump\t// in\ntag_1:\n  pop\n    /* \"art3mis/Art3mis.sol\":1125:1170  constructor() ERC721(\"Art3misTarot\", \"AT\") {} */\n  callvalue\n  dup1\n  iszero\n  tag_3\n  jumpi\n  0x00\n  dup1\n  revert\ntag_3:\n  pop\n    /* \"@openzeppelin/contracts/token/ERC721/ERC721.sol\":1381:1494  constructor(string memory name_, string memory symbol_) {... */\n  mload(0x40)\n  dup1\n  0x40\n  add\n  0x40\n  mstore\n  dup1\n  0x0c\n  dup2\n  mstore\n  0x20\n  add\n  0x417274336d69735461726f740000000000000000000000000000000000000000\n  dup2\n  mstore\n  pop\n  mload(0x40)\n  dup1\n  0x40\n  add\n  0x40\n  mstore\n  dup1\n  0x02\n  dup2\n  mstore\n  0x20\n  add\n  0x4154000000000000000000000000000000000000000000000000000000000000\n  dup2\n  mstore\n  pop\n    /* \"@openzeppelin/contracts/token/ERC721/ERC721.sol\":1455:1460  name_ */\n  dup2\n    /* \"@openzeppelin/contracts/token/ERC721/ERC721.sol\":1447:1452  _name */\n  0x00\n    /* \"@openzeppelin/contracts/token/ERC721/ERC721.sol\":1447:1460  _name = name_ */\n  swap1\n  dup2\n  tag_7\n  swap2\n  swap1\n  tag_8\n  jump\t// in\ntag_7:\n  pop\n    /* \"@openzeppelin/contracts/token/ERC721/ERC721.sol\":1480:1487  symbol_ */\n  dup1\n    /* \"@openzeppelin/contracts/token/ERC721/ERC721.sol\":1470:1477  _symbol */\n  0x01\n    /* \"@openzeppelin/contracts/token/ERC721/ERC721.sol\":1470:1487  _symbol = symbol_ */\n  swap1\n  dup2\n  tag_9\n  swap2\n  swap1\n  tag_8\n  jump\t// in\ntag_9:\n  pop\n    /* \"@openzeppelin/contracts/token/ERC721/ERC721.sol\":1381:1494  constructor(string memory name_, string memory symbol_) {... */\n  pop\n  pop\n    /* \"art3mis/Art3mis.sol\":248:3405  contract Art3mis is ERC721URIStorage {... */\n  jump(tag_11)\ntag_2:\n  dup3\n  0x16\n  dup2\n  add\n  swap3\n  dup3\n  iszero\n  tag_12\n  jumpi\n  swap2\n  0x20\n  mul\n  dup3\n  add\ntag_13:\n  dup3\n  dup2\n  gt\n  iszero\n  tag_14\n  jumpi\n  dup3\n  mload\n  dup3\n  swap1\n  dup2\n  tag_15\n  swap2\n  swap1\n  tag_8\n  jump\t// in\ntag_15:\n  pop\n  swap2\n  0x20\n  add\n  swap2\n  swap1\n  0x01\n  add\n  swap1\n  jump(tag_13)\ntag_14:\ntag_12:\n  pop\n  swap1\n  pop\n  tag_16\n  swap2\n  swap1\n  tag_17\n  jump\t// in\ntag_16:\n  pop\n  swap1\n  jump\t// out\ntag_17:\ntag_18:\n  dup1\n  dup3\n  gt\n  iszero\n  tag_19\n  jumpi\n  0x00\n  dup2\n  dup2\n  tag_20\n  swap2\n  swap1\n  tag_21\n  jump\t// in\ntag_20:\n  pop\n  0x01\n  add\n  jump(tag_18)\ntag_19:\n  pop\n  swap1\n  jump\t// out\ntag_21:\n  pop\n  dup1\n  sload\n  tag_22\n  swap1\n  tag_23\n  jump\t// in\ntag_22:\n  0x00\n  dup3\n  sstore\n  dup1\n  0x1f\n  lt\n  tag_25\n  jumpi\n  pop\n  jump(tag_24)\ntag_25:\n  0x1f\n  add\n  0x20\n  swap1\n  div\n  swap1\n  0x00\n  mstore\n  keccak256(0x00, 0x20)\n  swap1\n  dup2\n  add\n  swap1\n  tag_26\n  swap2\n  swap1\n  tag_27\n  jump\t// in\ntag_26:\ntag_24:\n  pop\n  jump\t// out\ntag_27:\ntag_28:\n  dup1\n  dup3\n  gt\n  iszero\n  tag_29\n  jumpi\n  0x00\n  dup2\n  0x00\n  swap1\n  sstore\n  pop\n  0x01\n  add\n  jump(tag_28)\ntag_29:\n  pop\n  swap1\n  jump\t// out\n    /* \"#utility.yul\":7:106   */\ntag_30:\n    /* \"#utility.yul\":59:65   */\n  0x00\n    /* \"#utility.yul\":93:98   */\n  dup2\n    /* \"#utility.yul\":87:99   */\n  mload\n    /* \"#utility.yul\":77:99   */\n  swap1\n  pop\n    /* \"#utility.yul\":7:106   */\n  swap2\n  swap1\n  pop\n  jump\t// out\n    /* \"#utility.yul\":112:292   */\ntag_31:\n    /* \"#utility.yul\":160:237   */\n  0x4e487b7100000000000000000000000000000000000000000000000000000000\n    /* \"#utility.yul\":157:158   */\n  0x00\n    /* \"#utility.yul\":150:238   */\n  mstore\n    /* \"#utility.yul\":257:261   */\n  0x41\n    /* \"#utility.yul\":254:255   */\n  0x04\n    /* \"#utility.yul\":247:262   */\n  mstore\n    /* \"#utility.yul\":281:285   */\n  0x24\n    /* \"#utility.yul\":278:279   */\n  0x00\n    /* \"#utility.yul\":271:286   */\n  revert\n    /* \"#utility.yul\":298:478   */\ntag_32:\n    /* \"#utility.yul\":346:423   */\n  0x4e487b7100000000000000000000000000000000000000000000000000000000\n    /* \"#utility.yul\":343:344   */\n  0x00\n    /* \"#utility.yul\":336:424   */\n  mstore\n    /* \"#utility.yul\":443:447   */\n  0x22\n    /* \"#utility.yul\":440:441   */\n  0x04\n    /* \"#utility.yul\":433:448   */\n  mstore\n    /* \"#utility.yul\":467:471   */\n  0x24\n    /* \"#utility.yul\":464:465   */\n  0x00\n    /* \"#utility.yul\":457:472   */\n  revert\n    /* \"#utility.yul\":484:804   */\ntag_23:\n    /* \"#utility.yul\":528:534   */\n  0x00\n    /* \"#utility.yul\":565:566   */\n  0x02\n    /* \"#utility.yul\":559:563   */\n  dup3\n    /* \"#utility.yul\":555:567   */\n  div\n    /* \"#utility.yul\":545:567   */\n  swap1\n  pop\n    /* \"#utility.yul\":612:613   */\n  0x01\n    /* \"#utility.yul\":606:610   */\n  dup3\n    /* \"#utility.yul\":602:614   */\n  and\n    /* \"#utility.yul\":633:651   */\n  dup1\n    /* \"#utility.yul\":623:704   */\n  tag_54\n  jumpi\n    /* \"#utility.yul\":689:693   */\n  0x7f\n    /* \"#utility.yul\":681:687   */\n  dup3\n    /* \"#utility.yul\":677:694   */\n  and\n    /* \"#utility.yul\":667:694   */\n  swap2\n  pop\n    /* \"#utility.yul\":623:704   */\ntag_54:\n    /* \"#utility.yul\":751:753   */\n  0x20\n    /* \"#utility.yul\":743:749   */\n  dup3\n    /* \"#utility.yul\":740:754   */\n  lt\n    /* \"#utility.yul\":720:738   */\n  dup2\n    /* \"#utility.yul\":717:755   */\n  sub\n    /* \"#utility.yul\":714:798   */\n  tag_55\n  jumpi\n    /* \"#utility.yul\":770:788   */\n  tag_56\n  tag_32\n  jump\t// in\ntag_56:\n    /* \"#utility.yul\":714:798   */\ntag_55:\n    /* \"#utility.yul\":535:804   */\n  pop\n    /* \"#utility.yul\":484:804   */\n  swap2\n  swap1\n  pop\n  jump\t// out\n    /* \"#utility.yul\":810:951   */\ntag_33:\n    /* \"#utility.yul\":859:863   */\n  0x00\n    /* \"#utility.yul\":882:885   */\n  dup2\n    /* \"#utility.yul\":874:885   */\n  swap1\n  pop\n    /* \"#utility.yul\":905:908   */\n  dup2\n    /* \"#utility.yul\":902:903   */\n  0x00\n    /* \"#utility.yul\":895:909   */\n  mstore\n    /* \"#utility.yul\":939:943   */\n  0x20\n    /* \"#utility.yul\":936:937   */\n  0x00\n    /* \"#utility.yul\":926:944   */\n  keccak256\n    /* \"#utility.yul\":918:944   */\n  swap1\n  pop\n    /* \"#utility.yul\":810:951   */\n  swap2\n  swap1\n  pop\n  jump\t// out\n    /* \"#utility.yul\":957:1050   */\ntag_34:\n    /* \"#utility.yul\":994:1000   */\n  0x00\n    /* \"#utility.yul\":1041:1043   */\n  0x20\n    /* \"#utility.yul\":1036:1038   */\n  0x1f\n    /* \"#utility.yul\":1029:1034   */\n  dup4\n    /* \"#utility.yul\":1025:1039   */\n  add\n    /* \"#utility.yul\":1021:1044   */\n  div\n    /* \"#utility.yul\":1011:1044   */\n  swap1\n  pop\n    /* \"#utility.yul\":957:1050   */\n  swap2\n  swap1\n  pop\n  jump\t// out\n    /* \"#utility.yul\":1056:1163   */\ntag_35:\n    /* \"#utility.yul\":1100:1108   */\n  0x00\n    /* \"#utility.yul\":1150:1155   */\n  dup3\n    /* \"#utility.yul\":1144:1148   */\n  dup3\n    /* \"#utility.yul\":1140:1156   */\n  shl\n    /* \"#utility.yul\":1119:1156   */\n  swap1\n  pop\n    /* \"#utility.yul\":1056:1163   */\n  swap3\n  swap2\n  pop\n  pop\n  jump\t// out\n    /* \"#utility.yul\":1169:1562   */\ntag_36:\n    /* \"#utility.yul\":1238:1244   */\n  0x00\n    /* \"#utility.yul\":1288:1289   */\n  0x08\n    /* \"#utility.yul\":1276:1286   */\n  dup4\n    /* \"#utility.yul\":1272:1290   */\n  mul\n    /* \"#utility.yul\":1311:1408   */\n  tag_61\n    /* \"#utility.yul\":1341:1407   */\n  0xffffffffffffffffffffffffffffffffffffffffffffffffffffffffffffffff\n    /* \"#utility.yul\":1330:1339   */\n  dup3\n    /* \"#utility.yul\":1311:1408   */\n  tag_35\n  jump\t// in\ntag_61:\n    /* \"#utility.yul\":1429:1468   */\n  tag_62\n    /* \"#utility.yul\":1459:1467   */\n  dup7\n    /* \"#utility.yul\":1448:1457   */\n  dup4\n    /* \"#utility.yul\":1429:1468   */\n  tag_35\n  jump\t// in\ntag_62:\n    /* \"#utility.yul\":1417:1468   */\n  swap6\n  pop\n    /* \"#utility.yul\":1501:1505   */\n  dup1\n    /* \"#utility.yul\":1497:1506   */\n  not\n    /* \"#utility.yul\":1490:1495   */\n  dup5\n    /* \"#utility.yul\":1486:1507   */\n  and\n    /* \"#utility.yul\":1477:1507   */\n  swap4\n  pop\n    /* \"#utility.yul\":1550:1554   */\n  dup1\n    /* \"#utility.yul\":1540:1548   */\n  dup7\n    /* \"#utility.yul\":1536:1555   */\n  and\n    /* \"#utility.yul\":1529:1534   */\n  dup5\n    /* \"#utility.yul\":1526:1556   */\n  or\n    /* \"#utility.yul\":1516:1556   */\n  swap3\n  pop\n    /* \"#utility.yul\":1245:1562   */\n  pop\n  pop\n    /* \"#utility.yul\":1169:1562   */\n  swap4\n  swap3\n  pop\n  pop\n  pop\n  jump\t// out\n    /* \"#utility.yul\":1568:1645   */\ntag_37:\n    /* \"#utility.yul\":1605:1612   */\n  0x00\n    /* \"#utility.yul\":1634:1639   */\n  dup2\n    /* \"#utility.yul\":1623:1639   */\n  swap1\n  pop\n    /* \"#utility.yul\":1568:1645   */\n  swap2\n  swap1\n  pop\n  jump\t// out\n    /* \"#utility.yul\":1651:1711   */\ntag_38:\n    /* \"#utility.yul\":1679:1682   */\n  0x00\n    /* \"#utility.yul\":1700:1705   */\n  dup2\n    /* \"#utility.yul\":1693:1705   */\n  swap1\n  pop\n    /* \"#utility.yul\":1651:1711   */\n  swap2\n  swap1\n  pop\n  jump\t// out\n    /* \"#utility.yul\":1717:1859   */\ntag_39:\n    /* \"#utility.yul\":1767:1776   */\n  0x00\n    /* \"#utility.yul\":1800:1853   */\n  tag_66\n    /* \"#utility.yul\":1818:1852   */\n  tag_67\n    /* \"#utility.yul\":1827:1851   */\n  tag_68\n    /* \"#utility.yul\":1845:1850   */\n  dup5\n    /* \"#utility.yul\":1827:1851   */\n  tag_37\n  jump\t// in\ntag_68:\n    /* \"#utility.yul\":1818:1852   */\n  tag_38\n  jump\t// in\ntag_67:\n    /* \"#utility.yul\":1800:1853   */\n  tag_37\n  jump\t// in\ntag_66:\n    /* \"#utility.yul\":1787:1853   */\n  swap1\n  pop\n    /* \"#utility.yul\":1717:1859   */\n  swap2\n  swap1\n  pop\n  jump\t// out\n    /* \"#utility.yul\":1865:1940   */\ntag_40:\n    /* \"#utility.yul\":1908:1911   */\n  0x00\n    /* \"#utility.yul\":1929:1934   */\n  dup2\n    /* \"#utility.yul\":1922:1934   */\n  swap1\n  pop\n    /* \"#utility.yul\":1865:1940   */\n  swap2\n  swap1\n  pop\n  jump\t// out\n    /* \"#utility.yul\":1946:2215   */\ntag_41:\n    /* \"#utility.yul\":2056:2095   */\n  tag_71\n    /* \"#utility.yul\":2087:2094   */\n  dup4\n    /* \"#utility.yul\":2056:2095   */\n  tag_39\n  jump\t// in\ntag_71:\n    /* \"#utility.yul\":2117:2208   */\n  tag_72\n    /* \"#utility.yul\":2166:2207   */\n  tag_73\n    /* \"#utility.yul\":2190:2206   */\n  dup3\n    /* \"#utility.yul\":2166:2207   */\n  tag_40\n  jump\t// in\ntag_73:\n    /* \"#utility.yul\":2158:2164   */\n  dup5\n    /* \"#utility.yul\":2151:2155   */\n  dup5\n    /* \"#utility.yul\":2145:2156   */\n  sload\n    /* \"#utility.yul\":2117:2208   */\n  tag_36\n  jump\t// in\ntag_72:\n    /* \"#utility.yul\":2111:2115   */\n  dup3\n    /* \"#utility.yul\":2104:2209   */\n  sstore\n    /* \"#utility.yul\":2022:2215   */\n  pop\n    /* \"#utility.yul\":1946:2215   */\n  pop\n  pop\n  pop\n  jump\t// out\n    /* \"#utility.yul\":2221:2294   */\ntag_42:\n    /* \"#utility.yul\":2266:2269   */\n  0x00\n    /* \"#utility.yul\":2221:2294   */\n  swap1\n  jump\t// out\n    /* \"#utility.yul\":2300:2489   */\ntag_43:\n    /* \"#utility.yul\":2377:2409   */\n  tag_76\n  tag_42\n  jump\t// in\ntag_76:\n    /* \"#utility.yul\":2418:2483   */\n  tag_77\n    /* \"#utility.yul\":2476:2482   */\n  dup2\n    /* \"#utility.yul\":2468:2474   */\n  dup5\n    /* \"#utility.yul\":2462:2466   */\n  dup5\n    /* \"#utility.yul\":2418:2483   */\n  tag_41\n  jump\t// in\ntag_77:\n    /* \"#utility.yul\":2353:2489   */\n  pop\n    /* \"#utility.yul\":2300:2489   */\n  pop\n  pop\n  jump\t// out\n    /* \"#utility.yul\":2495:2681   */\ntag_44:\n    /* \"#utility.yul\":2555:2675   */\ntag_79:\n    /* \"#utility.yul\":2572:2575   */\n  dup2\n    /* \"#utility.yul\":2565:2570   */\n  dup2\n    /* \"#utility.yul\":2562:2576   */\n  lt\n    /* \"#utility.yul\":2555:2675   */\n  iszero\n  tag_81\n  jumpi\n    /* \"#utility.yul\":2626:2665   */\n  tag_82\n    /* \"#utility.yul\":2663:2664   */\n  0x00\n    /* \"#utility.yul\":2656:2661   */\n  dup3\n    /* \"#utility.yul\":2626:2665   */\n  tag_43\n  jump\t// in\ntag_82:\n    /* \"#utility.yul\":2599:2600   */\n  0x01\n    /* \"#utility.yul\":2592:2597   */\n  dup2\n    /* \"#utility.yul\":2588:2601   */\n  add\n    /* \"#utility.yul\":2579:2601   */\n  swap1\n  pop\n    /* \"#utility.yul\":2555:2675   */\n  jump(tag_79)\ntag_81:\n    /* \"#utility.yul\":2495:2681   */\n  pop\n  pop\n  jump\t// out\n    /* \"#utility.yul\":2687:3230   */\ntag_45:\n    /* \"#utility.yul\":2788:2790   */\n  0x1f\n    /* \"#utility.yul\":2783:2786   */\n  dup3\n    /* \"#utility.yul\":2780:2791   */\n  gt\n    /* \"#utility.yul\":2777:3223   */\n  iszero\n  tag_84\n  jumpi\n    /* \"#utility.yul\":2822:2860   */\n  tag_85\n    /* \"#utility.yul\":2854:2859   */\n  dup2\n    /* \"#utility.yul\":2822:2860   */\n  tag_33\n  jump\t// in\ntag_85:\n    /* \"#utility.yul\":2906:2935   */\n  tag_86\n    /* \"#utility.yul\":2924:2934   */\n  dup5\n    /* \"#utility.yul\":2906:2935   */\n  tag_34\n  jump\t// in\ntag_86:\n    /* \"#utility.yul\":2896:2904   */\n  dup2\n    /* \"#utility.yul\":2892:2936   */\n  add\n    /* \"#utility.yul\":3089:3091   */\n  0x20\n    /* \"#utility.yul\":3077:3087   */\n  dup6\n    /* \"#utility.yul\":3074:3092   */\n  lt\n    /* \"#utility.yul\":3071:3120   */\n  iszero\n  tag_87\n  jumpi\n    /* \"#utility.yul\":3110:3118   */\n  dup2\n    /* \"#utility.yul\":3095:3118   */\n  swap1\n  pop\n    /* \"#utility.yul\":3071:3120   */\ntag_87:\n    /* \"#utility.yul\":3133:3213   */\n  tag_88\n    /* \"#utility.yul\":3189:3211   */\n  tag_89\n    /* \"#utility.yul\":3207:3210   */\n  dup6\n    /* \"#utility.yul\":3189:3211   */\n  tag_34\n  jump\t// in\ntag_89:\n    /* \"#utility.yul\":3179:3187   */\n  dup4\n    /* \"#utility.yul\":3175:3212   */\n  add\n    /* \"#utility.yul\":3162:3173   */\n  dup3\n    /* \"#utility.yul\":3133:3213   */\n  tag_44\n  jump\t// in\ntag_88:\n    /* \"#utility.yul\":2792:3223   */\n  pop\n  pop\n    /* \"#utility.yul\":2777:3223   */\ntag_84:\n    /* \"#utility.yul\":2687:3230   */\n  pop\n  pop\n  pop\n  jump\t// out\n    /* \"#utility.yul\":3236:3353   */\ntag_46:\n    /* \"#utility.yul\":3290:3298   */\n  0x00\n    /* \"#utility.yul\":3340:3345   */\n  dup3\n    /* \"#utility.yul\":3334:3338   */\n  dup3\n    /* \"#utility.yul\":3330:3346   */\n  shr\n    /* \"#utility.yul\":3309:3346   */\n  swap1\n  pop\n    /* \"#utility.yul\":3236:3353   */\n  swap3\n  swap2\n  pop\n  pop\n  jump\t// out\n    /* \"#utility.yul\":3359:3528   */\ntag_47:\n    /* \"#utility.yul\":3403:3409   */\n  0x00\n    /* \"#utility.yul\":3436:3487   */\n  tag_92\n    /* \"#utility.yul\":3484:3485   */\n  0x00\n    /* \"#utility.yul\":3480:3486   */\n  not\n    /* \"#utility.yul\":3472:3477   */\n  dup5\n    /* \"#utility.yul\":3469:3470   */\n  0x08\n    /* \"#utility.yul\":3465:3478   */\n  mul\n    /* \"#utility.yul\":3436:3487   */\n  tag_46\n  jump\t// in\ntag_92:\n    /* \"#utility.yul\":3432:3488   */\n  not\n    /* \"#utility.yul\":3517:3521   */\n  dup1\n    /* \"#utility.yul\":3511:3515   */\n  dup4\n    /* \"#utility.yul\":3507:3522   */\n  and\n    /* \"#utility.yul\":3497:3522   */\n  swap2\n  pop\n    /* \"#utility.yul\":3410:3528   */\n  pop\n    /* \"#utility.yul\":3359:3528   */\n  swap3\n  swap2\n  pop\n  pop\n  jump\t// out\n    /* \"#utility.yul\":3533:3828   */\ntag_48:\n    /* \"#utility.yul\":3609:3613   */\n  0x00\n    /* \"#utility.yul\":3755:3784   */\n  tag_94\n    /* \"#utility.yul\":3780:3783   */\n  dup4\n    /* \"#utility.yul\":3774:3778   */\n  dup4\n    /* \"#utility.yul\":3755:3784   */\n  tag_47\n  jump\t// in\ntag_94:\n    /* \"#utility.yul\":3747:3784   */\n  swap2\n  pop\n    /* \"#utility.yul\":3817:3820   */\n  dup3\n    /* \"#utility.yul\":3814:3815   */\n  0x02\n    /* \"#utility.yul\":3810:3821   */\n  mul\n    /* \"#utility.yul\":3804:3808   */\n  dup3\n    /* \"#utility.yul\":3801:3822   */\n  or\n    /* \"#utility.yul\":3793:3822   */\n  swap1\n  pop\n    /* \"#utility.yul\":3533:3828   */\n  swap3\n  swap2\n  pop\n  pop\n  jump\t// out\n    /* \"#utility.yul\":3833:5228   */\ntag_8:\n    /* \"#utility.yul\":3950:3987   */\n  tag_96\n    /* \"#utility.yul\":3983:3986   */\n  dup3\n    /* \"#utility.yul\":3950:3987   */\n  tag_30\n  jump\t// in\ntag_96:\n    /* \"#utility.yul\":4052:4070   */\n  0xffffffffffffffff\n    /* \"#utility.yul\":4044:4050   */\n  dup2\n    /* \"#utility.yul\":4041:4071   */\n  gt\n    /* \"#utility.yul\":4038:4094   */\n  iszero\n  tag_97\n  jumpi\n    /* \"#utility.yul\":4074:4092   */\n  tag_98\n  tag_31\n  jump\t// in\ntag_98:\n    /* \"#utility.yul\":4038:4094   */\ntag_97:\n    /* \"#utility.yul\":4118:4156   */\n  tag_99\n    /* \"#utility.yul\":4150:4154   */\n  dup3\n    /* \"#utility.yul\":4144:4155   */\n  sload\n    /* \"#utility.yul\":4118:4156   */\n  tag_23\n  jump\t// in\ntag_99:\n    /* \"#utility.yul\":4203:4270   */\n  tag_100\n    /* \"#utility.yul\":4263:4269   */\n  dup3\n    /* \"#utility.yul\":4255:4261   */\n  dup3\n    /* \"#utility.yul\":4249:4253   */\n  dup6\n    /* \"#utility.yul\":4203:4270   */\n  tag_45\n  jump\t// in\ntag_100:\n    /* \"#utility.yul\":4297:4298   */\n  0x00\n    /* \"#utility.yul\":4321:4325   */\n  0x20\n    /* \"#utility.yul\":4308:4325   */\n  swap1\n  pop\n    /* \"#utility.yul\":4353:4355   */\n  0x1f\n    /* \"#utility.yul\":4345:4351   */\n  dup4\n    /* \"#utility.yul\":4342:4356   */\n  gt\n    /* \"#utility.yul\":4370:4371   */\n  0x01\n    /* \"#utility.yul\":4365:4983   */\n  dup2\n  eq\n  tag_102\n  jumpi\n    /* \"#utility.yul\":5027:5028   */\n  0x00\n    /* \"#utility.yul\":5044:5050   */\n  dup5\n    /* \"#utility.yul\":5041:5118   */\n  iszero\n  tag_103\n  jumpi\n    /* \"#utility.yul\":5093:5102   */\n  dup3\n    /* \"#utility.yul\":5088:5091   */\n  dup8\n    /* \"#utility.yul\":5084:5103   */\n  add\n    /* \"#utility.yul\":5078:5104   */\n  mload\n    /* \"#utility.yul\":5069:5104   */\n  swap1\n  pop\n    /* \"#utility.yul\":5041:5118   */\ntag_103:\n    /* \"#utility.yul\":5144:5211   */\n  tag_104\n    /* \"#utility.yul\":5204:5210   */\n  dup6\n    /* \"#utility.yul\":5197:5202   */\n  dup3\n    /* \"#utility.yul\":5144:5211   */\n  tag_48\n  jump\t// in\ntag_104:\n    /* \"#utility.yul\":5138:5142   */\n  dup7\n    /* \"#utility.yul\":5131:5212   */\n  sstore\n    /* \"#utility.yul\":5000:5222   */\n  pop\n    /* \"#utility.yul\":4335:5222   */\n  jump(tag_101)\n    /* \"#utility.yul\":4365:4983   */\ntag_102:\n    /* \"#utility.yul\":4417:4421   */\n  0x1f\n    /* \"#utility.yul\":4413:4422   */\n  not\n    /* \"#utility.yul\":4405:4411   */\n  dup5\n    /* \"#utility.yul\":4401:4423   */\n  and\n    /* \"#utility.yul\":4451:4488   */\n  tag_105\n    /* \"#utility.yul\":4483:4487   */\n  dup7\n    /* \"#utility.yul\":4451:4488   */\n  tag_33\n  jump\t// in\ntag_105:\n    /* \"#utility.yul\":4510:4511   */\n  0x00\n    /* \"#utility.yul\":4524:4732   */\ntag_106:\n    /* \"#utility.yul\":4538:4545   */\n  dup3\n    /* \"#utility.yul\":4535:4536   */\n  dup2\n    /* \"#utility.yul\":4532:4546   */\n  lt\n    /* \"#utility.yul\":4524:4732   */\n  iszero\n  tag_108\n  jumpi\n    /* \"#utility.yul\":4617:4626   */\n  dup5\n    /* \"#utility.yul\":4612:4615   */\n  dup10\n    /* \"#utility.yul\":4608:4627   */\n  add\n    /* \"#utility.yul\":4602:4628   */\n  mload\n    /* \"#utility.yul\":4594:4600   */\n  dup3\n    /* \"#utility.yul\":4587:4629   */\n  sstore\n    /* \"#utility.yul\":4668:4669   */\n  0x01\n    /* \"#utility.yul\":4660:4666   */\n  dup3\n    /* \"#utility.yul\":4656:4670   */\n  add\n    /* \"#utility.yul\":4646:4670   */\n  swap2\n  pop\n    /* \"#utility.yul\":4715:4717   */\n  0x20\n    /* \"#utility.yul\":4704:4713   */\n  dup6\n    /* \"#utility.yul\":4700:4718   */\n  add\n    /* \"#utility.yul\":4687:4718   */\n  swap5\n  pop\n    /* \"#utility.yul\":4561:4565   */\n  0x20\n    /* \"#utility.yul\":4558:4559   */\n  dup2\n    /* \"#utility.yul\":4554:4566   */\n  add\n    /* \"#utility.yul\":4549:4566   */\n  swap1\n  pop\n    /* \"#utility.yul\":4524:4732   */\n  jump(tag_106)\ntag_108:\n    /* \"#utility.yul\":4760:4766   */\n  dup7\n    /* \"#utility.yul\":4751:4758   */\n  dup4\n    /* \"#utility.yul\":4748:4767   */\n  lt\n    /* \"#utility.yul\":4745:4924   */\n  iszero\n  tag_109\n  jumpi\n    /* \"#utility.yul\":4818:4827   */\n  dup5\n    /* \"#utility.yul\":4813:4816   */\n  dup10\n    /* \"#utility.yul\":4809:4828   */\n  add\n    /* \"#utility.yul\":4803:4829   */\n  mload\n    /* \"#utility.yul\":4861:4909   */\n  tag_110\n    /* \"#utility.yul\":4903:4907   */\n  0x1f\n    /* \"#utility.yul\":4895:4901   */\n  dup10\n    /* \"#utility.yul\":4891:4908   */\n  and\n    /* \"#utility.yul\":4880:4889   */\n  dup3\n    /* \"#utility.yul\":4861:4909   */\n  tag_47\n  jump\t// in\ntag_110:\n    /* \"#utility.yul\":4853:4859   */\n  dup4\n    /* \"#utility.yul\":4846:4910   */\n  sstore\n    /* \"#utility.yul\":4768:4924   */\n  pop\n    /* \"#utility.yul\":4745:4924   */\ntag_109:\n    /* \"#utility.yul\":4970:4971   */\n  0x01\n    /* \"#utility.yul\":4966:4967   */\n  0x02\n    /* \"#utility.yul\":4958:4964   */\n  dup9\n    /* \"#utility.yul\":4954:4968   */\n  mul\n    /* \"#utility.yul\":4950:4972   */\n  add\n    /* \"#utility.yul\":4944:4948   */\n  dup9\n    /* \"#utility.yul\":4937:4973   */\n  sstore\n    /* \"#utility.yul\":4372:4983   */\n  pop\n  pop\n  pop\n    /* \"#utility.yul\":4335:5222   */\ntag_101:\n  pop\n    /* \"#utility.yul\":3925:5228   */\n  pop\n  pop\n  pop\n    /* \"#utility.yul\":3833:5228   */\n  pop\n  pop\n  jump\t// out\n    /* \"art3mis/Art3mis.sol\":248:3405  contract Art3mis is ERC721URIStorage {... */\ntag_11:\n  dataSize(sub_0)\n  dup1\n  dataOffset(sub_0)\n  0x00\n  codecopy\n  0x00\n  return\nstop\n\nsub_0: assembly {\n        /* \"art3mis/Art3mis.sol\":248:3405  contract Art3mis is ERC721URIStorage {... */\n      mstore(0x40, 0x80)\n      callvalue\n      dup1\n      iszero\n      tag_1\n      jumpi\n      0x00\n      dup1\n      revert\n    tag_1:\n      pop\n      jumpi(tag_2, lt(calldatasize, 0x04))\n      shr(0xe0, calldataload(0x00))\n      dup1\n      0x56189236\n      gt\n      tag_20\n      jumpi\n      dup1\n      0xa22cb465\n      gt\n      tag_21\n      jumpi\n      dup1\n      0xa22cb465\n      eq\n      tag_15\n      jumpi\n      dup1\n      0xa8f137c0\n      eq\n      tag_16\n      jumpi\n      dup1\n      0xb88d4fde\n      eq\n      tag_17\n      jumpi\n      dup1\n      0xc87b56dd\n      eq\n      tag_18\n      jumpi\n      dup1\n      0xe985e9c5\n      eq\n      tag_19\n      jumpi\n      jump(tag_2)\n    tag_21:\n      dup1\n      0x56189236\n      eq\n      tag_11\n      jumpi\n      dup1\n      0x6352211e\n      eq\n      tag_12\n      jumpi\n      dup1\n      0x70a08231\n      eq\n      tag_13\n      jumpi\n      dup1\n      0x95d89b41\n      eq\n      tag_14\n      jumpi\n      jump(tag_2)\n    tag_20:\n      dup1\n      0x23b872dd\n      gt\n      tag_22\n      jumpi\n      dup1\n      0x23b872dd\n      eq\n      tag_7\n      jumpi\n      dup1\n      0x2f5be23e\n      eq\n      tag_8\n      jumpi\n      dup1\n      0x3c2b2ac1\n      eq\n      tag_9\n      jumpi\n      dup1\n      0x42842e0e\n      eq\n      tag_10\n      jumpi\n      jump(tag_2)\n    tag_22:\n      dup1\n      0x01ffc9a7\n      eq\n      tag_3\n      jumpi\n      dup1\n      0x06fdde03\n      eq\n      tag_4\n      jumpi\n      dup1\n      0x081812fc\n      eq\n      tag_5\n      jumpi\n      dup1\n      0x095ea7b3\n      eq\n      tag_6\n      jumpi\n    tag_2:\n      0x00\n      dup1\n      revert\n        /* \"@openzeppelin/contracts/token/ERC721/extensions/ERC721URIStorage.sol\":937:1144  function supportsInterface(bytes4 interfaceId) public view virtual override(ERC721, IERC165) returns (bool) {... */\n    tag_3:\n      tag_23\n      0x04\n      dup1\n      calldatasize\n      sub\n      dup2\n      add\n      swap1\n      tag_24\n      swap2\n      swap1\n      tag_25\n      jump\t// in\n    tag_24:\n      tag_26\n      jump\t// in\n    tag_23:\n      mload(0x40)\n      tag_27\n      swap2\n      swap1\n      tag_28\n      jump\t// in\n    tag_27:\n      mload(0x40)\n      dup1\n      swap2\n      sub\n      swap1\n      return\n        /* \"@openzeppelin/contracts/token/ERC721/ERC721.sol\":2365:2454  function name() public view virtual returns (string memory) {... */\n    tag_4:\n      tag_29\n      tag_30\n      jump\t// in\n    tag_29:\n      mload(0x40)\n      tag_31\n      swap2\n      swap1\n      tag_32\n      jump\t// in\n    tag_31:\n      mload(0x40)\n      dup1\n      swap2\n      sub\n      swap1\n      return\n        /* \"@openzeppelin/contracts/token/ERC721/ERC721.sol\":3497:3651  function getApproved(uint256 tokenId) public view virtual returns (address) {... */\n    tag_5:\n      tag_33\n      0x04\n      dup1\n      calldatasize\n      sub\n      dup2\n      add\n      swap1\n      tag_34\n      swap2\n      swap1\n      tag_35\n      jump\t// in\n    tag_34:\n      tag_36\n      jump\t// in\n    tag_33:\n      mload(0x40)\n      tag_37\n      swap2\n      swap1\n      tag_38\n      jump\t// in\n    tag_37:\n      mload(0x40)\n      dup1\n      swap2\n      sub\n      swap1\n      return\n        /* \"@openzeppelin/contracts/token/ERC721/ERC721.sol\":3323:3436  function approve(address to, uint256 tokenId) public virtual {... */\n    tag_6:\n      tag_39\n      0x04\n      dup1\n      calldatasize\n      sub\n      dup2\n      add\n      swap1\n      tag_40\n      swap2\n      swap1\n      tag_41\n      jump\t// in\n    tag_40:\n      tag_42\n      jump\t// in\n    tag_39:\n      stop\n        /* \"@openzeppelin/contracts/token/ERC721/ERC721.sol\":4143:4721  function transferFrom(address from, address to, uint256 tokenId) public virtual {... */\n    tag_7:\n      tag_43\n      0x04\n      dup1\n      calldatasize\n      sub\n      dup2\n      add\n      swap1\n      tag_44\n      swap2\n      swap1\n      tag_45\n      jump\t// in\n    tag_44:\n      tag_46\n      jump\t// in\n    tag_43:\n      stop\n        /* \"art3mis/Art3mis.sol\":1270:1972  function drawCard() public view returns (string memory){... */\n    tag_8:\n      tag_47\n      tag_48\n      jump\t// in\n    tag_47:\n      mload(0x40)\n      tag_49\n      swap2\n      swap1\n      tag_32\n      jump\t// in\n    tag_49:\n      mload(0x40)\n      dup1\n      swap2\n      sub\n      swap1\n      return\n        /* \"art3mis/Art3mis.sol\":1982:2216  function mintReading(address to, string memory tokenURI) public {... */\n    tag_9:\n      tag_50\n      0x04\n      dup1\n      calldatasize\n      sub\n      dup2\n      add\n      swap1\n      tag_51\n      swap2\n      swap1\n      tag_52\n      jump\t// in\n    tag_51:\n      tag_53\n      jump\t// in\n    tag_50:\n      stop\n        /* \"@openzeppelin/contracts/token/ERC721/ERC721.sol\":4787:4919  function safeTransferFrom(address from, address to, uint256 tokenId) public {... */\n    tag_10:\n      tag_54\n      0x04\n      dup1\n      calldatasize\n      sub\n      dup2\n      add\n      swap1\n      tag_55\n      swap2\n      swap1\n      tag_45\n      jump\t// in\n    tag_55:\n      tag_56\n      jump\t// in\n    tag_54:\n      stop\n        /* \"art3mis/Art3mis.sol\":2334:2439  function getCurrentTokenId() public view returns (uint) {... */\n    tag_11:\n      tag_57\n      tag_58\n      jump\t// in\n    tag_57:\n      mload(0x40)\n      tag_59\n      swap2\n      swap1\n      tag_60\n      jump\t// in\n    tag_59:\n      mload(0x40)\n      dup1\n      swap2\n      sub\n      swap1\n      return\n        /* \"@openzeppelin/contracts/token/ERC721/ERC721.sol\":2185:2303  function ownerOf(uint256 tokenId) public view virtual returns (address) {... */\n    tag_12:\n      tag_61\n      0x04\n      dup1\n      calldatasize\n      sub\n      dup2\n      add\n      swap1\n      tag_62\n      swap2\n      swap1\n      tag_35\n      jump\t// in\n    tag_62:\n      tag_63\n      jump\t// in\n    tag_61:\n      mload(0x40)\n      tag_64\n      swap2\n      swap1\n      tag_38\n      jump\t// in\n    tag_64:\n      mload(0x40)\n      dup1\n      swap2\n      sub\n      swap1\n      return\n        /* \"@openzeppelin/contracts/token/ERC721/ERC721.sol\":1920:2128  function balanceOf(address owner) public view virtual returns (uint256) {... */\n    tag_13:\n      tag_65\n      0x04\n      dup1\n      calldatasize\n      sub\n      dup2\n      add\n      swap1\n      tag_66\n      swap2\n      swap1\n      tag_67\n      jump\t// in\n    tag_66:\n      tag_68\n      jump\t// in\n    tag_65:\n      mload(0x40)\n      tag_69\n      swap2\n      swap1\n      tag_60\n      jump\t// in\n    tag_69:\n      mload(0x40)\n      dup1\n      swap2\n      sub\n      swap1\n      return\n        /* \"@openzeppelin/contracts/token/ERC721/ERC721.sol\":2518:2611  function symbol() public view virtual returns (string memory) {... */\n    tag_14:\n      tag_70\n      tag_71\n      jump\t// in\n    tag_70:\n      mload(0x40)\n      tag_72\n      swap2\n      swap1\n      tag_32\n      jump\t// in\n    tag_72:\n      mload(0x40)\n      dup1\n      swap2\n      sub\n      swap1\n      return\n        /* \"@openzeppelin/contracts/token/ERC721/ERC721.sol\":3718:3862  function setApprovalForAll(address operator, bool approved) public virtual {... */\n    tag_15:\n      tag_73\n      0x04\n      dup1\n      calldatasize\n      sub\n      dup2\n      add\n      swap1\n      tag_74\n      swap2\n      swap1\n      tag_75\n      jump\t// in\n    tag_74:\n      tag_76\n      jump\t// in\n    tag_73:\n      stop\n        /* \"art3mis/Art3mis.sol\":382:493  string public constant MAJOR_ARCANA_URI = \"ipfs://bafybeihrnhjv4ceqvltg3mygifiukety4suhzbd7q2givhbepucvl2xn2e/\" */\n    tag_16:\n      tag_77\n      tag_78\n      jump\t// in\n    tag_77:\n      mload(0x40)\n      tag_79\n      swap2\n      swap1\n      tag_32\n      jump\t// in\n    tag_79:\n      mload(0x40)\n      dup1\n      swap2\n      sub\n      swap1\n      return\n        /* \"@openzeppelin/contracts/token/ERC721/ERC721.sol\":4985:5193  function safeTransferFrom(address from, address to, uint256 tokenId, bytes memory data) public virtual {... */\n    tag_17:\n      tag_80\n      0x04\n      dup1\n      calldatasize\n      sub\n      dup2\n      add\n      swap1\n      tag_81\n      swap2\n      swap1\n      tag_82\n      jump\t// in\n    tag_81:\n      tag_83\n      jump\t// in\n    tag_80:\n      stop\n        /* \"@openzeppelin/contracts/token/ERC721/extensions/ERC721URIStorage.sol\":1210:1803  function tokenURI(uint256 tokenId) public view virtual override returns (string memory) {... */\n    tag_18:\n      tag_84\n      0x04\n      dup1\n      calldatasize\n      sub\n      dup2\n      add\n      swap1\n      tag_85\n      swap2\n      swap1\n      tag_35\n      jump\t// in\n    tag_85:\n      tag_86\n      jump\t// in\n    tag_84:\n      mload(0x40)\n      tag_87\n      swap2\n      swap1\n      tag_32\n      jump\t// in\n    tag_87:\n      mload(0x40)\n      dup1\n      swap2\n      sub\n      swap1\n      return\n        /* \"@openzeppelin/contracts/token/ERC721/ERC721.sol\":3928:4081  function isApprovedForAll(address owner, address operator) public view virtual returns (bool) {... */\n    tag_19:\n      tag_88\n      0x04\n      dup1\n      calldatasize\n      sub\n      dup2\n      add\n      swap1\n      tag_89\n      swap2\n      swap1\n      tag_90\n      jump\t// in\n    tag_89:\n      tag_91\n      jump\t// in\n    tag_88:\n      mload(0x40)\n      tag_92\n      swap2\n      swap1\n      tag_28\n      jump\t// in\n    tag_92:\n      mload(0x40)\n      dup1\n      swap2\n      sub\n      swap1\n      return\n        /* \"@openzeppelin/contracts/token/ERC721/extensions/ERC721URIStorage.sol\":937:1144  function supportsInterface(bytes4 interfaceId) public view virtual override(ERC721, IERC165) returns (bool) {... */\n    tag_26:\n        /* \"@openzeppelin/contracts/token/ERC721/extensions/ERC721URIStorage.sol\":1039:1043  bool */\n      0x00\n        /* \"@openzeppelin/contracts/token/ERC721/extensions/ERC721URIStorage.sol\":760:770  0x49064906 */\n      0x49064906\n        /* \"@openzeppelin/contracts/token/ERC721/extensions/ERC721URIStorage.sol\":753:771  bytes4(0x49064906) */\n      0xe0\n      shl\n        /* \"@openzeppelin/contracts/token/ERC721/extensions/ERC721URIStorage.sol\":1062:1097  interfaceId == ERC4906_INTERFACE_ID */\n      not(0xffffffffffffffffffffffffffffffffffffffffffffffffffffffff)\n      and\n        /* \"@openzeppelin/contracts/token/ERC721/extensions/ERC721URIStorage.sol\":1062:1073  interfaceId */\n      dup3\n        /* \"@openzeppelin/contracts/token/ERC721/extensions/ERC721URIStorage.sol\":1062:1097  interfaceId == ERC4906_INTERFACE_ID */\n      not(0xffffffffffffffffffffffffffffffffffffffffffffffffffffffff)\n      and\n      eq\n        /* \"@openzeppelin/contracts/token/ERC721/extensions/ERC721URIStorage.sol\":1062:1137  interfaceId == ERC4906_INTERFACE_ID || super.supportsInterface(interfaceId) */\n      dup1\n      tag_94\n      jumpi\n      pop\n        /* \"@openzeppelin/contracts/token/ERC721/extensions/ERC721URIStorage.sol\":1101:1137  super.supportsInterface(interfaceId) */\n      tag_95\n        /* \"@openzeppelin/contracts/token/ERC721/extensions/ERC721URIStorage.sol\":1125:1136  interfaceId */\n      dup3\n        /* \"@openzeppelin/contracts/token/ERC721/extensions/ERC721URIStorage.sol\":1101:1124  super.supportsInterface */\n      tag_96\n        /* \"@openzeppelin/contracts/token/ERC721/extensions/ERC721URIStorage.sol\":1101:1137  super.supportsInterface(interfaceId) */\n      jump\t// in\n    tag_95:\n        /* \"@openzeppelin/contracts/token/ERC721/extensions/ERC721URIStorage.sol\":1062:1137  interfaceId == ERC4906_INTERFACE_ID || super.supportsInterface(interfaceId) */\n    tag_94:\n        /* \"@openzeppelin/contracts/token/ERC721/extensions/ERC721URIStorage.sol\":1055:1137  return interfaceId == ERC4906_INTERFACE_ID || super.supportsInterface(interfaceId) */\n      swap1\n      pop\n        /* \"@openzeppelin/contracts/token/ERC721/extensions/ERC721URIStorage.sol\":937:1144  function supportsInterface(bytes4 interfaceId) public view virtual override(ERC721, IERC165) returns (bool) {... */\n      swap2\n      swap1\n      pop\n      jump\t// out\n        /* \"@openzeppelin/contracts/token/ERC721/ERC721.sol\":2365:2454  function name() public view virtual returns (string memory) {... */\n    tag_30:\n        /* \"@openzeppelin/contracts/token/ERC721/ERC721.sol\":2410:2423  string memory */\n      0x60\n        /* \"@openzeppelin/contracts/token/ERC721/ERC721.sol\":2442:2447  _name */\n      0x00\n        /* \"@openzeppelin/contracts/token/ERC721/ERC721.sol\":2435:2447  return _name */\n      dup1\n      sload\n      tag_98\n      swap1\n      tag_99\n      jump\t// in\n    tag_98:\n      dup1\n      0x1f\n      add\n      0x20\n      dup1\n      swap2\n      div\n      mul\n      0x20\n      add\n      mload(0x40)\n      swap1\n      dup2\n      add\n      0x40\n      mstore\n      dup1\n      swap3\n      swap2\n      swap1\n      dup2\n      dup2\n      mstore\n      0x20\n      add\n      dup3\n      dup1\n      sload\n      tag_100\n      swap1\n      tag_99\n      jump\t// in\n    tag_100:\n      dup1\n      iszero\n      tag_101\n      jumpi\n      dup1\n      0x1f\n      lt\n      tag_102\n      jumpi\n      0x0100\n      dup1\n      dup4\n      sload\n      div\n      mul\n      dup4\n      mstore\n      swap2\n      0x20\n      add\n      swap2\n      jump(tag_101)\n    tag_102:\n      dup3\n      add\n      swap2\n      swap1\n      0x00\n      mstore\n      keccak256(0x00, 0x20)\n      swap1\n    tag_103:\n      dup2\n      sload\n      dup2\n      mstore\n      swap1\n      0x01\n      add\n      swap1\n      0x20\n      add\n      dup1\n      dup4\n      gt\n      tag_103\n      jumpi\n      dup3\n      swap1\n      sub\n      0x1f\n      and\n      dup3\n      add\n      swap2\n    tag_101:\n      pop\n      pop\n      pop\n      pop\n      pop\n      swap1\n      pop\n        /* \"@openzeppelin/contracts/token/ERC721/ERC721.sol\":2365:2454  function name() public view virtual returns (string memory) {... */\n      swap1\n      jump\t// out\n        /* \"@openzeppelin/contracts/token/ERC721/ERC721.sol\":3497:3651  function getApproved(uint256 tokenId) public view virtual returns (address) {... */\n    tag_36:\n        /* \"@openzeppelin/contracts/token/ERC721/ERC721.sol\":3564:3571  address */\n      0x00\n        /* \"@openzeppelin/contracts/token/ERC721/ERC721.sol\":3583:3605  _requireOwned(tokenId) */\n      tag_105\n        /* \"@openzeppelin/contracts/token/ERC721/ERC721.sol\":3597:3604  tokenId */\n      dup3\n        /* \"@openzeppelin/contracts/token/ERC721/ERC721.sol\":3583:3596  _requireOwned */\n      tag_106\n        /* \"@openzeppelin/contracts/token/ERC721/ERC721.sol\":3583:3605  _requireOwned(tokenId) */\n      jump\t// in\n    tag_105:\n      pop\n        /* \"@openzeppelin/contracts/token/ERC721/ERC721.sol\":3623:3644  _getApproved(tokenId) */\n      tag_107\n        /* \"@openzeppelin/contracts/token/ERC721/ERC721.sol\":3636:3643  tokenId */\n      dup3\n        /* \"@openzeppelin/contracts/token/ERC721/ERC721.sol\":3623:3635  _getApproved */\n      tag_108\n        /* \"@openzeppelin/contracts/token/ERC721/ERC721.sol\":3623:3644  _getApproved(tokenId) */\n      jump\t// in\n    tag_107:\n        /* \"@openzeppelin/contracts/token/ERC721/ERC721.sol\":3616:3644  return _getApproved(tokenId) */\n      swap1\n      pop\n        /* \"@openzeppelin/contracts/token/ERC721/ERC721.sol\":3497:3651  function getApproved(uint256 tokenId) public view virtual returns (address) {... */\n      swap2\n      swap1\n      pop\n      jump\t// out\n        /* \"@openzeppelin/contracts/token/ERC721/ERC721.sol\":3323:3436  function approve(address to, uint256 tokenId) public virtual {... */\n    tag_42:\n        /* \"@openzeppelin/contracts/token/ERC721/ERC721.sol\":3394:3429  _approve(to, tokenId, _msgSender()) */\n      tag_110\n        /* \"@openzeppelin/contracts/token/ERC721/ERC721.sol\":3403:3405  to */\n      dup3\n        /* \"@openzeppelin/contracts/token/ERC721/ERC721.sol\":3407:3414  tokenId */\n      dup3\n        /* \"@openzeppelin/contracts/token/ERC721/ERC721.sol\":3416:3428  _msgSender() */\n      tag_111\n        /* \"@openzeppelin/contracts/token/ERC721/ERC721.sol\":3416:3426  _msgSender */\n      tag_112\n        /* \"@openzeppelin/contracts/token/ERC721/ERC721.sol\":3416:3428  _msgSender() */\n      jump\t// in\n    tag_111:\n        /* \"@openzeppelin/contracts/token/ERC721/ERC721.sol\":3394:3402  _approve */\n      tag_113\n        /* \"@openzeppelin/contracts/token/ERC721/ERC721.sol\":3394:3429  _approve(to, tokenId, _msgSender()) */\n      jump\t// in\n    tag_110:\n        /* \"@openzeppelin/contracts/token/ERC721/ERC721.sol\":3323:3436  function approve(address to, uint256 tokenId) public virtual {... */\n      pop\n      pop\n      jump\t// out\n        /* \"@openzeppelin/contracts/token/ERC721/ERC721.sol\":4143:4721  function transferFrom(address from, address to, uint256 tokenId) public virtual {... */\n    tag_46:\n        /* \"@openzeppelin/contracts/token/ERC721/ERC721.sol\":4251:4252  0 */\n      0x00\n        /* \"@openzeppelin/contracts/token/ERC721/ERC721.sol\":4237:4253  to == address(0) */\n      0xffffffffffffffffffffffffffffffffffffffff\n      and\n        /* \"@openzeppelin/contracts/token/ERC721/ERC721.sol\":4237:4239  to */\n      dup3\n        /* \"@openzeppelin/contracts/token/ERC721/ERC721.sol\":4237:4253  to == address(0) */\n      0xffffffffffffffffffffffffffffffffffffffff\n      and\n      sub\n        /* \"@openzeppelin/contracts/token/ERC721/ERC721.sol\":4233:4320  if (to == address(0)) {... */\n      tag_115\n      jumpi\n        /* \"@openzeppelin/contracts/token/ERC721/ERC721.sol\":4306:4307  0 */\n      0x00\n        /* \"@openzeppelin/contracts/token/ERC721/ERC721.sol\":4276:4309  ERC721InvalidReceiver(address(0)) */\n      mload(0x40)\n      0x64a0ae9200000000000000000000000000000000000000000000000000000000\n      dup2\n      mstore\n      0x04\n      add\n      tag_116\n      swap2\n      swap1\n      tag_38\n      jump\t// in\n    tag_116:\n      mload(0x40)\n      dup1\n      swap2\n      sub\n      swap1\n      revert\n        /* \"@openzeppelin/contracts/token/ERC721/ERC721.sol\":4233:4320  if (to == address(0)) {... */\n    tag_115:\n        /* \"@openzeppelin/contracts/token/ERC721/ERC721.sol\":4538:4559  address previousOwner */\n      0x00\n        /* \"@openzeppelin/contracts/token/ERC721/ERC721.sol\":4562:4596  _update(to, tokenId, _msgSender()) */\n      tag_117\n        /* \"@openzeppelin/contracts/token/ERC721/ERC721.sol\":4570:4572  to */\n      dup4\n        /* \"@openzeppelin/contracts/token/ERC721/ERC721.sol\":4574:4581  tokenId */\n      dup4\n        /* \"@openzeppelin/contracts/token/ERC721/ERC721.sol\":4583:4595  _msgSender() */\n      tag_118\n        /* \"@openzeppelin/contracts/token/ERC721/ERC721.sol\":4583:4593  _msgSender */\n      tag_112\n        /* \"@openzeppelin/contracts/token/ERC721/ERC721.sol\":4583:4595  _msgSender() */\n      jump\t// in\n    tag_118:\n        /* \"@openzeppelin/contracts/token/ERC721/ERC721.sol\":4562:4569  _update */\n      tag_119\n        /* \"@openzeppelin/contracts/token/ERC721/ERC721.sol\":4562:4596  _update(to, tokenId, _msgSender()) */\n      jump\t// in\n    tag_117:\n        /* \"@openzeppelin/contracts/token/ERC721/ERC721.sol\":4538:4596  address previousOwner = _update(to, tokenId, _msgSender()) */\n      swap1\n      pop\n        /* \"@openzeppelin/contracts/token/ERC721/ERC721.sol\":4627:4631  from */\n      dup4\n        /* \"@openzeppelin/contracts/token/ERC721/ERC721.sol\":4610:4631  previousOwner != from */\n      0xffffffffffffffffffffffffffffffffffffffff\n      and\n        /* \"@openzeppelin/contracts/token/ERC721/ERC721.sol\":4610:4623  previousOwner */\n      dup2\n        /* \"@openzeppelin/contracts/token/ERC721/ERC721.sol\":4610:4631  previousOwner != from */\n      0xffffffffffffffffffffffffffffffffffffffff\n      and\n      eq\n        /* \"@openzeppelin/contracts/token/ERC721/ERC721.sol\":4606:4715  if (previousOwner != from) {... */\n      tag_120\n      jumpi\n        /* \"@openzeppelin/contracts/token/ERC721/ERC721.sol\":4675:4679  from */\n      dup4\n        /* \"@openzeppelin/contracts/token/ERC721/ERC721.sol\":4681:4688  tokenId */\n      dup3\n        /* \"@openzeppelin/contracts/token/ERC721/ERC721.sol\":4690:4703  previousOwner */\n      dup3\n        /* \"@openzeppelin/contracts/token/ERC721/ERC721.sol\":4654:4704  ERC721IncorrectOwner(from, tokenId, previousOwner) */\n      mload(0x40)\n      0x64283d7b00000000000000000000000000000000000000000000000000000000\n      dup2\n      mstore\n      0x04\n      add\n      tag_121\n      swap4\n      swap3\n      swap2\n      swap1\n      tag_122\n      jump\t// in\n    tag_121:\n      mload(0x40)\n      dup1\n      swap2\n      sub\n      swap1\n      revert\n        /* \"@openzeppelin/contracts/token/ERC721/ERC721.sol\":4606:4715  if (previousOwner != from) {... */\n    tag_120:\n        /* \"@openzeppelin/contracts/token/ERC721/ERC721.sol\":4223:4721  {... */\n      pop\n        /* \"@openzeppelin/contracts/token/ERC721/ERC721.sol\":4143:4721  function transferFrom(address from, address to, uint256 tokenId) public virtual {... */\n      pop\n      pop\n      pop\n      jump\t// out\n        /* \"art3mis/Art3mis.sol\":1270:1972  function drawCard() public view returns (string memory){... */\n    tag_48:\n        /* \"art3mis/Art3mis.sol\":1311:1324  string memory */\n      0x60\n        /* \"art3mis/Art3mis.sol\":1335:1353  uint256 card_index */\n      0x00\n        /* \"art3mis/Art3mis.sol\":1356:1366  random(22) */\n      tag_124\n        /* \"art3mis/Art3mis.sol\":1363:1365  22 */\n      0x16\n        /* \"art3mis/Art3mis.sol\":1356:1362  random */\n      tag_125\n        /* \"art3mis/Art3mis.sol\":1356:1366  random(22) */\n      jump\t// in\n    tag_124:\n        /* \"art3mis/Art3mis.sol\":1335:1366  uint256 card_index = random(22) */\n      swap1\n      pop\n        /* \"art3mis/Art3mis.sol\":1376:1394  string memory card */\n      0x00\n        /* \"art3mis/Art3mis.sol\":1397:1414  MAJOR_ARCANA_NAME */\n      0x08\n        /* \"art3mis/Art3mis.sol\":1415:1425  card_index */\n      dup3\n        /* \"art3mis/Art3mis.sol\":1397:1426  MAJOR_ARCANA_NAME[card_index] */\n      0x16\n      dup2\n      lt\n      tag_126\n      jumpi\n      tag_127\n      tag_128\n      jump\t// in\n    tag_127:\n    tag_126:\n      add\n        /* \"art3mis/Art3mis.sol\":1376:1426  string memory card = MAJOR_ARCANA_NAME[card_index] */\n      dup1\n      sload\n      tag_130\n      swap1\n      tag_99\n      jump\t// in\n    tag_130:\n      dup1\n      0x1f\n      add\n      0x20\n      dup1\n      swap2\n      div\n      mul\n      0x20\n      add\n      mload(0x40)\n      swap1\n      dup2\n      add\n      0x40\n      mstore\n      dup1\n      swap3\n      swap2\n      swap1\n      dup2\n      dup2\n      mstore\n      0x20\n      add\n      dup3\n      dup1\n      sload\n      tag_131\n      swap1\n      tag_99\n      jump\t// in\n    tag_131:\n      dup1\n      iszero\n      tag_132\n      jumpi\n      dup1\n      0x1f\n      lt\n      tag_133\n      jumpi\n      0x0100\n      dup1\n      dup4\n      sload\n      div\n      mul\n      dup4\n      mstore\n      swap2\n      0x20\n      add\n      swap2\n      jump(tag_132)\n    tag_133:\n      dup3\n      add\n      swap2\n      swap1\n      0x00\n      mstore\n      keccak256(0x00, 0x20)\n      swap1\n    tag_134:\n      dup2\n      sload\n      dup2\n      mstore\n      swap1\n      0x01\n      add\n      swap1\n      0x20\n      add\n      dup1\n      dup4\n      gt\n      tag_134\n      jumpi\n      dup3\n      swap1\n      sub\n      0x1f\n      and\n      dup3\n      add\n      swap2\n    tag_132:\n      pop\n      pop\n      pop\n      pop\n      pop\n      swap1\n      pop\n        /* \"art3mis/Art3mis.sol\":1436:1458  string memory position */\n      0x60\n        /* \"art3mis/Art3mis.sol\":1484:1485  0 */\n      0x00\n        /* \"art3mis/Art3mis.sol\":1471:1480  random(2) */\n      tag_135\n        /* \"art3mis/Art3mis.sol\":1478:1479  2 */\n      0x02\n        /* \"art3mis/Art3mis.sol\":1471:1477  random */\n      tag_125\n        /* \"art3mis/Art3mis.sol\":1471:1480  random(2) */\n      jump\t// in\n    tag_135:\n        /* \"art3mis/Art3mis.sol\":1471:1485  random(2) == 0 */\n      sub\n        /* \"art3mis/Art3mis.sol\":1468:1580  if(random(2) == 0){... */\n      tag_136\n      jumpi\n        /* \"art3mis/Art3mis.sol\":1500:1520  position = \"reverse\" */\n      mload(0x40)\n      dup1\n      0x40\n      add\n      0x40\n      mstore\n      dup1\n      0x07\n      dup2\n      mstore\n      0x20\n      add\n      0x7265766572736500000000000000000000000000000000000000000000000000\n      dup2\n      mstore\n      pop\n      swap1\n      pop\n        /* \"art3mis/Art3mis.sol\":1468:1580  if(random(2) == 0){... */\n      jump(tag_137)\n    tag_136:\n        /* \"art3mis/Art3mis.sol\":1549:1569  position = \"upright\" */\n      mload(0x40)\n      dup1\n      0x40\n      add\n      0x40\n      mstore\n      dup1\n      0x07\n      dup2\n      mstore\n      0x20\n      add\n      0x7570726967687400000000000000000000000000000000000000000000000000\n      dup2\n      mstore\n      pop\n      swap1\n      pop\n        /* \"art3mis/Art3mis.sol\":1468:1580  if(random(2) == 0){... */\n    tag_137:\n        /* \"art3mis/Art3mis.sol\":1589:1611  string memory card_uri */\n      0x00\n        /* \"art3mis/Art3mis.sol\":1638:1654  MAJOR_ARCANA_URI */\n      mload(0x40)\n      dup1\n      0x80\n      add\n      0x40\n      mstore\n      dup1\n      0x43\n      dup2\n      mstore\n      0x20\n      add\n      data_7a6440c3ecb02f377d9786ee79d23a2b96849a8e6374541790822c204d6069d6\n      0x43\n      swap2\n      codecopy\n        /* \"art3mis/Art3mis.sol\":1656:1684  Strings.toString(card_index) */\n      tag_138\n        /* \"art3mis/Art3mis.sol\":1673:1683  card_index */\n      dup6\n        /* \"art3mis/Art3mis.sol\":1656:1672  Strings.toString */\n      tag_139\n        /* \"art3mis/Art3mis.sol\":1656:1684  Strings.toString(card_index) */\n      jump\t// in\n    tag_138:\n        /* \"art3mis/Art3mis.sol\":1621:1685  abi.encodePacked(MAJOR_ARCANA_URI, Strings.toString(card_index)) */\n      add(0x20, mload(0x40))\n      tag_140\n      swap3\n      swap2\n      swap1\n      tag_141\n      jump\t// in\n    tag_140:\n      mload(0x40)\n      0x20\n      dup2\n      dup4\n      sub\n      sub\n      dup2\n      mstore\n      swap1\n      0x40\n      mstore\n        /* \"art3mis/Art3mis.sol\":1589:1686  string memory card_uri = string(abi.encodePacked(MAJOR_ARCANA_URI, Strings.toString(card_index))) */\n      swap1\n      pop\n        /* \"art3mis/Art3mis.sol\":1721:1729  card_uri */\n      dup1\n        /* \"art3mis/Art3mis.sol\":1707:1738  string.concat(card_uri, \".png\") */\n      add(0x20, mload(0x40))\n      tag_142\n      swap2\n      swap1\n      tag_143\n      jump\t// in\n    tag_142:\n      mload(0x40)\n      0x20\n      dup2\n      dup4\n      sub\n      sub\n      dup2\n      mstore\n      swap1\n      0x40\n      mstore\n        /* \"art3mis/Art3mis.sol\":1696:1738  card_uri = string.concat(card_uri, \".png\") */\n      swap1\n      pop\n        /* \"art3mis/Art3mis.sol\":1748:1768  string memory output */\n      0x00\n        /* \"art3mis/Art3mis.sol\":1785:1789  card */\n      dup4\n        /* \"art3mis/Art3mis.sol\":1771:1796  string.concat(card, \"; \") */\n      add(0x20, mload(0x40))\n      tag_144\n      swap2\n      swap1\n      tag_145\n      jump\t// in\n    tag_144:\n      mload(0x40)\n      0x20\n      dup2\n      dup4\n      sub\n      sub\n      dup2\n      mstore\n      swap1\n      0x40\n      mstore\n        /* \"art3mis/Art3mis.sol\":1748:1796  string memory output = string.concat(card, \"; \") */\n      swap1\n      pop\n        /* \"art3mis/Art3mis.sol\":1829:1835  output */\n      dup1\n        /* \"art3mis/Art3mis.sol\":1837:1845  position */\n      dup4\n        /* \"art3mis/Art3mis.sol\":1815:1846  string.concat(output, position) */\n      add(0x20, mload(0x40))\n      tag_146\n      swap3\n      swap2\n      swap1\n      tag_141\n      jump\t// in\n    tag_146:\n      mload(0x40)\n      0x20\n      dup2\n      dup4\n      sub\n      sub\n      dup2\n      mstore\n      swap1\n      0x40\n      mstore\n        /* \"art3mis/Art3mis.sol\":1806:1846  output = string.concat(output, position) */\n      swap1\n      pop\n        /* \"art3mis/Art3mis.sol\":1879:1885  output */\n      dup1\n        /* \"art3mis/Art3mis.sol\":1865:1892  string.concat(output, \"; \") */\n      add(0x20, mload(0x40))\n      tag_147\n      swap2\n      swap1\n      tag_145\n      jump\t// in\n    tag_147:\n      mload(0x40)\n      0x20\n      dup2\n      dup4\n      sub\n      sub\n      dup2\n      mstore\n      swap1\n      0x40\n      mstore\n        /* \"art3mis/Art3mis.sol\":1856:1892  output = string.concat(output, \"; \") */\n      swap1\n      pop\n        /* \"art3mis/Art3mis.sol\":1925:1931  output */\n      dup1\n        /* \"art3mis/Art3mis.sol\":1933:1941  card_uri */\n      dup3\n        /* \"art3mis/Art3mis.sol\":1911:1942  string.concat(output, card_uri) */\n      add(0x20, mload(0x40))\n      tag_148\n      swap3\n      swap2\n      swap1\n      tag_141\n      jump\t// in\n    tag_148:\n      mload(0x40)\n      0x20\n      dup2\n      dup4\n      sub\n      sub\n      dup2\n      mstore\n      swap1\n      0x40\n      mstore\n        /* \"art3mis/Art3mis.sol\":1902:1942  output = string.concat(output, card_uri) */\n      swap1\n      pop\n        /* \"art3mis/Art3mis.sol\":1959:1965  output */\n      dup1\n        /* \"art3mis/Art3mis.sol\":1952:1965  return output */\n      swap6\n      pop\n      pop\n      pop\n      pop\n      pop\n      pop\n        /* \"art3mis/Art3mis.sol\":1270:1972  function drawCard() public view returns (string memory){... */\n      swap1\n      jump\t// out\n        /* \"art3mis/Art3mis.sol\":1982:2216  function mintReading(address to, string memory tokenURI) public {... */\n    tag_53:\n        /* \"art3mis/Art3mis.sol\":2056:2071  uint256 tokenId */\n      0x00\n        /* \"art3mis/Art3mis.sol\":2074:2099  _tokenIdCounter.current() */\n      tag_150\n        /* \"art3mis/Art3mis.sol\":2074:2089  _tokenIdCounter */\n      0x07\n        /* \"art3mis/Art3mis.sol\":2074:2097  _tokenIdCounter.current */\n      tag_151\n        /* \"art3mis/Art3mis.sol\":2074:2099  _tokenIdCounter.current() */\n      jump\t// in\n    tag_150:\n        /* \"art3mis/Art3mis.sol\":2056:2099  uint256 tokenId = _tokenIdCounter.current() */\n      swap1\n      pop\n        /* \"art3mis/Art3mis.sol\":2109:2136  _tokenIdCounter.increment() */\n      tag_152\n        /* \"art3mis/Art3mis.sol\":2109:2124  _tokenIdCounter */\n      0x07\n        /* \"art3mis/Art3mis.sol\":2109:2134  _tokenIdCounter.increment */\n      tag_153\n        /* \"art3mis/Art3mis.sol\":2109:2136  _tokenIdCounter.increment() */\n      jump\t// in\n    tag_152:\n        /* \"art3mis/Art3mis.sol\":2146:2168  _safeMint(to, tokenId) */\n      tag_154\n        /* \"art3mis/Art3mis.sol\":2156:2158  to */\n      dup4\n        /* \"art3mis/Art3mis.sol\":2160:2167  tokenId */\n      dup3\n        /* \"art3mis/Art3mis.sol\":2146:2155  _safeMint */\n      tag_155\n        /* \"art3mis/Art3mis.sol\":2146:2168  _safeMint(to, tokenId) */\n      jump\t// in\n    tag_154:\n        /* \"art3mis/Art3mis.sol\":2178:2209  _setTokenURI(tokenId, tokenURI) */\n      tag_156\n        /* \"art3mis/Art3mis.sol\":2191:2198  tokenId */\n      dup2\n        /* \"art3mis/Art3mis.sol\":2200:2208  tokenURI */\n      dup4\n        /* \"art3mis/Art3mis.sol\":2178:2190  _setTokenURI */\n      tag_157\n        /* \"art3mis/Art3mis.sol\":2178:2209  _setTokenURI(tokenId, tokenURI) */\n      jump\t// in\n    tag_156:\n        /* \"art3mis/Art3mis.sol\":2046:2216  {... */\n      pop\n        /* \"art3mis/Art3mis.sol\":1982:2216  function mintReading(address to, string memory tokenURI) public {... */\n      pop\n      pop\n      jump\t// out\n        /* \"@openzeppelin/contracts/token/ERC721/ERC721.sol\":4787:4919  function safeTransferFrom(address from, address to, uint256 tokenId) public {... */\n    tag_56:\n        /* \"@openzeppelin/contracts/token/ERC721/ERC721.sol\":4873:4912  safeTransferFrom(from, to, tokenId, \"\") */\n      tag_159\n        /* \"@openzeppelin/contracts/token/ERC721/ERC721.sol\":4890:4894  from */\n      dup4\n        /* \"@openzeppelin/contracts/token/ERC721/ERC721.sol\":4896:4898  to */\n      dup4\n        /* \"@openzeppelin/contracts/token/ERC721/ERC721.sol\":4900:4907  tokenId */\n      dup4\n        /* \"@openzeppelin/contracts/token/ERC721/ERC721.sol\":4873:4912  safeTransferFrom(from, to, tokenId, \"\") */\n      mload(0x40)\n      dup1\n      0x20\n      add\n      0x40\n      mstore\n      dup1\n      0x00\n      dup2\n      mstore\n      pop\n        /* \"@openzeppelin/contracts/token/ERC721/ERC721.sol\":4873:4889  safeTransferFrom */\n      tag_83\n        /* \"@openzeppelin/contracts/token/ERC721/ERC721.sol\":4873:4912  safeTransferFrom(from, to, tokenId, \"\") */\n      jump\t// in\n    tag_159:\n        /* \"@openzeppelin/contracts/token/ERC721/ERC721.sol\":4787:4919  function safeTransferFrom(address from, address to, uint256 tokenId) public {... */\n      pop\n      pop\n      pop\n      jump\t// out\n        /* \"art3mis/Art3mis.sol\":2334:2439  function getCurrentTokenId() public view returns (uint) {... */\n    tag_58:\n        /* \"art3mis/Art3mis.sol\":2384:2388  uint */\n      0x00\n        /* \"art3mis/Art3mis.sol\":2407:2432  _tokenIdCounter.current() */\n      tag_161\n        /* \"art3mis/Art3mis.sol\":2407:2422  _tokenIdCounter */\n      0x07\n        /* \"art3mis/Art3mis.sol\":2407:2430  _tokenIdCounter.current */\n      tag_151\n        /* \"art3mis/Art3mis.sol\":2407:2432  _tokenIdCounter.current() */\n      jump\t// in\n    tag_161:\n        /* \"art3mis/Art3mis.sol\":2400:2432  return _tokenIdCounter.current() */\n      swap1\n      pop\n        /* \"art3mis/Art3mis.sol\":2334:2439  function getCurrentTokenId() public view returns (uint) {... */\n      swap1\n      jump\t// out\n        /* \"@openzeppelin/contracts/token/ERC721/ERC721.sol\":2185:2303  function ownerOf(uint256 tokenId) public view virtual returns (address) {... */\n    tag_63:\n        /* \"@openzeppelin/contracts/token/ERC721/ERC721.sol\":2248:2255  address */\n      0x00\n        /* \"@openzeppelin/contracts/token/ERC721/ERC721.sol\":2274:2296  _requireOwned(tokenId) */\n      tag_163\n        /* \"@openzeppelin/contracts/token/ERC721/ERC721.sol\":2288:2295  tokenId */\n      dup3\n        /* \"@openzeppelin/contracts/token/ERC721/ERC721.sol\":2274:2287  _requireOwned */\n      tag_106\n        /* \"@openzeppelin/contracts/token/ERC721/ERC721.sol\":2274:2296  _requireOwned(tokenId) */\n      jump\t// in\n    tag_163:\n        /* \"@openzeppelin/contracts/token/ERC721/ERC721.sol\":2267:2296  return _requireOwned(tokenId) */\n      swap1\n      pop\n        /* \"@openzeppelin/contracts/token/ERC721/ERC721.sol\":2185:2303  function ownerOf(uint256 tokenId) public view virtual returns (address) {... */\n      swap2\n      swap1\n      pop\n      jump\t// out\n        /* \"@openzeppelin/contracts/token/ERC721/ERC721.sol\":1920:2128  function balanceOf(address owner) public view virtual returns (uint256) {... */\n    tag_68:\n        /* \"@openzeppelin/contracts/token/ERC721/ERC721.sol\":1983:1990  uint256 */\n      0x00\n        /* \"@openzeppelin/contracts/token/ERC721/ERC721.sol\":2023:2024  0 */\n      dup1\n        /* \"@openzeppelin/contracts/token/ERC721/ERC721.sol\":2006:2025  owner == address(0) */\n      0xffffffffffffffffffffffffffffffffffffffff\n      and\n        /* \"@openzeppelin/contracts/token/ERC721/ERC721.sol\":2006:2011  owner */\n      dup3\n        /* \"@openzeppelin/contracts/token/ERC721/ERC721.sol\":2006:2025  owner == address(0) */\n      0xffffffffffffffffffffffffffffffffffffffff\n      and\n      sub\n        /* \"@openzeppelin/contracts/token/ERC721/ERC721.sol\":2002:2089  if (owner == address(0)) {... */\n      tag_165\n      jumpi\n        /* \"@openzeppelin/contracts/token/ERC721/ERC721.sol\":2075:2076  0 */\n      0x00\n        /* \"@openzeppelin/contracts/token/ERC721/ERC721.sol\":2048:2078  ERC721InvalidOwner(address(0)) */\n      mload(0x40)\n      0x89c62b6400000000000000000000000000000000000000000000000000000000\n      dup2\n      mstore\n      0x04\n      add\n      tag_166\n      swap2\n      swap1\n      tag_38\n      jump\t// in\n    tag_166:\n      mload(0x40)\n      dup1\n      swap2\n      sub\n      swap1\n      revert\n        /* \"@openzeppelin/contracts/token/ERC721/ERC721.sol\":2002:2089  if (owner == address(0)) {... */\n    tag_165:\n        /* \"@openzeppelin/contracts/token/ERC721/ERC721.sol\":2105:2114  _balances */\n      0x03\n        /* \"@openzeppelin/contracts/token/ERC721/ERC721.sol\":2105:2121  _balances[owner] */\n      0x00\n        /* \"@openzeppelin/contracts/token/ERC721/ERC721.sol\":2115:2120  owner */\n      dup4\n        /* \"@openzeppelin/contracts/token/ERC721/ERC721.sol\":2105:2121  _balances[owner] */\n      0xffffffffffffffffffffffffffffffffffffffff\n      and\n      0xffffffffffffffffffffffffffffffffffffffff\n      and\n      dup2\n      mstore\n      0x20\n      add\n      swap1\n      dup2\n      mstore\n      0x20\n      add\n      0x00\n      keccak256\n      sload\n        /* \"@openzeppelin/contracts/token/ERC721/ERC721.sol\":2098:2121  return _balances[owner] */\n      swap1\n      pop\n        /* \"@openzeppelin/contracts/token/ERC721/ERC721.sol\":1920:2128  function balanceOf(address owner) public view virtual returns (uint256) {... */\n      swap2\n      swap1\n      pop\n      jump\t// out\n        /* \"@openzeppelin/contracts/token/ERC721/ERC721.sol\":2518:2611  function symbol() public view virtual returns (string memory) {... */\n    tag_71:\n        /* \"@openzeppelin/contracts/token/ERC721/ERC721.sol\":2565:2578  string memory */\n      0x60\n        /* \"@openzeppelin/contracts/token/ERC721/ERC721.sol\":2597:2604  _symbol */\n      0x01\n        /* \"@openzeppelin/contracts/token/ERC721/ERC721.sol\":2590:2604  return _symbol */\n      dup1\n      sload\n      tag_168\n      swap1\n      tag_99\n      jump\t// in\n    tag_168:\n      dup1\n      0x1f\n      add\n      0x20\n      dup1\n      swap2\n      div\n      mul\n      0x20\n      add\n      mload(0x40)\n      swap1\n      dup2\n      add\n      0x40\n      mstore\n      dup1\n      swap3\n      swap2\n      swap1\n      dup2\n      dup2\n      mstore\n      0x20\n      add\n      dup3\n      dup1\n      sload\n      tag_169\n      swap1\n      tag_99\n      jump\t// in\n    tag_169:\n      dup1\n      iszero\n      tag_170\n      jumpi\n      dup1\n      0x1f\n      lt\n      tag_171\n      jumpi\n      0x0100\n      dup1\n      dup4\n      sload\n      div\n      mul\n      dup4\n      mstore\n      swap2\n      0x20\n      add\n      swap2\n      jump(tag_170)\n    tag_171:\n      dup3\n      add\n      swap2\n      swap1\n      0x00\n      mstore\n      keccak256(0x00, 0x20)\n      swap1\n    tag_172:\n      dup2\n      sload\n      dup2\n      mstore\n      swap1\n      0x01\n      add\n      swap1\n      0x20\n      add\n      dup1\n      dup4\n      gt\n      tag_172\n      jumpi\n      dup3\n      swap1\n      sub\n      0x1f\n      and\n      dup3\n      add\n      swap2\n    tag_170:\n      pop\n      pop\n      pop\n      pop\n      pop\n      swap1\n      pop\n        /* \"@openzeppelin/contracts/token/ERC721/ERC721.sol\":2518:2611  function symbol() public view virtual returns (string memory) {... */\n      swap1\n      jump\t// out\n        /* \"@openzeppelin/contracts/token/ERC721/ERC721.sol\":3718:3862  function setApprovalForAll(address operator, bool approved) public virtual {... */\n    tag_76:\n        /* \"@openzeppelin/contracts/token/ERC721/ERC721.sol\":3803:3855  _setApprovalForAll(_msgSender(), operator, approved) */\n      tag_174\n        /* \"@openzeppelin/contracts/token/ERC721/ERC721.sol\":3822:3834  _msgSender() */\n      tag_175\n        /* \"@openzeppelin/contracts/token/ERC721/ERC721.sol\":3822:3832  _msgSender */\n      tag_112\n        /* \"@openzeppelin/contracts/token/ERC721/ERC721.sol\":3822:3834  _msgSender() */\n      jump\t// in\n    tag_175:\n        /* \"@openzeppelin/contracts/token/ERC721/ERC721.sol\":3836:3844  operator */\n      dup4\n        /* \"@openzeppelin/contracts/token/ERC721/ERC721.sol\":3846:3854  approved */\n      dup4\n        /* \"@openzeppelin/contracts/token/ERC721/ERC721.sol\":3803:3821  _setApprovalForAll */\n      tag_176\n        /* \"@openzeppelin/contracts/token/ERC721/ERC721.sol\":3803:3855  _setApprovalForAll(_msgSender(), operator, approved) */\n      jump\t// in\n    tag_174:\n        /* \"@openzeppelin/contracts/token/ERC721/ERC721.sol\":3718:3862  function setApprovalForAll(address operator, bool approved) public virtual {... */\n      pop\n      pop\n      jump\t// out\n        /* \"art3mis/Art3mis.sol\":382:493  string public constant MAJOR_ARCANA_URI = \"ipfs://bafybeihrnhjv4ceqvltg3mygifiukety4suhzbd7q2givhbepucvl2xn2e/\" */\n    tag_78:\n      mload(0x40)\n      dup1\n      0x80\n      add\n      0x40\n      mstore\n      dup1\n      0x43\n      dup2\n      mstore\n      0x20\n      add\n      data_7a6440c3ecb02f377d9786ee79d23a2b96849a8e6374541790822c204d6069d6\n      0x43\n      swap2\n      codecopy\n      dup2\n      jump\t// out\n        /* \"@openzeppelin/contracts/token/ERC721/ERC721.sol\":4985:5193  function safeTransferFrom(address from, address to, uint256 tokenId, bytes memory data) public virtual {... */\n    tag_83:\n        /* \"@openzeppelin/contracts/token/ERC721/ERC721.sol\":5098:5129  transferFrom(from, to, tokenId) */\n      tag_178\n        /* \"@openzeppelin/contracts/token/ERC721/ERC721.sol\":5111:5115  from */\n      dup5\n        /* \"@openzeppelin/contracts/token/ERC721/ERC721.sol\":5117:5119  to */\n      dup5\n        /* \"@openzeppelin/contracts/token/ERC721/ERC721.sol\":5121:5128  tokenId */\n      dup5\n        /* \"@openzeppelin/contracts/token/ERC721/ERC721.sol\":5098:5110  transferFrom */\n      tag_46\n        /* \"@openzeppelin/contracts/token/ERC721/ERC721.sol\":5098:5129  transferFrom(from, to, tokenId) */\n      jump\t// in\n    tag_178:\n        /* \"@openzeppelin/contracts/token/ERC721/ERC721.sol\":5139:5186  _checkOnERC721Received(from, to, tokenId, data) */\n      tag_179\n        /* \"@openzeppelin/contracts/token/ERC721/ERC721.sol\":5162:5166  from */\n      dup5\n        /* \"@openzeppelin/contracts/token/ERC721/ERC721.sol\":5168:5170  to */\n      dup5\n        /* \"@openzeppelin/contracts/token/ERC721/ERC721.sol\":5172:5179  tokenId */\n      dup5\n        /* \"@openzeppelin/contracts/token/ERC721/ERC721.sol\":5181:5185  data */\n      dup5\n        /* \"@openzeppelin/contracts/token/ERC721/ERC721.sol\":5139:5161  _checkOnERC721Received */\n      tag_180\n        /* \"@openzeppelin/contracts/token/ERC721/ERC721.sol\":5139:5186  _checkOnERC721Received(from, to, tokenId, data) */\n      jump\t// in\n    tag_179:\n        /* \"@openzeppelin/contracts/token/ERC721/ERC721.sol\":4985:5193  function safeTransferFrom(address from, address to, uint256 tokenId, bytes memory data) public virtual {... */\n      pop\n      pop\n      pop\n      pop\n      jump\t// out\n        /* \"@openzeppelin/contracts/token/ERC721/extensions/ERC721URIStorage.sol\":1210:1803  function tokenURI(uint256 tokenId) public view virtual override returns (string memory) {... */\n    tag_86:\n        /* \"@openzeppelin/contracts/token/ERC721/extensions/ERC721URIStorage.sol\":1283:1296  string memory */\n      0x60\n        /* \"@openzeppelin/contracts/token/ERC721/extensions/ERC721URIStorage.sol\":1308:1330  _requireOwned(tokenId) */\n      tag_182\n        /* \"@openzeppelin/contracts/token/ERC721/extensions/ERC721URIStorage.sol\":1322:1329  tokenId */\n      dup3\n        /* \"@openzeppelin/contracts/token/ERC721/extensions/ERC721URIStorage.sol\":1308:1321  _requireOwned */\n      tag_106\n        /* \"@openzeppelin/contracts/token/ERC721/extensions/ERC721URIStorage.sol\":1308:1330  _requireOwned(tokenId) */\n      jump\t// in\n    tag_182:\n      pop\n        /* \"@openzeppelin/contracts/token/ERC721/extensions/ERC721URIStorage.sol\":1341:1364  string memory _tokenURI */\n      0x00\n        /* \"@openzeppelin/contracts/token/ERC721/extensions/ERC721URIStorage.sol\":1367:1377  _tokenURIs */\n      0x06\n        /* \"@openzeppelin/contracts/token/ERC721/extensions/ERC721URIStorage.sol\":1367:1386  _tokenURIs[tokenId] */\n      0x00\n        /* \"@openzeppelin/contracts/token/ERC721/extensions/ERC721URIStorage.sol\":1378:1385  tokenId */\n      dup5\n        /* \"@openzeppelin/contracts/token/ERC721/extensions/ERC721URIStorage.sol\":1367:1386  _tokenURIs[tokenId] */\n      dup2\n      mstore\n      0x20\n      add\n      swap1\n      dup2\n      mstore\n      0x20\n      add\n      0x00\n      keccak256\n        /* \"@openzeppelin/contracts/token/ERC721/extensions/ERC721URIStorage.sol\":1341:1386  string memory _tokenURI = _tokenURIs[tokenId] */\n      dup1\n      sload\n      tag_183\n      swap1\n      tag_99\n      jump\t// in\n    tag_183:\n      dup1\n      0x1f\n      add\n      0x20\n      dup1\n      swap2\n      div\n      mul\n      0x20\n      add\n      mload(0x40)\n      swap1\n      dup2\n      add\n      0x40\n      mstore\n      dup1\n      swap3\n      swap2\n      swap1\n      dup2\n      dup2\n      mstore\n      0x20\n      add\n      dup3\n      dup1\n      sload\n      tag_184\n      swap1\n      tag_99\n      jump\t// in\n    tag_184:\n      dup1\n      iszero\n      tag_185\n      jumpi\n      dup1\n      0x1f\n      lt\n      tag_186\n      jumpi\n      0x0100\n      dup1\n      dup4\n      sload\n      div\n      mul\n      dup4\n      mstore\n      swap2\n      0x20\n      add\n      swap2\n      jump(tag_185)\n    tag_186:\n      dup3\n      add\n      swap2\n      swap1\n      0x00\n      mstore\n      keccak256(0x00, 0x20)\n      swap1\n    tag_187:\n      dup2\n      sload\n      dup2\n      mstore\n      swap1\n      0x01\n      add\n      swap1\n      0x20\n      add\n      dup1\n      dup4\n      gt\n      tag_187\n      jumpi\n      dup3\n      swap1\n      sub\n      0x1f\n      and\n      dup3\n      add\n      swap2\n    tag_185:\n      pop\n      pop\n      pop\n      pop\n      pop\n      swap1\n      pop\n        /* \"@openzeppelin/contracts/token/ERC721/extensions/ERC721URIStorage.sol\":1396:1414  string memory base */\n      0x00\n        /* \"@openzeppelin/contracts/token/ERC721/extensions/ERC721URIStorage.sol\":1417:1427  _baseURI() */\n      tag_188\n        /* \"@openzeppelin/contracts/token/ERC721/extensions/ERC721URIStorage.sol\":1417:1425  _baseURI */\n      tag_189\n        /* \"@openzeppelin/contracts/token/ERC721/extensions/ERC721URIStorage.sol\":1417:1427  _baseURI() */\n      jump\t// in\n    tag_188:\n        /* \"@openzeppelin/contracts/token/ERC721/extensions/ERC721URIStorage.sol\":1396:1427  string memory base = _baseURI() */\n      swap1\n      pop\n        /* \"@openzeppelin/contracts/token/ERC721/extensions/ERC721URIStorage.sol\":1522:1523  0 */\n      0x00\n        /* \"@openzeppelin/contracts/token/ERC721/extensions/ERC721URIStorage.sol\":1506:1510  base */\n      dup2\n        /* \"@openzeppelin/contracts/token/ERC721/extensions/ERC721URIStorage.sol\":1500:1518  bytes(base).length */\n      mload\n        /* \"@openzeppelin/contracts/token/ERC721/extensions/ERC721URIStorage.sol\":1500:1523  bytes(base).length == 0 */\n      sub\n        /* \"@openzeppelin/contracts/token/ERC721/extensions/ERC721URIStorage.sol\":1496:1566  if (bytes(base).length == 0) {... */\n      tag_190\n      jumpi\n        /* \"@openzeppelin/contracts/token/ERC721/extensions/ERC721URIStorage.sol\":1546:1555  _tokenURI */\n      dup2\n        /* \"@openzeppelin/contracts/token/ERC721/extensions/ERC721URIStorage.sol\":1539:1555  return _tokenURI */\n      swap3\n      pop\n      pop\n      pop\n      jump(tag_181)\n        /* \"@openzeppelin/contracts/token/ERC721/extensions/ERC721URIStorage.sol\":1496:1566  if (bytes(base).length == 0) {... */\n    tag_190:\n        /* \"@openzeppelin/contracts/token/ERC721/extensions/ERC721URIStorage.sol\":1691:1692  0 */\n      0x00\n        /* \"@openzeppelin/contracts/token/ERC721/extensions/ERC721URIStorage.sol\":1671:1680  _tokenURI */\n      dup3\n        /* \"@openzeppelin/contracts/token/ERC721/extensions/ERC721URIStorage.sol\":1665:1688  bytes(_tokenURI).length */\n      mload\n        /* \"@openzeppelin/contracts/token/ERC721/extensions/ERC721URIStorage.sol\":1665:1692  bytes(_tokenURI).length > 0 */\n      gt\n        /* \"@openzeppelin/contracts/token/ERC721/extensions/ERC721URIStorage.sol\":1661:1756  if (bytes(_tokenURI).length > 0) {... */\n      iszero\n      tag_191\n      jumpi\n        /* \"@openzeppelin/contracts/token/ERC721/extensions/ERC721URIStorage.sol\":1729:1733  base */\n      dup1\n        /* \"@openzeppelin/contracts/token/ERC721/extensions/ERC721URIStorage.sol\":1735:1744  _tokenURI */\n      dup3\n        /* \"@openzeppelin/contracts/token/ERC721/extensions/ERC721URIStorage.sol\":1715:1745  string.concat(base, _tokenURI) */\n      add(0x20, mload(0x40))\n      tag_192\n      swap3\n      swap2\n      swap1\n      tag_141\n      jump\t// in\n    tag_192:\n      mload(0x40)\n      0x20\n      dup2\n      dup4\n      sub\n      sub\n      dup2\n      mstore\n      swap1\n      0x40\n      mstore\n        /* \"@openzeppelin/contracts/token/ERC721/extensions/ERC721URIStorage.sol\":1708:1745  return string.concat(base, _tokenURI) */\n      swap3\n      pop\n      pop\n      pop\n      jump(tag_181)\n        /* \"@openzeppelin/contracts/token/ERC721/extensions/ERC721URIStorage.sol\":1661:1756  if (bytes(_tokenURI).length > 0) {... */\n    tag_191:\n        /* \"@openzeppelin/contracts/token/ERC721/extensions/ERC721URIStorage.sol\":1773:1796  super.tokenURI(tokenId) */\n      tag_193\n        /* \"@openzeppelin/contracts/token/ERC721/extensions/ERC721URIStorage.sol\":1788:1795  tokenId */\n      dup5\n        /* \"@openzeppelin/contracts/token/ERC721/extensions/ERC721URIStorage.sol\":1773:1787  super.tokenURI */\n      tag_194\n        /* \"@openzeppelin/contracts/token/ERC721/extensions/ERC721URIStorage.sol\":1773:1796  super.tokenURI(tokenId) */\n      jump\t// in\n    tag_193:\n        /* \"@openzeppelin/contracts/token/ERC721/extensions/ERC721URIStorage.sol\":1766:1796  return super.tokenURI(tokenId) */\n      swap3\n      pop\n      pop\n      pop\n        /* \"@openzeppelin/contracts/token/ERC721/extensions/ERC721URIStorage.sol\":1210:1803  function tokenURI(uint256 tokenId) public view virtual override returns (string memory) {... */\n    tag_181:\n      swap2\n      swap1\n      pop\n      jump\t// out\n        /* \"@openzeppelin/contracts/token/ERC721/ERC721.sol\":3928:4081  function isApprovedForAll(address owner, address operator) public view virtual returns (bool) {... */\n    tag_91:\n        /* \"@openzeppelin/contracts/token/ERC721/ERC721.sol\":4016:4020  bool */\n      0x00\n        /* \"@openzeppelin/contracts/token/ERC721/ERC721.sol\":4039:4057  _operatorApprovals */\n      0x05\n        /* \"@openzeppelin/contracts/token/ERC721/ERC721.sol\":4039:4064  _operatorApprovals[owner] */\n      0x00\n        /* \"@openzeppelin/contracts/token/ERC721/ERC721.sol\":4058:4063  owner */\n      dup5\n        /* \"@openzeppelin/contracts/token/ERC721/ERC721.sol\":4039:4064  _operatorApprovals[owner] */\n      0xffffffffffffffffffffffffffffffffffffffff\n      and\n      0xffffffffffffffffffffffffffffffffffffffff\n      and\n      dup2\n      mstore\n      0x20\n      add\n      swap1\n      dup2\n      mstore\n      0x20\n      add\n      0x00\n      keccak256\n        /* \"@openzeppelin/contracts/token/ERC721/ERC721.sol\":4039:4074  _operatorApprovals[owner][operator] */\n      0x00\n        /* \"@openzeppelin/contracts/token/ERC721/ERC721.sol\":4065:4073  operator */\n      dup4\n        /* \"@openzeppelin/contracts/token/ERC721/ERC721.sol\":4039:4074  _operatorApprovals[owner][operator] */\n      0xffffffffffffffffffffffffffffffffffffffff\n      and\n      0xffffffffffffffffffffffffffffffffffffffff\n      and\n      dup2\n      mstore\n      0x20\n      add\n      swap1\n      dup2\n      mstore\n      0x20\n      add\n      0x00\n      keccak256\n      0x00\n      swap1\n      sload\n      swap1\n      0x0100\n      exp\n      swap1\n      div\n      0xff\n      and\n        /* \"@openzeppelin/contracts/token/ERC721/ERC721.sol\":4032:4074  return _operatorApprovals[owner][operator] */\n      swap1\n      pop\n        /* \"@openzeppelin/contracts/token/ERC721/ERC721.sol\":3928:4081  function isApprovedForAll(address owner, address operator) public view virtual returns (bool) {... */\n      swap3\n      swap2\n      pop\n      pop\n      jump\t// out\n        /* \"@openzeppelin/contracts/token/ERC721/ERC721.sol\":1561:1861  function supportsInterface(bytes4 interfaceId) public view virtual override(ERC165, IERC165) returns (bool) {... */\n    tag_96:\n        /* \"@openzeppelin/contracts/token/ERC721/ERC721.sol\":1663:1667  bool */\n      0x00\n        /* \"@openzeppelin/contracts/token/ERC721/ERC721.sol\":1713:1738  type(IERC721).interfaceId */\n      0x80ac58cd00000000000000000000000000000000000000000000000000000000\n        /* \"@openzeppelin/contracts/token/ERC721/ERC721.sol\":1698:1738  interfaceId == type(IERC721).interfaceId */\n      not(0xffffffffffffffffffffffffffffffffffffffffffffffffffffffff)\n      and\n        /* \"@openzeppelin/contracts/token/ERC721/ERC721.sol\":1698:1709  interfaceId */\n      dup3\n        /* \"@openzeppelin/contracts/token/ERC721/ERC721.sol\":1698:1738  interfaceId == type(IERC721).interfaceId */\n      not(0xffffffffffffffffffffffffffffffffffffffffffffffffffffffff)\n      and\n      eq\n        /* \"@openzeppelin/contracts/token/ERC721/ERC721.sol\":1698:1802  interfaceId == type(IERC721).interfaceId ||... */\n      dup1\n      tag_197\n      jumpi\n      pop\n        /* \"@openzeppelin/contracts/token/ERC721/ERC721.sol\":1769:1802  type(IERC721Metadata).interfaceId */\n      0x5b5e139f00000000000000000000000000000000000000000000000000000000\n        /* \"@openzeppelin/contracts/token/ERC721/ERC721.sol\":1754:1802  interfaceId == type(IERC721Metadata).interfaceId */\n      not(0xffffffffffffffffffffffffffffffffffffffffffffffffffffffff)\n      and\n        /* \"@openzeppelin/contracts/token/ERC721/ERC721.sol\":1754:1765  interfaceId */\n      dup3\n        /* \"@openzeppelin/contracts/token/ERC721/ERC721.sol\":1754:1802  interfaceId == type(IERC721Metadata).interfaceId */\n      not(0xffffffffffffffffffffffffffffffffffffffffffffffffffffffff)\n      and\n      eq\n        /* \"@openzeppelin/contracts/token/ERC721/ERC721.sol\":1698:1802  interfaceId == type(IERC721).interfaceId ||... */\n    tag_197:\n        /* \"@openzeppelin/contracts/token/ERC721/ERC721.sol\":1698:1854  interfaceId == type(IERC721).interfaceId ||... */\n      dup1\n      tag_198\n      jumpi\n      pop\n        /* \"@openzeppelin/contracts/token/ERC721/ERC721.sol\":1818:1854  super.supportsInterface(interfaceId) */\n      tag_199\n        /* \"@openzeppelin/contracts/token/ERC721/ERC721.sol\":1842:1853  interfaceId */\n      dup3\n        /* \"@openzeppelin/contracts/token/ERC721/ERC721.sol\":1818:1841  super.supportsInterface */\n      tag_200\n        /* \"@openzeppelin/contracts/token/ERC721/ERC721.sol\":1818:1854  super.supportsInterface(interfaceId) */\n      jump\t// in\n    tag_199:\n        /* \"@openzeppelin/contracts/token/ERC721/ERC721.sol\":1698:1854  interfaceId == type(IERC721).interfaceId ||... */\n    tag_198:\n        /* \"@openzeppelin/contracts/token/ERC721/ERC721.sol\":1679:1854  return... */\n      swap1\n      pop\n        /* \"@openzeppelin/contracts/token/ERC721/ERC721.sol\":1561:1861  function supportsInterface(bytes4 interfaceId) public view virtual override(ERC165, IERC165) returns (bool) {... */\n      swap2\n      swap1\n      pop\n      jump\t// out\n        /* \"@openzeppelin/contracts/token/ERC721/ERC721.sol\":16138:16379  function _requireOwned(uint256 tokenId) internal view returns (address) {... */\n    tag_106:\n        /* \"@openzeppelin/contracts/token/ERC721/ERC721.sol\":16201:16208  address */\n      0x00\n        /* \"@openzeppelin/contracts/token/ERC721/ERC721.sol\":16220:16233  address owner */\n      dup1\n        /* \"@openzeppelin/contracts/token/ERC721/ERC721.sol\":16236:16253  _ownerOf(tokenId) */\n      tag_202\n        /* \"@openzeppelin/contracts/token/ERC721/ERC721.sol\":16245:16252  tokenId */\n      dup4\n        /* \"@openzeppelin/contracts/token/ERC721/ERC721.sol\":16236:16244  _ownerOf */\n      tag_203\n        /* \"@openzeppelin/contracts/token/ERC721/ERC721.sol\":16236:16253  _ownerOf(tokenId) */\n      jump\t// in\n    tag_202:\n        /* \"@openzeppelin/contracts/token/ERC721/ERC721.sol\":16220:16253  address owner = _ownerOf(tokenId) */\n      swap1\n      pop\n        /* \"@openzeppelin/contracts/token/ERC721/ERC721.sol\":16284:16285  0 */\n      0x00\n        /* \"@openzeppelin/contracts/token/ERC721/ERC721.sol\":16267:16286  owner == address(0) */\n      0xffffffffffffffffffffffffffffffffffffffff\n      and\n        /* \"@openzeppelin/contracts/token/ERC721/ERC721.sol\":16267:16272  owner */\n      dup2\n        /* \"@openzeppelin/contracts/token/ERC721/ERC721.sol\":16267:16286  owner == address(0) */\n      0xffffffffffffffffffffffffffffffffffffffff\n      and\n      sub\n        /* \"@openzeppelin/contracts/token/ERC721/ERC721.sol\":16263:16351  if (owner == address(0)) {... */\n      tag_204\n      jumpi\n        /* \"@openzeppelin/contracts/token/ERC721/ERC721.sol\":16332:16339  tokenId */\n      dup3\n        /* \"@openzeppelin/contracts/token/ERC721/ERC721.sol\":16309:16340  ERC721NonexistentToken(tokenId) */\n      mload(0x40)\n      0x7e27328900000000000000000000000000000000000000000000000000000000\n      dup2\n      mstore\n      0x04\n      add\n      tag_205\n      swap2\n      swap1\n      tag_60\n      jump\t// in\n    tag_205:\n      mload(0x40)\n      dup1\n      swap2\n      sub\n      swap1\n      revert\n        /* \"@openzeppelin/contracts/token/ERC721/ERC721.sol\":16263:16351  if (owner == address(0)) {... */\n    tag_204:\n        /* \"@openzeppelin/contracts/token/ERC721/ERC721.sol\":16367:16372  owner */\n      dup1\n        /* \"@openzeppelin/contracts/token/ERC721/ERC721.sol\":16360:16372  return owner */\n      swap2\n      pop\n      pop\n        /* \"@openzeppelin/contracts/token/ERC721/ERC721.sol\":16138:16379  function _requireOwned(uint256 tokenId) internal view returns (address) {... */\n      swap2\n      swap1\n      pop\n      jump\t// out\n        /* \"@openzeppelin/contracts/token/ERC721/ERC721.sol\":5938:6065  function _getApproved(uint256 tokenId) internal view virtual returns (address) {... */\n    tag_108:\n        /* \"@openzeppelin/contracts/token/ERC721/ERC721.sol\":6008:6015  address */\n      0x00\n        /* \"@openzeppelin/contracts/token/ERC721/ERC721.sol\":6034:6049  _tokenApprovals */\n      0x04\n        /* \"@openzeppelin/contracts/token/ERC721/ERC721.sol\":6034:6058  _tokenApprovals[tokenId] */\n      0x00\n        /* \"@openzeppelin/contracts/token/ERC721/ERC721.sol\":6050:6057  tokenId */\n      dup4\n        /* \"@openzeppelin/contracts/token/ERC721/ERC721.sol\":6034:6058  _tokenApprovals[tokenId] */\n      dup2\n      mstore\n      0x20\n      add\n      swap1\n      dup2\n      mstore\n      0x20\n      add\n      0x00\n      keccak256\n      0x00\n      swap1\n      sload\n      swap1\n      0x0100\n      exp\n      swap1\n      div\n      0xffffffffffffffffffffffffffffffffffffffff\n      and\n        /* \"@openzeppelin/contracts/token/ERC721/ERC721.sol\":6027:6058  return _tokenApprovals[tokenId] */\n      swap1\n      pop\n        /* \"@openzeppelin/contracts/token/ERC721/ERC721.sol\":5938:6065  function _getApproved(uint256 tokenId) internal view virtual returns (address) {... */\n      swap2\n      swap1\n      pop\n      jump\t// out\n        /* \"@openzeppelin/contracts/utils/Context.sol\":656:752  function _msgSender() internal view virtual returns (address) {... */\n    tag_112:\n        /* \"@openzeppelin/contracts/utils/Context.sol\":709:716  address */\n      0x00\n        /* \"@openzeppelin/contracts/utils/Context.sol\":735:745  msg.sender */\n      caller\n        /* \"@openzeppelin/contracts/utils/Context.sol\":728:745  return msg.sender */\n      swap1\n      pop\n        /* \"@openzeppelin/contracts/utils/Context.sol\":656:752  function _msgSender() internal view virtual returns (address) {... */\n      swap1\n      jump\t// out\n        /* \"@openzeppelin/contracts/token/ERC721/ERC721.sol\":14418:14538  function _approve(address to, uint256 tokenId, address auth) internal {... */\n    tag_113:\n        /* \"@openzeppelin/contracts/token/ERC721/ERC721.sol\":14498:14531  _approve(to, tokenId, auth, true) */\n      tag_209\n        /* \"@openzeppelin/contracts/token/ERC721/ERC721.sol\":14507:14509  to */\n      dup4\n        /* \"@openzeppelin/contracts/token/ERC721/ERC721.sol\":14511:14518  tokenId */\n      dup4\n        /* \"@openzeppelin/contracts/token/ERC721/ERC721.sol\":14520:14524  auth */\n      dup4\n        /* \"@openzeppelin/contracts/token/ERC721/ERC721.sol\":14526:14530  true */\n      0x01\n        /* \"@openzeppelin/contracts/token/ERC721/ERC721.sol\":14498:14506  _approve */\n      tag_210\n        /* \"@openzeppelin/contracts/token/ERC721/ERC721.sol\":14498:14531  _approve(to, tokenId, auth, true) */\n      jump\t// in\n    tag_209:\n        /* \"@openzeppelin/contracts/token/ERC721/ERC721.sol\":14418:14538  function _approve(address to, uint256 tokenId, address auth) internal {... */\n      pop\n      pop\n      pop\n      jump\t// out\n        /* \"@openzeppelin/contracts/token/ERC721/ERC721.sol\":8838:9633  function _update(address to, uint256 tokenId, address auth) internal virtual returns (address) {... */\n    tag_119:\n        /* \"@openzeppelin/contracts/token/ERC721/ERC721.sol\":8924:8931  address */\n      0x00\n        /* \"@openzeppelin/contracts/token/ERC721/ERC721.sol\":8943:8955  address from */\n      dup1\n        /* \"@openzeppelin/contracts/token/ERC721/ERC721.sol\":8958:8975  _ownerOf(tokenId) */\n      tag_212\n        /* \"@openzeppelin/contracts/token/ERC721/ERC721.sol\":8967:8974  tokenId */\n      dup5\n        /* \"@openzeppelin/contracts/token/ERC721/ERC721.sol\":8958:8966  _ownerOf */\n      tag_203\n        /* \"@openzeppelin/contracts/token/ERC721/ERC721.sol\":8958:8975  _ownerOf(tokenId) */\n      jump\t// in\n    tag_212:\n        /* \"@openzeppelin/contracts/token/ERC721/ERC721.sol\":8943:8975  address from = _ownerOf(tokenId) */\n      swap1\n      pop\n        /* \"@openzeppelin/contracts/token/ERC721/ERC721.sol\":9051:9052  0 */\n      0x00\n        /* \"@openzeppelin/contracts/token/ERC721/ERC721.sol\":9035:9053  auth != address(0) */\n      0xffffffffffffffffffffffffffffffffffffffff\n      and\n        /* \"@openzeppelin/contracts/token/ERC721/ERC721.sol\":9035:9039  auth */\n      dup4\n        /* \"@openzeppelin/contracts/token/ERC721/ERC721.sol\":9035:9053  auth != address(0) */\n      0xffffffffffffffffffffffffffffffffffffffff\n      and\n      eq\n        /* \"@openzeppelin/contracts/token/ERC721/ERC721.sol\":9031:9117  if (auth != address(0)) {... */\n      tag_213\n      jumpi\n        /* \"@openzeppelin/contracts/token/ERC721/ERC721.sol\":9069:9106  _checkAuthorized(from, auth, tokenId) */\n      tag_214\n        /* \"@openzeppelin/contracts/token/ERC721/ERC721.sol\":9086:9090  from */\n      dup2\n        /* \"@openzeppelin/contracts/token/ERC721/ERC721.sol\":9092:9096  auth */\n      dup5\n        /* \"@openzeppelin/contracts/token/ERC721/ERC721.sol\":9098:9105  tokenId */\n      dup7\n        /* \"@openzeppelin/contracts/token/ERC721/ERC721.sol\":9069:9085  _checkAuthorized */\n      tag_215\n        /* \"@openzeppelin/contracts/token/ERC721/ERC721.sol\":9069:9106  _checkAuthorized(from, auth, tokenId) */\n      jump\t// in\n    tag_214:\n        /* \"@openzeppelin/contracts/token/ERC721/ERC721.sol\":9031:9117  if (auth != address(0)) {... */\n    tag_213:\n        /* \"@openzeppelin/contracts/token/ERC721/ERC721.sol\":9177:9178  0 */\n      0x00\n        /* \"@openzeppelin/contracts/token/ERC721/ERC721.sol\":9161:9179  from != address(0) */\n      0xffffffffffffffffffffffffffffffffffffffff\n      and\n        /* \"@openzeppelin/contracts/token/ERC721/ERC721.sol\":9161:9165  from */\n      dup2\n        /* \"@openzeppelin/contracts/token/ERC721/ERC721.sol\":9161:9179  from != address(0) */\n      0xffffffffffffffffffffffffffffffffffffffff\n      and\n      eq\n        /* \"@openzeppelin/contracts/token/ERC721/ERC721.sol\":9157:9413  if (from != address(0)) {... */\n      tag_216\n      jumpi\n        /* \"@openzeppelin/contracts/token/ERC721/ERC721.sol\":9277:9325  _approve(address(0), tokenId, address(0), false) */\n      tag_217\n        /* \"@openzeppelin/contracts/token/ERC721/ERC721.sol\":9294:9295  0 */\n      0x00\n        /* \"@openzeppelin/contracts/token/ERC721/ERC721.sol\":9298:9305  tokenId */\n      dup6\n        /* \"@openzeppelin/contracts/token/ERC721/ERC721.sol\":9315:9316  0 */\n      0x00\n        /* \"@openzeppelin/contracts/token/ERC721/ERC721.sol\":9319:9324  false */\n      dup1\n        /* \"@openzeppelin/contracts/token/ERC721/ERC721.sol\":9277:9285  _approve */\n      tag_210\n        /* \"@openzeppelin/contracts/token/ERC721/ERC721.sol\":9277:9325  _approve(address(0), tokenId, address(0), false) */\n      jump\t// in\n    tag_217:\n        /* \"@openzeppelin/contracts/token/ERC721/ERC721.sol\":9387:9388  1 */\n      0x01\n        /* \"@openzeppelin/contracts/token/ERC721/ERC721.sol\":9368:9377  _balances */\n      0x03\n        /* \"@openzeppelin/contracts/token/ERC721/ERC721.sol\":9368:9383  _balances[from] */\n      0x00\n        /* \"@openzeppelin/contracts/token/ERC721/ERC721.sol\":9378:9382  from */\n      dup4\n        /* \"@openzeppelin/contracts/token/ERC721/ERC721.sol\":9368:9383  _balances[from] */\n      0xffffffffffffffffffffffffffffffffffffffff\n      and\n      0xffffffffffffffffffffffffffffffffffffffff\n      and\n      dup2\n      mstore\n      0x20\n      add\n      swap1\n      dup2\n      mstore\n      0x20\n      add\n      0x00\n      keccak256\n      0x00\n        /* \"@openzeppelin/contracts/token/ERC721/ERC721.sol\":9368:9388  _balances[from] -= 1 */\n      dup3\n      dup3\n      sload\n      sub\n      swap3\n      pop\n      pop\n      dup2\n      swap1\n      sstore\n      pop\n        /* \"@openzeppelin/contracts/token/ERC721/ERC721.sol\":9157:9413  if (from != address(0)) {... */\n    tag_216:\n        /* \"@openzeppelin/contracts/token/ERC721/ERC721.sol\":9441:9442  0 */\n      0x00\n        /* \"@openzeppelin/contracts/token/ERC721/ERC721.sol\":9427:9443  to != address(0) */\n      0xffffffffffffffffffffffffffffffffffffffff\n      and\n        /* \"@openzeppelin/contracts/token/ERC721/ERC721.sol\":9427:9429  to */\n      dup6\n        /* \"@openzeppelin/contracts/token/ERC721/ERC721.sol\":9427:9443  to != address(0) */\n      0xffffffffffffffffffffffffffffffffffffffff\n      and\n      eq\n        /* \"@openzeppelin/contracts/token/ERC721/ERC721.sol\":9423:9530  if (to != address(0)) {... */\n      tag_218\n      jumpi\n        /* \"@openzeppelin/contracts/token/ERC721/ERC721.sol\":9504:9505  1 */\n      0x01\n        /* \"@openzeppelin/contracts/token/ERC721/ERC721.sol\":9487:9496  _balances */\n      0x03\n        /* \"@openzeppelin/contracts/token/ERC721/ERC721.sol\":9487:9500  _balances[to] */\n      0x00\n        /* \"@openzeppelin/contracts/token/ERC721/ERC721.sol\":9497:9499  to */\n      dup8\n        /* \"@openzeppelin/contracts/token/ERC721/ERC721.sol\":9487:9500  _balances[to] */\n      0xffffffffffffffffffffffffffffffffffffffff\n      and\n      0xffffffffffffffffffffffffffffffffffffffff\n      and\n      dup2\n      mstore\n      0x20\n      add\n      swap1\n      dup2\n      mstore\n      0x20\n      add\n      0x00\n      keccak256\n      0x00\n        /* \"@openzeppelin/contracts/token/ERC721/ERC721.sol\":9487:9505  _balances[to] += 1 */\n      dup3\n      dup3\n      sload\n      add\n      swap3\n      pop\n      pop\n      dup2\n      swap1\n      sstore\n      pop\n        /* \"@openzeppelin/contracts/token/ERC721/ERC721.sol\":9423:9530  if (to != address(0)) {... */\n    tag_218:\n        /* \"@openzeppelin/contracts/token/ERC721/ERC721.sol\":9559:9561  to */\n      dup5\n        /* \"@openzeppelin/contracts/token/ERC721/ERC721.sol\":9540:9547  _owners */\n      0x02\n        /* \"@openzeppelin/contracts/token/ERC721/ERC721.sol\":9540:9556  _owners[tokenId] */\n      0x00\n        /* \"@openzeppelin/contracts/token/ERC721/ERC721.sol\":9548:9555  tokenId */\n      dup7\n        /* \"@openzeppelin/contracts/token/ERC721/ERC721.sol\":9540:9556  _owners[tokenId] */\n      dup2\n      mstore\n      0x20\n      add\n      swap1\n      dup2\n      mstore\n      0x20\n      add\n      0x00\n      keccak256\n      0x00\n        /* \"@openzeppelin/contracts/token/ERC721/ERC721.sol\":9540:9561  _owners[tokenId] = to */\n      0x0100\n      exp\n      dup2\n      sload\n      dup2\n      0xffffffffffffffffffffffffffffffffffffffff\n      mul\n      not\n      and\n      swap1\n      dup4\n      0xffffffffffffffffffffffffffffffffffffffff\n      and\n      mul\n      or\n      swap1\n      sstore\n      pop\n        /* \"@openzeppelin/contracts/token/ERC721/ERC721.sol\":9596:9603  tokenId */\n      dup4\n        /* \"@openzeppelin/contracts/token/ERC721/ERC721.sol\":9592:9594  to */\n      dup6\n        /* \"@openzeppelin/contracts/token/ERC721/ERC721.sol\":9577:9604  Transfer(from, to, tokenId) */\n      0xffffffffffffffffffffffffffffffffffffffff\n      and\n        /* \"@openzeppelin/contracts/token/ERC721/ERC721.sol\":9586:9590  from */\n      dup3\n        /* \"@openzeppelin/contracts/token/ERC721/ERC721.sol\":9577:9604  Transfer(from, to, tokenId) */\n      0xffffffffffffffffffffffffffffffffffffffff\n      and\n      0xddf252ad1be2c89b69c2b068fc378daa952ba7f163c4a11628f55a4df523b3ef\n      mload(0x40)\n      mload(0x40)\n      dup1\n      swap2\n      sub\n      swap1\n      log4\n        /* \"@openzeppelin/contracts/token/ERC721/ERC721.sol\":9622:9626  from */\n      dup1\n        /* \"@openzeppelin/contracts/token/ERC721/ERC721.sol\":9615:9626  return from */\n      swap2\n      pop\n      pop\n        /* \"@openzeppelin/contracts/token/ERC721/ERC721.sol\":8838:9633  function _update(address to, uint256 tokenId, address auth) internal virtual returns (address) {... */\n      swap4\n      swap3\n      pop\n      pop\n      pop\n      jump\t// out\n        /* \"art3mis/Art3mis.sol\":2780:3071  function random(uint256 upper_limit_excluded) internal view returns (uint256) {... */\n    tag_125:\n        /* \"art3mis/Art3mis.sol\":2849:2856  uint256 */\n      0x00\n        /* \"art3mis/Art3mis.sol\":2868:2880  uint256 rand */\n      dup1\n        /* \"art3mis/Art3mis.sol\":2931:2940  tx.origin */\n      origin\n        /* \"art3mis/Art3mis.sol\":2979:2980  1 */\n      0x01\n        /* \"art3mis/Art3mis.sol\":2964:2976  block.number */\n      number\n        /* \"art3mis/Art3mis.sol\":2964:2980  block.number - 1 */\n      tag_220\n      swap2\n      swap1\n      tag_221\n      jump\t// in\n    tag_220:\n        /* \"art3mis/Art3mis.sol\":2954:2981  blockhash(block.number - 1) */\n      blockhash\n        /* \"art3mis/Art3mis.sol\":2995:3010  block.timestamp */\n      timestamp\n        /* \"art3mis/Art3mis.sol\":2901:3020  abi.encodePacked(... */\n      add(0x20, mload(0x40))\n      tag_222\n      swap4\n      swap3\n      swap2\n      swap1\n      tag_223\n      jump\t// in\n    tag_222:\n      mload(0x40)\n      0x20\n      dup2\n      dup4\n      sub\n      sub\n      dup2\n      mstore\n      swap1\n      0x40\n      mstore\n        /* \"art3mis/Art3mis.sol\":2891:3021  keccak256(abi.encodePacked(... */\n      dup1\n      mload\n      swap1\n      0x20\n      add\n      keccak256\n        /* \"art3mis/Art3mis.sol\":2883:3022  uint256(keccak256(abi.encodePacked(... */\n      0x00\n      shr\n        /* \"art3mis/Art3mis.sol\":2868:3022  uint256 rand = uint256(keccak256(abi.encodePacked(... */\n      swap1\n      pop\n        /* \"art3mis/Art3mis.sol\":3046:3066  upper_limit_excluded */\n      dup3\n        /* \"art3mis/Art3mis.sol\":3039:3043  rand */\n      dup2\n        /* \"art3mis/Art3mis.sol\":3039:3066  rand % upper_limit_excluded */\n      tag_224\n      swap2\n      swap1\n      tag_225\n      jump\t// in\n    tag_224:\n        /* \"art3mis/Art3mis.sol\":3032:3066  return rand % upper_limit_excluded */\n      swap2\n      pop\n      pop\n        /* \"art3mis/Art3mis.sol\":2780:3071  function random(uint256 upper_limit_excluded) internal view returns (uint256) {... */\n      swap2\n      swap1\n      pop\n      jump\t// out\n        /* \"@openzeppelin/contracts/utils/Strings.sol\":637:1335  function toString(uint256 value) internal pure returns (string memory) {... */\n    tag_139:\n        /* \"@openzeppelin/contracts/utils/Strings.sol\":693:706  string memory */\n      0x60\n        /* \"@openzeppelin/contracts/utils/Strings.sol\":742:756  uint256 length */\n      0x00\n        /* \"@openzeppelin/contracts/utils/Strings.sol\":779:780  1 */\n      0x01\n        /* \"@openzeppelin/contracts/utils/Strings.sol\":759:776  Math.log10(value) */\n      tag_227\n        /* \"@openzeppelin/contracts/utils/Strings.sol\":770:775  value */\n      dup5\n        /* \"@openzeppelin/contracts/utils/Strings.sol\":759:769  Math.log10 */\n      tag_228\n        /* \"@openzeppelin/contracts/utils/Strings.sol\":759:776  Math.log10(value) */\n      jump\t// in\n    tag_227:\n        /* \"@openzeppelin/contracts/utils/Strings.sol\":759:780  Math.log10(value) + 1 */\n      add\n        /* \"@openzeppelin/contracts/utils/Strings.sol\":742:780  uint256 length = Math.log10(value) + 1 */\n      swap1\n      pop\n        /* \"@openzeppelin/contracts/utils/Strings.sol\":794:814  string memory buffer */\n      0x00\n        /* \"@openzeppelin/contracts/utils/Strings.sol\":828:834  length */\n      dup2\n        /* \"@openzeppelin/contracts/utils/Strings.sol\":817:835  new string(length) */\n      0xffffffffffffffff\n      dup2\n      gt\n      iszero\n      tag_229\n      jumpi\n      tag_230\n      tag_231\n      jump\t// in\n    tag_230:\n    tag_229:\n      mload(0x40)\n      swap1\n      dup1\n      dup3\n      mstore\n      dup1\n      0x1f\n      add\n      not(0x1f)\n      and\n      0x20\n      add\n      dup3\n      add\n      0x40\n      mstore\n      dup1\n      iszero\n      tag_232\n      jumpi\n      dup2\n      0x20\n      add\n      0x01\n      dup3\n      mul\n      dup1\n      calldatasize\n      dup4\n      calldatacopy\n      dup1\n      dup3\n      add\n      swap2\n      pop\n      pop\n      swap1\n      pop\n    tag_232:\n      pop\n        /* \"@openzeppelin/contracts/utils/Strings.sol\":794:835  string memory buffer = new string(length) */\n      swap1\n      pop\n        /* \"@openzeppelin/contracts/utils/Strings.sol\":849:860  uint256 ptr */\n      0x00\n        /* \"@openzeppelin/contracts/utils/Strings.sol\":975:981  length */\n      dup3\n        /* \"@openzeppelin/contracts/utils/Strings.sol\":971:973  32 */\n      0x20\n        /* \"@openzeppelin/contracts/utils/Strings.sol\":967:982  add(32, length) */\n      add\n        /* \"@openzeppelin/contracts/utils/Strings.sol\":959:965  buffer */\n      dup3\n        /* \"@openzeppelin/contracts/utils/Strings.sol\":955:983  add(buffer, add(32, length)) */\n      add\n        /* \"@openzeppelin/contracts/utils/Strings.sol\":948:983  ptr := add(buffer, add(32, length)) */\n      swap1\n      pop\n        /* \"@openzeppelin/contracts/utils/Strings.sol\":1010:1292  while (true) {... */\n    tag_233:\n        /* \"@openzeppelin/contracts/utils/Strings.sol\":1017:1021  true */\n      0x01\n        /* \"@openzeppelin/contracts/utils/Strings.sol\":1010:1292  while (true) {... */\n      iszero\n      tag_234\n      jumpi\n        /* \"@openzeppelin/contracts/utils/Strings.sol\":1041:1046  ptr-- */\n      dup1\n      dup1\n      0x01\n      swap1\n      sub\n      swap2\n      pop\n      pop\n        /* \"@openzeppelin/contracts/utils/Strings.sol\":1180:1190  HEX_DIGITS */\n      0x3031323334353637383961626364656600000000000000000000000000000000\n        /* \"@openzeppelin/contracts/utils/Strings.sol\":1175:1177  10 */\n      0x0a\n        /* \"@openzeppelin/contracts/utils/Strings.sol\":1168:1173  value */\n      dup7\n        /* \"@openzeppelin/contracts/utils/Strings.sol\":1164:1178  mod(value, 10) */\n      mod\n        /* \"@openzeppelin/contracts/utils/Strings.sol\":1159:1191  byte(mod(value, 10), HEX_DIGITS) */\n      byte\n        /* \"@openzeppelin/contracts/utils/Strings.sol\":1154:1157  ptr */\n      dup2\n        /* \"@openzeppelin/contracts/utils/Strings.sol\":1146:1192  mstore8(ptr, byte(mod(value, 10), HEX_DIGITS)) */\n      mstore8\n        /* \"@openzeppelin/contracts/utils/Strings.sol\":1236:1238  10 */\n      0x0a\n        /* \"@openzeppelin/contracts/utils/Strings.sol\":1227:1238  value /= 10 */\n      dup6\n      dup2\n      tag_235\n      jumpi\n      tag_236\n      tag_237\n      jump\t// in\n    tag_236:\n    tag_235:\n      div\n      swap5\n      pop\n        /* \"@openzeppelin/contracts/utils/Strings.sol\":1269:1270  0 */\n      0x00\n        /* \"@openzeppelin/contracts/utils/Strings.sol\":1260:1265  value */\n      dup6\n        /* \"@openzeppelin/contracts/utils/Strings.sol\":1260:1270  value == 0 */\n      sub\n        /* \"@openzeppelin/contracts/utils/Strings.sol\":1010:1292  while (true) {... */\n      tag_233\n        /* \"@openzeppelin/contracts/utils/Strings.sol\":1256:1277  if (value == 0) break */\n      jumpi\n        /* \"@openzeppelin/contracts/utils/Strings.sol\":1010:1292  while (true) {... */\n    tag_234:\n        /* \"@openzeppelin/contracts/utils/Strings.sol\":1312:1318  buffer */\n      dup2\n        /* \"@openzeppelin/contracts/utils/Strings.sol\":1305:1318  return buffer */\n      swap4\n      pop\n      pop\n      pop\n      pop\n        /* \"@openzeppelin/contracts/utils/Strings.sol\":637:1335  function toString(uint256 value) internal pure returns (string memory) {... */\n      swap2\n      swap1\n      pop\n      jump\t// out\n        /* \"art3mis/libraries.sol\":5204:5316  function current(Counter storage counter) internal view returns (uint256) {... */\n    tag_151:\n        /* \"art3mis/libraries.sol\":5269:5276  uint256 */\n      0x00\n        /* \"art3mis/libraries.sol\":5295:5302  counter */\n      dup2\n        /* \"art3mis/libraries.sol\":5295:5309  counter._value */\n      0x00\n      add\n      sload\n        /* \"art3mis/libraries.sol\":5288:5309  return counter._value */\n      swap1\n      pop\n        /* \"art3mis/libraries.sol\":5204:5316  function current(Counter storage counter) internal view returns (uint256) {... */\n      swap2\n      swap1\n      pop\n      jump\t// out\n        /* \"art3mis/libraries.sol\":5322:5500  function increment(Counter storage counter) internal {... */\n    tag_153:\n        /* \"art3mis/libraries.sol\":5492:5493  1 */\n      0x01\n        /* \"art3mis/libraries.sol\":5474:5481  counter */\n      dup2\n        /* \"art3mis/libraries.sol\":5474:5488  counter._value */\n      0x00\n      add\n      0x00\n        /* \"art3mis/libraries.sol\":5474:5493  counter._value += 1 */\n      dup3\n      dup3\n      sload\n      tag_241\n      swap2\n      swap1\n      tag_242\n      jump\t// in\n    tag_241:\n      swap3\n      pop\n      pop\n      dup2\n      swap1\n      sstore\n      pop\n        /* \"art3mis/libraries.sol\":5322:5500  function increment(Counter storage counter) internal {... */\n      pop\n      jump\t// out\n        /* \"@openzeppelin/contracts/token/ERC721/ERC721.sol\":10633:10733  function _safeMint(address to, uint256 tokenId) internal {... */\n    tag_155:\n        /* \"@openzeppelin/contracts/token/ERC721/ERC721.sol\":10700:10726  _safeMint(to, tokenId, \"\") */\n      tag_244\n        /* \"@openzeppelin/contracts/token/ERC721/ERC721.sol\":10710:10712  to */\n      dup3\n        /* \"@openzeppelin/contracts/token/ERC721/ERC721.sol\":10714:10721  tokenId */\n      dup3\n        /* \"@openzeppelin/contracts/token/ERC721/ERC721.sol\":10700:10726  _safeMint(to, tokenId, \"\") */\n      mload(0x40)\n      dup1\n      0x20\n      add\n      0x40\n      mstore\n      dup1\n      0x00\n      dup2\n      mstore\n      pop\n        /* \"@openzeppelin/contracts/token/ERC721/ERC721.sol\":10700:10709  _safeMint */\n      tag_245\n        /* \"@openzeppelin/contracts/token/ERC721/ERC721.sol\":10700:10726  _safeMint(to, tokenId, \"\") */\n      jump\t// in\n    tag_244:\n        /* \"@openzeppelin/contracts/token/ERC721/ERC721.sol\":10633:10733  function _safeMint(address to, uint256 tokenId) internal {... */\n      pop\n      pop\n      jump\t// out\n        /* \"@openzeppelin/contracts/token/ERC721/extensions/ERC721URIStorage.sol\":1922:2089  function _setTokenURI(uint256 tokenId, string memory _tokenURI) internal virtual {... */\n    tag_157:\n        /* \"@openzeppelin/contracts/token/ERC721/extensions/ERC721URIStorage.sol\":2035:2044  _tokenURI */\n      dup1\n        /* \"@openzeppelin/contracts/token/ERC721/extensions/ERC721URIStorage.sol\":2013:2023  _tokenURIs */\n      0x06\n        /* \"@openzeppelin/contracts/token/ERC721/extensions/ERC721URIStorage.sol\":2013:2032  _tokenURIs[tokenId] */\n      0x00\n        /* \"@openzeppelin/contracts/token/ERC721/extensions/ERC721URIStorage.sol\":2024:2031  tokenId */\n      dup5\n        /* \"@openzeppelin/contracts/token/ERC721/extensions/ERC721URIStorage.sol\":2013:2032  _tokenURIs[tokenId] */\n      dup2\n      mstore\n      0x20\n      add\n      swap1\n      dup2\n      mstore\n      0x20\n      add\n      0x00\n      keccak256\n        /* \"@openzeppelin/contracts/token/ERC721/extensions/ERC721URIStorage.sol\":2013:2044  _tokenURIs[tokenId] = _tokenURI */\n      swap1\n      dup2\n      tag_247\n      swap2\n      swap1\n      tag_248\n      jump\t// in\n    tag_247:\n      pop\n        /* \"@openzeppelin/contracts/token/ERC721/extensions/ERC721URIStorage.sol\":2059:2082  MetadataUpdate(tokenId) */\n      0xf8e1a15aba9398e019f0b49df1a4fde98ee17ae345cb5f6b5e2c27f5033e8ce7\n        /* \"@openzeppelin/contracts/token/ERC721/extensions/ERC721URIStorage.sol\":2074:2081  tokenId */\n      dup3\n        /* \"@openzeppelin/contracts/token/ERC721/extensions/ERC721URIStorage.sol\":2059:2082  MetadataUpdate(tokenId) */\n      mload(0x40)\n      tag_249\n      swap2\n      swap1\n      tag_60\n      jump\t// in\n    tag_249:\n      mload(0x40)\n      dup1\n      swap2\n      sub\n      swap1\n      log1\n        /* \"@openzeppelin/contracts/token/ERC721/extensions/ERC721URIStorage.sol\":1922:2089  function _setTokenURI(uint256 tokenId, string memory _tokenURI) internal virtual {... */\n      pop\n      pop\n      jump\t// out\n        /* \"@openzeppelin/contracts/token/ERC721/ERC721.sol\":15591:15903  function _setApprovalForAll(address owner, address operator, bool approved) internal virtual {... */\n    tag_176:\n        /* \"@openzeppelin/contracts/token/ERC721/ERC721.sol\":15718:15719  0 */\n      0x00\n        /* \"@openzeppelin/contracts/token/ERC721/ERC721.sol\":15698:15720  operator == address(0) */\n      0xffffffffffffffffffffffffffffffffffffffff\n      and\n        /* \"@openzeppelin/contracts/token/ERC721/ERC721.sol\":15698:15706  operator */\n      dup3\n        /* \"@openzeppelin/contracts/token/ERC721/ERC721.sol\":15698:15720  operator == address(0) */\n      0xffffffffffffffffffffffffffffffffffffffff\n      and\n      sub\n        /* \"@openzeppelin/contracts/token/ERC721/ERC721.sol\":15694:15785  if (operator == address(0)) {... */\n      tag_251\n      jumpi\n        /* \"@openzeppelin/contracts/token/ERC721/ERC721.sol\":15765:15773  operator */\n      dup2\n        /* \"@openzeppelin/contracts/token/ERC721/ERC721.sol\":15743:15774  ERC721InvalidOperator(operator) */\n      mload(0x40)\n      0x5b08ba1800000000000000000000000000000000000000000000000000000000\n      dup2\n      mstore\n      0x04\n      add\n      tag_252\n      swap2\n      swap1\n      tag_38\n      jump\t// in\n    tag_252:\n      mload(0x40)\n      dup1\n      swap2\n      sub\n      swap1\n      revert\n        /* \"@openzeppelin/contracts/token/ERC721/ERC721.sol\":15694:15785  if (operator == address(0)) {... */\n    tag_251:\n        /* \"@openzeppelin/contracts/token/ERC721/ERC721.sol\":15832:15840  approved */\n      dup1\n        /* \"@openzeppelin/contracts/token/ERC721/ERC721.sol\":15794:15812  _operatorApprovals */\n      0x05\n        /* \"@openzeppelin/contracts/token/ERC721/ERC721.sol\":15794:15819  _operatorApprovals[owner] */\n      0x00\n        /* \"@openzeppelin/contracts/token/ERC721/ERC721.sol\":15813:15818  owner */\n      dup6\n        /* \"@openzeppelin/contracts/token/ERC721/ERC721.sol\":15794:15819  _operatorApprovals[owner] */\n      0xffffffffffffffffffffffffffffffffffffffff\n      and\n      0xffffffffffffffffffffffffffffffffffffffff\n      and\n      dup2\n      mstore\n      0x20\n      add\n      swap1\n      dup2\n      mstore\n      0x20\n      add\n      0x00\n      keccak256\n        /* \"@openzeppelin/contracts/token/ERC721/ERC721.sol\":15794:15829  _operatorApprovals[owner][operator] */\n      0x00\n        /* \"@openzeppelin/contracts/token/ERC721/ERC721.sol\":15820:15828  operator */\n      dup5\n        /* \"@openzeppelin/contracts/token/ERC721/ERC721.sol\":15794:15829  _operatorApprovals[owner][operator] */\n      0xffffffffffffffffffffffffffffffffffffffff\n      and\n      0xffffffffffffffffffffffffffffffffffffffff\n      and\n      dup2\n      mstore\n      0x20\n      add\n      swap1\n      dup2\n      mstore\n      0x20\n      add\n      0x00\n      keccak256\n      0x00\n        /* \"@openzeppelin/contracts/token/ERC721/ERC721.sol\":15794:15840  _operatorApprovals[owner][operator] = approved */\n      0x0100\n      exp\n      dup2\n      sload\n      dup2\n      0xff\n      mul\n      not\n      and\n      swap1\n      dup4\n      iszero\n      iszero\n      mul\n      or\n      swap1\n      sstore\n      pop\n        /* \"@openzeppelin/contracts/token/ERC721/ERC721.sol\":15877:15885  operator */\n      dup2\n        /* \"@openzeppelin/contracts/token/ERC721/ERC721.sol\":15855:15896  ApprovalForAll(owner, operator, approved) */\n      0xffffffffffffffffffffffffffffffffffffffff\n      and\n        /* \"@openzeppelin/contracts/token/ERC721/ERC721.sol\":15870:15875  owner */\n      dup4\n        /* \"@openzeppelin/contracts/token/ERC721/ERC721.sol\":15855:15896  ApprovalForAll(owner, operator, approved) */\n      0xffffffffffffffffffffffffffffffffffffffff\n      and\n      0x17307eab39ab6107e8899845ad3d59bd9653f200f220920489ca2b5937696c31\n        /* \"@openzeppelin/contracts/token/ERC721/ERC721.sol\":15887:15895  approved */\n      dup4\n        /* \"@openzeppelin/contracts/token/ERC721/ERC721.sol\":15855:15896  ApprovalForAll(owner, operator, approved) */\n      mload(0x40)\n      tag_253\n      swap2\n      swap1\n      tag_28\n      jump\t// in\n    tag_253:\n      mload(0x40)\n      dup1\n      swap2\n      sub\n      swap1\n      log3\n        /* \"@openzeppelin/contracts/token/ERC721/ERC721.sol\":15591:15903  function _setApprovalForAll(address owner, address operator, bool approved) internal virtual {... */\n      pop\n      pop\n      pop\n      jump\t// out\n        /* \"@openzeppelin/contracts/token/ERC721/ERC721.sol\":16918:17700  function _checkOnERC721Received(address from, address to, uint256 tokenId, bytes memory data) private {... */\n    tag_180:\n        /* \"@openzeppelin/contracts/token/ERC721/ERC721.sol\":17051:17052  0 */\n      0x00\n        /* \"@openzeppelin/contracts/token/ERC721/ERC721.sol\":17034:17036  to */\n      dup4\n        /* \"@openzeppelin/contracts/token/ERC721/ERC721.sol\":17034:17048  to.code.length */\n      0xffffffffffffffffffffffffffffffffffffffff\n      and\n      extcodesize\n        /* \"@openzeppelin/contracts/token/ERC721/ERC721.sol\":17034:17052  to.code.length > 0 */\n      gt\n        /* \"@openzeppelin/contracts/token/ERC721/ERC721.sol\":17030:17694  if (to.code.length > 0) {... */\n      iszero\n      tag_255\n      jumpi\n        /* \"@openzeppelin/contracts/token/ERC721/ERC721.sol\":17088:17090  to */\n      dup3\n        /* \"@openzeppelin/contracts/token/ERC721/ERC721.sol\":17072:17108  IERC721Receiver(to).onERC721Received */\n      0xffffffffffffffffffffffffffffffffffffffff\n      and\n      0x150b7a02\n        /* \"@openzeppelin/contracts/token/ERC721/ERC721.sol\":17109:17121  _msgSender() */\n      tag_256\n        /* \"@openzeppelin/contracts/token/ERC721/ERC721.sol\":17109:17119  _msgSender */\n      tag_112\n        /* \"@openzeppelin/contracts/token/ERC721/ERC721.sol\":17109:17121  _msgSender() */\n      jump\t// in\n    tag_256:\n        /* \"@openzeppelin/contracts/token/ERC721/ERC721.sol\":17123:17127  from */\n      dup7\n        /* \"@openzeppelin/contracts/token/ERC721/ERC721.sol\":17129:17136  tokenId */\n      dup6\n        /* \"@openzeppelin/contracts/token/ERC721/ERC721.sol\":17138:17142  data */\n      dup6\n        /* \"@openzeppelin/contracts/token/ERC721/ERC721.sol\":17072:17143  IERC721Receiver(to).onERC721Received(_msgSender(), from, tokenId, data) */\n      mload(0x40)\n      dup6\n      0xffffffff\n      and\n      0xe0\n      shl\n      dup2\n      mstore\n      0x04\n      add\n      tag_257\n      swap5\n      swap4\n      swap3\n      swap2\n      swap1\n      tag_258\n      jump\t// in\n    tag_257:\n      0x20\n      mload(0x40)\n      dup1\n      dup4\n      sub\n      dup2\n      0x00\n      dup8\n      gas\n      call\n      swap3\n      pop\n      pop\n      pop\n      dup1\n      iszero\n      tag_259\n      jumpi\n      pop\n      mload(0x40)\n      returndatasize\n      not(0x1f)\n      0x1f\n      dup3\n      add\n      and\n      dup3\n      add\n      dup1\n      0x40\n      mstore\n      pop\n      dup2\n      add\n      swap1\n      tag_260\n      swap2\n      swap1\n      tag_261\n      jump\t// in\n    tag_260:\n      0x01\n    tag_259:\n        /* \"@openzeppelin/contracts/token/ERC721/ERC721.sol\":17068:17684  try IERC721Receiver(to).onERC721Received(_msgSender(), from, tokenId, data) returns (bytes4 retval) {... */\n      tag_262\n      jumpi\n      returndatasize\n      dup1\n      0x00\n      dup2\n      eq\n      tag_267\n      jumpi\n      mload(0x40)\n      swap2\n      pop\n      and(add(returndatasize, 0x3f), not(0x1f))\n      dup3\n      add\n      0x40\n      mstore\n      returndatasize\n      dup3\n      mstore\n      returndatasize\n      0x00\n      0x20\n      dup5\n      add\n      returndatacopy\n      jump(tag_266)\n    tag_267:\n      0x60\n      swap2\n      pop\n    tag_266:\n      pop\n        /* \"@openzeppelin/contracts/token/ERC721/ERC721.sol\":17398:17399  0 */\n      0x00\n        /* \"@openzeppelin/contracts/token/ERC721/ERC721.sol\":17381:17387  reason */\n      dup2\n        /* \"@openzeppelin/contracts/token/ERC721/ERC721.sol\":17381:17394  reason.length */\n      mload\n        /* \"@openzeppelin/contracts/token/ERC721/ERC721.sol\":17381:17399  reason.length == 0 */\n      sub\n        /* \"@openzeppelin/contracts/token/ERC721/ERC721.sol\":17377:17670  if (reason.length == 0) {... */\n      tag_268\n      jumpi\n        /* \"@openzeppelin/contracts/token/ERC721/ERC721.sol\":17452:17454  to */\n      dup4\n        /* \"@openzeppelin/contracts/token/ERC721/ERC721.sol\":17430:17455  ERC721InvalidReceiver(to) */\n      mload(0x40)\n      0x64a0ae9200000000000000000000000000000000000000000000000000000000\n      dup2\n      mstore\n      0x04\n      add\n      tag_269\n      swap2\n      swap1\n      tag_38\n      jump\t// in\n    tag_269:\n      mload(0x40)\n      dup1\n      swap2\n      sub\n      swap1\n      revert\n        /* \"@openzeppelin/contracts/token/ERC721/ERC721.sol\":17377:17670  if (reason.length == 0) {... */\n    tag_268:\n        /* \"@openzeppelin/contracts/token/ERC721/ERC721.sol\":17622:17628  reason */\n      dup1\n        /* \"@openzeppelin/contracts/token/ERC721/ERC721.sol\":17616:17629  mload(reason) */\n      mload\n        /* \"@openzeppelin/contracts/token/ERC721/ERC721.sol\":17607:17613  reason */\n      dup2\n        /* \"@openzeppelin/contracts/token/ERC721/ERC721.sol\":17603:17605  32 */\n      0x20\n        /* \"@openzeppelin/contracts/token/ERC721/ERC721.sol\":17599:17614  add(32, reason) */\n      add\n        /* \"@openzeppelin/contracts/token/ERC721/ERC721.sol\":17592:17630  revert(add(32, reason), mload(reason)) */\n      revert\n        /* \"@openzeppelin/contracts/token/ERC721/ERC721.sol\":17068:17684  try IERC721Receiver(to).onERC721Received(_msgSender(), from, tokenId, data) returns (bytes4 retval) {... */\n    tag_262:\n        /* \"@openzeppelin/contracts/token/ERC721/ERC721.sol\":17200:17241  IERC721Receiver.onERC721Received.selector */\n      shl(0xe0, 0x150b7a02)\n        /* \"@openzeppelin/contracts/token/ERC721/ERC721.sol\":17190:17241  retval != IERC721Receiver.onERC721Received.selector */\n      not(0xffffffffffffffffffffffffffffffffffffffffffffffffffffffff)\n      and\n        /* \"@openzeppelin/contracts/token/ERC721/ERC721.sol\":17190:17196  retval */\n      dup2\n        /* \"@openzeppelin/contracts/token/ERC721/ERC721.sol\":17190:17241  retval != IERC721Receiver.onERC721Received.selector */\n      not(0xffffffffffffffffffffffffffffffffffffffffffffffffffffffff)\n      and\n      eq\n        /* \"@openzeppelin/contracts/token/ERC721/ERC721.sol\":17186:17316  if (retval != IERC721Receiver.onERC721Received.selector) {... */\n      tag_272\n      jumpi\n        /* \"@openzeppelin/contracts/token/ERC721/ERC721.sol\":17294:17296  to */\n      dup4\n        /* \"@openzeppelin/contracts/token/ERC721/ERC721.sol\":17272:17297  ERC721InvalidReceiver(to) */\n      mload(0x40)\n      0x64a0ae9200000000000000000000000000000000000000000000000000000000\n      dup2\n      mstore\n      0x04\n      add\n      tag_273\n      swap2\n      swap1\n      tag_38\n      jump\t// in\n    tag_273:\n      mload(0x40)\n      dup1\n      swap2\n      sub\n      swap1\n      revert\n        /* \"@openzeppelin/contracts/token/ERC721/ERC721.sol\":17186:17316  if (retval != IERC721Receiver.onERC721Received.selector) {... */\n    tag_272:\n        /* \"@openzeppelin/contracts/token/ERC721/ERC721.sol\":17144:17330  returns (bytes4 retval) {... */\n      pop\n        /* \"@openzeppelin/contracts/token/ERC721/ERC721.sol\":17030:17694  if (to.code.length > 0) {... */\n    tag_255:\n        /* \"@openzeppelin/contracts/token/ERC721/ERC721.sol\":16918:17700  function _checkOnERC721Received(address from, address to, uint256 tokenId, bytes memory data) private {... */\n      pop\n      pop\n      pop\n      pop\n      jump\t// out\n        /* \"@openzeppelin/contracts/token/ERC721/ERC721.sol\":3174:3266  function _baseURI() internal view virtual returns (string memory) {... */\n    tag_189:\n        /* \"@openzeppelin/contracts/token/ERC721/ERC721.sol\":3225:3238  string memory */\n      0x60\n        /* \"@openzeppelin/contracts/token/ERC721/ERC721.sol\":3250:3259  return \"\" */\n      mload(0x40)\n      dup1\n      0x20\n      add\n      0x40\n      mstore\n      dup1\n      0x00\n      dup2\n      mstore\n      pop\n      swap1\n      pop\n        /* \"@openzeppelin/contracts/token/ERC721/ERC721.sol\":3174:3266  function _baseURI() internal view virtual returns (string memory) {... */\n      swap1\n      jump\t// out\n        /* \"@openzeppelin/contracts/token/ERC721/ERC721.sol\":2677:2932  function tokenURI(uint256 tokenId) public view virtual returns (string memory) {... */\n    tag_194:\n        /* \"@openzeppelin/contracts/token/ERC721/ERC721.sol\":2741:2754  string memory */\n      0x60\n        /* \"@openzeppelin/contracts/token/ERC721/ERC721.sol\":2766:2788  _requireOwned(tokenId) */\n      tag_276\n        /* \"@openzeppelin/contracts/token/ERC721/ERC721.sol\":2780:2787  tokenId */\n      dup3\n        /* \"@openzeppelin/contracts/token/ERC721/ERC721.sol\":2766:2779  _requireOwned */\n      tag_106\n        /* \"@openzeppelin/contracts/token/ERC721/ERC721.sol\":2766:2788  _requireOwned(tokenId) */\n      jump\t// in\n    tag_276:\n      pop\n        /* \"@openzeppelin/contracts/token/ERC721/ERC721.sol\":2799:2820  string memory baseURI */\n      0x00\n        /* \"@openzeppelin/contracts/token/ERC721/ERC721.sol\":2823:2833  _baseURI() */\n      tag_277\n        /* \"@openzeppelin/contracts/token/ERC721/ERC721.sol\":2823:2831  _baseURI */\n      tag_189\n        /* \"@openzeppelin/contracts/token/ERC721/ERC721.sol\":2823:2833  _baseURI() */\n      jump\t// in\n    tag_277:\n        /* \"@openzeppelin/contracts/token/ERC721/ERC721.sol\":2799:2833  string memory baseURI = _baseURI() */\n      swap1\n      pop\n        /* \"@openzeppelin/contracts/token/ERC721/ERC721.sol\":2874:2875  0 */\n      0x00\n        /* \"@openzeppelin/contracts/token/ERC721/ERC721.sol\":2856:2863  baseURI */\n      dup2\n        /* \"@openzeppelin/contracts/token/ERC721/ERC721.sol\":2850:2871  bytes(baseURI).length */\n      mload\n        /* \"@openzeppelin/contracts/token/ERC721/ERC721.sol\":2850:2875  bytes(baseURI).length > 0 */\n      gt\n        /* \"@openzeppelin/contracts/token/ERC721/ERC721.sol\":2850:2925  bytes(baseURI).length > 0 ? string.concat(baseURI, tokenId.toString()) : \"\" */\n      tag_278\n      jumpi\n      mload(0x40)\n      dup1\n      0x20\n      add\n      0x40\n      mstore\n      dup1\n      0x00\n      dup2\n      mstore\n      pop\n      jump(tag_279)\n    tag_278:\n        /* \"@openzeppelin/contracts/token/ERC721/ERC721.sol\":2892:2899  baseURI */\n      dup1\n        /* \"@openzeppelin/contracts/token/ERC721/ERC721.sol\":2901:2919  tokenId.toString() */\n      tag_280\n        /* \"@openzeppelin/contracts/token/ERC721/ERC721.sol\":2901:2908  tokenId */\n      dup5\n        /* \"@openzeppelin/contracts/token/ERC721/ERC721.sol\":2901:2917  tokenId.toString */\n      tag_139\n        /* \"@openzeppelin/contracts/token/ERC721/ERC721.sol\":2901:2919  tokenId.toString() */\n      jump\t// in\n    tag_280:\n        /* \"@openzeppelin/contracts/token/ERC721/ERC721.sol\":2878:2920  string.concat(baseURI, tokenId.toString()) */\n      add(0x20, mload(0x40))\n      tag_281\n      swap3\n      swap2\n      swap1\n      tag_141\n      jump\t// in\n    tag_281:\n      mload(0x40)\n      0x20\n      dup2\n      dup4\n      sub\n      sub\n      dup2\n      mstore\n      swap1\n      0x40\n      mstore\n        /* \"@openzeppelin/contracts/token/ERC721/ERC721.sol\":2850:2925  bytes(baseURI).length > 0 ? string.concat(baseURI, tokenId.toString()) : \"\" */\n    tag_279:\n        /* \"@openzeppelin/contracts/token/ERC721/ERC721.sol\":2843:2925  return bytes(baseURI).length > 0 ? string.concat(baseURI, tokenId.toString()) : \"\" */\n      swap2\n      pop\n      pop\n        /* \"@openzeppelin/contracts/token/ERC721/ERC721.sol\":2677:2932  function tokenURI(uint256 tokenId) public view virtual returns (string memory) {... */\n      swap2\n      swap1\n      pop\n      jump\t// out\n        /* \"@openzeppelin/contracts/utils/introspection/ERC165.sol\":762:908  function supportsInterface(bytes4 interfaceId) public view virtual returns (bool) {... */\n    tag_200:\n        /* \"@openzeppelin/contracts/utils/introspection/ERC165.sol\":838:842  bool */\n      0x00\n        /* \"@openzeppelin/contracts/utils/introspection/ERC165.sol\":876:901  type(IERC165).interfaceId */\n      0x01ffc9a700000000000000000000000000000000000000000000000000000000\n        /* \"@openzeppelin/contracts/utils/introspection/ERC165.sol\":861:901  interfaceId == type(IERC165).interfaceId */\n      not(0xffffffffffffffffffffffffffffffffffffffffffffffffffffffff)\n      and\n        /* \"@openzeppelin/contracts/utils/introspection/ERC165.sol\":861:872  interfaceId */\n      dup3\n        /* \"@openzeppelin/contracts/utils/introspection/ERC165.sol\":861:901  interfaceId == type(IERC165).interfaceId */\n      not(0xffffffffffffffffffffffffffffffffffffffffffffffffffffffff)\n      and\n      eq\n        /* \"@openzeppelin/contracts/utils/introspection/ERC165.sol\":854:901  return interfaceId == type(IERC165).interfaceId */\n      swap1\n      pop\n        /* \"@openzeppelin/contracts/utils/introspection/ERC165.sol\":762:908  function supportsInterface(bytes4 interfaceId) public view virtual returns (bool) {... */\n      swap2\n      swap1\n      pop\n      jump\t// out\n        /* \"@openzeppelin/contracts/token/ERC721/ERC721.sol\":5707:5822  function _ownerOf(uint256 tokenId) internal view virtual returns (address) {... */\n    tag_203:\n        /* \"@openzeppelin/contracts/token/ERC721/ERC721.sol\":5773:5780  address */\n      0x00\n        /* \"@openzeppelin/contracts/token/ERC721/ERC721.sol\":5799:5806  _owners */\n      0x02\n        /* \"@openzeppelin/contracts/token/ERC721/ERC721.sol\":5799:5815  _owners[tokenId] */\n      0x00\n        /* \"@openzeppelin/contracts/token/ERC721/ERC721.sol\":5807:5814  tokenId */\n      dup4\n        /* \"@openzeppelin/contracts/token/ERC721/ERC721.sol\":5799:5815  _owners[tokenId] */\n      dup2\n      mstore\n      0x20\n      add\n      swap1\n      dup2\n      mstore\n      0x20\n      add\n      0x00\n      keccak256\n      0x00\n      swap1\n      sload\n      swap1\n      0x0100\n      exp\n      swap1\n      div\n      0xffffffffffffffffffffffffffffffffffffffff\n      and\n        /* \"@openzeppelin/contracts/token/ERC721/ERC721.sol\":5792:5815  return _owners[tokenId] */\n      swap1\n      pop\n        /* \"@openzeppelin/contracts/token/ERC721/ERC721.sol\":5707:5822  function _ownerOf(uint256 tokenId) internal view virtual returns (address) {... */\n      swap2\n      swap1\n      pop\n      jump\t// out\n        /* \"@openzeppelin/contracts/token/ERC721/ERC721.sol\":14720:15382  function _approve(address to, uint256 tokenId, address auth, bool emitEvent) internal virtual {... */\n    tag_210:\n        /* \"@openzeppelin/contracts/token/ERC721/ERC721.sol\":14880:14889  emitEvent */\n      dup1\n        /* \"@openzeppelin/contracts/token/ERC721/ERC721.sol\":14880:14911  emitEvent || auth != address(0) */\n      dup1\n      tag_285\n      jumpi\n      pop\n        /* \"@openzeppelin/contracts/token/ERC721/ERC721.sol\":14909:14910  0 */\n      0x00\n        /* \"@openzeppelin/contracts/token/ERC721/ERC721.sol\":14893:14911  auth != address(0) */\n      0xffffffffffffffffffffffffffffffffffffffff\n      and\n        /* \"@openzeppelin/contracts/token/ERC721/ERC721.sol\":14893:14897  auth */\n      dup3\n        /* \"@openzeppelin/contracts/token/ERC721/ERC721.sol\":14893:14911  auth != address(0) */\n      0xffffffffffffffffffffffffffffffffffffffff\n      and\n      eq\n      iszero\n        /* \"@openzeppelin/contracts/token/ERC721/ERC721.sol\":14880:14911  emitEvent || auth != address(0) */\n    tag_285:\n        /* \"@openzeppelin/contracts/token/ERC721/ERC721.sol\":14876:15336  if (emitEvent || auth != address(0)) {... */\n      iszero\n      tag_286\n      jumpi\n        /* \"@openzeppelin/contracts/token/ERC721/ERC721.sol\":14927:14940  address owner */\n      0x00\n        /* \"@openzeppelin/contracts/token/ERC721/ERC721.sol\":14943:14965  _requireOwned(tokenId) */\n      tag_287\n        /* \"@openzeppelin/contracts/token/ERC721/ERC721.sol\":14957:14964  tokenId */\n      dup5\n        /* \"@openzeppelin/contracts/token/ERC721/ERC721.sol\":14943:14956  _requireOwned */\n      tag_106\n        /* \"@openzeppelin/contracts/token/ERC721/ERC721.sol\":14943:14965  _requireOwned(tokenId) */\n      jump\t// in\n    tag_287:\n        /* \"@openzeppelin/contracts/token/ERC721/ERC721.sol\":14927:14965  address owner = _requireOwned(tokenId) */\n      swap1\n      pop\n        /* \"@openzeppelin/contracts/token/ERC721/ERC721.sol\":15109:15110  0 */\n      0x00\n        /* \"@openzeppelin/contracts/token/ERC721/ERC721.sol\":15093:15111  auth != address(0) */\n      0xffffffffffffffffffffffffffffffffffffffff\n      and\n        /* \"@openzeppelin/contracts/token/ERC721/ERC721.sol\":15093:15097  auth */\n      dup4\n        /* \"@openzeppelin/contracts/token/ERC721/ERC721.sol\":15093:15111  auth != address(0) */\n      0xffffffffffffffffffffffffffffffffffffffff\n      and\n      eq\n      iszero\n        /* \"@openzeppelin/contracts/token/ERC721/ERC721.sol\":15093:15128  auth != address(0) && owner != auth */\n      dup1\n      iszero\n      tag_288\n      jumpi\n      pop\n        /* \"@openzeppelin/contracts/token/ERC721/ERC721.sol\":15124:15128  auth */\n      dup3\n        /* \"@openzeppelin/contracts/token/ERC721/ERC721.sol\":15115:15128  owner != auth */\n      0xffffffffffffffffffffffffffffffffffffffff\n      and\n        /* \"@openzeppelin/contracts/token/ERC721/ERC721.sol\":15115:15120  owner */\n      dup2\n        /* \"@openzeppelin/contracts/token/ERC721/ERC721.sol\":15115:15128  owner != auth */\n      0xffffffffffffffffffffffffffffffffffffffff\n      and\n      eq\n      iszero\n        /* \"@openzeppelin/contracts/token/ERC721/ERC721.sol\":15093:15128  auth != address(0) && owner != auth */\n    tag_288:\n        /* \"@openzeppelin/contracts/token/ERC721/ERC721.sol\":15093:15162  auth != address(0) && owner != auth && !isApprovedForAll(owner, auth) */\n      dup1\n      iszero\n      tag_289\n      jumpi\n      pop\n        /* \"@openzeppelin/contracts/token/ERC721/ERC721.sol\":15133:15162  isApprovedForAll(owner, auth) */\n      tag_290\n        /* \"@openzeppelin/contracts/token/ERC721/ERC721.sol\":15150:15155  owner */\n      dup2\n        /* \"@openzeppelin/contracts/token/ERC721/ERC721.sol\":15157:15161  auth */\n      dup5\n        /* \"@openzeppelin/contracts/token/ERC721/ERC721.sol\":15133:15149  isApprovedForAll */\n      tag_91\n        /* \"@openzeppelin/contracts/token/ERC721/ERC721.sol\":15133:15162  isApprovedForAll(owner, auth) */\n      jump\t// in\n    tag_290:\n        /* \"@openzeppelin/contracts/token/ERC721/ERC721.sol\":15132:15162  !isApprovedForAll(owner, auth) */\n      iszero\n        /* \"@openzeppelin/contracts/token/ERC721/ERC721.sol\":15093:15162  auth != address(0) && owner != auth && !isApprovedForAll(owner, auth) */\n    tag_289:\n        /* \"@openzeppelin/contracts/token/ERC721/ERC721.sol\":15089:15231  if (auth != address(0) && owner != auth && !isApprovedForAll(owner, auth)) {... */\n      iszero\n      tag_291\n      jumpi\n        /* \"@openzeppelin/contracts/token/ERC721/ERC721.sol\":15211:15215  auth */\n      dup3\n        /* \"@openzeppelin/contracts/token/ERC721/ERC721.sol\":15189:15216  ERC721InvalidApprover(auth) */\n      mload(0x40)\n      0xa9fbf51f00000000000000000000000000000000000000000000000000000000\n      dup2\n      mstore\n      0x04\n      add\n      tag_292\n      swap2\n      swap1\n      tag_38\n      jump\t// in\n    tag_292:\n      mload(0x40)\n      dup1\n      swap2\n      sub\n      swap1\n      revert\n        /* \"@openzeppelin/contracts/token/ERC721/ERC721.sol\":15089:15231  if (auth != address(0) && owner != auth && !isApprovedForAll(owner, auth)) {... */\n    tag_291:\n        /* \"@openzeppelin/contracts/token/ERC721/ERC721.sol\":15249:15258  emitEvent */\n      dup2\n        /* \"@openzeppelin/contracts/token/ERC721/ERC721.sol\":15245:15326  if (emitEvent) {... */\n      iszero\n      tag_293\n      jumpi\n        /* \"@openzeppelin/contracts/token/ERC721/ERC721.sol\":15303:15310  tokenId */\n      dup4\n        /* \"@openzeppelin/contracts/token/ERC721/ERC721.sol\":15299:15301  to */\n      dup6\n        /* \"@openzeppelin/contracts/token/ERC721/ERC721.sol\":15283:15311  Approval(owner, to, tokenId) */\n      0xffffffffffffffffffffffffffffffffffffffff\n      and\n        /* \"@openzeppelin/contracts/token/ERC721/ERC721.sol\":15292:15297  owner */\n      dup3\n        /* \"@openzeppelin/contracts/token/ERC721/ERC721.sol\":15283:15311  Approval(owner, to, tokenId) */\n      0xffffffffffffffffffffffffffffffffffffffff\n      and\n      0x8c5be1e5ebec7d5bd14f71427d1e84f3dd0314c0f7b2291e5b200ac8c7c3b925\n      mload(0x40)\n      mload(0x40)\n      dup1\n      swap2\n      sub\n      swap1\n      log4\n        /* \"@openzeppelin/contracts/token/ERC721/ERC721.sol\":15245:15326  if (emitEvent) {... */\n    tag_293:\n        /* \"@openzeppelin/contracts/token/ERC721/ERC721.sol\":14913:15336  {... */\n      pop\n        /* \"@openzeppelin/contracts/token/ERC721/ERC721.sol\":14876:15336  if (emitEvent || auth != address(0)) {... */\n    tag_286:\n        /* \"@openzeppelin/contracts/token/ERC721/ERC721.sol\":15373:15375  to */\n      dup4\n        /* \"@openzeppelin/contracts/token/ERC721/ERC721.sol\":15346:15361  _tokenApprovals */\n      0x04\n        /* \"@openzeppelin/contracts/token/ERC721/ERC721.sol\":15346:15370  _tokenApprovals[tokenId] */\n      0x00\n        /* \"@openzeppelin/contracts/token/ERC721/ERC721.sol\":15362:15369  tokenId */\n      dup6\n        /* \"@openzeppelin/contracts/token/ERC721/ERC721.sol\":15346:15370  _tokenApprovals[tokenId] */\n      dup2\n      mstore\n      0x20\n      add\n      swap1\n      dup2\n      mstore\n      0x20\n      add\n      0x00\n      keccak256\n      0x00\n        /* \"@openzeppelin/contracts/token/ERC721/ERC721.sol\":15346:15375  _tokenApprovals[tokenId] = to */\n      0x0100\n      exp\n      dup2\n      sload\n      dup2\n      0xffffffffffffffffffffffffffffffffffffffff\n      mul\n      not\n      and\n      swap1\n      dup4\n      0xffffffffffffffffffffffffffffffffffffffff\n      and\n      mul\n      or\n      swap1\n      sstore\n      pop\n        /* \"@openzeppelin/contracts/token/ERC721/ERC721.sol\":14720:15382  function _approve(address to, uint256 tokenId, address auth, bool emitEvent) internal virtual {... */\n      pop\n      pop\n      pop\n      pop\n      jump\t// out\n        /* \"@openzeppelin/contracts/token/ERC721/ERC721.sol\":7082:7450  function _checkAuthorized(address owner, address spender, uint256 tokenId) internal view virtual {... */\n    tag_215:\n        /* \"@openzeppelin/contracts/token/ERC721/ERC721.sol\":7194:7232  _isAuthorized(owner, spender, tokenId) */\n      tag_295\n        /* \"@openzeppelin/contracts/token/ERC721/ERC721.sol\":7208:7213  owner */\n      dup4\n        /* \"@openzeppelin/contracts/token/ERC721/ERC721.sol\":7215:7222  spender */\n      dup4\n        /* \"@openzeppelin/contracts/token/ERC721/ERC721.sol\":7224:7231  tokenId */\n      dup4\n        /* \"@openzeppelin/contracts/token/ERC721/ERC721.sol\":7194:7207  _isAuthorized */\n      tag_296\n        /* \"@openzeppelin/contracts/token/ERC721/ERC721.sol\":7194:7232  _isAuthorized(owner, spender, tokenId) */\n      jump\t// in\n    tag_295:\n        /* \"@openzeppelin/contracts/token/ERC721/ERC721.sol\":7189:7444  if (!_isAuthorized(owner, spender, tokenId)) {... */\n      tag_297\n      jumpi\n        /* \"@openzeppelin/contracts/token/ERC721/ERC721.sol\":7269:7270  0 */\n      0x00\n        /* \"@openzeppelin/contracts/token/ERC721/ERC721.sol\":7252:7271  owner == address(0) */\n      0xffffffffffffffffffffffffffffffffffffffff\n      and\n        /* \"@openzeppelin/contracts/token/ERC721/ERC721.sol\":7252:7257  owner */\n      dup4\n        /* \"@openzeppelin/contracts/token/ERC721/ERC721.sol\":7252:7271  owner == address(0) */\n      0xffffffffffffffffffffffffffffffffffffffff\n      and\n      sub\n        /* \"@openzeppelin/contracts/token/ERC721/ERC721.sol\":7248:7434  if (owner == address(0)) {... */\n      tag_298\n      jumpi\n        /* \"@openzeppelin/contracts/token/ERC721/ERC721.sol\":7321:7328  tokenId */\n      dup1\n        /* \"@openzeppelin/contracts/token/ERC721/ERC721.sol\":7298:7329  ERC721NonexistentToken(tokenId) */\n      mload(0x40)\n      0x7e27328900000000000000000000000000000000000000000000000000000000\n      dup2\n      mstore\n      0x04\n      add\n      tag_299\n      swap2\n      swap1\n      tag_60\n      jump\t// in\n    tag_299:\n      mload(0x40)\n      dup1\n      swap2\n      sub\n      swap1\n      revert\n        /* \"@openzeppelin/contracts/token/ERC721/ERC721.sol\":7248:7434  if (owner == address(0)) {... */\n    tag_298:\n        /* \"@openzeppelin/contracts/token/ERC721/ERC721.sol\":7402:7409  spender */\n      dup2\n        /* \"@openzeppelin/contracts/token/ERC721/ERC721.sol\":7411:7418  tokenId */\n      dup2\n        /* \"@openzeppelin/contracts/token/ERC721/ERC721.sol\":7375:7419  ERC721InsufficientApproval(spender, tokenId) */\n      mload(0x40)\n      0x177e802f00000000000000000000000000000000000000000000000000000000\n      dup2\n      mstore\n      0x04\n      add\n      tag_301\n      swap3\n      swap2\n      swap1\n      tag_302\n      jump\t// in\n    tag_301:\n      mload(0x40)\n      dup1\n      swap2\n      sub\n      swap1\n      revert\n        /* \"@openzeppelin/contracts/token/ERC721/ERC721.sol\":7189:7444  if (!_isAuthorized(owner, spender, tokenId)) {... */\n    tag_297:\n        /* \"@openzeppelin/contracts/token/ERC721/ERC721.sol\":7082:7450  function _checkAuthorized(address owner, address spender, uint256 tokenId) internal view virtual {... */\n      pop\n      pop\n      pop\n      jump\t// out\n        /* \"@openzeppelin/contracts/utils/math/Math.sol\":12214:13130  function log10(uint256 value) internal pure returns (uint256) {... */\n    tag_228:\n        /* \"@openzeppelin/contracts/utils/math/Math.sol\":12267:12274  uint256 */\n      0x00\n        /* \"@openzeppelin/contracts/utils/math/Math.sol\":12286:12300  uint256 result */\n      dup1\n        /* \"@openzeppelin/contracts/utils/math/Math.sol\":12303:12304  0 */\n      0x00\n        /* \"@openzeppelin/contracts/utils/math/Math.sol\":12286:12304  uint256 result = 0 */\n      swap1\n      pop\n        /* \"@openzeppelin/contracts/utils/math/Math.sol\":12351:12359  10 ** 64 */\n      0x184f03e93ff9f4daa797ed6e38ed64bf6a1f010000000000000000\n        /* \"@openzeppelin/contracts/utils/math/Math.sol\":12342:12347  value */\n      dup4\n        /* \"@openzeppelin/contracts/utils/math/Math.sol\":12342:12359  value >= 10 ** 64 */\n      lt\n        /* \"@openzeppelin/contracts/utils/math/Math.sol\":12338:12441  if (value >= 10 ** 64) {... */\n      tag_304\n      jumpi\n        /* \"@openzeppelin/contracts/utils/math/Math.sol\":12388:12396  10 ** 64 */\n      0x184f03e93ff9f4daa797ed6e38ed64bf6a1f010000000000000000\n        /* \"@openzeppelin/contracts/utils/math/Math.sol\":12379:12396  value /= 10 ** 64 */\n      dup4\n      dup2\n      tag_305\n      jumpi\n      tag_306\n      tag_237\n      jump\t// in\n    tag_306:\n    tag_305:\n      div\n      swap3\n      pop\n        /* \"@openzeppelin/contracts/utils/math/Math.sol\":12424:12426  64 */\n      0x40\n        /* \"@openzeppelin/contracts/utils/math/Math.sol\":12414:12426  result += 64 */\n      dup2\n      add\n      swap1\n      pop\n        /* \"@openzeppelin/contracts/utils/math/Math.sol\":12338:12441  if (value >= 10 ** 64) {... */\n    tag_304:\n        /* \"@openzeppelin/contracts/utils/math/Math.sol\":12467:12475  10 ** 32 */\n      0x04ee2d6d415b85acef8100000000\n        /* \"@openzeppelin/contracts/utils/math/Math.sol\":12458:12463  value */\n      dup4\n        /* \"@openzeppelin/contracts/utils/math/Math.sol\":12458:12475  value >= 10 ** 32 */\n      lt\n        /* \"@openzeppelin/contracts/utils/math/Math.sol\":12454:12557  if (value >= 10 ** 32) {... */\n      tag_307\n      jumpi\n        /* \"@openzeppelin/contracts/utils/math/Math.sol\":12504:12512  10 ** 32 */\n      0x04ee2d6d415b85acef8100000000\n        /* \"@openzeppelin/contracts/utils/math/Math.sol\":12495:12512  value /= 10 ** 32 */\n      dup4\n      dup2\n      tag_308\n      jumpi\n      tag_309\n      tag_237\n      jump\t// in\n    tag_309:\n    tag_308:\n      div\n      swap3\n      pop\n        /* \"@openzeppelin/contracts/utils/math/Math.sol\":12540:12542  32 */\n      0x20\n        /* \"@openzeppelin/contracts/utils/math/Math.sol\":12530:12542  result += 32 */\n      dup2\n      add\n      swap1\n      pop\n        /* \"@openzeppelin/contracts/utils/math/Math.sol\":12454:12557  if (value >= 10 ** 32) {... */\n    tag_307:\n        /* \"@openzeppelin/contracts/utils/math/Math.sol\":12583:12591  10 ** 16 */\n      0x2386f26fc10000\n        /* \"@openzeppelin/contracts/utils/math/Math.sol\":12574:12579  value */\n      dup4\n        /* \"@openzeppelin/contracts/utils/math/Math.sol\":12574:12591  value >= 10 ** 16 */\n      lt\n        /* \"@openzeppelin/contracts/utils/math/Math.sol\":12570:12673  if (value >= 10 ** 16) {... */\n      tag_310\n      jumpi\n        /* \"@openzeppelin/contracts/utils/math/Math.sol\":12620:12628  10 ** 16 */\n      0x2386f26fc10000\n        /* \"@openzeppelin/contracts/utils/math/Math.sol\":12611:12628  value /= 10 ** 16 */\n      dup4\n      dup2\n      tag_311\n      jumpi\n      tag_312\n      tag_237\n      jump\t// in\n    tag_312:\n    tag_311:\n      div\n      swap3\n      pop\n        /* \"@openzeppelin/contracts/utils/math/Math.sol\":12656:12658  16 */\n      0x10\n        /* \"@openzeppelin/contracts/utils/math/Math.sol\":12646:12658  result += 16 */\n      dup2\n      add\n      swap1\n      pop\n        /* \"@openzeppelin/contracts/utils/math/Math.sol\":12570:12673  if (value >= 10 ** 16) {... */\n    tag_310:\n        /* \"@openzeppelin/contracts/utils/math/Math.sol\":12699:12706  10 ** 8 */\n      0x05f5e100\n        /* \"@openzeppelin/contracts/utils/math/Math.sol\":12690:12695  value */\n      dup4\n        /* \"@openzeppelin/contracts/utils/math/Math.sol\":12690:12706  value >= 10 ** 8 */\n      lt\n        /* \"@openzeppelin/contracts/utils/math/Math.sol\":12686:12786  if (value >= 10 ** 8) {... */\n      tag_313\n      jumpi\n        /* \"@openzeppelin/contracts/utils/math/Math.sol\":12735:12742  10 ** 8 */\n      0x05f5e100\n        /* \"@openzeppelin/contracts/utils/math/Math.sol\":12726:12742  value /= 10 ** 8 */\n      dup4\n      dup2\n      tag_314\n      jumpi\n      tag_315\n      tag_237\n      jump\t// in\n    tag_315:\n    tag_314:\n      div\n      swap3\n      pop\n        /* \"@openzeppelin/contracts/utils/math/Math.sol\":12770:12771  8 */\n      0x08\n        /* \"@openzeppelin/contracts/utils/math/Math.sol\":12760:12771  result += 8 */\n      dup2\n      add\n      swap1\n      pop\n        /* \"@openzeppelin/contracts/utils/math/Math.sol\":12686:12786  if (value >= 10 ** 8) {... */\n    tag_313:\n        /* \"@openzeppelin/contracts/utils/math/Math.sol\":12812:12819  10 ** 4 */\n      0x2710\n        /* \"@openzeppelin/contracts/utils/math/Math.sol\":12803:12808  value */\n      dup4\n        /* \"@openzeppelin/contracts/utils/math/Math.sol\":12803:12819  value >= 10 ** 4 */\n      lt\n        /* \"@openzeppelin/contracts/utils/math/Math.sol\":12799:12899  if (value >= 10 ** 4) {... */\n      tag_316\n      jumpi\n        /* \"@openzeppelin/contracts/utils/math/Math.sol\":12848:12855  10 ** 4 */\n      0x2710\n        /* \"@openzeppelin/contracts/utils/math/Math.sol\":12839:12855  value /= 10 ** 4 */\n      dup4\n      dup2\n      tag_317\n      jumpi\n      tag_318\n      tag_237\n      jump\t// in\n    tag_318:\n    tag_317:\n      div\n      swap3\n      pop\n        /* \"@openzeppelin/contracts/utils/math/Math.sol\":12883:12884  4 */\n      0x04\n        /* \"@openzeppelin/contracts/utils/math/Math.sol\":12873:12884  result += 4 */\n      dup2\n      add\n      swap1\n      pop\n        /* \"@openzeppelin/contracts/utils/math/Math.sol\":12799:12899  if (value >= 10 ** 4) {... */\n    tag_316:\n        /* \"@openzeppelin/contracts/utils/math/Math.sol\":12925:12932  10 ** 2 */\n      0x64\n        /* \"@openzeppelin/contracts/utils/math/Math.sol\":12916:12921  value */\n      dup4\n        /* \"@openzeppelin/contracts/utils/math/Math.sol\":12916:12932  value >= 10 ** 2 */\n      lt\n        /* \"@openzeppelin/contracts/utils/math/Math.sol\":12912:13012  if (value >= 10 ** 2) {... */\n      tag_319\n      jumpi\n        /* \"@openzeppelin/contracts/utils/math/Math.sol\":12961:12968  10 ** 2 */\n      0x64\n        /* \"@openzeppelin/contracts/utils/math/Math.sol\":12952:12968  value /= 10 ** 2 */\n      dup4\n      dup2\n      tag_320\n      jumpi\n      tag_321\n      tag_237\n      jump\t// in\n    tag_321:\n    tag_320:\n      div\n      swap3\n      pop\n        /* \"@openzeppelin/contracts/utils/math/Math.sol\":12996:12997  2 */\n      0x02\n        /* \"@openzeppelin/contracts/utils/math/Math.sol\":12986:12997  result += 2 */\n      dup2\n      add\n      swap1\n      pop\n        /* \"@openzeppelin/contracts/utils/math/Math.sol\":12912:13012  if (value >= 10 ** 2) {... */\n    tag_319:\n        /* \"@openzeppelin/contracts/utils/math/Math.sol\":13038:13045  10 ** 1 */\n      0x0a\n        /* \"@openzeppelin/contracts/utils/math/Math.sol\":13029:13034  value */\n      dup4\n        /* \"@openzeppelin/contracts/utils/math/Math.sol\":13029:13045  value >= 10 ** 1 */\n      lt\n        /* \"@openzeppelin/contracts/utils/math/Math.sol\":13025:13091  if (value >= 10 ** 1) {... */\n      tag_322\n      jumpi\n        /* \"@openzeppelin/contracts/utils/math/Math.sol\":13075:13076  1 */\n      0x01\n        /* \"@openzeppelin/contracts/utils/math/Math.sol\":13065:13076  result += 1 */\n      dup2\n      add\n      swap1\n      pop\n        /* \"@openzeppelin/contracts/utils/math/Math.sol\":13025:13091  if (value >= 10 ** 1) {... */\n    tag_322:\n        /* \"@openzeppelin/contracts/utils/math/Math.sol\":13117:13123  result */\n      dup1\n        /* \"@openzeppelin/contracts/utils/math/Math.sol\":13110:13123  return result */\n      swap2\n      pop\n      pop\n        /* \"@openzeppelin/contracts/utils/math/Math.sol\":12214:13130  function log10(uint256 value) internal pure returns (uint256) {... */\n      swap2\n      swap1\n      pop\n      jump\t// out\n        /* \"@openzeppelin/contracts/token/ERC721/ERC721.sol\":10954:11136  function _safeMint(address to, uint256 tokenId, bytes memory data) internal virtual {... */\n    tag_245:\n        /* \"@openzeppelin/contracts/token/ERC721/ERC721.sol\":11048:11066  _mint(to, tokenId) */\n      tag_324\n        /* \"@openzeppelin/contracts/token/ERC721/ERC721.sol\":11054:11056  to */\n      dup4\n        /* \"@openzeppelin/contracts/token/ERC721/ERC721.sol\":11058:11065  tokenId */\n      dup4\n        /* \"@openzeppelin/contracts/token/ERC721/ERC721.sol\":11048:11053  _mint */\n      tag_325\n        /* \"@openzeppelin/contracts/token/ERC721/ERC721.sol\":11048:11066  _mint(to, tokenId) */\n      jump\t// in\n    tag_324:\n        /* \"@openzeppelin/contracts/token/ERC721/ERC721.sol\":11076:11129  _checkOnERC721Received(address(0), to, tokenId, data) */\n      tag_326\n        /* \"@openzeppelin/contracts/token/ERC721/ERC721.sol\":11107:11108  0 */\n      0x00\n        /* \"@openzeppelin/contracts/token/ERC721/ERC721.sol\":11111:11113  to */\n      dup5\n        /* \"@openzeppelin/contracts/token/ERC721/ERC721.sol\":11115:11122  tokenId */\n      dup5\n        /* \"@openzeppelin/contracts/token/ERC721/ERC721.sol\":11124:11128  data */\n      dup5\n        /* \"@openzeppelin/contracts/token/ERC721/ERC721.sol\":11076:11098  _checkOnERC721Received */\n      tag_180\n        /* \"@openzeppelin/contracts/token/ERC721/ERC721.sol\":11076:11129  _checkOnERC721Received(address(0), to, tokenId, data) */\n      jump\t// in\n    tag_326:\n        /* \"@openzeppelin/contracts/token/ERC721/ERC721.sol\":10954:11136  function _safeMint(address to, uint256 tokenId, bytes memory data) internal virtual {... */\n      pop\n      pop\n      pop\n      jump\t// out\n        /* \"@openzeppelin/contracts/token/ERC721/ERC721.sol\":6376:6648  function _isAuthorized(address owner, address spender, uint256 tokenId) internal view virtual returns (bool) {... */\n    tag_296:\n        /* \"@openzeppelin/contracts/token/ERC721/ERC721.sol\":6479:6483  bool */\n      0x00\n        /* \"@openzeppelin/contracts/token/ERC721/ERC721.sol\":6533:6534  0 */\n      dup1\n        /* \"@openzeppelin/contracts/token/ERC721/ERC721.sol\":6514:6535  spender != address(0) */\n      0xffffffffffffffffffffffffffffffffffffffff\n      and\n        /* \"@openzeppelin/contracts/token/ERC721/ERC721.sol\":6514:6521  spender */\n      dup4\n        /* \"@openzeppelin/contracts/token/ERC721/ERC721.sol\":6514:6535  spender != address(0) */\n      0xffffffffffffffffffffffffffffffffffffffff\n      and\n      eq\n      iszero\n        /* \"@openzeppelin/contracts/token/ERC721/ERC721.sol\":6514:6641  spender != address(0) &&... */\n      dup1\n      iszero\n      tag_328\n      jumpi\n      pop\n        /* \"@openzeppelin/contracts/token/ERC721/ERC721.sol\":6561:6568  spender */\n      dup3\n        /* \"@openzeppelin/contracts/token/ERC721/ERC721.sol\":6552:6568  owner == spender */\n      0xffffffffffffffffffffffffffffffffffffffff\n      and\n        /* \"@openzeppelin/contracts/token/ERC721/ERC721.sol\":6552:6557  owner */\n      dup5\n        /* \"@openzeppelin/contracts/token/ERC721/ERC721.sol\":6552:6568  owner == spender */\n      0xffffffffffffffffffffffffffffffffffffffff\n      and\n      eq\n        /* \"@openzeppelin/contracts/token/ERC721/ERC721.sol\":6552:6604  owner == spender || isApprovedForAll(owner, spender) */\n      dup1\n      tag_329\n      jumpi\n      pop\n        /* \"@openzeppelin/contracts/token/ERC721/ERC721.sol\":6572:6604  isApprovedForAll(owner, spender) */\n      tag_330\n        /* \"@openzeppelin/contracts/token/ERC721/ERC721.sol\":6589:6594  owner */\n      dup5\n        /* \"@openzeppelin/contracts/token/ERC721/ERC721.sol\":6596:6603  spender */\n      dup5\n        /* \"@openzeppelin/contracts/token/ERC721/ERC721.sol\":6572:6588  isApprovedForAll */\n      tag_91\n        /* \"@openzeppelin/contracts/token/ERC721/ERC721.sol\":6572:6604  isApprovedForAll(owner, spender) */\n      jump\t// in\n    tag_330:\n        /* \"@openzeppelin/contracts/token/ERC721/ERC721.sol\":6552:6604  owner == spender || isApprovedForAll(owner, spender) */\n    tag_329:\n        /* \"@openzeppelin/contracts/token/ERC721/ERC721.sol\":6552:6640  owner == spender || isApprovedForAll(owner, spender) || _getApproved(tokenId) == spender */\n      dup1\n      tag_331\n      jumpi\n      pop\n        /* \"@openzeppelin/contracts/token/ERC721/ERC721.sol\":6633:6640  spender */\n      dup3\n        /* \"@openzeppelin/contracts/token/ERC721/ERC721.sol\":6608:6640  _getApproved(tokenId) == spender */\n      0xffffffffffffffffffffffffffffffffffffffff\n      and\n        /* \"@openzeppelin/contracts/token/ERC721/ERC721.sol\":6608:6629  _getApproved(tokenId) */\n      tag_332\n        /* \"@openzeppelin/contracts/token/ERC721/ERC721.sol\":6621:6628  tokenId */\n      dup4\n        /* \"@openzeppelin/contracts/token/ERC721/ERC721.sol\":6608:6620  _getApproved */\n      tag_108\n        /* \"@openzeppelin/contracts/token/ERC721/ERC721.sol\":6608:6629  _getApproved(tokenId) */\n      jump\t// in\n    tag_332:\n        /* \"@openzeppelin/contracts/token/ERC721/ERC721.sol\":6608:6640  _getApproved(tokenId) == spender */\n      0xffffffffffffffffffffffffffffffffffffffff\n      and\n      eq\n        /* \"@openzeppelin/contracts/token/ERC721/ERC721.sol\":6552:6640  owner == spender || isApprovedForAll(owner, spender) || _getApproved(tokenId) == spender */\n    tag_331:\n        /* \"@openzeppelin/contracts/token/ERC721/ERC721.sol\":6514:6641  spender != address(0) &&... */\n    tag_328:\n        /* \"@openzeppelin/contracts/token/ERC721/ERC721.sol\":6495:6641  return... */\n      swap1\n      pop\n        /* \"@openzeppelin/contracts/token/ERC721/ERC721.sol\":6376:6648  function _isAuthorized(address owner, address spender, uint256 tokenId) internal view virtual returns (bool) {... */\n      swap4\n      swap3\n      pop\n      pop\n      pop\n      jump\t// out\n        /* \"@openzeppelin/contracts/token/ERC721/ERC721.sol\":9955:10282  function _mint(address to, uint256 tokenId) internal {... */\n    tag_325:\n        /* \"@openzeppelin/contracts/token/ERC721/ERC721.sol\":10036:10037  0 */\n      0x00\n        /* \"@openzeppelin/contracts/token/ERC721/ERC721.sol\":10022:10038  to == address(0) */\n      0xffffffffffffffffffffffffffffffffffffffff\n      and\n        /* \"@openzeppelin/contracts/token/ERC721/ERC721.sol\":10022:10024  to */\n      dup3\n        /* \"@openzeppelin/contracts/token/ERC721/ERC721.sol\":10022:10038  to == address(0) */\n      0xffffffffffffffffffffffffffffffffffffffff\n      and\n      sub\n        /* \"@openzeppelin/contracts/token/ERC721/ERC721.sol\":10018:10105  if (to == address(0)) {... */\n      tag_334\n      jumpi\n        /* \"@openzeppelin/contracts/token/ERC721/ERC721.sol\":10091:10092  0 */\n      0x00\n        /* \"@openzeppelin/contracts/token/ERC721/ERC721.sol\":10061:10094  ERC721InvalidReceiver(address(0)) */\n      mload(0x40)\n      0x64a0ae9200000000000000000000000000000000000000000000000000000000\n      dup2\n      mstore\n      0x04\n      add\n      tag_335\n      swap2\n      swap1\n      tag_38\n      jump\t// in\n    tag_335:\n      mload(0x40)\n      dup1\n      swap2\n      sub\n      swap1\n      revert\n        /* \"@openzeppelin/contracts/token/ERC721/ERC721.sol\":10018:10105  if (to == address(0)) {... */\n    tag_334:\n        /* \"@openzeppelin/contracts/token/ERC721/ERC721.sol\":10114:10135  address previousOwner */\n      0x00\n        /* \"@openzeppelin/contracts/token/ERC721/ERC721.sol\":10138:10170  _update(to, tokenId, address(0)) */\n      tag_336\n        /* \"@openzeppelin/contracts/token/ERC721/ERC721.sol\":10146:10148  to */\n      dup4\n        /* \"@openzeppelin/contracts/token/ERC721/ERC721.sol\":10150:10157  tokenId */\n      dup4\n        /* \"@openzeppelin/contracts/token/ERC721/ERC721.sol\":10167:10168  0 */\n      0x00\n        /* \"@openzeppelin/contracts/token/ERC721/ERC721.sol\":10138:10145  _update */\n      tag_119\n        /* \"@openzeppelin/contracts/token/ERC721/ERC721.sol\":10138:10170  _update(to, tokenId, address(0)) */\n      jump\t// in\n    tag_336:\n        /* \"@openzeppelin/contracts/token/ERC721/ERC721.sol\":10114:10170  address previousOwner = _update(to, tokenId, address(0)) */\n      swap1\n      pop\n        /* \"@openzeppelin/contracts/token/ERC721/ERC721.sol\":10209:10210  0 */\n      0x00\n        /* \"@openzeppelin/contracts/token/ERC721/ERC721.sol\":10184:10211  previousOwner != address(0) */\n      0xffffffffffffffffffffffffffffffffffffffff\n      and\n        /* \"@openzeppelin/contracts/token/ERC721/ERC721.sol\":10184:10197  previousOwner */\n      dup2\n        /* \"@openzeppelin/contracts/token/ERC721/ERC721.sol\":10184:10211  previousOwner != address(0) */\n      0xffffffffffffffffffffffffffffffffffffffff\n      and\n      eq\n        /* \"@openzeppelin/contracts/token/ERC721/ERC721.sol\":10180:10276  if (previousOwner != address(0)) {... */\n      tag_337\n      jumpi\n        /* \"@openzeppelin/contracts/token/ERC721/ERC721.sol\":10262:10263  0 */\n      0x00\n        /* \"@openzeppelin/contracts/token/ERC721/ERC721.sol\":10234:10265  ERC721InvalidSender(address(0)) */\n      mload(0x40)\n      0x73c6ac6e00000000000000000000000000000000000000000000000000000000\n      dup2\n      mstore\n      0x04\n      add\n      tag_338\n      swap2\n      swap1\n      tag_38\n      jump\t// in\n    tag_338:\n      mload(0x40)\n      dup1\n      swap2\n      sub\n      swap1\n      revert\n        /* \"@openzeppelin/contracts/token/ERC721/ERC721.sol\":10180:10276  if (previousOwner != address(0)) {... */\n    tag_337:\n        /* \"@openzeppelin/contracts/token/ERC721/ERC721.sol\":10008:10282  {... */\n      pop\n        /* \"@openzeppelin/contracts/token/ERC721/ERC721.sol\":9955:10282  function _mint(address to, uint256 tokenId) internal {... */\n      pop\n      pop\n      jump\t// out\n        /* \"#utility.yul\":7:82   */\n    tag_339:\n        /* \"#utility.yul\":40:46   */\n      0x00\n        /* \"#utility.yul\":73:75   */\n      0x40\n        /* \"#utility.yul\":67:76   */\n      mload\n        /* \"#utility.yul\":57:76   */\n      swap1\n      pop\n        /* \"#utility.yul\":7:82   */\n      swap1\n      jump\t// out\n        /* \"#utility.yul\":88:205   */\n    tag_340:\n        /* \"#utility.yul\":197:198   */\n      0x00\n        /* \"#utility.yul\":194:195   */\n      dup1\n        /* \"#utility.yul\":187:199   */\n      revert\n        /* \"#utility.yul\":211:328   */\n    tag_341:\n        /* \"#utility.yul\":320:321   */\n      0x00\n        /* \"#utility.yul\":317:318   */\n      dup1\n        /* \"#utility.yul\":310:322   */\n      revert\n        /* \"#utility.yul\":334:483   */\n    tag_342:\n        /* \"#utility.yul\":370:377   */\n      0x00\n        /* \"#utility.yul\":410:476   */\n      0xffffffff00000000000000000000000000000000000000000000000000000000\n        /* \"#utility.yul\":403:408   */\n      dup3\n        /* \"#utility.yul\":399:477   */\n      and\n        /* \"#utility.yul\":388:477   */\n      swap1\n      pop\n        /* \"#utility.yul\":334:483   */\n      swap2\n      swap1\n      pop\n      jump\t// out\n        /* \"#utility.yul\":489:609   */\n    tag_343:\n        /* \"#utility.yul\":561:584   */\n      tag_414\n        /* \"#utility.yul\":578:583   */\n      dup2\n        /* \"#utility.yul\":561:584   */\n      tag_342\n      jump\t// in\n    tag_414:\n        /* \"#utility.yul\":554:559   */\n      dup2\n        /* \"#utility.yul\":551:585   */\n      eq\n        /* \"#utility.yul\":541:603   */\n      tag_415\n      jumpi\n        /* \"#utility.yul\":599:600   */\n      0x00\n        /* \"#utility.yul\":596:597   */\n      dup1\n        /* \"#utility.yul\":589:601   */\n      revert\n        /* \"#utility.yul\":541:603   */\n    tag_415:\n        /* \"#utility.yul\":489:609   */\n      pop\n      jump\t// out\n        /* \"#utility.yul\":615:752   */\n    tag_344:\n        /* \"#utility.yul\":660:665   */\n      0x00\n        /* \"#utility.yul\":698:704   */\n      dup2\n        /* \"#utility.yul\":685:705   */\n      calldataload\n        /* \"#utility.yul\":676:705   */\n      swap1\n      pop\n        /* \"#utility.yul\":714:746   */\n      tag_417\n        /* \"#utility.yul\":740:745   */\n      dup2\n        /* \"#utility.yul\":714:746   */\n      tag_343\n      jump\t// in\n    tag_417:\n        /* \"#utility.yul\":615:752   */\n      swap3\n      swap2\n      pop\n      pop\n      jump\t// out\n        /* \"#utility.yul\":758:1085   */\n    tag_25:\n        /* \"#utility.yul\":816:822   */\n      0x00\n        /* \"#utility.yul\":865:867   */\n      0x20\n        /* \"#utility.yul\":853:862   */\n      dup3\n        /* \"#utility.yul\":844:851   */\n      dup5\n        /* \"#utility.yul\":840:863   */\n      sub\n        /* \"#utility.yul\":836:868   */\n      slt\n        /* \"#utility.yul\":833:952   */\n      iszero\n      tag_419\n      jumpi\n        /* \"#utility.yul\":871:950   */\n      tag_420\n      tag_340\n      jump\t// in\n    tag_420:\n        /* \"#utility.yul\":833:952   */\n    tag_419:\n        /* \"#utility.yul\":991:992   */\n      0x00\n        /* \"#utility.yul\":1016:1068   */\n      tag_421\n        /* \"#utility.yul\":1060:1067   */\n      dup5\n        /* \"#utility.yul\":1051:1057   */\n      dup3\n        /* \"#utility.yul\":1040:1049   */\n      dup6\n        /* \"#utility.yul\":1036:1058   */\n      add\n        /* \"#utility.yul\":1016:1068   */\n      tag_344\n      jump\t// in\n    tag_421:\n        /* \"#utility.yul\":1006:1068   */\n      swap2\n      pop\n        /* \"#utility.yul\":962:1078   */\n      pop\n        /* \"#utility.yul\":758:1085   */\n      swap3\n      swap2\n      pop\n      pop\n      jump\t// out\n        /* \"#utility.yul\":1091:1181   */\n    tag_345:\n        /* \"#utility.yul\":1125:1132   */\n      0x00\n        /* \"#utility.yul\":1168:1173   */\n      dup2\n        /* \"#utility.yul\":1161:1174   */\n      iszero\n        /* \"#utility.yul\":1154:1175   */\n      iszero\n        /* \"#utility.yul\":1143:1175   */\n      swap1\n      pop\n        /* \"#utility.yul\":1091:1181   */\n      swap2\n      swap1\n      pop\n      jump\t// out\n        /* \"#utility.yul\":1187:1296   */\n    tag_346:\n        /* \"#utility.yul\":1268:1289   */\n      tag_424\n        /* \"#utility.yul\":1283:1288   */\n      dup2\n        /* \"#utility.yul\":1268:1289   */\n      tag_345\n      jump\t// in\n    tag_424:\n        /* \"#utility.yul\":1263:1266   */\n      dup3\n        /* \"#utility.yul\":1256:1290   */\n      mstore\n        /* \"#utility.yul\":1187:1296   */\n      pop\n      pop\n      jump\t// out\n        /* \"#utility.yul\":1302:1512   */\n    tag_28:\n        /* \"#utility.yul\":1389:1393   */\n      0x00\n        /* \"#utility.yul\":1427:1429   */\n      0x20\n        /* \"#utility.yul\":1416:1425   */\n      dup3\n        /* \"#utility.yul\":1412:1430   */\n      add\n        /* \"#utility.yul\":1404:1430   */\n      swap1\n      pop\n        /* \"#utility.yul\":1440:1505   */\n      tag_426\n        /* \"#utility.yul\":1502:1503   */\n      0x00\n        /* \"#utility.yul\":1491:1500   */\n      dup4\n        /* \"#utility.yul\":1487:1504   */\n      add\n        /* \"#utility.yul\":1478:1484   */\n      dup5\n        /* \"#utility.yul\":1440:1505   */\n      tag_346\n      jump\t// in\n    tag_426:\n        /* \"#utility.yul\":1302:1512   */\n      swap3\n      swap2\n      pop\n      pop\n      jump\t// out\n        /* \"#utility.yul\":1518:1617   */\n    tag_347:\n        /* \"#utility.yul\":1570:1576   */\n      0x00\n        /* \"#utility.yul\":1604:1609   */\n      dup2\n        /* \"#utility.yul\":1598:1610   */\n      mload\n        /* \"#utility.yul\":1588:1610   */\n      swap1\n      pop\n        /* \"#utility.yul\":1518:1617   */\n      swap2\n      swap1\n      pop\n      jump\t// out\n        /* \"#utility.yul\":1623:1792   */\n    tag_348:\n        /* \"#utility.yul\":1707:1718   */\n      0x00\n        /* \"#utility.yul\":1741:1747   */\n      dup3\n        /* \"#utility.yul\":1736:1739   */\n      dup3\n        /* \"#utility.yul\":1729:1748   */\n      mstore\n        /* \"#utility.yul\":1781:1785   */\n      0x20\n        /* \"#utility.yul\":1776:1779   */\n      dup3\n        /* \"#utility.yul\":1772:1786   */\n      add\n        /* \"#utility.yul\":1757:1786   */\n      swap1\n      pop\n        /* \"#utility.yul\":1623:1792   */\n      swap3\n      swap2\n      pop\n      pop\n      jump\t// out\n        /* \"#utility.yul\":1798:2044   */\n    tag_349:\n        /* \"#utility.yul\":1879:1880   */\n      0x00\n        /* \"#utility.yul\":1889:2002   */\n    tag_430:\n        /* \"#utility.yul\":1903:1909   */\n      dup4\n        /* \"#utility.yul\":1900:1901   */\n      dup2\n        /* \"#utility.yul\":1897:1910   */\n      lt\n        /* \"#utility.yul\":1889:2002   */\n      iszero\n      tag_432\n      jumpi\n        /* \"#utility.yul\":1988:1989   */\n      dup1\n        /* \"#utility.yul\":1983:1986   */\n      dup3\n        /* \"#utility.yul\":1979:1990   */\n      add\n        /* \"#utility.yul\":1973:1991   */\n      mload\n        /* \"#utility.yul\":1969:1970   */\n      dup2\n        /* \"#utility.yul\":1964:1967   */\n      dup5\n        /* \"#utility.yul\":1960:1971   */\n      add\n        /* \"#utility.yul\":1953:1992   */\n      mstore\n        /* \"#utility.yul\":1925:1927   */\n      0x20\n        /* \"#utility.yul\":1922:1923   */\n      dup2\n        /* \"#utility.yul\":1918:1928   */\n      add\n        /* \"#utility.yul\":1913:1928   */\n      swap1\n      pop\n        /* \"#utility.yul\":1889:2002   */\n      jump(tag_430)\n    tag_432:\n        /* \"#utility.yul\":2036:2037   */\n      0x00\n        /* \"#utility.yul\":2027:2033   */\n      dup5\n        /* \"#utility.yul\":2022:2025   */\n      dup5\n        /* \"#utility.yul\":2018:2034   */\n      add\n        /* \"#utility.yul\":2011:2038   */\n      mstore\n        /* \"#utility.yul\":1860:2044   */\n      pop\n        /* \"#utility.yul\":1798:2044   */\n      pop\n      pop\n      pop\n      jump\t// out\n        /* \"#utility.yul\":2050:2152   */\n    tag_350:\n        /* \"#utility.yul\":2091:2097   */\n      0x00\n        /* \"#utility.yul\":2142:2144   */\n      0x1f\n        /* \"#utility.yul\":2138:2145   */\n      not\n        /* \"#utility.yul\":2133:2135   */\n      0x1f\n        /* \"#utility.yul\":2126:2131   */\n      dup4\n        /* \"#utility.yul\":2122:2136   */\n      add\n        /* \"#utility.yul\":2118:2146   */\n      and\n        /* \"#utility.yul\":2108:2146   */\n      swap1\n      pop\n        /* \"#utility.yul\":2050:2152   */\n      swap2\n      swap1\n      pop\n      jump\t// out\n        /* \"#utility.yul\":2158:2535   */\n    tag_351:\n        /* \"#utility.yul\":2246:2249   */\n      0x00\n        /* \"#utility.yul\":2274:2313   */\n      tag_435\n        /* \"#utility.yul\":2307:2312   */\n      dup3\n        /* \"#utility.yul\":2274:2313   */\n      tag_347\n      jump\t// in\n    tag_435:\n        /* \"#utility.yul\":2329:2400   */\n      tag_436\n        /* \"#utility.yul\":2393:2399   */\n      dup2\n        /* \"#utility.yul\":2388:2391   */\n      dup6\n        /* \"#utility.yul\":2329:2400   */\n      tag_348\n      jump\t// in\n    tag_436:\n        /* \"#utility.yul\":2322:2400   */\n      swap4\n      pop\n        /* \"#utility.yul\":2409:2474   */\n      tag_437\n        /* \"#utility.yul\":2467:2473   */\n      dup2\n        /* \"#utility.yul\":2462:2465   */\n      dup6\n        /* \"#utility.yul\":2455:2459   */\n      0x20\n        /* \"#utility.yul\":2448:2453   */\n      dup7\n        /* \"#utility.yul\":2444:2460   */\n      add\n        /* \"#utility.yul\":2409:2474   */\n      tag_349\n      jump\t// in\n    tag_437:\n        /* \"#utility.yul\":2499:2528   */\n      tag_438\n        /* \"#utility.yul\":2521:2527   */\n      dup2\n        /* \"#utility.yul\":2499:2528   */\n      tag_350\n      jump\t// in\n    tag_438:\n        /* \"#utility.yul\":2494:2497   */\n      dup5\n        /* \"#utility.yul\":2490:2529   */\n      add\n        /* \"#utility.yul\":2483:2529   */\n      swap2\n      pop\n        /* \"#utility.yul\":2250:2535   */\n      pop\n        /* \"#utility.yul\":2158:2535   */\n      swap3\n      swap2\n      pop\n      pop\n      jump\t// out\n        /* \"#utility.yul\":2541:2854   */\n    tag_32:\n        /* \"#utility.yul\":2654:2658   */\n      0x00\n        /* \"#utility.yul\":2692:2694   */\n      0x20\n        /* \"#utility.yul\":2681:2690   */\n      dup3\n        /* \"#utility.yul\":2677:2695   */\n      add\n        /* \"#utility.yul\":2669:2695   */\n      swap1\n      pop\n        /* \"#utility.yul\":2741:2750   */\n      dup2\n        /* \"#utility.yul\":2735:2739   */\n      dup2\n        /* \"#utility.yul\":2731:2751   */\n      sub\n        /* \"#utility.yul\":2727:2728   */\n      0x00\n        /* \"#utility.yul\":2716:2725   */\n      dup4\n        /* \"#utility.yul\":2712:2729   */\n      add\n        /* \"#utility.yul\":2705:2752   */\n      mstore\n        /* \"#utility.yul\":2769:2847   */\n      tag_440\n        /* \"#utility.yul\":2842:2846   */\n      dup2\n        /* \"#utility.yul\":2833:2839   */\n      dup5\n        /* \"#utility.yul\":2769:2847   */\n      tag_351\n      jump\t// in\n    tag_440:\n        /* \"#utility.yul\":2761:2847   */\n      swap1\n      pop\n        /* \"#utility.yul\":2541:2854   */\n      swap3\n      swap2\n      pop\n      pop\n      jump\t// out\n        /* \"#utility.yul\":2860:2937   */\n    tag_352:\n        /* \"#utility.yul\":2897:2904   */\n      0x00\n        /* \"#utility.yul\":2926:2931   */\n      dup2\n        /* \"#utility.yul\":2915:2931   */\n      swap1\n      pop\n        /* \"#utility.yul\":2860:2937   */\n      swap2\n      swap1\n      pop\n      jump\t// out\n        /* \"#utility.yul\":2943:3065   */\n    tag_353:\n        /* \"#utility.yul\":3016:3040   */\n      tag_443\n        /* \"#utility.yul\":3034:3039   */\n      dup2\n        /* \"#utility.yul\":3016:3040   */\n      tag_352\n      jump\t// in\n    tag_443:\n        /* \"#utility.yul\":3009:3014   */\n      dup2\n        /* \"#utility.yul\":3006:3041   */\n      eq\n        /* \"#utility.yul\":2996:3059   */\n      tag_444\n      jumpi\n        /* \"#utility.yul\":3055:3056   */\n      0x00\n        /* \"#utility.yul\":3052:3053   */\n      dup1\n        /* \"#utility.yul\":3045:3057   */\n      revert\n        /* \"#utility.yul\":2996:3059   */\n    tag_444:\n        /* \"#utility.yul\":2943:3065   */\n      pop\n      jump\t// out\n        /* \"#utility.yul\":3071:3210   */\n    tag_354:\n        /* \"#utility.yul\":3117:3122   */\n      0x00\n        /* \"#utility.yul\":3155:3161   */\n      dup2\n        /* \"#utility.yul\":3142:3162   */\n      calldataload\n        /* \"#utility.yul\":3133:3162   */\n      swap1\n      pop\n        /* \"#utility.yul\":3171:3204   */\n      tag_446\n        /* \"#utility.yul\":3198:3203   */\n      dup2\n        /* \"#utility.yul\":3171:3204   */\n      tag_353\n      jump\t// in\n    tag_446:\n        /* \"#utility.yul\":3071:3210   */\n      swap3\n      swap2\n      pop\n      pop\n      jump\t// out\n        /* \"#utility.yul\":3216:3545   */\n    tag_35:\n        /* \"#utility.yul\":3275:3281   */\n      0x00\n        /* \"#utility.yul\":3324:3326   */\n      0x20\n        /* \"#utility.yul\":3312:3321   */\n      dup3\n        /* \"#utility.yul\":3303:3310   */\n      dup5\n        /* \"#utility.yul\":3299:3322   */\n      sub\n        /* \"#utility.yul\":3295:3327   */\n      slt\n        /* \"#utility.yul\":3292:3411   */\n      iszero\n      tag_448\n      jumpi\n        /* \"#utility.yul\":3330:3409   */\n      tag_449\n      tag_340\n      jump\t// in\n    tag_449:\n        /* \"#utility.yul\":3292:3411   */\n    tag_448:\n        /* \"#utility.yul\":3450:3451   */\n      0x00\n        /* \"#utility.yul\":3475:3528   */\n      tag_450\n        /* \"#utility.yul\":3520:3527   */\n      dup5\n        /* \"#utility.yul\":3511:3517   */\n      dup3\n        /* \"#utility.yul\":3500:3509   */\n      dup6\n        /* \"#utility.yul\":3496:3518   */\n      add\n        /* \"#utility.yul\":3475:3528   */\n      tag_354\n      jump\t// in\n    tag_450:\n        /* \"#utility.yul\":3465:3528   */\n      swap2\n      pop\n        /* \"#utility.yul\":3421:3538   */\n      pop\n        /* \"#utility.yul\":3216:3545   */\n      swap3\n      swap2\n      pop\n      pop\n      jump\t// out\n        /* \"#utility.yul\":3551:3677   */\n    tag_355:\n        /* \"#utility.yul\":3588:3595   */\n      0x00\n        /* \"#utility.yul\":3628:3670   */\n      0xffffffffffffffffffffffffffffffffffffffff\n        /* \"#utility.yul\":3621:3626   */\n      dup3\n        /* \"#utility.yul\":3617:3671   */\n      and\n        /* \"#utility.yul\":3606:3671   */\n      swap1\n      pop\n        /* \"#utility.yul\":3551:3677   */\n      swap2\n      swap1\n      pop\n      jump\t// out\n        /* \"#utility.yul\":3683:3779   */\n    tag_356:\n        /* \"#utility.yul\":3720:3727   */\n      0x00\n        /* \"#utility.yul\":3749:3773   */\n      tag_453\n        /* \"#utility.yul\":3767:3772   */\n      dup3\n        /* \"#utility.yul\":3749:3773   */\n      tag_355\n      jump\t// in\n    tag_453:\n        /* \"#utility.yul\":3738:3773   */\n      swap1\n      pop\n        /* \"#utility.yul\":3683:3779   */\n      swap2\n      swap1\n      pop\n      jump\t// out\n        /* \"#utility.yul\":3785:3903   */\n    tag_357:\n        /* \"#utility.yul\":3872:3896   */\n      tag_455\n        /* \"#utility.yul\":3890:3895   */\n      dup2\n        /* \"#utility.yul\":3872:3896   */\n      tag_356\n      jump\t// in\n    tag_455:\n        /* \"#utility.yul\":3867:3870   */\n      dup3\n        /* \"#utility.yul\":3860:3897   */\n      mstore\n        /* \"#utility.yul\":3785:3903   */\n      pop\n      pop\n      jump\t// out\n        /* \"#utility.yul\":3909:4131   */\n    tag_38:\n        /* \"#utility.yul\":4002:4006   */\n      0x00\n        /* \"#utility.yul\":4040:4042   */\n      0x20\n        /* \"#utility.yul\":4029:4038   */\n      dup3\n        /* \"#utility.yul\":4025:4043   */\n      add\n        /* \"#utility.yul\":4017:4043   */\n      swap1\n      pop\n        /* \"#utility.yul\":4053:4124   */\n      tag_457\n        /* \"#utility.yul\":4121:4122   */\n      0x00\n        /* \"#utility.yul\":4110:4119   */\n      dup4\n        /* \"#utility.yul\":4106:4123   */\n      add\n        /* \"#utility.yul\":4097:4103   */\n      dup5\n        /* \"#utility.yul\":4053:4124   */\n      tag_357\n      jump\t// in\n    tag_457:\n        /* \"#utility.yul\":3909:4131   */\n      swap3\n      swap2\n      pop\n      pop\n      jump\t// out\n        /* \"#utility.yul\":4137:4259   */\n    tag_358:\n        /* \"#utility.yul\":4210:4234   */\n      tag_459\n        /* \"#utility.yul\":4228:4233   */\n      dup2\n        /* \"#utility.yul\":4210:4234   */\n      tag_356\n      jump\t// in\n    tag_459:\n        /* \"#utility.yul\":4203:4208   */\n      dup2\n        /* \"#utility.yul\":4200:4235   */\n      eq\n        /* \"#utility.yul\":4190:4253   */\n      tag_460\n      jumpi\n        /* \"#utility.yul\":4249:4250   */\n      0x00\n        /* \"#utility.yul\":4246:4247   */\n      dup1\n        /* \"#utility.yul\":4239:4251   */\n      revert\n        /* \"#utility.yul\":4190:4253   */\n    tag_460:\n        /* \"#utility.yul\":4137:4259   */\n      pop\n      jump\t// out\n        /* \"#utility.yul\":4265:4404   */\n    tag_359:\n        /* \"#utility.yul\":4311:4316   */\n      0x00\n        /* \"#utility.yul\":4349:4355   */\n      dup2\n        /* \"#utility.yul\":4336:4356   */\n      calldataload\n        /* \"#utility.yul\":4327:4356   */\n      swap1\n      pop\n        /* \"#utility.yul\":4365:4398   */\n      tag_462\n        /* \"#utility.yul\":4392:4397   */\n      dup2\n        /* \"#utility.yul\":4365:4398   */\n      tag_358\n      jump\t// in\n    tag_462:\n        /* \"#utility.yul\":4265:4404   */\n      swap3\n      swap2\n      pop\n      pop\n      jump\t// out\n        /* \"#utility.yul\":4410:4884   */\n    tag_41:\n        /* \"#utility.yul\":4478:4484   */\n      0x00\n        /* \"#utility.yul\":4486:4492   */\n      dup1\n        /* \"#utility.yul\":4535:4537   */\n      0x40\n        /* \"#utility.yul\":4523:4532   */\n      dup4\n        /* \"#utility.yul\":4514:4521   */\n      dup6\n        /* \"#utility.yul\":4510:4533   */\n      sub\n        /* \"#utility.yul\":4506:4538   */\n      slt\n        /* \"#utility.yul\":4503:4622   */\n      iszero\n      tag_464\n      jumpi\n        /* \"#utility.yul\":4541:4620   */\n      tag_465\n      tag_340\n      jump\t// in\n    tag_465:\n        /* \"#utility.yul\":4503:4622   */\n    tag_464:\n        /* \"#utility.yul\":4661:4662   */\n      0x00\n        /* \"#utility.yul\":4686:4739   */\n      tag_466\n        /* \"#utility.yul\":4731:4738   */\n      dup6\n        /* \"#utility.yul\":4722:4728   */\n      dup3\n        /* \"#utility.yul\":4711:4720   */\n      dup7\n        /* \"#utility.yul\":4707:4729   */\n      add\n        /* \"#utility.yul\":4686:4739   */\n      tag_359\n      jump\t// in\n    tag_466:\n        /* \"#utility.yul\":4676:4739   */\n      swap3\n      pop\n        /* \"#utility.yul\":4632:4749   */\n      pop\n        /* \"#utility.yul\":4788:4790   */\n      0x20\n        /* \"#utility.yul\":4814:4867   */\n      tag_467\n        /* \"#utility.yul\":4859:4866   */\n      dup6\n        /* \"#utility.yul\":4850:4856   */\n      dup3\n        /* \"#utility.yul\":4839:4848   */\n      dup7\n        /* \"#utility.yul\":4835:4857   */\n      add\n        /* \"#utility.yul\":4814:4867   */\n      tag_354\n      jump\t// in\n    tag_467:\n        /* \"#utility.yul\":4804:4867   */\n      swap2\n      pop\n        /* \"#utility.yul\":4759:4877   */\n      pop\n        /* \"#utility.yul\":4410:4884   */\n      swap3\n      pop\n      swap3\n      swap1\n      pop\n      jump\t// out\n        /* \"#utility.yul\":4890:5509   */\n    tag_45:\n        /* \"#utility.yul\":4967:4973   */\n      0x00\n        /* \"#utility.yul\":4975:4981   */\n      dup1\n        /* \"#utility.yul\":4983:4989   */\n      0x00\n        /* \"#utility.yul\":5032:5034   */\n      0x60\n        /* \"#utility.yul\":5020:5029   */\n      dup5\n        /* \"#utility.yul\":5011:5018   */\n      dup7\n        /* \"#utility.yul\":5007:5030   */\n      sub\n        /* \"#utility.yul\":5003:5035   */\n      slt\n        /* \"#utility.yul\":5000:5119   */\n      iszero\n      tag_469\n      jumpi\n        /* \"#utility.yul\":5038:5117   */\n      tag_470\n      tag_340\n      jump\t// in\n    tag_470:\n        /* \"#utility.yul\":5000:5119   */\n    tag_469:\n        /* \"#utility.yul\":5158:5159   */\n      0x00\n        /* \"#utility.yul\":5183:5236   */\n      tag_471\n        /* \"#utility.yul\":5228:5235   */\n      dup7\n        /* \"#utility.yul\":5219:5225   */\n      dup3\n        /* \"#utility.yul\":5208:5217   */\n      dup8\n        /* \"#utility.yul\":5204:5226   */\n      add\n        /* \"#utility.yul\":5183:5236   */\n      tag_359\n      jump\t// in\n    tag_471:\n        /* \"#utility.yul\":5173:5236   */\n      swap4\n      pop\n        /* \"#utility.yul\":5129:5246   */\n      pop\n        /* \"#utility.yul\":5285:5287   */\n      0x20\n        /* \"#utility.yul\":5311:5364   */\n      tag_472\n        /* \"#utility.yul\":5356:5363   */\n      dup7\n        /* \"#utility.yul\":5347:5353   */\n      dup3\n        /* \"#utility.yul\":5336:5345   */\n      dup8\n        /* \"#utility.yul\":5332:5354   */\n      add\n        /* \"#utility.yul\":5311:5364   */\n      tag_359\n      jump\t// in\n    tag_472:\n        /* \"#utility.yul\":5301:5364   */\n      swap3\n      pop\n        /* \"#utility.yul\":5256:5374   */\n      pop\n        /* \"#utility.yul\":5413:5415   */\n      0x40\n        /* \"#utility.yul\":5439:5492   */\n      tag_473\n        /* \"#utility.yul\":5484:5491   */\n      dup7\n        /* \"#utility.yul\":5475:5481   */\n      dup3\n        /* \"#utility.yul\":5464:5473   */\n      dup8\n        /* \"#utility.yul\":5460:5482   */\n      add\n        /* \"#utility.yul\":5439:5492   */\n      tag_354\n      jump\t// in\n    tag_473:\n        /* \"#utility.yul\":5429:5492   */\n      swap2\n      pop\n        /* \"#utility.yul\":5384:5502   */\n      pop\n        /* \"#utility.yul\":4890:5509   */\n      swap3\n      pop\n      swap3\n      pop\n      swap3\n      jump\t// out\n        /* \"#utility.yul\":5515:5632   */\n    tag_360:\n        /* \"#utility.yul\":5624:5625   */\n      0x00\n        /* \"#utility.yul\":5621:5622   */\n      dup1\n        /* \"#utility.yul\":5614:5626   */\n      revert\n        /* \"#utility.yul\":5638:5755   */\n    tag_361:\n        /* \"#utility.yul\":5747:5748   */\n      0x00\n        /* \"#utility.yul\":5744:5745   */\n      dup1\n        /* \"#utility.yul\":5737:5749   */\n      revert\n        /* \"#utility.yul\":5761:5941   */\n    tag_231:\n        /* \"#utility.yul\":5809:5886   */\n      0x4e487b7100000000000000000000000000000000000000000000000000000000\n        /* \"#utility.yul\":5806:5807   */\n      0x00\n        /* \"#utility.yul\":5799:5887   */\n      mstore\n        /* \"#utility.yul\":5906:5910   */\n      0x41\n        /* \"#utility.yul\":5903:5904   */\n      0x04\n        /* \"#utility.yul\":5896:5911   */\n      mstore\n        /* \"#utility.yul\":5930:5934   */\n      0x24\n        /* \"#utility.yul\":5927:5928   */\n      0x00\n        /* \"#utility.yul\":5920:5935   */\n      revert\n        /* \"#utility.yul\":5947:6228   */\n    tag_362:\n        /* \"#utility.yul\":6030:6057   */\n      tag_478\n        /* \"#utility.yul\":6052:6056   */\n      dup3\n        /* \"#utility.yul\":6030:6057   */\n      tag_350\n      jump\t// in\n    tag_478:\n        /* \"#utility.yul\":6022:6028   */\n      dup2\n        /* \"#utility.yul\":6018:6058   */\n      add\n        /* \"#utility.yul\":6160:6166   */\n      dup2\n        /* \"#utility.yul\":6148:6158   */\n      dup2\n        /* \"#utility.yul\":6145:6167   */\n      lt\n        /* \"#utility.yul\":6124:6142   */\n      0xffffffffffffffff\n        /* \"#utility.yul\":6112:6122   */\n      dup3\n        /* \"#utility.yul\":6109:6143   */\n      gt\n        /* \"#utility.yul\":6106:6168   */\n      or\n        /* \"#utility.yul\":6103:6191   */\n      iszero\n      tag_479\n      jumpi\n        /* \"#utility.yul\":6171:6189   */\n      tag_480\n      tag_231\n      jump\t// in\n    tag_480:\n        /* \"#utility.yul\":6103:6191   */\n    tag_479:\n        /* \"#utility.yul\":6211:6221   */\n      dup1\n        /* \"#utility.yul\":6207:6209   */\n      0x40\n        /* \"#utility.yul\":6200:6222   */\n      mstore\n        /* \"#utility.yul\":5990:6228   */\n      pop\n        /* \"#utility.yul\":5947:6228   */\n      pop\n      pop\n      jump\t// out\n        /* \"#utility.yul\":6234:6363   */\n    tag_363:\n        /* \"#utility.yul\":6268:6274   */\n      0x00\n        /* \"#utility.yul\":6295:6315   */\n      tag_482\n      tag_339\n      jump\t// in\n    tag_482:\n        /* \"#utility.yul\":6285:6315   */\n      swap1\n      pop\n        /* \"#utility.yul\":6324:6357   */\n      tag_483\n        /* \"#utility.yul\":6352:6356   */\n      dup3\n        /* \"#utility.yul\":6344:6350   */\n      dup3\n        /* \"#utility.yul\":6324:6357   */\n      tag_362\n      jump\t// in\n    tag_483:\n        /* \"#utility.yul\":6234:6363   */\n      swap2\n      swap1\n      pop\n      jump\t// out\n        /* \"#utility.yul\":6369:6677   */\n    tag_364:\n        /* \"#utility.yul\":6431:6435   */\n      0x00\n        /* \"#utility.yul\":6521:6539   */\n      0xffffffffffffffff\n        /* \"#utility.yul\":6513:6519   */\n      dup3\n        /* \"#utility.yul\":6510:6540   */\n      gt\n        /* \"#utility.yul\":6507:6563   */\n      iszero\n      tag_485\n      jumpi\n        /* \"#utility.yul\":6543:6561   */\n      tag_486\n      tag_231\n      jump\t// in\n    tag_486:\n        /* \"#utility.yul\":6507:6563   */\n    tag_485:\n        /* \"#utility.yul\":6581:6610   */\n      tag_487\n        /* \"#utility.yul\":6603:6609   */\n      dup3\n        /* \"#utility.yul\":6581:6610   */\n      tag_350\n      jump\t// in\n    tag_487:\n        /* \"#utility.yul\":6573:6610   */\n      swap1\n      pop\n        /* \"#utility.yul\":6665:6669   */\n      0x20\n        /* \"#utility.yul\":6659:6663   */\n      dup2\n        /* \"#utility.yul\":6655:6670   */\n      add\n        /* \"#utility.yul\":6647:6670   */\n      swap1\n      pop\n        /* \"#utility.yul\":6369:6677   */\n      swap2\n      swap1\n      pop\n      jump\t// out\n        /* \"#utility.yul\":6683:6829   */\n    tag_365:\n        /* \"#utility.yul\":6780:6786   */\n      dup3\n        /* \"#utility.yul\":6775:6778   */\n      dup2\n        /* \"#utility.yul\":6770:6773   */\n      dup4\n        /* \"#utility.yul\":6757:6787   */\n      calldatacopy\n        /* \"#utility.yul\":6821:6822   */\n      0x00\n        /* \"#utility.yul\":6812:6818   */\n      dup4\n        /* \"#utility.yul\":6807:6810   */\n      dup4\n        /* \"#utility.yul\":6803:6819   */\n      add\n        /* \"#utility.yul\":6796:6823   */\n      mstore\n        /* \"#utility.yul\":6683:6829   */\n      pop\n      pop\n      pop\n      jump\t// out\n        /* \"#utility.yul\":6835:7260   */\n    tag_366:\n        /* \"#utility.yul\":6913:6918   */\n      0x00\n        /* \"#utility.yul\":6938:7004   */\n      tag_490\n        /* \"#utility.yul\":6954:7003   */\n      tag_491\n        /* \"#utility.yul\":6996:7002   */\n      dup5\n        /* \"#utility.yul\":6954:7003   */\n      tag_364\n      jump\t// in\n    tag_491:\n        /* \"#utility.yul\":6938:7004   */\n      tag_363\n      jump\t// in\n    tag_490:\n        /* \"#utility.yul\":6929:7004   */\n      swap1\n      pop\n        /* \"#utility.yul\":7027:7033   */\n      dup3\n        /* \"#utility.yul\":7020:7025   */\n      dup2\n        /* \"#utility.yul\":7013:7034   */\n      mstore\n        /* \"#utility.yul\":7065:7069   */\n      0x20\n        /* \"#utility.yul\":7058:7063   */\n      dup2\n        /* \"#utility.yul\":7054:7070   */\n      add\n        /* \"#utility.yul\":7103:7106   */\n      dup5\n        /* \"#utility.yul\":7094:7100   */\n      dup5\n        /* \"#utility.yul\":7089:7092   */\n      dup5\n        /* \"#utility.yul\":7085:7101   */\n      add\n        /* \"#utility.yul\":7082:7107   */\n      gt\n        /* \"#utility.yul\":7079:7191   */\n      iszero\n      tag_492\n      jumpi\n        /* \"#utility.yul\":7110:7189   */\n      tag_493\n      tag_361\n      jump\t// in\n    tag_493:\n        /* \"#utility.yul\":7079:7191   */\n    tag_492:\n        /* \"#utility.yul\":7200:7254   */\n      tag_494\n        /* \"#utility.yul\":7247:7253   */\n      dup5\n        /* \"#utility.yul\":7242:7245   */\n      dup3\n        /* \"#utility.yul\":7237:7240   */\n      dup6\n        /* \"#utility.yul\":7200:7254   */\n      tag_365\n      jump\t// in\n    tag_494:\n        /* \"#utility.yul\":6919:7260   */\n      pop\n        /* \"#utility.yul\":6835:7260   */\n      swap4\n      swap3\n      pop\n      pop\n      pop\n      jump\t// out\n        /* \"#utility.yul\":7280:7620   */\n    tag_367:\n        /* \"#utility.yul\":7336:7341   */\n      0x00\n        /* \"#utility.yul\":7385:7388   */\n      dup3\n        /* \"#utility.yul\":7378:7382   */\n      0x1f\n        /* \"#utility.yul\":7370:7376   */\n      dup4\n        /* \"#utility.yul\":7366:7383   */\n      add\n        /* \"#utility.yul\":7362:7389   */\n      slt\n        /* \"#utility.yul\":7352:7474   */\n      tag_496\n      jumpi\n        /* \"#utility.yul\":7393:7472   */\n      tag_497\n      tag_360\n      jump\t// in\n    tag_497:\n        /* \"#utility.yul\":7352:7474   */\n    tag_496:\n        /* \"#utility.yul\":7510:7516   */\n      dup2\n        /* \"#utility.yul\":7497:7517   */\n      calldataload\n        /* \"#utility.yul\":7535:7614   */\n      tag_498\n        /* \"#utility.yul\":7610:7613   */\n      dup5\n        /* \"#utility.yul\":7602:7608   */\n      dup3\n        /* \"#utility.yul\":7595:7599   */\n      0x20\n        /* \"#utility.yul\":7587:7593   */\n      dup7\n        /* \"#utility.yul\":7583:7600   */\n      add\n        /* \"#utility.yul\":7535:7614   */\n      tag_366\n      jump\t// in\n    tag_498:\n        /* \"#utility.yul\":7526:7614   */\n      swap2\n      pop\n        /* \"#utility.yul\":7342:7620   */\n      pop\n        /* \"#utility.yul\":7280:7620   */\n      swap3\n      swap2\n      pop\n      pop\n      jump\t// out\n        /* \"#utility.yul\":7626:8280   */\n    tag_52:\n        /* \"#utility.yul\":7704:7710   */\n      0x00\n        /* \"#utility.yul\":7712:7718   */\n      dup1\n        /* \"#utility.yul\":7761:7763   */\n      0x40\n        /* \"#utility.yul\":7749:7758   */\n      dup4\n        /* \"#utility.yul\":7740:7747   */\n      dup6\n        /* \"#utility.yul\":7736:7759   */\n      sub\n        /* \"#utility.yul\":7732:7764   */\n      slt\n        /* \"#utility.yul\":7729:7848   */\n      iszero\n      tag_500\n      jumpi\n        /* \"#utility.yul\":7767:7846   */\n      tag_501\n      tag_340\n      jump\t// in\n    tag_501:\n        /* \"#utility.yul\":7729:7848   */\n    tag_500:\n        /* \"#utility.yul\":7887:7888   */\n      0x00\n        /* \"#utility.yul\":7912:7965   */\n      tag_502\n        /* \"#utility.yul\":7957:7964   */\n      dup6\n        /* \"#utility.yul\":7948:7954   */\n      dup3\n        /* \"#utility.yul\":7937:7946   */\n      dup7\n        /* \"#utility.yul\":7933:7955   */\n      add\n        /* \"#utility.yul\":7912:7965   */\n      tag_359\n      jump\t// in\n    tag_502:\n        /* \"#utility.yul\":7902:7965   */\n      swap3\n      pop\n        /* \"#utility.yul\":7858:7975   */\n      pop\n        /* \"#utility.yul\":8042:8044   */\n      0x20\n        /* \"#utility.yul\":8031:8040   */\n      dup4\n        /* \"#utility.yul\":8027:8045   */\n      add\n        /* \"#utility.yul\":8014:8046   */\n      calldataload\n        /* \"#utility.yul\":8073:8091   */\n      0xffffffffffffffff\n        /* \"#utility.yul\":8065:8071   */\n      dup2\n        /* \"#utility.yul\":8062:8092   */\n      gt\n        /* \"#utility.yul\":8059:8176   */\n      iszero\n      tag_503\n      jumpi\n        /* \"#utility.yul\":8095:8174   */\n      tag_504\n      tag_341\n      jump\t// in\n    tag_504:\n        /* \"#utility.yul\":8059:8176   */\n    tag_503:\n        /* \"#utility.yul\":8200:8263   */\n      tag_505\n        /* \"#utility.yul\":8255:8262   */\n      dup6\n        /* \"#utility.yul\":8246:8252   */\n      dup3\n        /* \"#utility.yul\":8235:8244   */\n      dup7\n        /* \"#utility.yul\":8231:8253   */\n      add\n        /* \"#utility.yul\":8200:8263   */\n      tag_367\n      jump\t// in\n    tag_505:\n        /* \"#utility.yul\":8190:8263   */\n      swap2\n      pop\n        /* \"#utility.yul\":7985:8273   */\n      pop\n        /* \"#utility.yul\":7626:8280   */\n      swap3\n      pop\n      swap3\n      swap1\n      pop\n      jump\t// out\n        /* \"#utility.yul\":8286:8404   */\n    tag_368:\n        /* \"#utility.yul\":8373:8397   */\n      tag_507\n        /* \"#utility.yul\":8391:8396   */\n      dup2\n        /* \"#utility.yul\":8373:8397   */\n      tag_352\n      jump\t// in\n    tag_507:\n        /* \"#utility.yul\":8368:8371   */\n      dup3\n        /* \"#utility.yul\":8361:8398   */\n      mstore\n        /* \"#utility.yul\":8286:8404   */\n      pop\n      pop\n      jump\t// out\n        /* \"#utility.yul\":8410:8632   */\n    tag_60:\n        /* \"#utility.yul\":8503:8507   */\n      0x00\n        /* \"#utility.yul\":8541:8543   */\n      0x20\n        /* \"#utility.yul\":8530:8539   */\n      dup3\n        /* \"#utility.yul\":8526:8544   */\n      add\n        /* \"#utility.yul\":8518:8544   */\n      swap1\n      pop\n        /* \"#utility.yul\":8554:8625   */\n      tag_509\n        /* \"#utility.yul\":8622:8623   */\n      0x00\n        /* \"#utility.yul\":8611:8620   */\n      dup4\n        /* \"#utility.yul\":8607:8624   */\n      add\n        /* \"#utility.yul\":8598:8604   */\n      dup5\n        /* \"#utility.yul\":8554:8625   */\n      tag_368\n      jump\t// in\n    tag_509:\n        /* \"#utility.yul\":8410:8632   */\n      swap3\n      swap2\n      pop\n      pop\n      jump\t// out\n        /* \"#utility.yul\":8638:8967   */\n    tag_67:\n        /* \"#utility.yul\":8697:8703   */\n      0x00\n        /* \"#utility.yul\":8746:8748   */\n      0x20\n        /* \"#utility.yul\":8734:8743   */\n      dup3\n        /* \"#utility.yul\":8725:8732   */\n      dup5\n        /* \"#utility.yul\":8721:8744   */\n      sub\n        /* \"#utility.yul\":8717:8749   */\n      slt\n        /* \"#utility.yul\":8714:8833   */\n      iszero\n      tag_511\n      jumpi\n        /* \"#utility.yul\":8752:8831   */\n      tag_512\n      tag_340\n      jump\t// in\n    tag_512:\n        /* \"#utility.yul\":8714:8833   */\n    tag_511:\n        /* \"#utility.yul\":8872:8873   */\n      0x00\n        /* \"#utility.yul\":8897:8950   */\n      tag_513\n        /* \"#utility.yul\":8942:8949   */\n      dup5\n        /* \"#utility.yul\":8933:8939   */\n      dup3\n        /* \"#utility.yul\":8922:8931   */\n      dup6\n        /* \"#utility.yul\":8918:8940   */\n      add\n        /* \"#utility.yul\":8897:8950   */\n      tag_359\n      jump\t// in\n    tag_513:\n        /* \"#utility.yul\":8887:8950   */\n      swap2\n      pop\n        /* \"#utility.yul\":8843:8960   */\n      pop\n        /* \"#utility.yul\":8638:8967   */\n      swap3\n      swap2\n      pop\n      pop\n      jump\t// out\n        /* \"#utility.yul\":8973:9089   */\n    tag_369:\n        /* \"#utility.yul\":9043:9064   */\n      tag_515\n        /* \"#utility.yul\":9058:9063   */\n      dup2\n        /* \"#utility.yul\":9043:9064   */\n      tag_345\n      jump\t// in\n    tag_515:\n        /* \"#utility.yul\":9036:9041   */\n      dup2\n        /* \"#utility.yul\":9033:9065   */\n      eq\n        /* \"#utility.yul\":9023:9083   */\n      tag_516\n      jumpi\n        /* \"#utility.yul\":9079:9080   */\n      0x00\n        /* \"#utility.yul\":9076:9077   */\n      dup1\n        /* \"#utility.yul\":9069:9081   */\n      revert\n        /* \"#utility.yul\":9023:9083   */\n    tag_516:\n        /* \"#utility.yul\":8973:9089   */\n      pop\n      jump\t// out\n        /* \"#utility.yul\":9095:9228   */\n    tag_370:\n        /* \"#utility.yul\":9138:9143   */\n      0x00\n        /* \"#utility.yul\":9176:9182   */\n      dup2\n        /* \"#utility.yul\":9163:9183   */\n      calldataload\n        /* \"#utility.yul\":9154:9183   */\n      swap1\n      pop\n        /* \"#utility.yul\":9192:9222   */\n      tag_518\n        /* \"#utility.yul\":9216:9221   */\n      dup2\n        /* \"#utility.yul\":9192:9222   */\n      tag_369\n      jump\t// in\n    tag_518:\n        /* \"#utility.yul\":9095:9228   */\n      swap3\n      swap2\n      pop\n      pop\n      jump\t// out\n        /* \"#utility.yul\":9234:9702   */\n    tag_75:\n        /* \"#utility.yul\":9299:9305   */\n      0x00\n        /* \"#utility.yul\":9307:9313   */\n      dup1\n        /* \"#utility.yul\":9356:9358   */\n      0x40\n        /* \"#utility.yul\":9344:9353   */\n      dup4\n        /* \"#utility.yul\":9335:9342   */\n      dup6\n        /* \"#utility.yul\":9331:9354   */\n      sub\n        /* \"#utility.yul\":9327:9359   */\n      slt\n        /* \"#utility.yul\":9324:9443   */\n      iszero\n      tag_520\n      jumpi\n        /* \"#utility.yul\":9362:9441   */\n      tag_521\n      tag_340\n      jump\t// in\n    tag_521:\n        /* \"#utility.yul\":9324:9443   */\n    tag_520:\n        /* \"#utility.yul\":9482:9483   */\n      0x00\n        /* \"#utility.yul\":9507:9560   */\n      tag_522\n        /* \"#utility.yul\":9552:9559   */\n      dup6\n        /* \"#utility.yul\":9543:9549   */\n      dup3\n        /* \"#utility.yul\":9532:9541   */\n      dup7\n        /* \"#utility.yul\":9528:9550   */\n      add\n        /* \"#utility.yul\":9507:9560   */\n      tag_359\n      jump\t// in\n    tag_522:\n        /* \"#utility.yul\":9497:9560   */\n      swap3\n      pop\n        /* \"#utility.yul\":9453:9570   */\n      pop\n        /* \"#utility.yul\":9609:9611   */\n      0x20\n        /* \"#utility.yul\":9635:9685   */\n      tag_523\n        /* \"#utility.yul\":9677:9684   */\n      dup6\n        /* \"#utility.yul\":9668:9674   */\n      dup3\n        /* \"#utility.yul\":9657:9666   */\n      dup7\n        /* \"#utility.yul\":9653:9675   */\n      add\n        /* \"#utility.yul\":9635:9685   */\n      tag_370\n      jump\t// in\n    tag_523:\n        /* \"#utility.yul\":9625:9685   */\n      swap2\n      pop\n        /* \"#utility.yul\":9580:9695   */\n      pop\n        /* \"#utility.yul\":9234:9702   */\n      swap3\n      pop\n      swap3\n      swap1\n      pop\n      jump\t// out\n        /* \"#utility.yul\":9708:10015   */\n    tag_371:\n        /* \"#utility.yul\":9769:9773   */\n      0x00\n        /* \"#utility.yul\":9859:9877   */\n      0xffffffffffffffff\n        /* \"#utility.yul\":9851:9857   */\n      dup3\n        /* \"#utility.yul\":9848:9878   */\n      gt\n        /* \"#utility.yul\":9845:9901   */\n      iszero\n      tag_525\n      jumpi\n        /* \"#utility.yul\":9881:9899   */\n      tag_526\n      tag_231\n      jump\t// in\n    tag_526:\n        /* \"#utility.yul\":9845:9901   */\n    tag_525:\n        /* \"#utility.yul\":9919:9948   */\n      tag_527\n        /* \"#utility.yul\":9941:9947   */\n      dup3\n        /* \"#utility.yul\":9919:9948   */\n      tag_350\n      jump\t// in\n    tag_527:\n        /* \"#utility.yul\":9911:9948   */\n      swap1\n      pop\n        /* \"#utility.yul\":10003:10007   */\n      0x20\n        /* \"#utility.yul\":9997:10001   */\n      dup2\n        /* \"#utility.yul\":9993:10008   */\n      add\n        /* \"#utility.yul\":9985:10008   */\n      swap1\n      pop\n        /* \"#utility.yul\":9708:10015   */\n      swap2\n      swap1\n      pop\n      jump\t// out\n        /* \"#utility.yul\":10021:10444   */\n    tag_372:\n        /* \"#utility.yul\":10098:10103   */\n      0x00\n        /* \"#utility.yul\":10123:10188   */\n      tag_529\n        /* \"#utility.yul\":10139:10187   */\n      tag_530\n        /* \"#utility.yul\":10180:10186   */\n      dup5\n        /* \"#utility.yul\":10139:10187   */\n      tag_371\n      jump\t// in\n    tag_530:\n        /* \"#utility.yul\":10123:10188   */\n      tag_363\n      jump\t// in\n    tag_529:\n        /* \"#utility.yul\":10114:10188   */\n      swap1\n      pop\n        /* \"#utility.yul\":10211:10217   */\n      dup3\n        /* \"#utility.yul\":10204:10209   */\n      dup2\n        /* \"#utility.yul\":10197:10218   */\n      mstore\n        /* \"#utility.yul\":10249:10253   */\n      0x20\n        /* \"#utility.yul\":10242:10247   */\n      dup2\n        /* \"#utility.yul\":10238:10254   */\n      add\n        /* \"#utility.yul\":10287:10290   */\n      dup5\n        /* \"#utility.yul\":10278:10284   */\n      dup5\n        /* \"#utility.yul\":10273:10276   */\n      dup5\n        /* \"#utility.yul\":10269:10285   */\n      add\n        /* \"#utility.yul\":10266:10291   */\n      gt\n        /* \"#utility.yul\":10263:10375   */\n      iszero\n      tag_531\n      jumpi\n        /* \"#utility.yul\":10294:10373   */\n      tag_532\n      tag_361\n      jump\t// in\n    tag_532:\n        /* \"#utility.yul\":10263:10375   */\n    tag_531:\n        /* \"#utility.yul\":10384:10438   */\n      tag_533\n        /* \"#utility.yul\":10431:10437   */\n      dup5\n        /* \"#utility.yul\":10426:10429   */\n      dup3\n        /* \"#utility.yul\":10421:10424   */\n      dup6\n        /* \"#utility.yul\":10384:10438   */\n      tag_365\n      jump\t// in\n    tag_533:\n        /* \"#utility.yul\":10104:10444   */\n      pop\n        /* \"#utility.yul\":10021:10444   */\n      swap4\n      swap3\n      pop\n      pop\n      pop\n      jump\t// out\n        /* \"#utility.yul\":10463:10801   */\n    tag_373:\n        /* \"#utility.yul\":10518:10523   */\n      0x00\n        /* \"#utility.yul\":10567:10570   */\n      dup3\n        /* \"#utility.yul\":10560:10564   */\n      0x1f\n        /* \"#utility.yul\":10552:10558   */\n      dup4\n        /* \"#utility.yul\":10548:10565   */\n      add\n        /* \"#utility.yul\":10544:10571   */\n      slt\n        /* \"#utility.yul\":10534:10656   */\n      tag_535\n      jumpi\n        /* \"#utility.yul\":10575:10654   */\n      tag_536\n      tag_360\n      jump\t// in\n    tag_536:\n        /* \"#utility.yul\":10534:10656   */\n    tag_535:\n        /* \"#utility.yul\":10692:10698   */\n      dup2\n        /* \"#utility.yul\":10679:10699   */\n      calldataload\n        /* \"#utility.yul\":10717:10795   */\n      tag_537\n        /* \"#utility.yul\":10791:10794   */\n      dup5\n        /* \"#utility.yul\":10783:10789   */\n      dup3\n        /* \"#utility.yul\":10776:10780   */\n      0x20\n        /* \"#utility.yul\":10768:10774   */\n      dup7\n        /* \"#utility.yul\":10764:10781   */\n      add\n        /* \"#utility.yul\":10717:10795   */\n      tag_372\n      jump\t// in\n    tag_537:\n        /* \"#utility.yul\":10708:10795   */\n      swap2\n      pop\n        /* \"#utility.yul\":10524:10801   */\n      pop\n        /* \"#utility.yul\":10463:10801   */\n      swap3\n      swap2\n      pop\n      pop\n      jump\t// out\n        /* \"#utility.yul\":10807:11750   */\n    tag_82:\n        /* \"#utility.yul\":10902:10908   */\n      0x00\n        /* \"#utility.yul\":10910:10916   */\n      dup1\n        /* \"#utility.yul\":10918:10924   */\n      0x00\n        /* \"#utility.yul\":10926:10932   */\n      dup1\n        /* \"#utility.yul\":10975:10978   */\n      0x80\n        /* \"#utility.yul\":10963:10972   */\n      dup6\n        /* \"#utility.yul\":10954:10961   */\n      dup8\n        /* \"#utility.yul\":10950:10973   */\n      sub\n        /* \"#utility.yul\":10946:10979   */\n      slt\n        /* \"#utility.yul\":10943:11063   */\n      iszero\n      tag_539\n      jumpi\n        /* \"#utility.yul\":10982:11061   */\n      tag_540\n      tag_340\n      jump\t// in\n    tag_540:\n        /* \"#utility.yul\":10943:11063   */\n    tag_539:\n        /* \"#utility.yul\":11102:11103   */\n      0x00\n        /* \"#utility.yul\":11127:11180   */\n      tag_541\n        /* \"#utility.yul\":11172:11179   */\n      dup8\n        /* \"#utility.yul\":11163:11169   */\n      dup3\n        /* \"#utility.yul\":11152:11161   */\n      dup9\n        /* \"#utility.yul\":11148:11170   */\n      add\n        /* \"#utility.yul\":11127:11180   */\n      tag_359\n      jump\t// in\n    tag_541:\n        /* \"#utility.yul\":11117:11180   */\n      swap5\n      pop\n        /* \"#utility.yul\":11073:11190   */\n      pop\n        /* \"#utility.yul\":11229:11231   */\n      0x20\n        /* \"#utility.yul\":11255:11308   */\n      tag_542\n        /* \"#utility.yul\":11300:11307   */\n      dup8\n        /* \"#utility.yul\":11291:11297   */\n      dup3\n        /* \"#utility.yul\":11280:11289   */\n      dup9\n        /* \"#utility.yul\":11276:11298   */\n      add\n        /* \"#utility.yul\":11255:11308   */\n      tag_359\n      jump\t// in\n    tag_542:\n        /* \"#utility.yul\":11245:11308   */\n      swap4\n      pop\n        /* \"#utility.yul\":11200:11318   */\n      pop\n        /* \"#utility.yul\":11357:11359   */\n      0x40\n        /* \"#utility.yul\":11383:11436   */\n      tag_543\n        /* \"#utility.yul\":11428:11435   */\n      dup8\n        /* \"#utility.yul\":11419:11425   */\n      dup3\n        /* \"#utility.yul\":11408:11417   */\n      dup9\n        /* \"#utility.yul\":11404:11426   */\n      add\n        /* \"#utility.yul\":11383:11436   */\n      tag_354\n      jump\t// in\n    tag_543:\n        /* \"#utility.yul\":11373:11436   */\n      swap3\n      pop\n        /* \"#utility.yul\":11328:11446   */\n      pop\n        /* \"#utility.yul\":11513:11515   */\n      0x60\n        /* \"#utility.yul\":11502:11511   */\n      dup6\n        /* \"#utility.yul\":11498:11516   */\n      add\n        /* \"#utility.yul\":11485:11517   */\n      calldataload\n        /* \"#utility.yul\":11544:11562   */\n      0xffffffffffffffff\n        /* \"#utility.yul\":11536:11542   */\n      dup2\n        /* \"#utility.yul\":11533:11563   */\n      gt\n        /* \"#utility.yul\":11530:11647   */\n      iszero\n      tag_544\n      jumpi\n        /* \"#utility.yul\":11566:11645   */\n      tag_545\n      tag_341\n      jump\t// in\n    tag_545:\n        /* \"#utility.yul\":11530:11647   */\n    tag_544:\n        /* \"#utility.yul\":11671:11733   */\n      tag_546\n        /* \"#utility.yul\":11725:11732   */\n      dup8\n        /* \"#utility.yul\":11716:11722   */\n      dup3\n        /* \"#utility.yul\":11705:11714   */\n      dup9\n        /* \"#utility.yul\":11701:11723   */\n      add\n        /* \"#utility.yul\":11671:11733   */\n      tag_373\n      jump\t// in\n    tag_546:\n        /* \"#utility.yul\":11661:11733   */\n      swap2\n      pop\n        /* \"#utility.yul\":11456:11743   */\n      pop\n        /* \"#utility.yul\":10807:11750   */\n      swap3\n      swap6\n      swap2\n      swap5\n      pop\n      swap3\n      pop\n      jump\t// out\n        /* \"#utility.yul\":11756:12230   */\n    tag_90:\n        /* \"#utility.yul\":11824:11830   */\n      0x00\n        /* \"#utility.yul\":11832:11838   */\n      dup1\n        /* \"#utility.yul\":11881:11883   */\n      0x40\n        /* \"#utility.yul\":11869:11878   */\n      dup4\n        /* \"#utility.yul\":11860:11867   */\n      dup6\n        /* \"#utility.yul\":11856:11879   */\n      sub\n        /* \"#utility.yul\":11852:11884   */\n      slt\n        /* \"#utility.yul\":11849:11968   */\n      iszero\n      tag_548\n      jumpi\n        /* \"#utility.yul\":11887:11966   */\n      tag_549\n      tag_340\n      jump\t// in\n    tag_549:\n        /* \"#utility.yul\":11849:11968   */\n    tag_548:\n        /* \"#utility.yul\":12007:12008   */\n      0x00\n        /* \"#utility.yul\":12032:12085   */\n      tag_550\n        /* \"#utility.yul\":12077:12084   */\n      dup6\n        /* \"#utility.yul\":12068:12074   */\n      dup3\n        /* \"#utility.yul\":12057:12066   */\n      dup7\n        /* \"#utility.yul\":12053:12075   */\n      add\n        /* \"#utility.yul\":12032:12085   */\n      tag_359\n      jump\t// in\n    tag_550:\n        /* \"#utility.yul\":12022:12085   */\n      swap3\n      pop\n        /* \"#utility.yul\":11978:12095   */\n      pop\n        /* \"#utility.yul\":12134:12136   */\n      0x20\n        /* \"#utility.yul\":12160:12213   */\n      tag_551\n        /* \"#utility.yul\":12205:12212   */\n      dup6\n        /* \"#utility.yul\":12196:12202   */\n      dup3\n        /* \"#utility.yul\":12185:12194   */\n      dup7\n        /* \"#utility.yul\":12181:12203   */\n      add\n        /* \"#utility.yul\":12160:12213   */\n      tag_359\n      jump\t// in\n    tag_551:\n        /* \"#utility.yul\":12150:12213   */\n      swap2\n      pop\n        /* \"#utility.yul\":12105:12223   */\n      pop\n        /* \"#utility.yul\":11756:12230   */\n      swap3\n      pop\n      swap3\n      swap1\n      pop\n      jump\t// out\n        /* \"#utility.yul\":12236:12416   */\n    tag_374:\n        /* \"#utility.yul\":12284:12361   */\n      0x4e487b7100000000000000000000000000000000000000000000000000000000\n        /* \"#utility.yul\":12281:12282   */\n      0x00\n        /* \"#utility.yul\":12274:12362   */\n      mstore\n        /* \"#utility.yul\":12381:12385   */\n      0x22\n        /* \"#utility.yul\":12378:12379   */\n      0x04\n        /* \"#utility.yul\":12371:12386   */\n      mstore\n        /* \"#utility.yul\":12405:12409   */\n      0x24\n        /* \"#utility.yul\":12402:12403   */\n      0x00\n        /* \"#utility.yul\":12395:12410   */\n      revert\n        /* \"#utility.yul\":12422:12742   */\n    tag_99:\n        /* \"#utility.yul\":12466:12472   */\n      0x00\n        /* \"#utility.yul\":12503:12504   */\n      0x02\n        /* \"#utility.yul\":12497:12501   */\n      dup3\n        /* \"#utility.yul\":12493:12505   */\n      div\n        /* \"#utility.yul\":12483:12505   */\n      swap1\n      pop\n        /* \"#utility.yul\":12550:12551   */\n      0x01\n        /* \"#utility.yul\":12544:12548   */\n      dup3\n        /* \"#utility.yul\":12540:12552   */\n      and\n        /* \"#utility.yul\":12571:12589   */\n      dup1\n        /* \"#utility.yul\":12561:12642   */\n      tag_554\n      jumpi\n        /* \"#utility.yul\":12627:12631   */\n      0x7f\n        /* \"#utility.yul\":12619:12625   */\n      dup3\n        /* \"#utility.yul\":12615:12632   */\n      and\n        /* \"#utility.yul\":12605:12632   */\n      swap2\n      pop\n        /* \"#utility.yul\":12561:12642   */\n    tag_554:\n        /* \"#utility.yul\":12689:12691   */\n      0x20\n        /* \"#utility.yul\":12681:12687   */\n      dup3\n        /* \"#utility.yul\":12678:12692   */\n      lt\n        /* \"#utility.yul\":12658:12676   */\n      dup2\n        /* \"#utility.yul\":12655:12693   */\n      sub\n        /* \"#utility.yul\":12652:12736   */\n      tag_555\n      jumpi\n        /* \"#utility.yul\":12708:12726   */\n      tag_556\n      tag_374\n      jump\t// in\n    tag_556:\n        /* \"#utility.yul\":12652:12736   */\n    tag_555:\n        /* \"#utility.yul\":12473:12742   */\n      pop\n        /* \"#utility.yul\":12422:12742   */\n      swap2\n      swap1\n      pop\n      jump\t// out\n        /* \"#utility.yul\":12748:13190   */\n    tag_122:\n        /* \"#utility.yul\":12897:12901   */\n      0x00\n        /* \"#utility.yul\":12935:12937   */\n      0x60\n        /* \"#utility.yul\":12924:12933   */\n      dup3\n        /* \"#utility.yul\":12920:12938   */\n      add\n        /* \"#utility.yul\":12912:12938   */\n      swap1\n      pop\n        /* \"#utility.yul\":12948:13019   */\n      tag_558\n        /* \"#utility.yul\":13016:13017   */\n      0x00\n        /* \"#utility.yul\":13005:13014   */\n      dup4\n        /* \"#utility.yul\":13001:13018   */\n      add\n        /* \"#utility.yul\":12992:12998   */\n      dup7\n        /* \"#utility.yul\":12948:13019   */\n      tag_357\n      jump\t// in\n    tag_558:\n        /* \"#utility.yul\":13029:13101   */\n      tag_559\n        /* \"#utility.yul\":13097:13099   */\n      0x20\n        /* \"#utility.yul\":13086:13095   */\n      dup4\n        /* \"#utility.yul\":13082:13100   */\n      add\n        /* \"#utility.yul\":13073:13079   */\n      dup6\n        /* \"#utility.yul\":13029:13101   */\n      tag_368\n      jump\t// in\n    tag_559:\n        /* \"#utility.yul\":13111:13183   */\n      tag_560\n        /* \"#utility.yul\":13179:13181   */\n      0x40\n        /* \"#utility.yul\":13168:13177   */\n      dup4\n        /* \"#utility.yul\":13164:13182   */\n      add\n        /* \"#utility.yul\":13155:13161   */\n      dup5\n        /* \"#utility.yul\":13111:13183   */\n      tag_357\n      jump\t// in\n    tag_560:\n        /* \"#utility.yul\":12748:13190   */\n      swap5\n      swap4\n      pop\n      pop\n      pop\n      pop\n      jump\t// out\n        /* \"#utility.yul\":13196:13376   */\n    tag_128:\n        /* \"#utility.yul\":13244:13321   */\n      0x4e487b7100000000000000000000000000000000000000000000000000000000\n        /* \"#utility.yul\":13241:13242   */\n      0x00\n        /* \"#utility.yul\":13234:13322   */\n      mstore\n        /* \"#utility.yul\":13341:13345   */\n      0x32\n        /* \"#utility.yul\":13338:13339   */\n      0x04\n        /* \"#utility.yul\":13331:13346   */\n      mstore\n        /* \"#utility.yul\":13365:13369   */\n      0x24\n        /* \"#utility.yul\":13362:13363   */\n      0x00\n        /* \"#utility.yul\":13355:13370   */\n      revert\n        /* \"#utility.yul\":13382:13530   */\n    tag_375:\n        /* \"#utility.yul\":13484:13495   */\n      0x00\n        /* \"#utility.yul\":13521:13524   */\n      dup2\n        /* \"#utility.yul\":13506:13524   */\n      swap1\n      pop\n        /* \"#utility.yul\":13382:13530   */\n      swap3\n      swap2\n      pop\n      pop\n      jump\t// out\n        /* \"#utility.yul\":13536:13926   */\n    tag_376:\n        /* \"#utility.yul\":13642:13645   */\n      0x00\n        /* \"#utility.yul\":13670:13709   */\n      tag_564\n        /* \"#utility.yul\":13703:13708   */\n      dup3\n        /* \"#utility.yul\":13670:13709   */\n      tag_347\n      jump\t// in\n    tag_564:\n        /* \"#utility.yul\":13725:13814   */\n      tag_565\n        /* \"#utility.yul\":13807:13813   */\n      dup2\n        /* \"#utility.yul\":13802:13805   */\n      dup6\n        /* \"#utility.yul\":13725:13814   */\n      tag_375\n      jump\t// in\n    tag_565:\n        /* \"#utility.yul\":13718:13814   */\n      swap4\n      pop\n        /* \"#utility.yul\":13823:13888   */\n      tag_566\n        /* \"#utility.yul\":13881:13887   */\n      dup2\n        /* \"#utility.yul\":13876:13879   */\n      dup6\n        /* \"#utility.yul\":13869:13873   */\n      0x20\n        /* \"#utility.yul\":13862:13867   */\n      dup7\n        /* \"#utility.yul\":13858:13874   */\n      add\n        /* \"#utility.yul\":13823:13888   */\n      tag_349\n      jump\t// in\n    tag_566:\n        /* \"#utility.yul\":13913:13919   */\n      dup1\n        /* \"#utility.yul\":13908:13911   */\n      dup5\n        /* \"#utility.yul\":13904:13920   */\n      add\n        /* \"#utility.yul\":13897:13920   */\n      swap2\n      pop\n        /* \"#utility.yul\":13646:13926   */\n      pop\n        /* \"#utility.yul\":13536:13926   */\n      swap3\n      swap2\n      pop\n      pop\n      jump\t// out\n        /* \"#utility.yul\":13932:14367   */\n    tag_141:\n        /* \"#utility.yul\":14112:14115   */\n      0x00\n        /* \"#utility.yul\":14134:14229   */\n      tag_568\n        /* \"#utility.yul\":14225:14228   */\n      dup3\n        /* \"#utility.yul\":14216:14222   */\n      dup6\n        /* \"#utility.yul\":14134:14229   */\n      tag_376\n      jump\t// in\n    tag_568:\n        /* \"#utility.yul\":14127:14229   */\n      swap2\n      pop\n        /* \"#utility.yul\":14246:14341   */\n      tag_569\n        /* \"#utility.yul\":14337:14340   */\n      dup3\n        /* \"#utility.yul\":14328:14334   */\n      dup5\n        /* \"#utility.yul\":14246:14341   */\n      tag_376\n      jump\t// in\n    tag_569:\n        /* \"#utility.yul\":14239:14341   */\n      swap2\n      pop\n        /* \"#utility.yul\":14358:14361   */\n      dup2\n        /* \"#utility.yul\":14351:14361   */\n      swap1\n      pop\n        /* \"#utility.yul\":13932:14367   */\n      swap4\n      swap3\n      pop\n      pop\n      pop\n      jump\t// out\n        /* \"#utility.yul\":14373:14554   */\n    tag_377:\n        /* \"#utility.yul\":14541:14547   */\n      0x2e706e6700000000000000000000000000000000000000000000000000000000\n        /* \"#utility.yul\":14536:14539   */\n      dup2\n        /* \"#utility.yul\":14529:14548   */\n      mstore\n        /* \"#utility.yul\":14373:14554   */\n      pop\n      jump\t// out\n        /* \"#utility.yul\":14560:15099   */\n    tag_143:\n        /* \"#utility.yul\":14782:14785   */\n      0x00\n        /* \"#utility.yul\":14804:14899   */\n      tag_572\n        /* \"#utility.yul\":14895:14898   */\n      dup3\n        /* \"#utility.yul\":14886:14892   */\n      dup5\n        /* \"#utility.yul\":14804:14899   */\n      tag_376\n      jump\t// in\n    tag_572:\n        /* \"#utility.yul\":14797:14899   */\n      swap2\n      pop\n        /* \"#utility.yul\":14909:15046   */\n      tag_573\n        /* \"#utility.yul\":15042:15045   */\n      dup3\n        /* \"#utility.yul\":14909:15046   */\n      tag_377\n      jump\t// in\n    tag_573:\n        /* \"#utility.yul\":15071:15072   */\n      0x04\n        /* \"#utility.yul\":15066:15069   */\n      dup3\n        /* \"#utility.yul\":15062:15073   */\n      add\n        /* \"#utility.yul\":15055:15073   */\n      swap2\n      pop\n        /* \"#utility.yul\":15090:15093   */\n      dup2\n        /* \"#utility.yul\":15083:15093   */\n      swap1\n      pop\n        /* \"#utility.yul\":14560:15099   */\n      swap3\n      swap2\n      pop\n      pop\n      jump\t// out\n        /* \"#utility.yul\":15105:15284   */\n    tag_378:\n        /* \"#utility.yul\":15273:15277   */\n      0x3b20000000000000000000000000000000000000000000000000000000000000\n        /* \"#utility.yul\":15268:15271   */\n      dup2\n        /* \"#utility.yul\":15261:15278   */\n      mstore\n        /* \"#utility.yul\":15105:15284   */\n      pop\n      jump\t// out\n        /* \"#utility.yul\":15290:15829   */\n    tag_145:\n        /* \"#utility.yul\":15512:15515   */\n      0x00\n        /* \"#utility.yul\":15534:15629   */\n      tag_576\n        /* \"#utility.yul\":15625:15628   */\n      dup3\n        /* \"#utility.yul\":15616:15622   */\n      dup5\n        /* \"#utility.yul\":15534:15629   */\n      tag_376\n      jump\t// in\n    tag_576:\n        /* \"#utility.yul\":15527:15629   */\n      swap2\n      pop\n        /* \"#utility.yul\":15639:15776   */\n      tag_577\n        /* \"#utility.yul\":15772:15775   */\n      dup3\n        /* \"#utility.yul\":15639:15776   */\n      tag_378\n      jump\t// in\n    tag_577:\n        /* \"#utility.yul\":15801:15802   */\n      0x02\n        /* \"#utility.yul\":15796:15799   */\n      dup3\n        /* \"#utility.yul\":15792:15803   */\n      add\n        /* \"#utility.yul\":15785:15803   */\n      swap2\n      pop\n        /* \"#utility.yul\":15820:15823   */\n      dup2\n        /* \"#utility.yul\":15813:15823   */\n      swap1\n      pop\n        /* \"#utility.yul\":15290:15829   */\n      swap3\n      swap2\n      pop\n      pop\n      jump\t// out\n        /* \"#utility.yul\":15835:16015   */\n    tag_379:\n        /* \"#utility.yul\":15883:15960   */\n      0x4e487b7100000000000000000000000000000000000000000000000000000000\n        /* \"#utility.yul\":15880:15881   */\n      0x00\n        /* \"#utility.yul\":15873:15961   */\n      mstore\n        /* \"#utility.yul\":15980:15984   */\n      0x11\n        /* \"#utility.yul\":15977:15978   */\n      0x04\n        /* \"#utility.yul\":15970:15985   */\n      mstore\n        /* \"#utility.yul\":16004:16008   */\n      0x24\n        /* \"#utility.yul\":16001:16002   */\n      0x00\n        /* \"#utility.yul\":15994:16009   */\n      revert\n        /* \"#utility.yul\":16021:16215   */\n    tag_221:\n        /* \"#utility.yul\":16061:16065   */\n      0x00\n        /* \"#utility.yul\":16081:16101   */\n      tag_580\n        /* \"#utility.yul\":16099:16100   */\n      dup3\n        /* \"#utility.yul\":16081:16101   */\n      tag_352\n      jump\t// in\n    tag_580:\n        /* \"#utility.yul\":16076:16101   */\n      swap2\n      pop\n        /* \"#utility.yul\":16115:16135   */\n      tag_581\n        /* \"#utility.yul\":16133:16134   */\n      dup4\n        /* \"#utility.yul\":16115:16135   */\n      tag_352\n      jump\t// in\n    tag_581:\n        /* \"#utility.yul\":16110:16135   */\n      swap3\n      pop\n        /* \"#utility.yul\":16159:16160   */\n      dup3\n        /* \"#utility.yul\":16156:16157   */\n      dup3\n        /* \"#utility.yul\":16152:16161   */\n      sub\n        /* \"#utility.yul\":16144:16161   */\n      swap1\n      pop\n        /* \"#utility.yul\":16183:16184   */\n      dup2\n        /* \"#utility.yul\":16177:16181   */\n      dup2\n        /* \"#utility.yul\":16174:16185   */\n      gt\n        /* \"#utility.yul\":16171:16208   */\n      iszero\n      tag_582\n      jumpi\n        /* \"#utility.yul\":16188:16206   */\n      tag_583\n      tag_379\n      jump\t// in\n    tag_583:\n        /* \"#utility.yul\":16171:16208   */\n    tag_582:\n        /* \"#utility.yul\":16021:16215   */\n      swap3\n      swap2\n      pop\n      pop\n      jump\t// out\n        /* \"#utility.yul\":16221:16315   */\n    tag_380:\n        /* \"#utility.yul\":16254:16262   */\n      0x00\n        /* \"#utility.yul\":16302:16307   */\n      dup2\n        /* \"#utility.yul\":16298:16300   */\n      0x60\n        /* \"#utility.yul\":16294:16308   */\n      shl\n        /* \"#utility.yul\":16273:16308   */\n      swap1\n      pop\n        /* \"#utility.yul\":16221:16315   */\n      swap2\n      swap1\n      pop\n      jump\t// out\n        /* \"#utility.yul\":16321:16415   */\n    tag_381:\n        /* \"#utility.yul\":16360:16367   */\n      0x00\n        /* \"#utility.yul\":16389:16409   */\n      tag_586\n        /* \"#utility.yul\":16403:16408   */\n      dup3\n        /* \"#utility.yul\":16389:16409   */\n      tag_380\n      jump\t// in\n    tag_586:\n        /* \"#utility.yul\":16378:16409   */\n      swap1\n      pop\n        /* \"#utility.yul\":16321:16415   */\n      swap2\n      swap1\n      pop\n      jump\t// out\n        /* \"#utility.yul\":16421:16521   */\n    tag_382:\n        /* \"#utility.yul\":16460:16467   */\n      0x00\n        /* \"#utility.yul\":16489:16515   */\n      tag_588\n        /* \"#utility.yul\":16509:16514   */\n      dup3\n        /* \"#utility.yul\":16489:16515   */\n      tag_381\n      jump\t// in\n    tag_588:\n        /* \"#utility.yul\":16478:16515   */\n      swap1\n      pop\n        /* \"#utility.yul\":16421:16521   */\n      swap2\n      swap1\n      pop\n      jump\t// out\n        /* \"#utility.yul\":16527:16684   */\n    tag_383:\n        /* \"#utility.yul\":16632:16677   */\n      tag_590\n        /* \"#utility.yul\":16652:16676   */\n      tag_591\n        /* \"#utility.yul\":16670:16675   */\n      dup3\n        /* \"#utility.yul\":16652:16676   */\n      tag_356\n      jump\t// in\n    tag_591:\n        /* \"#utility.yul\":16632:16677   */\n      tag_382\n      jump\t// in\n    tag_590:\n        /* \"#utility.yul\":16627:16630   */\n      dup3\n        /* \"#utility.yul\":16620:16678   */\n      mstore\n        /* \"#utility.yul\":16527:16684   */\n      pop\n      pop\n      jump\t// out\n        /* \"#utility.yul\":16690:16767   */\n    tag_384:\n        /* \"#utility.yul\":16727:16734   */\n      0x00\n        /* \"#utility.yul\":16756:16761   */\n      dup2\n        /* \"#utility.yul\":16745:16761   */\n      swap1\n      pop\n        /* \"#utility.yul\":16690:16767   */\n      swap2\n      swap1\n      pop\n      jump\t// out\n        /* \"#utility.yul\":16773:16852   */\n    tag_385:\n        /* \"#utility.yul\":16812:16819   */\n      0x00\n        /* \"#utility.yul\":16841:16846   */\n      dup2\n        /* \"#utility.yul\":16830:16846   */\n      swap1\n      pop\n        /* \"#utility.yul\":16773:16852   */\n      swap2\n      swap1\n      pop\n      jump\t// out\n        /* \"#utility.yul\":16858:17015   */\n    tag_386:\n        /* \"#utility.yul\":16963:17008   */\n      tag_595\n        /* \"#utility.yul\":16983:17007   */\n      tag_596\n        /* \"#utility.yul\":17001:17006   */\n      dup3\n        /* \"#utility.yul\":16983:17007   */\n      tag_384\n      jump\t// in\n    tag_596:\n        /* \"#utility.yul\":16963:17008   */\n      tag_385\n      jump\t// in\n    tag_595:\n        /* \"#utility.yul\":16958:16961   */\n      dup3\n        /* \"#utility.yul\":16951:17009   */\n      mstore\n        /* \"#utility.yul\":16858:17015   */\n      pop\n      pop\n      jump\t// out\n        /* \"#utility.yul\":17021:17100   */\n    tag_387:\n        /* \"#utility.yul\":17060:17067   */\n      0x00\n        /* \"#utility.yul\":17089:17094   */\n      dup2\n        /* \"#utility.yul\":17078:17094   */\n      swap1\n      pop\n        /* \"#utility.yul\":17021:17100   */\n      swap2\n      swap1\n      pop\n      jump\t// out\n        /* \"#utility.yul\":17106:17263   */\n    tag_388:\n        /* \"#utility.yul\":17211:17256   */\n      tag_599\n        /* \"#utility.yul\":17231:17255   */\n      tag_600\n        /* \"#utility.yul\":17249:17254   */\n      dup3\n        /* \"#utility.yul\":17231:17255   */\n      tag_352\n      jump\t// in\n    tag_600:\n        /* \"#utility.yul\":17211:17256   */\n      tag_387\n      jump\t// in\n    tag_599:\n        /* \"#utility.yul\":17206:17209   */\n      dup3\n        /* \"#utility.yul\":17199:17257   */\n      mstore\n        /* \"#utility.yul\":17106:17263   */\n      pop\n      pop\n      jump\t// out\n        /* \"#utility.yul\":17269:17807   */\n    tag_223:\n        /* \"#utility.yul\":17437:17440   */\n      0x00\n        /* \"#utility.yul\":17452:17527   */\n      tag_602\n        /* \"#utility.yul\":17523:17526   */\n      dup3\n        /* \"#utility.yul\":17514:17520   */\n      dup7\n        /* \"#utility.yul\":17452:17527   */\n      tag_383\n      jump\t// in\n    tag_602:\n        /* \"#utility.yul\":17552:17554   */\n      0x14\n        /* \"#utility.yul\":17547:17550   */\n      dup3\n        /* \"#utility.yul\":17543:17555   */\n      add\n        /* \"#utility.yul\":17536:17555   */\n      swap2\n      pop\n        /* \"#utility.yul\":17565:17640   */\n      tag_603\n        /* \"#utility.yul\":17636:17639   */\n      dup3\n        /* \"#utility.yul\":17627:17633   */\n      dup6\n        /* \"#utility.yul\":17565:17640   */\n      tag_386\n      jump\t// in\n    tag_603:\n        /* \"#utility.yul\":17665:17667   */\n      0x20\n        /* \"#utility.yul\":17660:17663   */\n      dup3\n        /* \"#utility.yul\":17656:17668   */\n      add\n        /* \"#utility.yul\":17649:17668   */\n      swap2\n      pop\n        /* \"#utility.yul\":17678:17753   */\n      tag_604\n        /* \"#utility.yul\":17749:17752   */\n      dup3\n        /* \"#utility.yul\":17740:17746   */\n      dup5\n        /* \"#utility.yul\":17678:17753   */\n      tag_388\n      jump\t// in\n    tag_604:\n        /* \"#utility.yul\":17778:17780   */\n      0x20\n        /* \"#utility.yul\":17773:17776   */\n      dup3\n        /* \"#utility.yul\":17769:17781   */\n      add\n        /* \"#utility.yul\":17762:17781   */\n      swap2\n      pop\n        /* \"#utility.yul\":17798:17801   */\n      dup2\n        /* \"#utility.yul\":17791:17801   */\n      swap1\n      pop\n        /* \"#utility.yul\":17269:17807   */\n      swap5\n      swap4\n      pop\n      pop\n      pop\n      pop\n      jump\t// out\n        /* \"#utility.yul\":17813:17993   */\n    tag_237:\n        /* \"#utility.yul\":17861:17938   */\n      0x4e487b7100000000000000000000000000000000000000000000000000000000\n        /* \"#utility.yul\":17858:17859   */\n      0x00\n        /* \"#utility.yul\":17851:17939   */\n      mstore\n        /* \"#utility.yul\":17958:17962   */\n      0x12\n        /* \"#utility.yul\":17955:17956   */\n      0x04\n        /* \"#utility.yul\":17948:17963   */\n      mstore\n        /* \"#utility.yul\":17982:17986   */\n      0x24\n        /* \"#utility.yul\":17979:17980   */\n      0x00\n        /* \"#utility.yul\":17972:17987   */\n      revert\n        /* \"#utility.yul\":17999:18175   */\n    tag_225:\n        /* \"#utility.yul\":18031:18032   */\n      0x00\n        /* \"#utility.yul\":18048:18068   */\n      tag_607\n        /* \"#utility.yul\":18066:18067   */\n      dup3\n        /* \"#utility.yul\":18048:18068   */\n      tag_352\n      jump\t// in\n    tag_607:\n        /* \"#utility.yul\":18043:18068   */\n      swap2\n      pop\n        /* \"#utility.yul\":18082:18102   */\n      tag_608\n        /* \"#utility.yul\":18100:18101   */\n      dup4\n        /* \"#utility.yul\":18082:18102   */\n      tag_352\n      jump\t// in\n    tag_608:\n        /* \"#utility.yul\":18077:18102   */\n      swap3\n      pop\n        /* \"#utility.yul\":18121:18122   */\n      dup3\n        /* \"#utility.yul\":18111:18146   */\n      tag_609\n      jumpi\n        /* \"#utility.yul\":18126:18144   */\n      tag_610\n      tag_237\n      jump\t// in\n    tag_610:\n        /* \"#utility.yul\":18111:18146   */\n    tag_609:\n        /* \"#utility.yul\":18167:18168   */\n      dup3\n        /* \"#utility.yul\":18164:18165   */\n      dup3\n        /* \"#utility.yul\":18160:18169   */\n      mod\n        /* \"#utility.yul\":18155:18169   */\n      swap1\n      pop\n        /* \"#utility.yul\":17999:18175   */\n      swap3\n      swap2\n      pop\n      pop\n      jump\t// out\n        /* \"#utility.yul\":18181:18372   */\n    tag_242:\n        /* \"#utility.yul\":18221:18224   */\n      0x00\n        /* \"#utility.yul\":18240:18260   */\n      tag_612\n        /* \"#utility.yul\":18258:18259   */\n      dup3\n        /* \"#utility.yul\":18240:18260   */\n      tag_352\n      jump\t// in\n    tag_612:\n        /* \"#utility.yul\":18235:18260   */\n      swap2\n      pop\n        /* \"#utility.yul\":18274:18294   */\n      tag_613\n        /* \"#utility.yul\":18292:18293   */\n      dup4\n        /* \"#utility.yul\":18274:18294   */\n      tag_352\n      jump\t// in\n    tag_613:\n        /* \"#utility.yul\":18269:18294   */\n      swap3\n      pop\n        /* \"#utility.yul\":18317:18318   */\n      dup3\n        /* \"#utility.yul\":18314:18315   */\n      dup3\n        /* \"#utility.yul\":18310:18319   */\n      add\n        /* \"#utility.yul\":18303:18319   */\n      swap1\n      pop\n        /* \"#utility.yul\":18338:18341   */\n      dup1\n        /* \"#utility.yul\":18335:18336   */\n      dup3\n        /* \"#utility.yul\":18332:18342   */\n      gt\n        /* \"#utility.yul\":18329:18365   */\n      iszero\n      tag_614\n      jumpi\n        /* \"#utility.yul\":18345:18363   */\n      tag_615\n      tag_379\n      jump\t// in\n    tag_615:\n        /* \"#utility.yul\":18329:18365   */\n    tag_614:\n        /* \"#utility.yul\":18181:18372   */\n      swap3\n      swap2\n      pop\n      pop\n      jump\t// out\n        /* \"#utility.yul\":18378:18519   */\n    tag_389:\n        /* \"#utility.yul\":18427:18431   */\n      0x00\n        /* \"#utility.yul\":18450:18453   */\n      dup2\n        /* \"#utility.yul\":18442:18453   */\n      swap1\n      pop\n        /* \"#utility.yul\":18473:18476   */\n      dup2\n        /* \"#utility.yul\":18470:18471   */\n      0x00\n        /* \"#utility.yul\":18463:18477   */\n      mstore\n        /* \"#utility.yul\":18507:18511   */\n      0x20\n        /* \"#utility.yul\":18504:18505   */\n      0x00\n        /* \"#utility.yul\":18494:18512   */\n      keccak256\n        /* \"#utility.yul\":18486:18512   */\n      swap1\n      pop\n        /* \"#utility.yul\":18378:18519   */\n      swap2\n      swap1\n      pop\n      jump\t// out\n        /* \"#utility.yul\":18525:18618   */\n    tag_390:\n        /* \"#utility.yul\":18562:18568   */\n      0x00\n        /* \"#utility.yul\":18609:18611   */\n      0x20\n        /* \"#utility.yul\":18604:18606   */\n      0x1f\n        /* \"#utility.yul\":18597:18602   */\n      dup4\n        /* \"#utility.yul\":18593:18607   */\n      add\n        /* \"#utility.yul\":18589:18612   */\n      div\n        /* \"#utility.yul\":18579:18612   */\n      swap1\n      pop\n        /* \"#utility.yul\":18525:18618   */\n      swap2\n      swap1\n      pop\n      jump\t// out\n        /* \"#utility.yul\":18624:18731   */\n    tag_391:\n        /* \"#utility.yul\":18668:18676   */\n      0x00\n        /* \"#utility.yul\":18718:18723   */\n      dup3\n        /* \"#utility.yul\":18712:18716   */\n      dup3\n        /* \"#utility.yul\":18708:18724   */\n      shl\n        /* \"#utility.yul\":18687:18724   */\n      swap1\n      pop\n        /* \"#utility.yul\":18624:18731   */\n      swap3\n      swap2\n      pop\n      pop\n      jump\t// out\n        /* \"#utility.yul\":18737:19130   */\n    tag_392:\n        /* \"#utility.yul\":18806:18812   */\n      0x00\n        /* \"#utility.yul\":18856:18857   */\n      0x08\n        /* \"#utility.yul\":18844:18854   */\n      dup4\n        /* \"#utility.yul\":18840:18858   */\n      mul\n        /* \"#utility.yul\":18879:18976   */\n      tag_620\n        /* \"#utility.yul\":18909:18975   */\n      0xffffffffffffffffffffffffffffffffffffffffffffffffffffffffffffffff\n        /* \"#utility.yul\":18898:18907   */\n      dup3\n        /* \"#utility.yul\":18879:18976   */\n      tag_391\n      jump\t// in\n    tag_620:\n        /* \"#utility.yul\":18997:19036   */\n      tag_621\n        /* \"#utility.yul\":19027:19035   */\n      dup7\n        /* \"#utility.yul\":19016:19025   */\n      dup4\n        /* \"#utility.yul\":18997:19036   */\n      tag_391\n      jump\t// in\n    tag_621:\n        /* \"#utility.yul\":18985:19036   */\n      swap6\n      pop\n        /* \"#utility.yul\":19069:19073   */\n      dup1\n        /* \"#utility.yul\":19065:19074   */\n      not\n        /* \"#utility.yul\":19058:19063   */\n      dup5\n        /* \"#utility.yul\":19054:19075   */\n      and\n        /* \"#utility.yul\":19045:19075   */\n      swap4\n      pop\n        /* \"#utility.yul\":19118:19122   */\n      dup1\n        /* \"#utility.yul\":19108:19116   */\n      dup7\n        /* \"#utility.yul\":19104:19123   */\n      and\n        /* \"#utility.yul\":19097:19102   */\n      dup5\n        /* \"#utility.yul\":19094:19124   */\n      or\n        /* \"#utility.yul\":19084:19124   */\n      swap3\n      pop\n        /* \"#utility.yul\":18813:19130   */\n      pop\n      pop\n        /* \"#utility.yul\":18737:19130   */\n      swap4\n      swap3\n      pop\n      pop\n      pop\n      jump\t// out\n        /* \"#utility.yul\":19136:19196   */\n    tag_393:\n        /* \"#utility.yul\":19164:19167   */\n      0x00\n        /* \"#utility.yul\":19185:19190   */\n      dup2\n        /* \"#utility.yul\":19178:19190   */\n      swap1\n      pop\n        /* \"#utility.yul\":19136:19196   */\n      swap2\n      swap1\n      pop\n      jump\t// out\n        /* \"#utility.yul\":19202:19344   */\n    tag_394:\n        /* \"#utility.yul\":19252:19261   */\n      0x00\n        /* \"#utility.yul\":19285:19338   */\n      tag_624\n        /* \"#utility.yul\":19303:19337   */\n      tag_625\n        /* \"#utility.yul\":19312:19336   */\n      tag_626\n        /* \"#utility.yul\":19330:19335   */\n      dup5\n        /* \"#utility.yul\":19312:19336   */\n      tag_352\n      jump\t// in\n    tag_626:\n        /* \"#utility.yul\":19303:19337   */\n      tag_393\n      jump\t// in\n    tag_625:\n        /* \"#utility.yul\":19285:19338   */\n      tag_352\n      jump\t// in\n    tag_624:\n        /* \"#utility.yul\":19272:19338   */\n      swap1\n      pop\n        /* \"#utility.yul\":19202:19344   */\n      swap2\n      swap1\n      pop\n      jump\t// out\n        /* \"#utility.yul\":19350:19425   */\n    tag_395:\n        /* \"#utility.yul\":19393:19396   */\n      0x00\n        /* \"#utility.yul\":19414:19419   */\n      dup2\n        /* \"#utility.yul\":19407:19419   */\n      swap1\n      pop\n        /* \"#utility.yul\":19350:19425   */\n      swap2\n      swap1\n      pop\n      jump\t// out\n        /* \"#utility.yul\":19431:19700   */\n    tag_396:\n        /* \"#utility.yul\":19541:19580   */\n      tag_629\n        /* \"#utility.yul\":19572:19579   */\n      dup4\n        /* \"#utility.yul\":19541:19580   */\n      tag_394\n      jump\t// in\n    tag_629:\n        /* \"#utility.yul\":19602:19693   */\n      tag_630\n        /* \"#utility.yul\":19651:19692   */\n      tag_631\n        /* \"#utility.yul\":19675:19691   */\n      dup3\n        /* \"#utility.yul\":19651:19692   */\n      tag_395\n      jump\t// in\n    tag_631:\n        /* \"#utility.yul\":19643:19649   */\n      dup5\n        /* \"#utility.yul\":19636:19640   */\n      dup5\n        /* \"#utility.yul\":19630:19641   */\n      sload\n        /* \"#utility.yul\":19602:19693   */\n      tag_392\n      jump\t// in\n    tag_630:\n        /* \"#utility.yul\":19596:19600   */\n      dup3\n        /* \"#utility.yul\":19589:19694   */\n      sstore\n        /* \"#utility.yul\":19507:19700   */\n      pop\n        /* \"#utility.yul\":19431:19700   */\n      pop\n      pop\n      pop\n      jump\t// out\n        /* \"#utility.yul\":19706:19779   */\n    tag_397:\n        /* \"#utility.yul\":19751:19754   */\n      0x00\n        /* \"#utility.yul\":19706:19779   */\n      swap1\n      jump\t// out\n        /* \"#utility.yul\":19785:19974   */\n    tag_398:\n        /* \"#utility.yul\":19862:19894   */\n      tag_634\n      tag_397\n      jump\t// in\n    tag_634:\n        /* \"#utility.yul\":19903:19968   */\n      tag_635\n        /* \"#utility.yul\":19961:19967   */\n      dup2\n        /* \"#utility.yul\":19953:19959   */\n      dup5\n        /* \"#utility.yul\":19947:19951   */\n      dup5\n        /* \"#utility.yul\":19903:19968   */\n      tag_396\n      jump\t// in\n    tag_635:\n        /* \"#utility.yul\":19838:19974   */\n      pop\n        /* \"#utility.yul\":19785:19974   */\n      pop\n      pop\n      jump\t// out\n        /* \"#utility.yul\":19980:20166   */\n    tag_399:\n        /* \"#utility.yul\":20040:20160   */\n    tag_637:\n        /* \"#utility.yul\":20057:20060   */\n      dup2\n        /* \"#utility.yul\":20050:20055   */\n      dup2\n        /* \"#utility.yul\":20047:20061   */\n      lt\n        /* \"#utility.yul\":20040:20160   */\n      iszero\n      tag_639\n      jumpi\n        /* \"#utility.yul\":20111:20150   */\n      tag_640\n        /* \"#utility.yul\":20148:20149   */\n      0x00\n        /* \"#utility.yul\":20141:20146   */\n      dup3\n        /* \"#utility.yul\":20111:20150   */\n      tag_398\n      jump\t// in\n    tag_640:\n        /* \"#utility.yul\":20084:20085   */\n      0x01\n        /* \"#utility.yul\":20077:20082   */\n      dup2\n        /* \"#utility.yul\":20073:20086   */\n      add\n        /* \"#utility.yul\":20064:20086   */\n      swap1\n      pop\n        /* \"#utility.yul\":20040:20160   */\n      jump(tag_637)\n    tag_639:\n        /* \"#utility.yul\":19980:20166   */\n      pop\n      pop\n      jump\t// out\n        /* \"#utility.yul\":20172:20715   */\n    tag_400:\n        /* \"#utility.yul\":20273:20275   */\n      0x1f\n        /* \"#utility.yul\":20268:20271   */\n      dup3\n        /* \"#utility.yul\":20265:20276   */\n      gt\n        /* \"#utility.yul\":20262:20708   */\n      iszero\n      tag_642\n      jumpi\n        /* \"#utility.yul\":20307:20345   */\n      tag_643\n        /* \"#utility.yul\":20339:20344   */\n      dup2\n        /* \"#utility.yul\":20307:20345   */\n      tag_389\n      jump\t// in\n    tag_643:\n        /* \"#utility.yul\":20391:20420   */\n      tag_644\n        /* \"#utility.yul\":20409:20419   */\n      dup5\n        /* \"#utility.yul\":20391:20420   */\n      tag_390\n      jump\t// in\n    tag_644:\n        /* \"#utility.yul\":20381:20389   */\n      dup2\n        /* \"#utility.yul\":20377:20421   */\n      add\n        /* \"#utility.yul\":20574:20576   */\n      0x20\n        /* \"#utility.yul\":20562:20572   */\n      dup6\n        /* \"#utility.yul\":20559:20577   */\n      lt\n        /* \"#utility.yul\":20556:20605   */\n      iszero\n      tag_645\n      jumpi\n        /* \"#utility.yul\":20595:20603   */\n      dup2\n        /* \"#utility.yul\":20580:20603   */\n      swap1\n      pop\n        /* \"#utility.yul\":20556:20605   */\n    tag_645:\n        /* \"#utility.yul\":20618:20698   */\n      tag_646\n        /* \"#utility.yul\":20674:20696   */\n      tag_647\n        /* \"#utility.yul\":20692:20695   */\n      dup6\n        /* \"#utility.yul\":20674:20696   */\n      tag_390\n      jump\t// in\n    tag_647:\n        /* \"#utility.yul\":20664:20672   */\n      dup4\n        /* \"#utility.yul\":20660:20697   */\n      add\n        /* \"#utility.yul\":20647:20658   */\n      dup3\n        /* \"#utility.yul\":20618:20698   */\n      tag_399\n      jump\t// in\n    tag_646:\n        /* \"#utility.yul\":20277:20708   */\n      pop\n      pop\n        /* \"#utility.yul\":20262:20708   */\n    tag_642:\n        /* \"#utility.yul\":20172:20715   */\n      pop\n      pop\n      pop\n      jump\t// out\n        /* \"#utility.yul\":20721:20838   */\n    tag_401:\n        /* \"#utility.yul\":20775:20783   */\n      0x00\n        /* \"#utility.yul\":20825:20830   */\n      dup3\n        /* \"#utility.yul\":20819:20823   */\n      dup3\n        /* \"#utility.yul\":20815:20831   */\n      shr\n        /* \"#utility.yul\":20794:20831   */\n      swap1\n      pop\n        /* \"#utility.yul\":20721:20838   */\n      swap3\n      swap2\n      pop\n      pop\n      jump\t// out\n        /* \"#utility.yul\":20844:21013   */\n    tag_402:\n        /* \"#utility.yul\":20888:20894   */\n      0x00\n        /* \"#utility.yul\":20921:20972   */\n      tag_650\n        /* \"#utility.yul\":20969:20970   */\n      0x00\n        /* \"#utility.yul\":20965:20971   */\n      not\n        /* \"#utility.yul\":20957:20962   */\n      dup5\n        /* \"#utility.yul\":20954:20955   */\n      0x08\n        /* \"#utility.yul\":20950:20963   */\n      mul\n        /* \"#utility.yul\":20921:20972   */\n      tag_401\n      jump\t// in\n    tag_650:\n        /* \"#utility.yul\":20917:20973   */\n      not\n        /* \"#utility.yul\":21002:21006   */\n      dup1\n        /* \"#utility.yul\":20996:21000   */\n      dup4\n        /* \"#utility.yul\":20992:21007   */\n      and\n        /* \"#utility.yul\":20982:21007   */\n      swap2\n      pop\n        /* \"#utility.yul\":20895:21013   */\n      pop\n        /* \"#utility.yul\":20844:21013   */\n      swap3\n      swap2\n      pop\n      pop\n      jump\t// out\n        /* \"#utility.yul\":21018:21313   */\n    tag_403:\n        /* \"#utility.yul\":21094:21098   */\n      0x00\n        /* \"#utility.yul\":21240:21269   */\n      tag_652\n        /* \"#utility.yul\":21265:21268   */\n      dup4\n        /* \"#utility.yul\":21259:21263   */\n      dup4\n        /* \"#utility.yul\":21240:21269   */\n      tag_402\n      jump\t// in\n    tag_652:\n        /* \"#utility.yul\":21232:21269   */\n      swap2\n      pop\n        /* \"#utility.yul\":21302:21305   */\n      dup3\n        /* \"#utility.yul\":21299:21300   */\n      0x02\n        /* \"#utility.yul\":21295:21306   */\n      mul\n        /* \"#utility.yul\":21289:21293   */\n      dup3\n        /* \"#utility.yul\":21286:21307   */\n      or\n        /* \"#utility.yul\":21278:21307   */\n      swap1\n      pop\n        /* \"#utility.yul\":21018:21313   */\n      swap3\n      swap2\n      pop\n      pop\n      jump\t// out\n        /* \"#utility.yul\":21318:22713   */\n    tag_248:\n        /* \"#utility.yul\":21435:21472   */\n      tag_654\n        /* \"#utility.yul\":21468:21471   */\n      dup3\n        /* \"#utility.yul\":21435:21472   */\n      tag_347\n      jump\t// in\n    tag_654:\n        /* \"#utility.yul\":21537:21555   */\n      0xffffffffffffffff\n        /* \"#utility.yul\":21529:21535   */\n      dup2\n        /* \"#utility.yul\":21526:21556   */\n      gt\n        /* \"#utility.yul\":21523:21579   */\n      iszero\n      tag_655\n      jumpi\n        /* \"#utility.yul\":21559:21577   */\n      tag_656\n      tag_231\n      jump\t// in\n    tag_656:\n        /* \"#utility.yul\":21523:21579   */\n    tag_655:\n        /* \"#utility.yul\":21603:21641   */\n      tag_657\n        /* \"#utility.yul\":21635:21639   */\n      dup3\n        /* \"#utility.yul\":21629:21640   */\n      sload\n        /* \"#utility.yul\":21603:21641   */\n      tag_99\n      jump\t// in\n    tag_657:\n        /* \"#utility.yul\":21688:21755   */\n      tag_658\n        /* \"#utility.yul\":21748:21754   */\n      dup3\n        /* \"#utility.yul\":21740:21746   */\n      dup3\n        /* \"#utility.yul\":21734:21738   */\n      dup6\n        /* \"#utility.yul\":21688:21755   */\n      tag_400\n      jump\t// in\n    tag_658:\n        /* \"#utility.yul\":21782:21783   */\n      0x00\n        /* \"#utility.yul\":21806:21810   */\n      0x20\n        /* \"#utility.yul\":21793:21810   */\n      swap1\n      pop\n        /* \"#utility.yul\":21838:21840   */\n      0x1f\n        /* \"#utility.yul\":21830:21836   */\n      dup4\n        /* \"#utility.yul\":21827:21841   */\n      gt\n        /* \"#utility.yul\":21855:21856   */\n      0x01\n        /* \"#utility.yul\":21850:22468   */\n      dup2\n      eq\n      tag_660\n      jumpi\n        /* \"#utility.yul\":22512:22513   */\n      0x00\n        /* \"#utility.yul\":22529:22535   */\n      dup5\n        /* \"#utility.yul\":22526:22603   */\n      iszero\n      tag_661\n      jumpi\n        /* \"#utility.yul\":22578:22587   */\n      dup3\n        /* \"#utility.yul\":22573:22576   */\n      dup8\n        /* \"#utility.yul\":22569:22588   */\n      add\n        /* \"#utility.yul\":22563:22589   */\n      mload\n        /* \"#utility.yul\":22554:22589   */\n      swap1\n      pop\n        /* \"#utility.yul\":22526:22603   */\n    tag_661:\n        /* \"#utility.yul\":22629:22696   */\n      tag_662\n        /* \"#utility.yul\":22689:22695   */\n      dup6\n        /* \"#utility.yul\":22682:22687   */\n      dup3\n        /* \"#utility.yul\":22629:22696   */\n      tag_403\n      jump\t// in\n    tag_662:\n        /* \"#utility.yul\":22623:22627   */\n      dup7\n        /* \"#utility.yul\":22616:22697   */\n      sstore\n        /* \"#utility.yul\":22485:22707   */\n      pop\n        /* \"#utility.yul\":21820:22707   */\n      jump(tag_659)\n        /* \"#utility.yul\":21850:22468   */\n    tag_660:\n        /* \"#utility.yul\":21902:21906   */\n      0x1f\n        /* \"#utility.yul\":21898:21907   */\n      not\n        /* \"#utility.yul\":21890:21896   */\n      dup5\n        /* \"#utility.yul\":21886:21908   */\n      and\n        /* \"#utility.yul\":21936:21973   */\n      tag_663\n        /* \"#utility.yul\":21968:21972   */\n      dup7\n        /* \"#utility.yul\":21936:21973   */\n      tag_389\n      jump\t// in\n    tag_663:\n        /* \"#utility.yul\":21995:21996   */\n      0x00\n        /* \"#utility.yul\":22009:22217   */\n    tag_664:\n        /* \"#utility.yul\":22023:22030   */\n      dup3\n        /* \"#utility.yul\":22020:22021   */\n      dup2\n        /* \"#utility.yul\":22017:22031   */\n      lt\n        /* \"#utility.yul\":22009:22217   */\n      iszero\n      tag_666\n      jumpi\n        /* \"#utility.yul\":22102:22111   */\n      dup5\n        /* \"#utility.yul\":22097:22100   */\n      dup10\n        /* \"#utility.yul\":22093:22112   */\n      add\n        /* \"#utility.yul\":22087:22113   */\n      mload\n        /* \"#utility.yul\":22079:22085   */\n      dup3\n        /* \"#utility.yul\":22072:22114   */\n      sstore\n        /* \"#utility.yul\":22153:22154   */\n      0x01\n        /* \"#utility.yul\":22145:22151   */\n      dup3\n        /* \"#utility.yul\":22141:22155   */\n      add\n        /* \"#utility.yul\":22131:22155   */\n      swap2\n      pop\n        /* \"#utility.yul\":22200:22202   */\n      0x20\n        /* \"#utility.yul\":22189:22198   */\n      dup6\n        /* \"#utility.yul\":22185:22203   */\n      add\n        /* \"#utility.yul\":22172:22203   */\n      swap5\n      pop\n        /* \"#utility.yul\":22046:22050   */\n      0x20\n        /* \"#utility.yul\":22043:22044   */\n      dup2\n        /* \"#utility.yul\":22039:22051   */\n      add\n        /* \"#utility.yul\":22034:22051   */\n      swap1\n      pop\n        /* \"#utility.yul\":22009:22217   */\n      jump(tag_664)\n    tag_666:\n        /* \"#utility.yul\":22245:22251   */\n      dup7\n        /* \"#utility.yul\":22236:22243   */\n      dup4\n        /* \"#utility.yul\":22233:22252   */\n      lt\n        /* \"#utility.yul\":22230:22409   */\n      iszero\n      tag_667\n      jumpi\n        /* \"#utility.yul\":22303:22312   */\n      dup5\n        /* \"#utility.yul\":22298:22301   */\n      dup10\n        /* \"#utility.yul\":22294:22313   */\n      add\n        /* \"#utility.yul\":22288:22314   */\n      mload\n        /* \"#utility.yul\":22346:22394   */\n      tag_668\n        /* \"#utility.yul\":22388:22392   */\n      0x1f\n        /* \"#utility.yul\":22380:22386   */\n      dup10\n        /* \"#utility.yul\":22376:22393   */\n      and\n        /* \"#utility.yul\":22365:22374   */\n      dup3\n        /* \"#utility.yul\":22346:22394   */\n      tag_402\n      jump\t// in\n    tag_668:\n        /* \"#utility.yul\":22338:22344   */\n      dup4\n        /* \"#utility.yul\":22331:22395   */\n      sstore\n        /* \"#utility.yul\":22253:22409   */\n      pop\n        /* \"#utility.yul\":22230:22409   */\n    tag_667:\n        /* \"#utility.yul\":22455:22456   */\n      0x01\n        /* \"#utility.yul\":22451:22452   */\n      0x02\n        /* \"#utility.yul\":22443:22449   */\n      dup9\n        /* \"#utility.yul\":22439:22453   */\n      mul\n        /* \"#utility.yul\":22435:22457   */\n      add\n        /* \"#utility.yul\":22429:22433   */\n      dup9\n        /* \"#utility.yul\":22422:22458   */\n      sstore\n        /* \"#utility.yul\":21857:22468   */\n      pop\n      pop\n      pop\n        /* \"#utility.yul\":21820:22707   */\n    tag_659:\n      pop\n        /* \"#utility.yul\":21410:22713   */\n      pop\n      pop\n      pop\n        /* \"#utility.yul\":21318:22713   */\n      pop\n      pop\n      jump\t// out\n        /* \"#utility.yul\":22719:22817   */\n    tag_404:\n        /* \"#utility.yul\":22770:22776   */\n      0x00\n        /* \"#utility.yul\":22804:22809   */\n      dup2\n        /* \"#utility.yul\":22798:22810   */\n      mload\n        /* \"#utility.yul\":22788:22810   */\n      swap1\n      pop\n        /* \"#utility.yul\":22719:22817   */\n      swap2\n      swap1\n      pop\n      jump\t// out\n        /* \"#utility.yul\":22823:22991   */\n    tag_405:\n        /* \"#utility.yul\":22906:22917   */\n      0x00\n        /* \"#utility.yul\":22940:22946   */\n      dup3\n        /* \"#utility.yul\":22935:22938   */\n      dup3\n        /* \"#utility.yul\":22928:22947   */\n      mstore\n        /* \"#utility.yul\":22980:22984   */\n      0x20\n        /* \"#utility.yul\":22975:22978   */\n      dup3\n        /* \"#utility.yul\":22971:22985   */\n      add\n        /* \"#utility.yul\":22956:22985   */\n      swap1\n      pop\n        /* \"#utility.yul\":22823:22991   */\n      swap3\n      swap2\n      pop\n      pop\n      jump\t// out\n        /* \"#utility.yul\":22997:23370   */\n    tag_406:\n        /* \"#utility.yul\":23083:23086   */\n      0x00\n        /* \"#utility.yul\":23111:23149   */\n      tag_672\n        /* \"#utility.yul\":23143:23148   */\n      dup3\n        /* \"#utility.yul\":23111:23149   */\n      tag_404\n      jump\t// in\n    tag_672:\n        /* \"#utility.yul\":23165:23235   */\n      tag_673\n        /* \"#utility.yul\":23228:23234   */\n      dup2\n        /* \"#utility.yul\":23223:23226   */\n      dup6\n        /* \"#utility.yul\":23165:23235   */\n      tag_405\n      jump\t// in\n    tag_673:\n        /* \"#utility.yul\":23158:23235   */\n      swap4\n      pop\n        /* \"#utility.yul\":23244:23309   */\n      tag_674\n        /* \"#utility.yul\":23302:23308   */\n      dup2\n        /* \"#utility.yul\":23297:23300   */\n      dup6\n        /* \"#utility.yul\":23290:23294   */\n      0x20\n        /* \"#utility.yul\":23283:23288   */\n      dup7\n        /* \"#utility.yul\":23279:23295   */\n      add\n        /* \"#utility.yul\":23244:23309   */\n      tag_349\n      jump\t// in\n    tag_674:\n        /* \"#utility.yul\":23334:23363   */\n      tag_675\n        /* \"#utility.yul\":23356:23362   */\n      dup2\n        /* \"#utility.yul\":23334:23363   */\n      tag_350\n      jump\t// in\n    tag_675:\n        /* \"#utility.yul\":23329:23332   */\n      dup5\n        /* \"#utility.yul\":23325:23364   */\n      add\n        /* \"#utility.yul\":23318:23364   */\n      swap2\n      pop\n        /* \"#utility.yul\":23087:23370   */\n      pop\n        /* \"#utility.yul\":22997:23370   */\n      swap3\n      swap2\n      pop\n      pop\n      jump\t// out\n        /* \"#utility.yul\":23376:24016   */\n    tag_258:\n        /* \"#utility.yul\":23571:23575   */\n      0x00\n        /* \"#utility.yul\":23609:23612   */\n      0x80\n        /* \"#utility.yul\":23598:23607   */\n      dup3\n        /* \"#utility.yul\":23594:23613   */\n      add\n        /* \"#utility.yul\":23586:23613   */\n      swap1\n      pop\n        /* \"#utility.yul\":23623:23694   */\n      tag_677\n        /* \"#utility.yul\":23691:23692   */\n      0x00\n        /* \"#utility.yul\":23680:23689   */\n      dup4\n        /* \"#utility.yul\":23676:23693   */\n      add\n        /* \"#utility.yul\":23667:23673   */\n      dup8\n        /* \"#utility.yul\":23623:23694   */\n      tag_357\n      jump\t// in\n    tag_677:\n        /* \"#utility.yul\":23704:23776   */\n      tag_678\n        /* \"#utility.yul\":23772:23774   */\n      0x20\n        /* \"#utility.yul\":23761:23770   */\n      dup4\n        /* \"#utility.yul\":23757:23775   */\n      add\n        /* \"#utility.yul\":23748:23754   */\n      dup7\n        /* \"#utility.yul\":23704:23776   */\n      tag_357\n      jump\t// in\n    tag_678:\n        /* \"#utility.yul\":23786:23858   */\n      tag_679\n        /* \"#utility.yul\":23854:23856   */\n      0x40\n        /* \"#utility.yul\":23843:23852   */\n      dup4\n        /* \"#utility.yul\":23839:23857   */\n      add\n        /* \"#utility.yul\":23830:23836   */\n      dup6\n        /* \"#utility.yul\":23786:23858   */\n      tag_368\n      jump\t// in\n    tag_679:\n        /* \"#utility.yul\":23905:23914   */\n      dup2\n        /* \"#utility.yul\":23899:23903   */\n      dup2\n        /* \"#utility.yul\":23895:23915   */\n      sub\n        /* \"#utility.yul\":23890:23892   */\n      0x60\n        /* \"#utility.yul\":23879:23888   */\n      dup4\n        /* \"#utility.yul\":23875:23893   */\n      add\n        /* \"#utility.yul\":23868:23916   */\n      mstore\n        /* \"#utility.yul\":23933:24009   */\n      tag_680\n        /* \"#utility.yul\":24004:24008   */\n      dup2\n        /* \"#utility.yul\":23995:24001   */\n      dup5\n        /* \"#utility.yul\":23933:24009   */\n      tag_406\n      jump\t// in\n    tag_680:\n        /* \"#utility.yul\":23925:24009   */\n      swap1\n      pop\n        /* \"#utility.yul\":23376:24016   */\n      swap6\n      swap5\n      pop\n      pop\n      pop\n      pop\n      pop\n      jump\t// out\n        /* \"#utility.yul\":24022:24163   */\n    tag_407:\n        /* \"#utility.yul\":24078:24083   */\n      0x00\n        /* \"#utility.yul\":24109:24115   */\n      dup2\n        /* \"#utility.yul\":24103:24116   */\n      mload\n        /* \"#utility.yul\":24094:24116   */\n      swap1\n      pop\n        /* \"#utility.yul\":24125:24157   */\n      tag_682\n        /* \"#utility.yul\":24151:24156   */\n      dup2\n        /* \"#utility.yul\":24125:24157   */\n      tag_343\n      jump\t// in\n    tag_682:\n        /* \"#utility.yul\":24022:24163   */\n      swap3\n      swap2\n      pop\n      pop\n      jump\t// out\n        /* \"#utility.yul\":24169:24518   */\n    tag_261:\n        /* \"#utility.yul\":24238:24244   */\n      0x00\n        /* \"#utility.yul\":24287:24289   */\n      0x20\n        /* \"#utility.yul\":24275:24284   */\n      dup3\n        /* \"#utility.yul\":24266:24273   */\n      dup5\n        /* \"#utility.yul\":24262:24285   */\n      sub\n        /* \"#utility.yul\":24258:24290   */\n      slt\n        /* \"#utility.yul\":24255:24374   */\n      iszero\n      tag_684\n      jumpi\n        /* \"#utility.yul\":24293:24372   */\n      tag_685\n      tag_340\n      jump\t// in\n    tag_685:\n        /* \"#utility.yul\":24255:24374   */\n    tag_684:\n        /* \"#utility.yul\":24413:24414   */\n      0x00\n        /* \"#utility.yul\":24438:24501   */\n      tag_686\n        /* \"#utility.yul\":24493:24500   */\n      dup5\n        /* \"#utility.yul\":24484:24490   */\n      dup3\n        /* \"#utility.yul\":24473:24482   */\n      dup6\n        /* \"#utility.yul\":24469:24491   */\n      add\n        /* \"#utility.yul\":24438:24501   */\n      tag_407\n      jump\t// in\n    tag_686:\n        /* \"#utility.yul\":24428:24501   */\n      swap2\n      pop\n        /* \"#utility.yul\":24384:24511   */\n      pop\n        /* \"#utility.yul\":24169:24518   */\n      swap3\n      swap2\n      pop\n      pop\n      jump\t// out\n        /* \"#utility.yul\":24524:24856   */\n    tag_302:\n        /* \"#utility.yul\":24645:24649   */\n      0x00\n        /* \"#utility.yul\":24683:24685   */\n      0x40\n        /* \"#utility.yul\":24672:24681   */\n      dup3\n        /* \"#utility.yul\":24668:24686   */\n      add\n        /* \"#utility.yul\":24660:24686   */\n      swap1\n      pop\n        /* \"#utility.yul\":24696:24767   */\n      tag_688\n        /* \"#utility.yul\":24764:24765   */\n      0x00\n        /* \"#utility.yul\":24753:24762   */\n      dup4\n        /* \"#utility.yul\":24749:24766   */\n      add\n        /* \"#utility.yul\":24740:24746   */\n      dup6\n        /* \"#utility.yul\":24696:24767   */\n      tag_357\n      jump\t// in\n    tag_688:\n        /* \"#utility.yul\":24777:24849   */\n      tag_689\n        /* \"#utility.yul\":24845:24847   */\n      0x20\n        /* \"#utility.yul\":24834:24843   */\n      dup4\n        /* \"#utility.yul\":24830:24848   */\n      add\n        /* \"#utility.yul\":24821:24827   */\n      dup5\n        /* \"#utility.yul\":24777:24849   */\n      tag_368\n      jump\t// in\n    tag_689:\n        /* \"#utility.yul\":24524:24856   */\n      swap4\n      swap3\n      pop\n      pop\n      pop\n      jump\t// out\n    stop\n    data_7a6440c3ecb02f377d9786ee79d23a2b96849a8e6374541790822c204d6069d6 697066733a2f2f6261667962656968726e686a7634636571766c7467336d7967696669756b657479347375687a6264377132676976686265707563766c32786e32652f\n\n    auxdata: 0xa264697066735822122033891439df5ae9e84ff6b963fb0a33e8908f62268f3fcba3fd083ece6ef032bd64736f6c63430008140033\n}\n",
				"bytecode": {
					"linkReferences": {},
					"object": "6080604052604051806102c001604052806040518060400160405280600a81526020017f302054686520466f6f6c0000000000000000000000000000000000000000000081525081526020016040518060400160405280600e81526020017f4920546865204d6167696369616e00000000000000000000000000000000000081525081526020016040518060400160405280601581526020017f494920546865204869676820507269657374657373000000000000000000000081525081526020016040518060400160405280600f81526020017f4949492054686520456d7072657373000000000000000000000000000000000081525081526020016040518060400160405280600e81526020017f49562054686520456d7065726f7200000000000000000000000000000000000081525081526020016040518060400160405280601081526020017f562054686520486965726f7068616e740000000000000000000000000000000081525081526020016040518060400160405280600d81526020017f564920546865204c6f766572730000000000000000000000000000000000000081525081526020016040518060400160405280600f81526020017f564949205468652043686172696f74000000000000000000000000000000000081525081526020016040518060400160405280600d81526020017f5649494920537472656e6774680000000000000000000000000000000000000081525081526020016040518060400160405280600d81526020017f495820546865204865726d69740000000000000000000000000000000000000081525081526020016040518060400160405280601681526020017f582054686520576865656c206f6620466f7274756e650000000000000000000081525081526020016040518060400160405280600a81526020017f5849204a7573746963650000000000000000000000000000000000000000000081525081526020016040518060400160405280601281526020017f584949205468652048616e676564204d616e000000000000000000000000000081525081526020016040518060400160405280600a81526020017f584949492044656174680000000000000000000000000000000000000000000081525081526020016040518060400160405280600e81526020017f5849562054656d706572616e636500000000000000000000000000000000000081525081526020016040518060400160405280600c81526020017f58562054686520446576696c000000000000000000000000000000000000000081525081526020016040518060400160405280600d81526020017f5856492054686520546f7765720000000000000000000000000000000000000081525081526020016040518060400160405280600d81526020017f585649492054686520537461720000000000000000000000000000000000000081525081526020016040518060400160405280600e81526020017f585649494920546865204d6f6f6e00000000000000000000000000000000000081525081526020016040518060400160405280600b81526020017f584958205468652053756e00000000000000000000000000000000000000000081525081526020016040518060400160405280600c81526020017f5858204a756467656d656e74000000000000000000000000000000000000000081525081526020016040518060400160405280600d81526020017f5858492054686520576f726c6400000000000000000000000000000000000000815250815250600890601662000532929190620005d7565b503480156200053f575f80fd5b506040518060400160405280600c81526020017f417274336d69735461726f7400000000000000000000000000000000000000008152506040518060400160405280600281526020017f4154000000000000000000000000000000000000000000000000000000000000815250815f9081620005bc919062000915565b508060019081620005ce919062000915565b505050620009f9565b826016810192821562000617579160200282015b828111156200061657825182908162000605919062000915565b5091602001919060010190620005eb565b5b5090506200062691906200062a565b5090565b5b808211156200064d575f818162000643919062000651565b506001016200062b565b5090565b5080546200065f9062000715565b5f825580601f1062000672575062000691565b601f0160209004905f5260205f209081019062000690919062000694565b5b50565b5b80821115620006ad575f815f90555060010162000695565b5090565b5f81519050919050565b7f4e487b71000000000000000000000000000000000000000000000000000000005f52604160045260245ffd5b7f4e487b71000000000000000000000000000000000000000000000000000000005f52602260045260245ffd5b5f60028204905060018216806200072d57607f821691505b602082108103620007435762000742620006e8565b5b50919050565b5f819050815f5260205f209050919050565b5f6020601f8301049050919050565b5f82821b905092915050565b5f60088302620007a77fffffffffffffffffffffffffffffffffffffffffffffffffffffffffffffffff826200076a565b620007b386836200076a565b95508019841693508086168417925050509392505050565b5f819050919050565b5f819050919050565b5f620007fd620007f7620007f184620007cb565b620007d4565b620007cb565b9050919050565b5f819050919050565b6200081883620007dd565b62000830620008278262000804565b84845462000776565b825550505050565b5f90565b6200084662000838565b620008538184846200080d565b505050565b5b818110156200087a576200086e5f826200083c565b60018101905062000859565b5050565b601f821115620008c957620008938162000749565b6200089e846200075b565b81016020851015620008ae578190505b620008c6620008bd856200075b565b83018262000858565b50505b505050565b5f82821c905092915050565b5f620008eb5f1984600802620008ce565b1980831691505092915050565b5f620009058383620008da565b9150826002028217905092915050565b6200092082620006b1565b67ffffffffffffffff8111156200093c576200093b620006bb565b5b62000948825462000715565b620009558282856200087e565b5f60209050601f8311600181146200098b575f841562000976578287015190505b620009828582620008f8565b865550620009f1565b601f1984166200099b8662000749565b5f5b82811015620009c4578489015182556001820191506020850194506020810190506200099d565b86831015620009e45784890151620009e0601f891682620008da565b8355505b6001600288020188555050505b505050505050565b6128838062000a075f395ff3fe608060405234801561000f575f80fd5b5060043610610109575f3560e01c806356189236116100a0578063a22cb4651161006f578063a22cb465146102b5578063a8f137c0146102d1578063b88d4fde146102ef578063c87b56dd1461030b578063e985e9c51461033b57610109565b806356189236146102195780636352211e1461023757806370a082311461026757806395d89b411461029757610109565b806323b872dd116100dc57806323b872dd146101a75780632f5be23e146101c35780633c2b2ac1146101e157806342842e0e146101fd57610109565b806301ffc9a71461010d57806306fdde031461013d578063081812fc1461015b578063095ea7b31461018b575b5f80fd5b61012760048036038101906101229190611b1d565b61036b565b6040516101349190611b62565b60405180910390f35b6101456103cb565b6040516101529190611c05565b60405180910390f35b61017560048036038101906101709190611c58565b61045a565b6040516101829190611cc2565b60405180910390f35b6101a560048036038101906101a09190611d05565b610475565b005b6101c160048036038101906101bc9190611d43565b61048b565b005b6101cb61058a565b6040516101d89190611c05565b60405180910390f35b6101fb60048036038101906101f69190611ebf565b6107bf565b005b61021760048036038101906102129190611d43565b6107ef565b005b61022161080e565b60405161022e9190611f28565b60405180910390f35b610251600480360381019061024c9190611c58565b61081e565b60405161025e9190611cc2565b60405180910390f35b610281600480360381019061027c9190611f41565b61082f565b60405161028e9190611f28565b60405180910390f35b61029f6108e5565b6040516102ac9190611c05565b60405180910390f35b6102cf60048036038101906102ca9190611f96565b610975565b005b6102d961098b565b6040516102e69190611c05565b60405180910390f35b61030960048036038101906103049190612072565b6109a7565b005b61032560048036038101906103209190611c58565b6109c4565b6040516103329190611c05565b60405180910390f35b610355600480360381019061035091906120f2565b610acf565b6040516103629190611b62565b60405180910390f35b5f634906490660e01b7bffffffffffffffffffffffffffffffffffffffffffffffffffffffff1916827bffffffffffffffffffffffffffffffffffffffffffffffffffffffff191614806103c457506103c382610b5d565b5b9050919050565b60605f80546103d99061215d565b80601f01602080910402602001604051908101604052809291908181526020018280546104059061215d565b80156104505780601f1061042757610100808354040283529160200191610450565b820191905f5260205f20905b81548152906001019060200180831161043357829003601f168201915b5050505050905090565b5f61046482610c3e565b5061046e82610cc4565b9050919050565b6104878282610482610cfd565b610d04565b5050565b5f73ffffffffffffffffffffffffffffffffffffffff168273ffffffffffffffffffffffffffffffffffffffff16036104fb575f6040517f64a0ae920000000000000000000000000000000000000000000000000000000081526004016104f29190611cc2565b60405180910390fd5b5f61050e8383610509610cfd565b610d16565b90508373ffffffffffffffffffffffffffffffffffffffff168173ffffffffffffffffffffffffffffffffffffffff1614610584578382826040517f64283d7b00000000000000000000000000000000000000000000000000000000815260040161057b9392919061218d565b60405180910390fd5b50505050565b60605f6105976016610f21565b90505f600882601681106105ae576105ad6121c2565b5b0180546105ba9061215d565b80601f01602080910402602001604051908101604052809291908181526020018280546105e69061215d565b80156106315780601f1061060857610100808354040283529160200191610631565b820191905f5260205f20905b81548152906001019060200180831161061457829003601f168201915b5050505050905060605f6106456002610f21565b03610687576040518060400160405280600781526020017f726576657273650000000000000000000000000000000000000000000000000081525090506106c0565b6040518060400160405280600781526020017f757072696768740000000000000000000000000000000000000000000000000081525090505b5f60405180608001604052806043815260200161280b604391396106e385610f73565b6040516020016106f4929190612229565b6040516020818303038152906040529050806040516020016107169190612272565b60405160208183030381529060405290505f8360405160200161073991906122bd565b6040516020818303038152906040529050808360405160200161075d929190612229565b60405160208183030381529060405290508060405160200161077f91906122bd565b604051602081830303815290604052905080826040516020016107a3929190612229565b6040516020818303038152906040529050809550505050505090565b5f6107ca600761103d565b90506107d66007611049565b6107e08382611066565b6107ea8183611083565b505050565b61080983838360405180602001604052805f8152506109a7565b505050565b5f610819600761103d565b905090565b5f61082882610c3e565b9050919050565b5f8073ffffffffffffffffffffffffffffffffffffffff168273ffffffffffffffffffffffffffffffffffffffff16036108a0575f6040517f89c62b640000000000000000000000000000000000000000000000000000000081526004016108979190611cc2565b60405180910390fd5b60035f8373ffffffffffffffffffffffffffffffffffffffff1673ffffffffffffffffffffffffffffffffffffffff1681526020019081526020015f20549050919050565b6060600180546108f49061215d565b80601f01602080910402602001604051908101604052809291908181526020018280546109209061215d565b801561096b5780601f106109425761010080835404028352916020019161096b565b820191905f5260205f20905b81548152906001019060200180831161094e57829003601f168201915b5050505050905090565b610987610980610cfd565b83836110dd565b5050565b60405180608001604052806043815260200161280b6043913981565b6109b284848461048b565b6109be84848484611246565b50505050565b60606109cf82610c3e565b505f60065f8481526020019081526020015f2080546109ed9061215d565b80601f0160208091040260200160405190810160405280929190818152602001828054610a199061215d565b8015610a645780601f10610a3b57610100808354040283529160200191610a64565b820191905f5260205f20905b815481529060010190602001808311610a4757829003601f168201915b505050505090505f610a746113f8565b90505f815103610a88578192505050610aca565b5f82511115610abc578082604051602001610aa4929190612229565b60405160208183030381529060405292505050610aca565b610ac58461140e565b925050505b919050565b5f60055f8473ffffffffffffffffffffffffffffffffffffffff1673ffffffffffffffffffffffffffffffffffffffff1681526020019081526020015f205f8373ffffffffffffffffffffffffffffffffffffffff1673ffffffffffffffffffffffffffffffffffffffff1681526020019081526020015f205f9054906101000a900460ff16905092915050565b5f7f80ac58cd000000000000000000000000000000000000000000000000000000007bffffffffffffffffffffffffffffffffffffffffffffffffffffffff1916827bffffffffffffffffffffffffffffffffffffffffffffffffffffffff19161480610c2757507f5b5e139f000000000000000000000000000000000000000000000000000000007bffffffffffffffffffffffffffffffffffffffffffffffffffffffff1916827bffffffffffffffffffffffffffffffffffffffffffffffffffffffff1916145b80610c375750610c3682611474565b5b9050919050565b5f80610c49836114dd565b90505f73ffffffffffffffffffffffffffffffffffffffff168173ffffffffffffffffffffffffffffffffffffffff1603610cbb57826040517f7e273289000000000000000000000000000000000000000000000000000000008152600401610cb29190611f28565b60405180910390fd5b80915050919050565b5f60045f8381526020019081526020015f205f9054906101000a900473ffffffffffffffffffffffffffffffffffffffff169050919050565b5f33905090565b610d118383836001611516565b505050565b5f80610d21846114dd565b90505f73ffffffffffffffffffffffffffffffffffffffff168373ffffffffffffffffffffffffffffffffffffffff1614610d6257610d618184866116d5565b5b5f73ffffffffffffffffffffffffffffffffffffffff168173ffffffffffffffffffffffffffffffffffffffff1614610ded57610da15f855f80611516565b600160035f8373ffffffffffffffffffffffffffffffffffffffff1673ffffffffffffffffffffffffffffffffffffffff1681526020019081526020015f205f82825403925050819055505b5f73ffffffffffffffffffffffffffffffffffffffff168573ffffffffffffffffffffffffffffffffffffffff1614610e6c57600160035f8773ffffffffffffffffffffffffffffffffffffffff1673ffffffffffffffffffffffffffffffffffffffff1681526020019081526020015f205f82825401925050819055505b8460025f8681526020019081526020015f205f6101000a81548173ffffffffffffffffffffffffffffffffffffffff021916908373ffffffffffffffffffffffffffffffffffffffff160217905550838573ffffffffffffffffffffffffffffffffffffffff168273ffffffffffffffffffffffffffffffffffffffff167fddf252ad1be2c89b69c2b068fc378daa952ba7f163c4a11628f55a4df523b3ef60405160405180910390a4809150509392505050565b5f8032600143610f31919061230f565b4042604051602001610f45939291906123d0565b604051602081830303815290604052805190602001205f1c90508281610f6b9190612439565b915050919050565b60605f6001610f8184611798565b0190505f8167ffffffffffffffff811115610f9f57610f9e611d9b565b5b6040519080825280601f01601f191660200182016040528015610fd15781602001600182028036833780820191505090505b5090505f82602001820190505b600115611032578080600190039150507f3031323334353637383961626364656600000000000000000000000000000000600a86061a8153600a85816110275761102661240c565b5b0494505f8503610fde575b819350505050919050565b5f815f01549050919050565b6001815f015f82825461105c9190612469565b9250508190555050565b61107f828260405180602001604052805f8152506118e9565b5050565b8060065f8481526020019081526020015f2090816110a19190612639565b507ff8e1a15aba9398e019f0b49df1a4fde98ee17ae345cb5f6b5e2c27f5033e8ce7826040516110d19190611f28565b60405180910390a15050565b5f73ffffffffffffffffffffffffffffffffffffffff168273ffffffffffffffffffffffffffffffffffffffff160361114d57816040517f5b08ba180000000000000000000000000000000000000000000000000000000081526004016111449190611cc2565b60405180910390fd5b8060055f8573ffffffffffffffffffffffffffffffffffffffff1673ffffffffffffffffffffffffffffffffffffffff1681526020019081526020015f205f8473ffffffffffffffffffffffffffffffffffffffff1673ffffffffffffffffffffffffffffffffffffffff1681526020019081526020015f205f6101000a81548160ff0219169083151502179055508173ffffffffffffffffffffffffffffffffffffffff168373ffffffffffffffffffffffffffffffffffffffff167f17307eab39ab6107e8899845ad3d59bd9653f200f220920489ca2b5937696c31836040516112399190611b62565b60405180910390a3505050565b5f8373ffffffffffffffffffffffffffffffffffffffff163b11156113f2578273ffffffffffffffffffffffffffffffffffffffff1663150b7a02611289610cfd565b8685856040518563ffffffff1660e01b81526004016112ab949392919061275a565b6020604051808303815f875af19250505080156112e657506040513d601f19601f820116820180604052508101906112e391906127b8565b60015b611367573d805f8114611314576040519150601f19603f3d011682016040523d82523d5f602084013e611319565b606091505b505f81510361135f57836040517f64a0ae920000000000000000000000000000000000000000000000000000000081526004016113569190611cc2565b60405180910390fd5b805181602001fd5b63150b7a0260e01b7bffffffffffffffffffffffffffffffffffffffffffffffffffffffff1916817bffffffffffffffffffffffffffffffffffffffffffffffffffffffff1916146113f057836040517f64a0ae920000000000000000000000000000000000000000000000000000000081526004016113e79190611cc2565b60405180910390fd5b505b50505050565b606060405180602001604052805f815250905090565b606061141982610c3e565b505f6114236113f8565b90505f8151116114415760405180602001604052805f81525061146c565b8061144b84610f73565b60405160200161145c929190612229565b6040516020818303038152906040525b915050919050565b5f7f01ffc9a7000000000000000000000000000000000000000000000000000000007bffffffffffffffffffffffffffffffffffffffffffffffffffffffff1916827bffffffffffffffffffffffffffffffffffffffffffffffffffffffff1916149050919050565b5f60025f8381526020019081526020015f205f9054906101000a900473ffffffffffffffffffffffffffffffffffffffff169050919050565b808061154e57505f73ffffffffffffffffffffffffffffffffffffffff168273ffffffffffffffffffffffffffffffffffffffff1614155b15611680575f61155d84610c3e565b90505f73ffffffffffffffffffffffffffffffffffffffff168373ffffffffffffffffffffffffffffffffffffffff16141580156115c757508273ffffffffffffffffffffffffffffffffffffffff168173ffffffffffffffffffffffffffffffffffffffff1614155b80156115da57506115d88184610acf565b155b1561161c57826040517fa9fbf51f0000000000000000000000000000000000000000000000000000000081526004016116139190611cc2565b60405180910390fd5b811561167e57838573ffffffffffffffffffffffffffffffffffffffff168273ffffffffffffffffffffffffffffffffffffffff167f8c5be1e5ebec7d5bd14f71427d1e84f3dd0314c0f7b2291e5b200ac8c7c3b92560405160405180910390a45b505b8360045f8581526020019081526020015f205f6101000a81548173ffffffffffffffffffffffffffffffffffffffff021916908373ffffffffffffffffffffffffffffffffffffffff16021790555050505050565b6116e0838383611904565b611793575f73ffffffffffffffffffffffffffffffffffffffff168373ffffffffffffffffffffffffffffffffffffffff160361175457806040517f7e27328900000000000000000000000000000000000000000000000000000000815260040161174b9190611f28565b60405180910390fd5b81816040517f177e802f00000000000000000000000000000000000000000000000000000000815260040161178a9291906127e3565b60405180910390fd5b505050565b5f805f90507a184f03e93ff9f4daa797ed6e38ed64bf6a1f01000000000000000083106117f4577a184f03e93ff9f4daa797ed6e38ed64bf6a1f01000000000000000083816117ea576117e961240c565b5b0492506040810190505b6d04ee2d6d415b85acef81000000008310611831576d04ee2d6d415b85acef810000000083816118275761182661240c565b5b0492506020810190505b662386f26fc10000831061186057662386f26fc1000083816118565761185561240c565b5b0492506010810190505b6305f5e1008310611889576305f5e100838161187f5761187e61240c565b5b0492506008810190505b61271083106118ae5761271083816118a4576118a361240c565b5b0492506004810190505b606483106118d157606483816118c7576118c661240c565b5b0492506002810190505b600a83106118e0576001810190505b80915050919050565b6118f383836119c4565b6118ff5f848484611246565b505050565b5f8073ffffffffffffffffffffffffffffffffffffffff168373ffffffffffffffffffffffffffffffffffffffff16141580156119bb57508273ffffffffffffffffffffffffffffffffffffffff168473ffffffffffffffffffffffffffffffffffffffff16148061197c575061197b8484610acf565b5b806119ba57508273ffffffffffffffffffffffffffffffffffffffff166119a283610cc4565b73ffffffffffffffffffffffffffffffffffffffff16145b5b90509392505050565b5f73ffffffffffffffffffffffffffffffffffffffff168273ffffffffffffffffffffffffffffffffffffffff1603611a34575f6040517f64a0ae92000000000000000000000000000000000000000000000000000000008152600401611a2b9190611cc2565b60405180910390fd5b5f611a4083835f610d16565b90505f73ffffffffffffffffffffffffffffffffffffffff168173ffffffffffffffffffffffffffffffffffffffff1614611ab2575f6040517f73c6ac6e000000000000000000000000000000000000000000000000000000008152600401611aa99190611cc2565b60405180910390fd5b505050565b5f604051905090565b5f80fd5b5f80fd5b5f7fffffffff0000000000000000000000000000000000000000000000000000000082169050919050565b611afc81611ac8565b8114611b06575f80fd5b50565b5f81359050611b1781611af3565b92915050565b5f60208284031215611b3257611b31611ac0565b5b5f611b3f84828501611b09565b91505092915050565b5f8115159050919050565b611b5c81611b48565b82525050565b5f602082019050611b755f830184611b53565b92915050565b5f81519050919050565b5f82825260208201905092915050565b5f5b83811015611bb2578082015181840152602081019050611b97565b5f8484015250505050565b5f601f19601f8301169050919050565b5f611bd782611b7b565b611be18185611b85565b9350611bf1818560208601611b95565b611bfa81611bbd565b840191505092915050565b5f6020820190508181035f830152611c1d8184611bcd565b905092915050565b5f819050919050565b611c3781611c25565b8114611c41575f80fd5b50565b5f81359050611c5281611c2e565b92915050565b5f60208284031215611c6d57611c6c611ac0565b5b5f611c7a84828501611c44565b91505092915050565b5f73ffffffffffffffffffffffffffffffffffffffff82169050919050565b5f611cac82611c83565b9050919050565b611cbc81611ca2565b82525050565b5f602082019050611cd55f830184611cb3565b92915050565b611ce481611ca2565b8114611cee575f80fd5b50565b5f81359050611cff81611cdb565b92915050565b5f8060408385031215611d1b57611d1a611ac0565b5b5f611d2885828601611cf1565b9250506020611d3985828601611c44565b9150509250929050565b5f805f60608486031215611d5a57611d59611ac0565b5b5f611d6786828701611cf1565b9350506020611d7886828701611cf1565b9250506040611d8986828701611c44565b9150509250925092565b5f80fd5b5f80fd5b7f4e487b71000000000000000000000000000000000000000000000000000000005f52604160045260245ffd5b611dd182611bbd565b810181811067ffffffffffffffff82111715611df057611def611d9b565b5b80604052505050565b5f611e02611ab7565b9050611e0e8282611dc8565b919050565b5f67ffffffffffffffff821115611e2d57611e2c611d9b565b5b611e3682611bbd565b9050602081019050919050565b828183375f83830152505050565b5f611e63611e5e84611e13565b611df9565b905082815260208101848484011115611e7f57611e7e611d97565b5b611e8a848285611e43565b509392505050565b5f82601f830112611ea657611ea5611d93565b5b8135611eb6848260208601611e51565b91505092915050565b5f8060408385031215611ed557611ed4611ac0565b5b5f611ee285828601611cf1565b925050602083013567ffffffffffffffff811115611f0357611f02611ac4565b5b611f0f85828601611e92565b9150509250929050565b611f2281611c25565b82525050565b5f602082019050611f3b5f830184611f19565b92915050565b5f60208284031215611f5657611f55611ac0565b5b5f611f6384828501611cf1565b91505092915050565b611f7581611b48565b8114611f7f575f80fd5b50565b5f81359050611f9081611f6c565b92915050565b5f8060408385031215611fac57611fab611ac0565b5b5f611fb985828601611cf1565b9250506020611fca85828601611f82565b9150509250929050565b5f67ffffffffffffffff821115611fee57611fed611d9b565b5b611ff782611bbd565b9050602081019050919050565b5f61201661201184611fd4565b611df9565b90508281526020810184848401111561203257612031611d97565b5b61203d848285611e43565b509392505050565b5f82601f83011261205957612058611d93565b5b8135612069848260208601612004565b91505092915050565b5f805f806080858703121561208a57612089611ac0565b5b5f61209787828801611cf1565b94505060206120a887828801611cf1565b93505060406120b987828801611c44565b925050606085013567ffffffffffffffff8111156120da576120d9611ac4565b5b6120e687828801612045565b91505092959194509250565b5f806040838503121561210857612107611ac0565b5b5f61211585828601611cf1565b925050602061212685828601611cf1565b9150509250929050565b7f4e487b71000000000000000000000000000000000000000000000000000000005f52602260045260245ffd5b5f600282049050600182168061217457607f821691505b60208210810361218757612186612130565b5b50919050565b5f6060820190506121a05f830186611cb3565b6121ad6020830185611f19565b6121ba6040830184611cb3565b949350505050565b7f4e487b71000000000000000000000000000000000000000000000000000000005f52603260045260245ffd5b5f81905092915050565b5f61220382611b7b565b61220d81856121ef565b935061221d818560208601611b95565b80840191505092915050565b5f61223482856121f9565b915061224082846121f9565b91508190509392505050565b7f2e706e6700000000000000000000000000000000000000000000000000000000815250565b5f61227d82846121f9565b91506122888261224c565b60048201915081905092915050565b7f3b20000000000000000000000000000000000000000000000000000000000000815250565b5f6122c882846121f9565b91506122d382612297565b60028201915081905092915050565b7f4e487b71000000000000000000000000000000000000000000000000000000005f52601160045260245ffd5b5f61231982611c25565b915061232483611c25565b925082820390508181111561233c5761233b6122e2565b5b92915050565b5f8160601b9050919050565b5f61235882612342565b9050919050565b5f6123698261234e565b9050919050565b61238161237c82611ca2565b61235f565b82525050565b5f819050919050565b5f819050919050565b6123aa6123a582612387565b612390565b82525050565b5f819050919050565b6123ca6123c582611c25565b6123b0565b82525050565b5f6123db8286612370565b6014820191506123eb8285612399565b6020820191506123fb82846123b9565b602082019150819050949350505050565b7f4e487b71000000000000000000000000000000000000000000000000000000005f52601260045260245ffd5b5f61244382611c25565b915061244e83611c25565b92508261245e5761245d61240c565b5b828206905092915050565b5f61247382611c25565b915061247e83611c25565b9250828201905080821115612496576124956122e2565b5b92915050565b5f819050815f5260205f209050919050565b5f6020601f8301049050919050565b5f82821b905092915050565b5f600883026124f87fffffffffffffffffffffffffffffffffffffffffffffffffffffffffffffffff826124bd565b61250286836124bd565b95508019841693508086168417925050509392505050565b5f819050919050565b5f61253d61253861253384611c25565b61251a565b611c25565b9050919050565b5f819050919050565b61255683612523565b61256a61256282612544565b8484546124c9565b825550505050565b5f90565b61257e612572565b61258981848461254d565b505050565b5b818110156125ac576125a15f82612576565b60018101905061258f565b5050565b601f8211156125f1576125c28161249c565b6125cb846124ae565b810160208510156125da578190505b6125ee6125e6856124ae565b83018261258e565b50505b505050565b5f82821c905092915050565b5f6126115f19846008026125f6565b1980831691505092915050565b5f6126298383612602565b9150826002028217905092915050565b61264282611b7b565b67ffffffffffffffff81111561265b5761265a611d9b565b5b612665825461215d565b6126708282856125b0565b5f60209050601f8311600181146126a1575f841561268f578287015190505b612699858261261e565b865550612700565b601f1984166126af8661249c565b5f5b828110156126d6578489015182556001820191506020850194506020810190506126b1565b868310156126f357848901516126ef601f891682612602565b8355505b6001600288020188555050505b505050505050565b5f81519050919050565b5f82825260208201905092915050565b5f61272c82612708565b6127368185612712565b9350612746818560208601611b95565b61274f81611bbd565b840191505092915050565b5f60808201905061276d5f830187611cb3565b61277a6020830186611cb3565b6127876040830185611f19565b81810360608301526127998184612722565b905095945050505050565b5f815190506127b281611af3565b92915050565b5f602082840312156127cd576127cc611ac0565b5b5f6127da848285016127a4565b91505092915050565b5f6040820190506127f65f830185611cb3565b6128036020830184611f19565b939250505056fe697066733a2f2f6261667962656968726e686a7634636571766c7467336d7967696669756b657479347375687a6264377132676976686265707563766c32786e32652fa264697066735822122033891439df5ae9e84ff6b963fb0a33e8908f62268f3fcba3fd083ece6ef032bd64736f6c63430008140033",
					"opcodes": "PUSH1 0x80 PUSH1 0x40 MSTORE PUSH1 0x40 MLOAD DUP1 PUSH2 0x2C0 ADD PUSH1 0x40 MSTORE DUP1 PUSH1 0x40 MLOAD DUP1 PUSH1 0x40 ADD PUSH1 0x40 MSTORE DUP1 PUSH1 0xA DUP2 MSTORE PUSH1 0x20 ADD PUSH32 0x302054686520466F6F6C00000000000000000000000000000000000000000000 DUP2 MSTORE POP DUP2 MSTORE PUSH1 0x20 ADD PUSH1 0x40 MLOAD DUP1 PUSH1 0x40 ADD PUSH1 0x40 MSTORE DUP1 PUSH1 0xE DUP2 MSTORE PUSH1 0x20 ADD PUSH32 0x4920546865204D6167696369616E000000000000000000000000000000000000 DUP2 MSTORE POP DUP2 MSTORE PUSH1 0x20 ADD PUSH1 0x40 MLOAD DUP1 PUSH1 0x40 ADD PUSH1 0x40 MSTORE DUP1 PUSH1 0x15 DUP2 MSTORE PUSH1 0x20 ADD PUSH32 0x4949205468652048696768205072696573746573730000000000000000000000 DUP2 MSTORE POP DUP2 MSTORE PUSH1 0x20 ADD PUSH1 0x40 MLOAD DUP1 PUSH1 0x40 ADD PUSH1 0x40 MSTORE DUP1 PUSH1 0xF DUP2 MSTORE PUSH1 0x20 ADD PUSH32 0x4949492054686520456D70726573730000000000000000000000000000000000 DUP2 MSTORE POP DUP2 MSTORE PUSH1 0x20 ADD PUSH1 0x40 MLOAD DUP1 PUSH1 0x40 ADD PUSH1 0x40 MSTORE DUP1 PUSH1 0xE DUP2 MSTORE PUSH1 0x20 ADD PUSH32 0x49562054686520456D7065726F72000000000000000000000000000000000000 DUP2 MSTORE POP DUP2 MSTORE PUSH1 0x20 ADD PUSH1 0x40 MLOAD DUP1 PUSH1 0x40 ADD PUSH1 0x40 MSTORE DUP1 PUSH1 0x10 DUP2 MSTORE PUSH1 0x20 ADD PUSH32 0x562054686520486965726F7068616E7400000000000000000000000000000000 DUP2 MSTORE POP DUP2 MSTORE PUSH1 0x20 ADD PUSH1 0x40 MLOAD DUP1 PUSH1 0x40 ADD PUSH1 0x40 MSTORE DUP1 PUSH1 0xD DUP2 MSTORE PUSH1 0x20 ADD PUSH32 0x564920546865204C6F7665727300000000000000000000000000000000000000 DUP2 MSTORE POP DUP2 MSTORE PUSH1 0x20 ADD PUSH1 0x40 MLOAD DUP1 PUSH1 0x40 ADD PUSH1 0x40 MSTORE DUP1 PUSH1 0xF DUP2 MSTORE PUSH1 0x20 ADD PUSH32 0x564949205468652043686172696F740000000000000000000000000000000000 DUP2 MSTORE POP DUP2 MSTORE PUSH1 0x20 ADD PUSH1 0x40 MLOAD DUP1 PUSH1 0x40 ADD PUSH1 0x40 MSTORE DUP1 PUSH1 0xD DUP2 MSTORE PUSH1 0x20 ADD PUSH32 0x5649494920537472656E67746800000000000000000000000000000000000000 DUP2 MSTORE POP DUP2 MSTORE PUSH1 0x20 ADD PUSH1 0x40 MLOAD DUP1 PUSH1 0x40 ADD PUSH1 0x40 MSTORE DUP1 PUSH1 0xD DUP2 MSTORE PUSH1 0x20 ADD PUSH32 0x495820546865204865726D697400000000000000000000000000000000000000 DUP2 MSTORE POP DUP2 MSTORE PUSH1 0x20 ADD PUSH1 0x40 MLOAD DUP1 PUSH1 0x40 ADD PUSH1 0x40 MSTORE DUP1 PUSH1 0x16 DUP2 MSTORE PUSH1 0x20 ADD PUSH32 0x582054686520576865656C206F6620466F7274756E6500000000000000000000 DUP2 MSTORE POP DUP2 MSTORE PUSH1 0x20 ADD PUSH1 0x40 MLOAD DUP1 PUSH1 0x40 ADD PUSH1 0x40 MSTORE DUP1 PUSH1 0xA DUP2 MSTORE PUSH1 0x20 ADD PUSH32 0x5849204A75737469636500000000000000000000000000000000000000000000 DUP2 MSTORE POP DUP2 MSTORE PUSH1 0x20 ADD PUSH1 0x40 MLOAD DUP1 PUSH1 0x40 ADD PUSH1 0x40 MSTORE DUP1 PUSH1 0x12 DUP2 MSTORE PUSH1 0x20 ADD PUSH32 0x584949205468652048616E676564204D616E0000000000000000000000000000 DUP2 MSTORE POP DUP2 MSTORE PUSH1 0x20 ADD PUSH1 0x40 MLOAD DUP1 PUSH1 0x40 ADD PUSH1 0x40 MSTORE DUP1 PUSH1 0xA DUP2 MSTORE PUSH1 0x20 ADD PUSH32 0x5849494920446561746800000000000000000000000000000000000000000000 DUP2 MSTORE POP DUP2 MSTORE PUSH1 0x20 ADD PUSH1 0x40 MLOAD DUP1 PUSH1 0x40 ADD PUSH1 0x40 MSTORE DUP1 PUSH1 0xE DUP2 MSTORE PUSH1 0x20 ADD PUSH32 0x5849562054656D706572616E6365000000000000000000000000000000000000 DUP2 MSTORE POP DUP2 MSTORE PUSH1 0x20 ADD PUSH1 0x40 MLOAD DUP1 PUSH1 0x40 ADD PUSH1 0x40 MSTORE DUP1 PUSH1 0xC DUP2 MSTORE PUSH1 0x20 ADD PUSH32 0x58562054686520446576696C0000000000000000000000000000000000000000 DUP2 MSTORE POP DUP2 MSTORE PUSH1 0x20 ADD PUSH1 0x40 MLOAD DUP1 PUSH1 0x40 ADD PUSH1 0x40 MSTORE DUP1 PUSH1 0xD DUP2 MSTORE PUSH1 0x20 ADD PUSH32 0x5856492054686520546F77657200000000000000000000000000000000000000 DUP2 MSTORE POP DUP2 MSTORE PUSH1 0x20 ADD PUSH1 0x40 MLOAD DUP1 PUSH1 0x40 ADD PUSH1 0x40 MSTORE DUP1 PUSH1 0xD DUP2 MSTORE PUSH1 0x20 ADD PUSH32 0x5856494920546865205374617200000000000000000000000000000000000000 DUP2 MSTORE POP DUP2 MSTORE PUSH1 0x20 ADD PUSH1 0x40 MLOAD DUP1 PUSH1 0x40 ADD PUSH1 0x40 MSTORE DUP1 PUSH1 0xE DUP2 MSTORE PUSH1 0x20 ADD PUSH32 0x585649494920546865204D6F6F6E000000000000000000000000000000000000 DUP2 MSTORE POP DUP2 MSTORE PUSH1 0x20 ADD PUSH1 0x40 MLOAD DUP1 PUSH1 0x40 ADD PUSH1 0x40 MSTORE DUP1 PUSH1 0xB DUP2 MSTORE PUSH1 0x20 ADD PUSH32 0x584958205468652053756E000000000000000000000000000000000000000000 DUP2 MSTORE POP DUP2 MSTORE PUSH1 0x20 ADD PUSH1 0x40 MLOAD DUP1 PUSH1 0x40 ADD PUSH1 0x40 MSTORE DUP1 PUSH1 0xC DUP2 MSTORE PUSH1 0x20 ADD PUSH32 0x5858204A756467656D656E740000000000000000000000000000000000000000 DUP2 MSTORE POP DUP2 MSTORE PUSH1 0x20 ADD PUSH1 0x40 MLOAD DUP1 PUSH1 0x40 ADD PUSH1 0x40 MSTORE DUP1 PUSH1 0xD DUP2 MSTORE PUSH1 0x20 ADD PUSH32 0x5858492054686520576F726C6400000000000000000000000000000000000000 DUP2 MSTORE POP DUP2 MSTORE POP PUSH1 0x8 SWAP1 PUSH1 0x16 PUSH3 0x532 SWAP3 SWAP2 SWAP1 PUSH3 0x5D7 JUMP JUMPDEST POP CALLVALUE DUP1 ISZERO PUSH3 0x53F JUMPI PUSH0 DUP1 REVERT JUMPDEST POP PUSH1 0x40 MLOAD DUP1 PUSH1 0x40 ADD PUSH1 0x40 MSTORE DUP1 PUSH1 0xC DUP2 MSTORE PUSH1 0x20 ADD PUSH32 0x417274336D69735461726F740000000000000000000000000000000000000000 DUP2 MSTORE POP PUSH1 0x40 MLOAD DUP1 PUSH1 0x40 ADD PUSH1 0x40 MSTORE DUP1 PUSH1 0x2 DUP2 MSTORE PUSH1 0x20 ADD PUSH32 0x4154000000000000000000000000000000000000000000000000000000000000 DUP2 MSTORE POP DUP2 PUSH0 SWAP1 DUP2 PUSH3 0x5BC SWAP2 SWAP1 PUSH3 0x915 JUMP JUMPDEST POP DUP1 PUSH1 0x1 SWAP1 DUP2 PUSH3 0x5CE SWAP2 SWAP1 PUSH3 0x915 JUMP JUMPDEST POP POP POP PUSH3 0x9F9 JUMP JUMPDEST DUP3 PUSH1 0x16 DUP2 ADD SWAP3 DUP3 ISZERO PUSH3 0x617 JUMPI SWAP2 PUSH1 0x20 MUL DUP3 ADD JUMPDEST DUP3 DUP2 GT ISZERO PUSH3 0x616 JUMPI DUP3 MLOAD DUP3 SWAP1 DUP2 PUSH3 0x605 SWAP2 SWAP1 PUSH3 0x915 JUMP JUMPDEST POP SWAP2 PUSH1 0x20 ADD SWAP2 SWAP1 PUSH1 0x1 ADD SWAP1 PUSH3 0x5EB JUMP JUMPDEST JUMPDEST POP SWAP1 POP PUSH3 0x626 SWAP2 SWAP1 PUSH3 0x62A JUMP JUMPDEST POP SWAP1 JUMP JUMPDEST JUMPDEST DUP1 DUP3 GT ISZERO PUSH3 0x64D JUMPI PUSH0 DUP2 DUP2 PUSH3 0x643 SWAP2 SWAP1 PUSH3 0x651 JUMP JUMPDEST POP PUSH1 0x1 ADD PUSH3 0x62B JUMP JUMPDEST POP SWAP1 JUMP JUMPDEST POP DUP1 SLOAD PUSH3 0x65F SWAP1 PUSH3 0x715 JUMP JUMPDEST PUSH0 DUP3 SSTORE DUP1 PUSH1 0x1F LT PUSH3 0x672 JUMPI POP PUSH3 0x691 JUMP JUMPDEST PUSH1 0x1F ADD PUSH1 0x20 SWAP1 DIV SWAP1 PUSH0 MSTORE PUSH1 0x20 PUSH0 KECCAK256 SWAP1 DUP2 ADD SWAP1 PUSH3 0x690 SWAP2 SWAP1 PUSH3 0x694 JUMP JUMPDEST JUMPDEST POP JUMP JUMPDEST JUMPDEST DUP1 DUP3 GT ISZERO PUSH3 0x6AD JUMPI PUSH0 DUP2 PUSH0 SWAP1 SSTORE POP PUSH1 0x1 ADD PUSH3 0x695 JUMP JUMPDEST POP SWAP1 JUMP JUMPDEST PUSH0 DUP2 MLOAD SWAP1 POP SWAP2 SWAP1 POP JUMP JUMPDEST PUSH32 0x4E487B7100000000000000000000000000000000000000000000000000000000 PUSH0 MSTORE PUSH1 0x41 PUSH1 0x4 MSTORE PUSH1 0x24 PUSH0 REVERT JUMPDEST PUSH32 0x4E487B7100000000000000000000000000000000000000000000000000000000 PUSH0 MSTORE PUSH1 0x22 PUSH1 0x4 MSTORE PUSH1 0x24 PUSH0 REVERT JUMPDEST PUSH0 PUSH1 0x2 DUP3 DIV SWAP1 POP PUSH1 0x1 DUP3 AND DUP1 PUSH3 0x72D JUMPI PUSH1 0x7F DUP3 AND SWAP2 POP JUMPDEST PUSH1 0x20 DUP3 LT DUP2 SUB PUSH3 0x743 JUMPI PUSH3 0x742 PUSH3 0x6E8 JUMP JUMPDEST JUMPDEST POP SWAP2 SWAP1 POP JUMP JUMPDEST PUSH0 DUP2 SWAP1 POP DUP2 PUSH0 MSTORE PUSH1 0x20 PUSH0 KECCAK256 SWAP1 POP SWAP2 SWAP1 POP JUMP JUMPDEST PUSH0 PUSH1 0x20 PUSH1 0x1F DUP4 ADD DIV SWAP1 POP SWAP2 SWAP1 POP JUMP JUMPDEST PUSH0 DUP3 DUP3 SHL SWAP1 POP SWAP3 SWAP2 POP POP JUMP JUMPDEST PUSH0 PUSH1 0x8 DUP4 MUL PUSH3 0x7A7 PUSH32 0xFFFFFFFFFFFFFFFFFFFFFFFFFFFFFFFFFFFFFFFFFFFFFFFFFFFFFFFFFFFFFFFF DUP3 PUSH3 0x76A JUMP JUMPDEST PUSH3 0x7B3 DUP7 DUP4 PUSH3 0x76A JUMP JUMPDEST SWAP6 POP DUP1 NOT DUP5 AND SWAP4 POP DUP1 DUP7 AND DUP5 OR SWAP3 POP POP POP SWAP4 SWAP3 POP POP POP JUMP JUMPDEST PUSH0 DUP2 SWAP1 POP SWAP2 SWAP1 POP JUMP JUMPDEST PUSH0 DUP2 SWAP1 POP SWAP2 SWAP1 POP JUMP JUMPDEST PUSH0 PUSH3 0x7FD PUSH3 0x7F7 PUSH3 0x7F1 DUP5 PUSH3 0x7CB JUMP JUMPDEST PUSH3 0x7D4 JUMP JUMPDEST PUSH3 0x7CB JUMP JUMPDEST SWAP1 POP SWAP2 SWAP1 POP JUMP JUMPDEST PUSH0 DUP2 SWAP1 POP SWAP2 SWAP1 POP JUMP JUMPDEST PUSH3 0x818 DUP4 PUSH3 0x7DD JUMP JUMPDEST PUSH3 0x830 PUSH3 0x827 DUP3 PUSH3 0x804 JUMP JUMPDEST DUP5 DUP5 SLOAD PUSH3 0x776 JUMP JUMPDEST DUP3 SSTORE POP POP POP POP JUMP JUMPDEST PUSH0 SWAP1 JUMP JUMPDEST PUSH3 0x846 PUSH3 0x838 JUMP JUMPDEST PUSH3 0x853 DUP2 DUP5 DUP5 PUSH3 0x80D JUMP JUMPDEST POP POP POP JUMP JUMPDEST JUMPDEST DUP2 DUP2 LT ISZERO PUSH3 0x87A JUMPI PUSH3 0x86E PUSH0 DUP3 PUSH3 0x83C JUMP JUMPDEST PUSH1 0x1 DUP2 ADD SWAP1 POP PUSH3 0x859 JUMP JUMPDEST POP POP JUMP JUMPDEST PUSH1 0x1F DUP3 GT ISZERO PUSH3 0x8C9 JUMPI PUSH3 0x893 DUP2 PUSH3 0x749 JUMP JUMPDEST PUSH3 0x89E DUP5 PUSH3 0x75B JUMP JUMPDEST DUP2 ADD PUSH1 0x20 DUP6 LT ISZERO PUSH3 0x8AE JUMPI DUP2 SWAP1 POP JUMPDEST PUSH3 0x8C6 PUSH3 0x8BD DUP6 PUSH3 0x75B JUMP JUMPDEST DUP4 ADD DUP3 PUSH3 0x858 JUMP JUMPDEST POP POP JUMPDEST POP POP POP JUMP JUMPDEST PUSH0 DUP3 DUP3 SHR SWAP1 POP SWAP3 SWAP2 POP POP JUMP JUMPDEST PUSH0 PUSH3 0x8EB PUSH0 NOT DUP5 PUSH1 0x8 MUL PUSH3 0x8CE JUMP JUMPDEST NOT DUP1 DUP4 AND SWAP2 POP POP SWAP3 SWAP2 POP POP JUMP JUMPDEST PUSH0 PUSH3 0x905 DUP4 DUP4 PUSH3 0x8DA JUMP JUMPDEST SWAP2 POP DUP3 PUSH1 0x2 MUL DUP3 OR SWAP1 POP SWAP3 SWAP2 POP POP JUMP JUMPDEST PUSH3 0x920 DUP3 PUSH3 0x6B1 JUMP JUMPDEST PUSH8 0xFFFFFFFFFFFFFFFF DUP2 GT ISZERO PUSH3 0x93C JUMPI PUSH3 0x93B PUSH3 0x6BB JUMP JUMPDEST JUMPDEST PUSH3 0x948 DUP3 SLOAD PUSH3 0x715 JUMP JUMPDEST PUSH3 0x955 DUP3 DUP3 DUP6 PUSH3 0x87E JUMP JUMPDEST PUSH0 PUSH1 0x20 SWAP1 POP PUSH1 0x1F DUP4 GT PUSH1 0x1 DUP2 EQ PUSH3 0x98B JUMPI PUSH0 DUP5 ISZERO PUSH3 0x976 JUMPI DUP3 DUP8 ADD MLOAD SWAP1 POP JUMPDEST PUSH3 0x982 DUP6 DUP3 PUSH3 0x8F8 JUMP JUMPDEST DUP7 SSTORE POP PUSH3 0x9F1 JUMP JUMPDEST PUSH1 0x1F NOT DUP5 AND PUSH3 0x99B DUP7 PUSH3 0x749 JUMP JUMPDEST PUSH0 JUMPDEST DUP3 DUP2 LT ISZERO PUSH3 0x9C4 JUMPI DUP5 DUP10 ADD MLOAD DUP3 SSTORE PUSH1 0x1 DUP3 ADD SWAP2 POP PUSH1 0x20 DUP6 ADD SWAP5 POP PUSH1 0x20 DUP2 ADD SWAP1 POP PUSH3 0x99D JUMP JUMPDEST DUP7 DUP4 LT ISZERO PUSH3 0x9E4 JUMPI DUP5 DUP10 ADD MLOAD PUSH3 0x9E0 PUSH1 0x1F DUP10 AND DUP3 PUSH3 0x8DA JUMP JUMPDEST DUP4 SSTORE POP JUMPDEST PUSH1 0x1 PUSH1 0x2 DUP9 MUL ADD DUP9 SSTORE POP POP POP JUMPDEST POP POP POP POP POP POP JUMP JUMPDEST PUSH2 0x2883 DUP1 PUSH3 0xA07 PUSH0 CODECOPY PUSH0 RETURN INVALID PUSH1 0x80 PUSH1 0x40 MSTORE CALLVALUE DUP1 ISZERO PUSH2 0xF JUMPI PUSH0 DUP1 REVERT JUMPDEST POP PUSH1 0x4 CALLDATASIZE LT PUSH2 0x109 JUMPI PUSH0 CALLDATALOAD PUSH1 0xE0 SHR DUP1 PUSH4 0x56189236 GT PUSH2 0xA0 JUMPI DUP1 PUSH4 0xA22CB465 GT PUSH2 0x6F JUMPI DUP1 PUSH4 0xA22CB465 EQ PUSH2 0x2B5 JUMPI DUP1 PUSH4 0xA8F137C0 EQ PUSH2 0x2D1 JUMPI DUP1 PUSH4 0xB88D4FDE EQ PUSH2 0x2EF JUMPI DUP1 PUSH4 0xC87B56DD EQ PUSH2 0x30B JUMPI DUP1 PUSH4 0xE985E9C5 EQ PUSH2 0x33B JUMPI PUSH2 0x109 JUMP JUMPDEST DUP1 PUSH4 0x56189236 EQ PUSH2 0x219 JUMPI DUP1 PUSH4 0x6352211E EQ PUSH2 0x237 JUMPI DUP1 PUSH4 0x70A08231 EQ PUSH2 0x267 JUMPI DUP1 PUSH4 0x95D89B41 EQ PUSH2 0x297 JUMPI PUSH2 0x109 JUMP JUMPDEST DUP1 PUSH4 0x23B872DD GT PUSH2 0xDC JUMPI DUP1 PUSH4 0x23B872DD EQ PUSH2 0x1A7 JUMPI DUP1 PUSH4 0x2F5BE23E EQ PUSH2 0x1C3 JUMPI DUP1 PUSH4 0x3C2B2AC1 EQ PUSH2 0x1E1 JUMPI DUP1 PUSH4 0x42842E0E EQ PUSH2 0x1FD JUMPI PUSH2 0x109 JUMP JUMPDEST DUP1 PUSH4 0x1FFC9A7 EQ PUSH2 0x10D JUMPI DUP1 PUSH4 0x6FDDE03 EQ PUSH2 0x13D JUMPI DUP1 PUSH4 0x81812FC EQ PUSH2 0x15B JUMPI DUP1 PUSH4 0x95EA7B3 EQ PUSH2 0x18B JUMPI JUMPDEST PUSH0 DUP1 REVERT JUMPDEST PUSH2 0x127 PUSH1 0x4 DUP1 CALLDATASIZE SUB DUP2 ADD SWAP1 PUSH2 0x122 SWAP2 SWAP1 PUSH2 0x1B1D JUMP JUMPDEST PUSH2 0x36B JUMP JUMPDEST PUSH1 0x40 MLOAD PUSH2 0x134 SWAP2 SWAP1 PUSH2 0x1B62 JUMP JUMPDEST PUSH1 0x40 MLOAD DUP1 SWAP2 SUB SWAP1 RETURN JUMPDEST PUSH2 0x145 PUSH2 0x3CB JUMP JUMPDEST PUSH1 0x40 MLOAD PUSH2 0x152 SWAP2 SWAP1 PUSH2 0x1C05 JUMP JUMPDEST PUSH1 0x40 MLOAD DUP1 SWAP2 SUB SWAP1 RETURN JUMPDEST PUSH2 0x175 PUSH1 0x4 DUP1 CALLDATASIZE SUB DUP2 ADD SWAP1 PUSH2 0x170 SWAP2 SWAP1 PUSH2 0x1C58 JUMP JUMPDEST PUSH2 0x45A JUMP JUMPDEST PUSH1 0x40 MLOAD PUSH2 0x182 SWAP2 SWAP1 PUSH2 0x1CC2 JUMP JUMPDEST PUSH1 0x40 MLOAD DUP1 SWAP2 SUB SWAP1 RETURN JUMPDEST PUSH2 0x1A5 PUSH1 0x4 DUP1 CALLDATASIZE SUB DUP2 ADD SWAP1 PUSH2 0x1A0 SWAP2 SWAP1 PUSH2 0x1D05 JUMP JUMPDEST PUSH2 0x475 JUMP JUMPDEST STOP JUMPDEST PUSH2 0x1C1 PUSH1 0x4 DUP1 CALLDATASIZE SUB DUP2 ADD SWAP1 PUSH2 0x1BC SWAP2 SWAP1 PUSH2 0x1D43 JUMP JUMPDEST PUSH2 0x48B JUMP JUMPDEST STOP JUMPDEST PUSH2 0x1CB PUSH2 0x58A JUMP JUMPDEST PUSH1 0x40 MLOAD PUSH2 0x1D8 SWAP2 SWAP1 PUSH2 0x1C05 JUMP JUMPDEST PUSH1 0x40 MLOAD DUP1 SWAP2 SUB SWAP1 RETURN JUMPDEST PUSH2 0x1FB PUSH1 0x4 DUP1 CALLDATASIZE SUB DUP2 ADD SWAP1 PUSH2 0x1F6 SWAP2 SWAP1 PUSH2 0x1EBF JUMP JUMPDEST PUSH2 0x7BF JUMP JUMPDEST STOP JUMPDEST PUSH2 0x217 PUSH1 0x4 DUP1 CALLDATASIZE SUB DUP2 ADD SWAP1 PUSH2 0x212 SWAP2 SWAP1 PUSH2 0x1D43 JUMP JUMPDEST PUSH2 0x7EF JUMP JUMPDEST STOP JUMPDEST PUSH2 0x221 PUSH2 0x80E JUMP JUMPDEST PUSH1 0x40 MLOAD PUSH2 0x22E SWAP2 SWAP1 PUSH2 0x1F28 JUMP JUMPDEST PUSH1 0x40 MLOAD DUP1 SWAP2 SUB SWAP1 RETURN JUMPDEST PUSH2 0x251 PUSH1 0x4 DUP1 CALLDATASIZE SUB DUP2 ADD SWAP1 PUSH2 0x24C SWAP2 SWAP1 PUSH2 0x1C58 JUMP JUMPDEST PUSH2 0x81E JUMP JUMPDEST PUSH1 0x40 MLOAD PUSH2 0x25E SWAP2 SWAP1 PUSH2 0x1CC2 JUMP JUMPDEST PUSH1 0x40 MLOAD DUP1 SWAP2 SUB SWAP1 RETURN JUMPDEST PUSH2 0x281 PUSH1 0x4 DUP1 CALLDATASIZE SUB DUP2 ADD SWAP1 PUSH2 0x27C SWAP2 SWAP1 PUSH2 0x1F41 JUMP JUMPDEST PUSH2 0x82F JUMP JUMPDEST PUSH1 0x40 MLOAD PUSH2 0x28E SWAP2 SWAP1 PUSH2 0x1F28 JUMP JUMPDEST PUSH1 0x40 MLOAD DUP1 SWAP2 SUB SWAP1 RETURN JUMPDEST PUSH2 0x29F PUSH2 0x8E5 JUMP JUMPDEST PUSH1 0x40 MLOAD PUSH2 0x2AC SWAP2 SWAP1 PUSH2 0x1C05 JUMP JUMPDEST PUSH1 0x40 MLOAD DUP1 SWAP2 SUB SWAP1 RETURN JUMPDEST PUSH2 0x2CF PUSH1 0x4 DUP1 CALLDATASIZE SUB DUP2 ADD SWAP1 PUSH2 0x2CA SWAP2 SWAP1 PUSH2 0x1F96 JUMP JUMPDEST PUSH2 0x975 JUMP JUMPDEST STOP JUMPDEST PUSH2 0x2D9 PUSH2 0x98B JUMP JUMPDEST PUSH1 0x40 MLOAD PUSH2 0x2E6 SWAP2 SWAP1 PUSH2 0x1C05 JUMP JUMPDEST PUSH1 0x40 MLOAD DUP1 SWAP2 SUB SWAP1 RETURN JUMPDEST PUSH2 0x309 PUSH1 0x4 DUP1 CALLDATASIZE SUB DUP2 ADD SWAP1 PUSH2 0x304 SWAP2 SWAP1 PUSH2 0x2072 JUMP JUMPDEST PUSH2 0x9A7 JUMP JUMPDEST STOP JUMPDEST PUSH2 0x325 PUSH1 0x4 DUP1 CALLDATASIZE SUB DUP2 ADD SWAP1 PUSH2 0x320 SWAP2 SWAP1 PUSH2 0x1C58 JUMP JUMPDEST PUSH2 0x9C4 JUMP JUMPDEST PUSH1 0x40 MLOAD PUSH2 0x332 SWAP2 SWAP1 PUSH2 0x1C05 JUMP JUMPDEST PUSH1 0x40 MLOAD DUP1 SWAP2 SUB SWAP1 RETURN JUMPDEST PUSH2 0x355 PUSH1 0x4 DUP1 CALLDATASIZE SUB DUP2 ADD SWAP1 PUSH2 0x350 SWAP2 SWAP1 PUSH2 0x20F2 JUMP JUMPDEST PUSH2 0xACF JUMP JUMPDEST PUSH1 0x40 MLOAD PUSH2 0x362 SWAP2 SWAP1 PUSH2 0x1B62 JUMP JUMPDEST PUSH1 0x40 MLOAD DUP1 SWAP2 SUB SWAP1 RETURN JUMPDEST PUSH0 PUSH4 0x49064906 PUSH1 0xE0 SHL PUSH28 0xFFFFFFFFFFFFFFFFFFFFFFFFFFFFFFFFFFFFFFFFFFFFFFFFFFFFFFFF NOT AND DUP3 PUSH28 0xFFFFFFFFFFFFFFFFFFFFFFFFFFFFFFFFFFFFFFFFFFFFFFFFFFFFFFFF NOT AND EQ DUP1 PUSH2 0x3C4 JUMPI POP PUSH2 0x3C3 DUP3 PUSH2 0xB5D JUMP JUMPDEST JUMPDEST SWAP1 POP SWAP2 SWAP1 POP JUMP JUMPDEST PUSH1 0x60 PUSH0 DUP1 SLOAD PUSH2 0x3D9 SWAP1 PUSH2 0x215D JUMP JUMPDEST DUP1 PUSH1 0x1F ADD PUSH1 0x20 DUP1 SWAP2 DIV MUL PUSH1 0x20 ADD PUSH1 0x40 MLOAD SWAP1 DUP2 ADD PUSH1 0x40 MSTORE DUP1 SWAP3 SWAP2 SWAP1 DUP2 DUP2 MSTORE PUSH1 0x20 ADD DUP3 DUP1 SLOAD PUSH2 0x405 SWAP1 PUSH2 0x215D JUMP JUMPDEST DUP1 ISZERO PUSH2 0x450 JUMPI DUP1 PUSH1 0x1F LT PUSH2 0x427 JUMPI PUSH2 0x100 DUP1 DUP4 SLOAD DIV MUL DUP4 MSTORE SWAP2 PUSH1 0x20 ADD SWAP2 PUSH2 0x450 JUMP JUMPDEST DUP3 ADD SWAP2 SWAP1 PUSH0 MSTORE PUSH1 0x20 PUSH0 KECCAK256 SWAP1 JUMPDEST DUP2 SLOAD DUP2 MSTORE SWAP1 PUSH1 0x1 ADD SWAP1 PUSH1 0x20 ADD DUP1 DUP4 GT PUSH2 0x433 JUMPI DUP3 SWAP1 SUB PUSH1 0x1F AND DUP3 ADD SWAP2 JUMPDEST POP POP POP POP POP SWAP1 POP SWAP1 JUMP JUMPDEST PUSH0 PUSH2 0x464 DUP3 PUSH2 0xC3E JUMP JUMPDEST POP PUSH2 0x46E DUP3 PUSH2 0xCC4 JUMP JUMPDEST SWAP1 POP SWAP2 SWAP1 POP JUMP JUMPDEST PUSH2 0x487 DUP3 DUP3 PUSH2 0x482 PUSH2 0xCFD JUMP JUMPDEST PUSH2 0xD04 JUMP JUMPDEST POP POP JUMP JUMPDEST PUSH0 PUSH20 0xFFFFFFFFFFFFFFFFFFFFFFFFFFFFFFFFFFFFFFFF AND DUP3 PUSH20 0xFFFFFFFFFFFFFFFFFFFFFFFFFFFFFFFFFFFFFFFF AND SUB PUSH2 0x4FB JUMPI PUSH0 PUSH1 0x40 MLOAD PUSH32 0x64A0AE9200000000000000000000000000000000000000000000000000000000 DUP2 MSTORE PUSH1 0x4 ADD PUSH2 0x4F2 SWAP2 SWAP1 PUSH2 0x1CC2 JUMP JUMPDEST PUSH1 0x40 MLOAD DUP1 SWAP2 SUB SWAP1 REVERT JUMPDEST PUSH0 PUSH2 0x50E DUP4 DUP4 PUSH2 0x509 PUSH2 0xCFD JUMP JUMPDEST PUSH2 0xD16 JUMP JUMPDEST SWAP1 POP DUP4 PUSH20 0xFFFFFFFFFFFFFFFFFFFFFFFFFFFFFFFFFFFFFFFF AND DUP2 PUSH20 0xFFFFFFFFFFFFFFFFFFFFFFFFFFFFFFFFFFFFFFFF AND EQ PUSH2 0x584 JUMPI DUP4 DUP3 DUP3 PUSH1 0x40 MLOAD PUSH32 0x64283D7B00000000000000000000000000000000000000000000000000000000 DUP2 MSTORE PUSH1 0x4 ADD PUSH2 0x57B SWAP4 SWAP3 SWAP2 SWAP1 PUSH2 0x218D JUMP JUMPDEST PUSH1 0x40 MLOAD DUP1 SWAP2 SUB SWAP1 REVERT JUMPDEST POP POP POP POP JUMP JUMPDEST PUSH1 0x60 PUSH0 PUSH2 0x597 PUSH1 0x16 PUSH2 0xF21 JUMP JUMPDEST SWAP1 POP PUSH0 PUSH1 0x8 DUP3 PUSH1 0x16 DUP2 LT PUSH2 0x5AE JUMPI PUSH2 0x5AD PUSH2 0x21C2 JUMP JUMPDEST JUMPDEST ADD DUP1 SLOAD PUSH2 0x5BA SWAP1 PUSH2 0x215D JUMP JUMPDEST DUP1 PUSH1 0x1F ADD PUSH1 0x20 DUP1 SWAP2 DIV MUL PUSH1 0x20 ADD PUSH1 0x40 MLOAD SWAP1 DUP2 ADD PUSH1 0x40 MSTORE DUP1 SWAP3 SWAP2 SWAP1 DUP2 DUP2 MSTORE PUSH1 0x20 ADD DUP3 DUP1 SLOAD PUSH2 0x5E6 SWAP1 PUSH2 0x215D JUMP JUMPDEST DUP1 ISZERO PUSH2 0x631 JUMPI DUP1 PUSH1 0x1F LT PUSH2 0x608 JUMPI PUSH2 0x100 DUP1 DUP4 SLOAD DIV MUL DUP4 MSTORE SWAP2 PUSH1 0x20 ADD SWAP2 PUSH2 0x631 JUMP JUMPDEST DUP3 ADD SWAP2 SWAP1 PUSH0 MSTORE PUSH1 0x20 PUSH0 KECCAK256 SWAP1 JUMPDEST DUP2 SLOAD DUP2 MSTORE SWAP1 PUSH1 0x1 ADD SWAP1 PUSH1 0x20 ADD DUP1 DUP4 GT PUSH2 0x614 JUMPI DUP3 SWAP1 SUB PUSH1 0x1F AND DUP3 ADD SWAP2 JUMPDEST POP POP POP POP POP SWAP1 POP PUSH1 0x60 PUSH0 PUSH2 0x645 PUSH1 0x2 PUSH2 0xF21 JUMP JUMPDEST SUB PUSH2 0x687 JUMPI PUSH1 0x40 MLOAD DUP1 PUSH1 0x40 ADD PUSH1 0x40 MSTORE DUP1 PUSH1 0x7 DUP2 MSTORE PUSH1 0x20 ADD PUSH32 0x7265766572736500000000000000000000000000000000000000000000000000 DUP2 MSTORE POP SWAP1 POP PUSH2 0x6C0 JUMP JUMPDEST PUSH1 0x40 MLOAD DUP1 PUSH1 0x40 ADD PUSH1 0x40 MSTORE DUP1 PUSH1 0x7 DUP2 MSTORE PUSH1 0x20 ADD PUSH32 0x7570726967687400000000000000000000000000000000000000000000000000 DUP2 MSTORE POP SWAP1 POP JUMPDEST PUSH0 PUSH1 0x40 MLOAD DUP1 PUSH1 0x80 ADD PUSH1 0x40 MSTORE DUP1 PUSH1 0x43 DUP2 MSTORE PUSH1 0x20 ADD PUSH2 0x280B PUSH1 0x43 SWAP2 CODECOPY PUSH2 0x6E3 DUP6 PUSH2 0xF73 JUMP JUMPDEST PUSH1 0x40 MLOAD PUSH1 0x20 ADD PUSH2 0x6F4 SWAP3 SWAP2 SWAP1 PUSH2 0x2229 JUMP JUMPDEST PUSH1 0x40 MLOAD PUSH1 0x20 DUP2 DUP4 SUB SUB DUP2 MSTORE SWAP1 PUSH1 0x40 MSTORE SWAP1 POP DUP1 PUSH1 0x40 MLOAD PUSH1 0x20 ADD PUSH2 0x716 SWAP2 SWAP1 PUSH2 0x2272 JUMP JUMPDEST PUSH1 0x40 MLOAD PUSH1 0x20 DUP2 DUP4 SUB SUB DUP2 MSTORE SWAP1 PUSH1 0x40 MSTORE SWAP1 POP PUSH0 DUP4 PUSH1 0x40 MLOAD PUSH1 0x20 ADD PUSH2 0x739 SWAP2 SWAP1 PUSH2 0x22BD JUMP JUMPDEST PUSH1 0x40 MLOAD PUSH1 0x20 DUP2 DUP4 SUB SUB DUP2 MSTORE SWAP1 PUSH1 0x40 MSTORE SWAP1 POP DUP1 DUP4 PUSH1 0x40 MLOAD PUSH1 0x20 ADD PUSH2 0x75D SWAP3 SWAP2 SWAP1 PUSH2 0x2229 JUMP JUMPDEST PUSH1 0x40 MLOAD PUSH1 0x20 DUP2 DUP4 SUB SUB DUP2 MSTORE SWAP1 PUSH1 0x40 MSTORE SWAP1 POP DUP1 PUSH1 0x40 MLOAD PUSH1 0x20 ADD PUSH2 0x77F SWAP2 SWAP1 PUSH2 0x22BD JUMP JUMPDEST PUSH1 0x40 MLOAD PUSH1 0x20 DUP2 DUP4 SUB SUB DUP2 MSTORE SWAP1 PUSH1 0x40 MSTORE SWAP1 POP DUP1 DUP3 PUSH1 0x40 MLOAD PUSH1 0x20 ADD PUSH2 0x7A3 SWAP3 SWAP2 SWAP1 PUSH2 0x2229 JUMP JUMPDEST PUSH1 0x40 MLOAD PUSH1 0x20 DUP2 DUP4 SUB SUB DUP2 MSTORE SWAP1 PUSH1 0x40 MSTORE SWAP1 POP DUP1 SWAP6 POP POP POP POP POP POP SWAP1 JUMP JUMPDEST PUSH0 PUSH2 0x7CA PUSH1 0x7 PUSH2 0x103D JUMP JUMPDEST SWAP1 POP PUSH2 0x7D6 PUSH1 0x7 PUSH2 0x1049 JUMP JUMPDEST PUSH2 0x7E0 DUP4 DUP3 PUSH2 0x1066 JUMP JUMPDEST PUSH2 0x7EA DUP2 DUP4 PUSH2 0x1083 JUMP JUMPDEST POP POP POP JUMP JUMPDEST PUSH2 0x809 DUP4 DUP4 DUP4 PUSH1 0x40 MLOAD DUP1 PUSH1 0x20 ADD PUSH1 0x40 MSTORE DUP1 PUSH0 DUP2 MSTORE POP PUSH2 0x9A7 JUMP JUMPDEST POP POP POP JUMP JUMPDEST PUSH0 PUSH2 0x819 PUSH1 0x7 PUSH2 0x103D JUMP JUMPDEST SWAP1 POP SWAP1 JUMP JUMPDEST PUSH0 PUSH2 0x828 DUP3 PUSH2 0xC3E JUMP JUMPDEST SWAP1 POP SWAP2 SWAP1 POP JUMP JUMPDEST PUSH0 DUP1 PUSH20 0xFFFFFFFFFFFFFFFFFFFFFFFFFFFFFFFFFFFFFFFF AND DUP3 PUSH20 0xFFFFFFFFFFFFFFFFFFFFFFFFFFFFFFFFFFFFFFFF AND SUB PUSH2 0x8A0 JUMPI PUSH0 PUSH1 0x40 MLOAD PUSH32 0x89C62B6400000000000000000000000000000000000000000000000000000000 DUP2 MSTORE PUSH1 0x4 ADD PUSH2 0x897 SWAP2 SWAP1 PUSH2 0x1CC2 JUMP JUMPDEST PUSH1 0x40 MLOAD DUP1 SWAP2 SUB SWAP1 REVERT JUMPDEST PUSH1 0x3 PUSH0 DUP4 PUSH20 0xFFFFFFFFFFFFFFFFFFFFFFFFFFFFFFFFFFFFFFFF AND PUSH20 0xFFFFFFFFFFFFFFFFFFFFFFFFFFFFFFFFFFFFFFFF AND DUP2 MSTORE PUSH1 0x20 ADD SWAP1 DUP2 MSTORE PUSH1 0x20 ADD PUSH0 KECCAK256 SLOAD SWAP1 POP SWAP2 SWAP1 POP JUMP JUMPDEST PUSH1 0x60 PUSH1 0x1 DUP1 SLOAD PUSH2 0x8F4 SWAP1 PUSH2 0x215D JUMP JUMPDEST DUP1 PUSH1 0x1F ADD PUSH1 0x20 DUP1 SWAP2 DIV MUL PUSH1 0x20 ADD PUSH1 0x40 MLOAD SWAP1 DUP2 ADD PUSH1 0x40 MSTORE DUP1 SWAP3 SWAP2 SWAP1 DUP2 DUP2 MSTORE PUSH1 0x20 ADD DUP3 DUP1 SLOAD PUSH2 0x920 SWAP1 PUSH2 0x215D JUMP JUMPDEST DUP1 ISZERO PUSH2 0x96B JUMPI DUP1 PUSH1 0x1F LT PUSH2 0x942 JUMPI PUSH2 0x100 DUP1 DUP4 SLOAD DIV MUL DUP4 MSTORE SWAP2 PUSH1 0x20 ADD SWAP2 PUSH2 0x96B JUMP JUMPDEST DUP3 ADD SWAP2 SWAP1 PUSH0 MSTORE PUSH1 0x20 PUSH0 KECCAK256 SWAP1 JUMPDEST DUP2 SLOAD DUP2 MSTORE SWAP1 PUSH1 0x1 ADD SWAP1 PUSH1 0x20 ADD DUP1 DUP4 GT PUSH2 0x94E JUMPI DUP3 SWAP1 SUB PUSH1 0x1F AND DUP3 ADD SWAP2 JUMPDEST POP POP POP POP POP SWAP1 POP SWAP1 JUMP JUMPDEST PUSH2 0x987 PUSH2 0x980 PUSH2 0xCFD JUMP JUMPDEST DUP4 DUP4 PUSH2 0x10DD JUMP JUMPDEST POP POP JUMP JUMPDEST PUSH1 0x40 MLOAD DUP1 PUSH1 0x80 ADD PUSH1 0x40 MSTORE DUP1 PUSH1 0x43 DUP2 MSTORE PUSH1 0x20 ADD PUSH2 0x280B PUSH1 0x43 SWAP2 CODECOPY DUP2 JUMP JUMPDEST PUSH2 0x9B2 DUP5 DUP5 DUP5 PUSH2 0x48B JUMP JUMPDEST PUSH2 0x9BE DUP5 DUP5 DUP5 DUP5 PUSH2 0x1246 JUMP JUMPDEST POP POP POP POP JUMP JUMPDEST PUSH1 0x60 PUSH2 0x9CF DUP3 PUSH2 0xC3E JUMP JUMPDEST POP PUSH0 PUSH1 0x6 PUSH0 DUP5 DUP2 MSTORE PUSH1 0x20 ADD SWAP1 DUP2 MSTORE PUSH1 0x20 ADD PUSH0 KECCAK256 DUP1 SLOAD PUSH2 0x9ED SWAP1 PUSH2 0x215D JUMP JUMPDEST DUP1 PUSH1 0x1F ADD PUSH1 0x20 DUP1 SWAP2 DIV MUL PUSH1 0x20 ADD PUSH1 0x40 MLOAD SWAP1 DUP2 ADD PUSH1 0x40 MSTORE DUP1 SWAP3 SWAP2 SWAP1 DUP2 DUP2 MSTORE PUSH1 0x20 ADD DUP3 DUP1 SLOAD PUSH2 0xA19 SWAP1 PUSH2 0x215D JUMP JUMPDEST DUP1 ISZERO PUSH2 0xA64 JUMPI DUP1 PUSH1 0x1F LT PUSH2 0xA3B JUMPI PUSH2 0x100 DUP1 DUP4 SLOAD DIV MUL DUP4 MSTORE SWAP2 PUSH1 0x20 ADD SWAP2 PUSH2 0xA64 JUMP JUMPDEST DUP3 ADD SWAP2 SWAP1 PUSH0 MSTORE PUSH1 0x20 PUSH0 KECCAK256 SWAP1 JUMPDEST DUP2 SLOAD DUP2 MSTORE SWAP1 PUSH1 0x1 ADD SWAP1 PUSH1 0x20 ADD DUP1 DUP4 GT PUSH2 0xA47 JUMPI DUP3 SWAP1 SUB PUSH1 0x1F AND DUP3 ADD SWAP2 JUMPDEST POP POP POP POP POP SWAP1 POP PUSH0 PUSH2 0xA74 PUSH2 0x13F8 JUMP JUMPDEST SWAP1 POP PUSH0 DUP2 MLOAD SUB PUSH2 0xA88 JUMPI DUP2 SWAP3 POP POP POP PUSH2 0xACA JUMP JUMPDEST PUSH0 DUP3 MLOAD GT ISZERO PUSH2 0xABC JUMPI DUP1 DUP3 PUSH1 0x40 MLOAD PUSH1 0x20 ADD PUSH2 0xAA4 SWAP3 SWAP2 SWAP1 PUSH2 0x2229 JUMP JUMPDEST PUSH1 0x40 MLOAD PUSH1 0x20 DUP2 DUP4 SUB SUB DUP2 MSTORE SWAP1 PUSH1 0x40 MSTORE SWAP3 POP POP POP PUSH2 0xACA JUMP JUMPDEST PUSH2 0xAC5 DUP5 PUSH2 0x140E JUMP JUMPDEST SWAP3 POP POP POP JUMPDEST SWAP2 SWAP1 POP JUMP JUMPDEST PUSH0 PUSH1 0x5 PUSH0 DUP5 PUSH20 0xFFFFFFFFFFFFFFFFFFFFFFFFFFFFFFFFFFFFFFFF AND PUSH20 0xFFFFFFFFFFFFFFFFFFFFFFFFFFFFFFFFFFFFFFFF AND DUP2 MSTORE PUSH1 0x20 ADD SWAP1 DUP2 MSTORE PUSH1 0x20 ADD PUSH0 KECCAK256 PUSH0 DUP4 PUSH20 0xFFFFFFFFFFFFFFFFFFFFFFFFFFFFFFFFFFFFFFFF AND PUSH20 0xFFFFFFFFFFFFFFFFFFFFFFFFFFFFFFFFFFFFFFFF AND DUP2 MSTORE PUSH1 0x20 ADD SWAP1 DUP2 MSTORE PUSH1 0x20 ADD PUSH0 KECCAK256 PUSH0 SWAP1 SLOAD SWAP1 PUSH2 0x100 EXP SWAP1 DIV PUSH1 0xFF AND SWAP1 POP SWAP3 SWAP2 POP POP JUMP JUMPDEST PUSH0 PUSH32 0x80AC58CD00000000000000000000000000000000000000000000000000000000 PUSH28 0xFFFFFFFFFFFFFFFFFFFFFFFFFFFFFFFFFFFFFFFFFFFFFFFFFFFFFFFF NOT AND DUP3 PUSH28 0xFFFFFFFFFFFFFFFFFFFFFFFFFFFFFFFFFFFFFFFFFFFFFFFFFFFFFFFF NOT AND EQ DUP1 PUSH2 0xC27 JUMPI POP PUSH32 0x5B5E139F00000000000000000000000000000000000000000000000000000000 PUSH28 0xFFFFFFFFFFFFFFFFFFFFFFFFFFFFFFFFFFFFFFFFFFFFFFFFFFFFFFFF NOT AND DUP3 PUSH28 0xFFFFFFFFFFFFFFFFFFFFFFFFFFFFFFFFFFFFFFFFFFFFFFFFFFFFFFFF NOT AND EQ JUMPDEST DUP1 PUSH2 0xC37 JUMPI POP PUSH2 0xC36 DUP3 PUSH2 0x1474 JUMP JUMPDEST JUMPDEST SWAP1 POP SWAP2 SWAP1 POP JUMP JUMPDEST PUSH0 DUP1 PUSH2 0xC49 DUP4 PUSH2 0x14DD JUMP JUMPDEST SWAP1 POP PUSH0 PUSH20 0xFFFFFFFFFFFFFFFFFFFFFFFFFFFFFFFFFFFFFFFF AND DUP2 PUSH20 0xFFFFFFFFFFFFFFFFFFFFFFFFFFFFFFFFFFFFFFFF AND SUB PUSH2 0xCBB JUMPI DUP3 PUSH1 0x40 MLOAD PUSH32 0x7E27328900000000000000000000000000000000000000000000000000000000 DUP2 MSTORE PUSH1 0x4 ADD PUSH2 0xCB2 SWAP2 SWAP1 PUSH2 0x1F28 JUMP JUMPDEST PUSH1 0x40 MLOAD DUP1 SWAP2 SUB SWAP1 REVERT JUMPDEST DUP1 SWAP2 POP POP SWAP2 SWAP1 POP JUMP JUMPDEST PUSH0 PUSH1 0x4 PUSH0 DUP4 DUP2 MSTORE PUSH1 0x20 ADD SWAP1 DUP2 MSTORE PUSH1 0x20 ADD PUSH0 KECCAK256 PUSH0 SWAP1 SLOAD SWAP1 PUSH2 0x100 EXP SWAP1 DIV PUSH20 0xFFFFFFFFFFFFFFFFFFFFFFFFFFFFFFFFFFFFFFFF AND SWAP1 POP SWAP2 SWAP1 POP JUMP JUMPDEST PUSH0 CALLER SWAP1 POP SWAP1 JUMP JUMPDEST PUSH2 0xD11 DUP4 DUP4 DUP4 PUSH1 0x1 PUSH2 0x1516 JUMP JUMPDEST POP POP POP JUMP JUMPDEST PUSH0 DUP1 PUSH2 0xD21 DUP5 PUSH2 0x14DD JUMP JUMPDEST SWAP1 POP PUSH0 PUSH20 0xFFFFFFFFFFFFFFFFFFFFFFFFFFFFFFFFFFFFFFFF AND DUP4 PUSH20 0xFFFFFFFFFFFFFFFFFFFFFFFFFFFFFFFFFFFFFFFF AND EQ PUSH2 0xD62 JUMPI PUSH2 0xD61 DUP2 DUP5 DUP7 PUSH2 0x16D5 JUMP JUMPDEST JUMPDEST PUSH0 PUSH20 0xFFFFFFFFFFFFFFFFFFFFFFFFFFFFFFFFFFFFFFFF AND DUP2 PUSH20 0xFFFFFFFFFFFFFFFFFFFFFFFFFFFFFFFFFFFFFFFF AND EQ PUSH2 0xDED JUMPI PUSH2 0xDA1 PUSH0 DUP6 PUSH0 DUP1 PUSH2 0x1516 JUMP JUMPDEST PUSH1 0x1 PUSH1 0x3 PUSH0 DUP4 PUSH20 0xFFFFFFFFFFFFFFFFFFFFFFFFFFFFFFFFFFFFFFFF AND PUSH20 0xFFFFFFFFFFFFFFFFFFFFFFFFFFFFFFFFFFFFFFFF AND DUP2 MSTORE PUSH1 0x20 ADD SWAP1 DUP2 MSTORE PUSH1 0x20 ADD PUSH0 KECCAK256 PUSH0 DUP3 DUP3 SLOAD SUB SWAP3 POP POP DUP2 SWAP1 SSTORE POP JUMPDEST PUSH0 PUSH20 0xFFFFFFFFFFFFFFFFFFFFFFFFFFFFFFFFFFFFFFFF AND DUP6 PUSH20 0xFFFFFFFFFFFFFFFFFFFFFFFFFFFFFFFFFFFFFFFF AND EQ PUSH2 0xE6C JUMPI PUSH1 0x1 PUSH1 0x3 PUSH0 DUP8 PUSH20 0xFFFFFFFFFFFFFFFFFFFFFFFFFFFFFFFFFFFFFFFF AND PUSH20 0xFFFFFFFFFFFFFFFFFFFFFFFFFFFFFFFFFFFFFFFF AND DUP2 MSTORE PUSH1 0x20 ADD SWAP1 DUP2 MSTORE PUSH1 0x20 ADD PUSH0 KECCAK256 PUSH0 DUP3 DUP3 SLOAD ADD SWAP3 POP POP DUP2 SWAP1 SSTORE POP JUMPDEST DUP5 PUSH1 0x2 PUSH0 DUP7 DUP2 MSTORE PUSH1 0x20 ADD SWAP1 DUP2 MSTORE PUSH1 0x20 ADD PUSH0 KECCAK256 PUSH0 PUSH2 0x100 EXP DUP2 SLOAD DUP2 PUSH20 0xFFFFFFFFFFFFFFFFFFFFFFFFFFFFFFFFFFFFFFFF MUL NOT AND SWAP1 DUP4 PUSH20 0xFFFFFFFFFFFFFFFFFFFFFFFFFFFFFFFFFFFFFFFF AND MUL OR SWAP1 SSTORE POP DUP4 DUP6 PUSH20 0xFFFFFFFFFFFFFFFFFFFFFFFFFFFFFFFFFFFFFFFF AND DUP3 PUSH20 0xFFFFFFFFFFFFFFFFFFFFFFFFFFFFFFFFFFFFFFFF AND PUSH32 0xDDF252AD1BE2C89B69C2B068FC378DAA952BA7F163C4A11628F55A4DF523B3EF PUSH1 0x40 MLOAD PUSH1 0x40 MLOAD DUP1 SWAP2 SUB SWAP1 LOG4 DUP1 SWAP2 POP POP SWAP4 SWAP3 POP POP POP JUMP JUMPDEST PUSH0 DUP1 ORIGIN PUSH1 0x1 NUMBER PUSH2 0xF31 SWAP2 SWAP1 PUSH2 0x230F JUMP JUMPDEST BLOCKHASH TIMESTAMP PUSH1 0x40 MLOAD PUSH1 0x20 ADD PUSH2 0xF45 SWAP4 SWAP3 SWAP2 SWAP1 PUSH2 0x23D0 JUMP JUMPDEST PUSH1 0x40 MLOAD PUSH1 0x20 DUP2 DUP4 SUB SUB DUP2 MSTORE SWAP1 PUSH1 0x40 MSTORE DUP1 MLOAD SWAP1 PUSH1 0x20 ADD KECCAK256 PUSH0 SHR SWAP1 POP DUP3 DUP2 PUSH2 0xF6B SWAP2 SWAP1 PUSH2 0x2439 JUMP JUMPDEST SWAP2 POP POP SWAP2 SWAP1 POP JUMP JUMPDEST PUSH1 0x60 PUSH0 PUSH1 0x1 PUSH2 0xF81 DUP5 PUSH2 0x1798 JUMP JUMPDEST ADD SWAP1 POP PUSH0 DUP2 PUSH8 0xFFFFFFFFFFFFFFFF DUP2 GT ISZERO PUSH2 0xF9F JUMPI PUSH2 0xF9E PUSH2 0x1D9B JUMP JUMPDEST JUMPDEST PUSH1 0x40 MLOAD SWAP1 DUP1 DUP3 MSTORE DUP1 PUSH1 0x1F ADD PUSH1 0x1F NOT AND PUSH1 0x20 ADD DUP3 ADD PUSH1 0x40 MSTORE DUP1 ISZERO PUSH2 0xFD1 JUMPI DUP2 PUSH1 0x20 ADD PUSH1 0x1 DUP3 MUL DUP1 CALLDATASIZE DUP4 CALLDATACOPY DUP1 DUP3 ADD SWAP2 POP POP SWAP1 POP JUMPDEST POP SWAP1 POP PUSH0 DUP3 PUSH1 0x20 ADD DUP3 ADD SWAP1 POP JUMPDEST PUSH1 0x1 ISZERO PUSH2 0x1032 JUMPI DUP1 DUP1 PUSH1 0x1 SWAP1 SUB SWAP2 POP POP PUSH32 0x3031323334353637383961626364656600000000000000000000000000000000 PUSH1 0xA DUP7 MOD BYTE DUP2 MSTORE8 PUSH1 0xA DUP6 DUP2 PUSH2 0x1027 JUMPI PUSH2 0x1026 PUSH2 0x240C JUMP JUMPDEST JUMPDEST DIV SWAP5 POP PUSH0 DUP6 SUB PUSH2 0xFDE JUMPI JUMPDEST DUP2 SWAP4 POP POP POP POP SWAP2 SWAP1 POP JUMP JUMPDEST PUSH0 DUP2 PUSH0 ADD SLOAD SWAP1 POP SWAP2 SWAP1 POP JUMP JUMPDEST PUSH1 0x1 DUP2 PUSH0 ADD PUSH0 DUP3 DUP3 SLOAD PUSH2 0x105C SWAP2 SWAP1 PUSH2 0x2469 JUMP JUMPDEST SWAP3 POP POP DUP2 SWAP1 SSTORE POP POP JUMP JUMPDEST PUSH2 0x107F DUP3 DUP3 PUSH1 0x40 MLOAD DUP1 PUSH1 0x20 ADD PUSH1 0x40 MSTORE DUP1 PUSH0 DUP2 MSTORE POP PUSH2 0x18E9 JUMP JUMPDEST POP POP JUMP JUMPDEST DUP1 PUSH1 0x6 PUSH0 DUP5 DUP2 MSTORE PUSH1 0x20 ADD SWAP1 DUP2 MSTORE PUSH1 0x20 ADD PUSH0 KECCAK256 SWAP1 DUP2 PUSH2 0x10A1 SWAP2 SWAP1 PUSH2 0x2639 JUMP JUMPDEST POP PUSH32 0xF8E1A15ABA9398E019F0B49DF1A4FDE98EE17AE345CB5F6B5E2C27F5033E8CE7 DUP3 PUSH1 0x40 MLOAD PUSH2 0x10D1 SWAP2 SWAP1 PUSH2 0x1F28 JUMP JUMPDEST PUSH1 0x40 MLOAD DUP1 SWAP2 SUB SWAP1 LOG1 POP POP JUMP JUMPDEST PUSH0 PUSH20 0xFFFFFFFFFFFFFFFFFFFFFFFFFFFFFFFFFFFFFFFF AND DUP3 PUSH20 0xFFFFFFFFFFFFFFFFFFFFFFFFFFFFFFFFFFFFFFFF AND SUB PUSH2 0x114D JUMPI DUP2 PUSH1 0x40 MLOAD PUSH32 0x5B08BA1800000000000000000000000000000000000000000000000000000000 DUP2 MSTORE PUSH1 0x4 ADD PUSH2 0x1144 SWAP2 SWAP1 PUSH2 0x1CC2 JUMP JUMPDEST PUSH1 0x40 MLOAD DUP1 SWAP2 SUB SWAP1 REVERT JUMPDEST DUP1 PUSH1 0x5 PUSH0 DUP6 PUSH20 0xFFFFFFFFFFFFFFFFFFFFFFFFFFFFFFFFFFFFFFFF AND PUSH20 0xFFFFFFFFFFFFFFFFFFFFFFFFFFFFFFFFFFFFFFFF AND DUP2 MSTORE PUSH1 0x20 ADD SWAP1 DUP2 MSTORE PUSH1 0x20 ADD PUSH0 KECCAK256 PUSH0 DUP5 PUSH20 0xFFFFFFFFFFFFFFFFFFFFFFFFFFFFFFFFFFFFFFFF AND PUSH20 0xFFFFFFFFFFFFFFFFFFFFFFFFFFFFFFFFFFFFFFFF AND DUP2 MSTORE PUSH1 0x20 ADD SWAP1 DUP2 MSTORE PUSH1 0x20 ADD PUSH0 KECCAK256 PUSH0 PUSH2 0x100 EXP DUP2 SLOAD DUP2 PUSH1 0xFF MUL NOT AND SWAP1 DUP4 ISZERO ISZERO MUL OR SWAP1 SSTORE POP DUP2 PUSH20 0xFFFFFFFFFFFFFFFFFFFFFFFFFFFFFFFFFFFFFFFF AND DUP4 PUSH20 0xFFFFFFFFFFFFFFFFFFFFFFFFFFFFFFFFFFFFFFFF AND PUSH32 0x17307EAB39AB6107E8899845AD3D59BD9653F200F220920489CA2B5937696C31 DUP4 PUSH1 0x40 MLOAD PUSH2 0x1239 SWAP2 SWAP1 PUSH2 0x1B62 JUMP JUMPDEST PUSH1 0x40 MLOAD DUP1 SWAP2 SUB SWAP1 LOG3 POP POP POP JUMP JUMPDEST PUSH0 DUP4 PUSH20 0xFFFFFFFFFFFFFFFFFFFFFFFFFFFFFFFFFFFFFFFF AND EXTCODESIZE GT ISZERO PUSH2 0x13F2 JUMPI DUP3 PUSH20 0xFFFFFFFFFFFFFFFFFFFFFFFFFFFFFFFFFFFFFFFF AND PUSH4 0x150B7A02 PUSH2 0x1289 PUSH2 0xCFD JUMP JUMPDEST DUP7 DUP6 DUP6 PUSH1 0x40 MLOAD DUP6 PUSH4 0xFFFFFFFF AND PUSH1 0xE0 SHL DUP2 MSTORE PUSH1 0x4 ADD PUSH2 0x12AB SWAP5 SWAP4 SWAP3 SWAP2 SWAP1 PUSH2 0x275A JUMP JUMPDEST PUSH1 0x20 PUSH1 0x40 MLOAD DUP1 DUP4 SUB DUP2 PUSH0 DUP8 GAS CALL SWAP3 POP POP POP DUP1 ISZERO PUSH2 0x12E6 JUMPI POP PUSH1 0x40 MLOAD RETURNDATASIZE PUSH1 0x1F NOT PUSH1 0x1F DUP3 ADD AND DUP3 ADD DUP1 PUSH1 0x40 MSTORE POP DUP2 ADD SWAP1 PUSH2 0x12E3 SWAP2 SWAP1 PUSH2 0x27B8 JUMP JUMPDEST PUSH1 0x1 JUMPDEST PUSH2 0x1367 JUMPI RETURNDATASIZE DUP1 PUSH0 DUP2 EQ PUSH2 0x1314 JUMPI PUSH1 0x40 MLOAD SWAP2 POP PUSH1 0x1F NOT PUSH1 0x3F RETURNDATASIZE ADD AND DUP3 ADD PUSH1 0x40 MSTORE RETURNDATASIZE DUP3 MSTORE RETURNDATASIZE PUSH0 PUSH1 0x20 DUP5 ADD RETURNDATACOPY PUSH2 0x1319 JUMP JUMPDEST PUSH1 0x60 SWAP2 POP JUMPDEST POP PUSH0 DUP2 MLOAD SUB PUSH2 0x135F JUMPI DUP4 PUSH1 0x40 MLOAD PUSH32 0x64A0AE9200000000000000000000000000000000000000000000000000000000 DUP2 MSTORE PUSH1 0x4 ADD PUSH2 0x1356 SWAP2 SWAP1 PUSH2 0x1CC2 JUMP JUMPDEST PUSH1 0x40 MLOAD DUP1 SWAP2 SUB SWAP1 REVERT JUMPDEST DUP1 MLOAD DUP2 PUSH1 0x20 ADD REVERT JUMPDEST PUSH4 0x150B7A02 PUSH1 0xE0 SHL PUSH28 0xFFFFFFFFFFFFFFFFFFFFFFFFFFFFFFFFFFFFFFFFFFFFFFFFFFFFFFFF NOT AND DUP2 PUSH28 0xFFFFFFFFFFFFFFFFFFFFFFFFFFFFFFFFFFFFFFFFFFFFFFFFFFFFFFFF NOT AND EQ PUSH2 0x13F0 JUMPI DUP4 PUSH1 0x40 MLOAD PUSH32 0x64A0AE9200000000000000000000000000000000000000000000000000000000 DUP2 MSTORE PUSH1 0x4 ADD PUSH2 0x13E7 SWAP2 SWAP1 PUSH2 0x1CC2 JUMP JUMPDEST PUSH1 0x40 MLOAD DUP1 SWAP2 SUB SWAP1 REVERT JUMPDEST POP JUMPDEST POP POP POP POP JUMP JUMPDEST PUSH1 0x60 PUSH1 0x40 MLOAD DUP1 PUSH1 0x20 ADD PUSH1 0x40 MSTORE DUP1 PUSH0 DUP2 MSTORE POP SWAP1 POP SWAP1 JUMP JUMPDEST PUSH1 0x60 PUSH2 0x1419 DUP3 PUSH2 0xC3E JUMP JUMPDEST POP PUSH0 PUSH2 0x1423 PUSH2 0x13F8 JUMP JUMPDEST SWAP1 POP PUSH0 DUP2 MLOAD GT PUSH2 0x1441 JUMPI PUSH1 0x40 MLOAD DUP1 PUSH1 0x20 ADD PUSH1 0x40 MSTORE DUP1 PUSH0 DUP2 MSTORE POP PUSH2 0x146C JUMP JUMPDEST DUP1 PUSH2 0x144B DUP5 PUSH2 0xF73 JUMP JUMPDEST PUSH1 0x40 MLOAD PUSH1 0x20 ADD PUSH2 0x145C SWAP3 SWAP2 SWAP1 PUSH2 0x2229 JUMP JUMPDEST PUSH1 0x40 MLOAD PUSH1 0x20 DUP2 DUP4 SUB SUB DUP2 MSTORE SWAP1 PUSH1 0x40 MSTORE JUMPDEST SWAP2 POP POP SWAP2 SWAP1 POP JUMP JUMPDEST PUSH0 PUSH32 0x1FFC9A700000000000000000000000000000000000000000000000000000000 PUSH28 0xFFFFFFFFFFFFFFFFFFFFFFFFFFFFFFFFFFFFFFFFFFFFFFFFFFFFFFFF NOT AND DUP3 PUSH28 0xFFFFFFFFFFFFFFFFFFFFFFFFFFFFFFFFFFFFFFFFFFFFFFFFFFFFFFFF NOT AND EQ SWAP1 POP SWAP2 SWAP1 POP JUMP JUMPDEST PUSH0 PUSH1 0x2 PUSH0 DUP4 DUP2 MSTORE PUSH1 0x20 ADD SWAP1 DUP2 MSTORE PUSH1 0x20 ADD PUSH0 KECCAK256 PUSH0 SWAP1 SLOAD SWAP1 PUSH2 0x100 EXP SWAP1 DIV PUSH20 0xFFFFFFFFFFFFFFFFFFFFFFFFFFFFFFFFFFFFFFFF AND SWAP1 POP SWAP2 SWAP1 POP JUMP JUMPDEST DUP1 DUP1 PUSH2 0x154E JUMPI POP PUSH0 PUSH20 0xFFFFFFFFFFFFFFFFFFFFFFFFFFFFFFFFFFFFFFFF AND DUP3 PUSH20 0xFFFFFFFFFFFFFFFFFFFFFFFFFFFFFFFFFFFFFFFF AND EQ ISZERO JUMPDEST ISZERO PUSH2 0x1680 JUMPI PUSH0 PUSH2 0x155D DUP5 PUSH2 0xC3E JUMP JUMPDEST SWAP1 POP PUSH0 PUSH20 0xFFFFFFFFFFFFFFFFFFFFFFFFFFFFFFFFFFFFFFFF AND DUP4 PUSH20 0xFFFFFFFFFFFFFFFFFFFFFFFFFFFFFFFFFFFFFFFF AND EQ ISZERO DUP1 ISZERO PUSH2 0x15C7 JUMPI POP DUP3 PUSH20 0xFFFFFFFFFFFFFFFFFFFFFFFFFFFFFFFFFFFFFFFF AND DUP2 PUSH20 0xFFFFFFFFFFFFFFFFFFFFFFFFFFFFFFFFFFFFFFFF AND EQ ISZERO JUMPDEST DUP1 ISZERO PUSH2 0x15DA JUMPI POP PUSH2 0x15D8 DUP2 DUP5 PUSH2 0xACF JUMP JUMPDEST ISZERO JUMPDEST ISZERO PUSH2 0x161C JUMPI DUP3 PUSH1 0x40 MLOAD PUSH32 0xA9FBF51F00000000000000000000000000000000000000000000000000000000 DUP2 MSTORE PUSH1 0x4 ADD PUSH2 0x1613 SWAP2 SWAP1 PUSH2 0x1CC2 JUMP JUMPDEST PUSH1 0x40 MLOAD DUP1 SWAP2 SUB SWAP1 REVERT JUMPDEST DUP2 ISZERO PUSH2 0x167E JUMPI DUP4 DUP6 PUSH20 0xFFFFFFFFFFFFFFFFFFFFFFFFFFFFFFFFFFFFFFFF AND DUP3 PUSH20 0xFFFFFFFFFFFFFFFFFFFFFFFFFFFFFFFFFFFFFFFF AND PUSH32 0x8C5BE1E5EBEC7D5BD14F71427D1E84F3DD0314C0F7B2291E5B200AC8C7C3B925 PUSH1 0x40 MLOAD PUSH1 0x40 MLOAD DUP1 SWAP2 SUB SWAP1 LOG4 JUMPDEST POP JUMPDEST DUP4 PUSH1 0x4 PUSH0 DUP6 DUP2 MSTORE PUSH1 0x20 ADD SWAP1 DUP2 MSTORE PUSH1 0x20 ADD PUSH0 KECCAK256 PUSH0 PUSH2 0x100 EXP DUP2 SLOAD DUP2 PUSH20 0xFFFFFFFFFFFFFFFFFFFFFFFFFFFFFFFFFFFFFFFF MUL NOT AND SWAP1 DUP4 PUSH20 0xFFFFFFFFFFFFFFFFFFFFFFFFFFFFFFFFFFFFFFFF AND MUL OR SWAP1 SSTORE POP POP POP POP POP JUMP JUMPDEST PUSH2 0x16E0 DUP4 DUP4 DUP4 PUSH2 0x1904 JUMP JUMPDEST PUSH2 0x1793 JUMPI PUSH0 PUSH20 0xFFFFFFFFFFFFFFFFFFFFFFFFFFFFFFFFFFFFFFFF AND DUP4 PUSH20 0xFFFFFFFFFFFFFFFFFFFFFFFFFFFFFFFFFFFFFFFF AND SUB PUSH2 0x1754 JUMPI DUP1 PUSH1 0x40 MLOAD PUSH32 0x7E27328900000000000000000000000000000000000000000000000000000000 DUP2 MSTORE PUSH1 0x4 ADD PUSH2 0x174B SWAP2 SWAP1 PUSH2 0x1F28 JUMP JUMPDEST PUSH1 0x40 MLOAD DUP1 SWAP2 SUB SWAP1 REVERT JUMPDEST DUP2 DUP2 PUSH1 0x40 MLOAD PUSH32 0x177E802F00000000000000000000000000000000000000000000000000000000 DUP2 MSTORE PUSH1 0x4 ADD PUSH2 0x178A SWAP3 SWAP2 SWAP1 PUSH2 0x27E3 JUMP JUMPDEST PUSH1 0x40 MLOAD DUP1 SWAP2 SUB SWAP1 REVERT JUMPDEST POP POP POP JUMP JUMPDEST PUSH0 DUP1 PUSH0 SWAP1 POP PUSH27 0x184F03E93FF9F4DAA797ED6E38ED64BF6A1F010000000000000000 DUP4 LT PUSH2 0x17F4 JUMPI PUSH27 0x184F03E93FF9F4DAA797ED6E38ED64BF6A1F010000000000000000 DUP4 DUP2 PUSH2 0x17EA JUMPI PUSH2 0x17E9 PUSH2 0x240C JUMP JUMPDEST JUMPDEST DIV SWAP3 POP PUSH1 0x40 DUP2 ADD SWAP1 POP JUMPDEST PUSH14 0x4EE2D6D415B85ACEF8100000000 DUP4 LT PUSH2 0x1831 JUMPI PUSH14 0x4EE2D6D415B85ACEF8100000000 DUP4 DUP2 PUSH2 0x1827 JUMPI PUSH2 0x1826 PUSH2 0x240C JUMP JUMPDEST JUMPDEST DIV SWAP3 POP PUSH1 0x20 DUP2 ADD SWAP1 POP JUMPDEST PUSH7 0x2386F26FC10000 DUP4 LT PUSH2 0x1860 JUMPI PUSH7 0x2386F26FC10000 DUP4 DUP2 PUSH2 0x1856 JUMPI PUSH2 0x1855 PUSH2 0x240C JUMP JUMPDEST JUMPDEST DIV SWAP3 POP PUSH1 0x10 DUP2 ADD SWAP1 POP JUMPDEST PUSH4 0x5F5E100 DUP4 LT PUSH2 0x1889 JUMPI PUSH4 0x5F5E100 DUP4 DUP2 PUSH2 0x187F JUMPI PUSH2 0x187E PUSH2 0x240C JUMP JUMPDEST JUMPDEST DIV SWAP3 POP PUSH1 0x8 DUP2 ADD SWAP1 POP JUMPDEST PUSH2 0x2710 DUP4 LT PUSH2 0x18AE JUMPI PUSH2 0x2710 DUP4 DUP2 PUSH2 0x18A4 JUMPI PUSH2 0x18A3 PUSH2 0x240C JUMP JUMPDEST JUMPDEST DIV SWAP3 POP PUSH1 0x4 DUP2 ADD SWAP1 POP JUMPDEST PUSH1 0x64 DUP4 LT PUSH2 0x18D1 JUMPI PUSH1 0x64 DUP4 DUP2 PUSH2 0x18C7 JUMPI PUSH2 0x18C6 PUSH2 0x240C JUMP JUMPDEST JUMPDEST DIV SWAP3 POP PUSH1 0x2 DUP2 ADD SWAP1 POP JUMPDEST PUSH1 0xA DUP4 LT PUSH2 0x18E0 JUMPI PUSH1 0x1 DUP2 ADD SWAP1 POP JUMPDEST DUP1 SWAP2 POP POP SWAP2 SWAP1 POP JUMP JUMPDEST PUSH2 0x18F3 DUP4 DUP4 PUSH2 0x19C4 JUMP JUMPDEST PUSH2 0x18FF PUSH0 DUP5 DUP5 DUP5 PUSH2 0x1246 JUMP JUMPDEST POP POP POP JUMP JUMPDEST PUSH0 DUP1 PUSH20 0xFFFFFFFFFFFFFFFFFFFFFFFFFFFFFFFFFFFFFFFF AND DUP4 PUSH20 0xFFFFFFFFFFFFFFFFFFFFFFFFFFFFFFFFFFFFFFFF AND EQ ISZERO DUP1 ISZERO PUSH2 0x19BB JUMPI POP DUP3 PUSH20 0xFFFFFFFFFFFFFFFFFFFFFFFFFFFFFFFFFFFFFFFF AND DUP5 PUSH20 0xFFFFFFFFFFFFFFFFFFFFFFFFFFFFFFFFFFFFFFFF AND EQ DUP1 PUSH2 0x197C JUMPI POP PUSH2 0x197B DUP5 DUP5 PUSH2 0xACF JUMP JUMPDEST JUMPDEST DUP1 PUSH2 0x19BA JUMPI POP DUP3 PUSH20 0xFFFFFFFFFFFFFFFFFFFFFFFFFFFFFFFFFFFFFFFF AND PUSH2 0x19A2 DUP4 PUSH2 0xCC4 JUMP JUMPDEST PUSH20 0xFFFFFFFFFFFFFFFFFFFFFFFFFFFFFFFFFFFFFFFF AND EQ JUMPDEST JUMPDEST SWAP1 POP SWAP4 SWAP3 POP POP POP JUMP JUMPDEST PUSH0 PUSH20 0xFFFFFFFFFFFFFFFFFFFFFFFFFFFFFFFFFFFFFFFF AND DUP3 PUSH20 0xFFFFFFFFFFFFFFFFFFFFFFFFFFFFFFFFFFFFFFFF AND SUB PUSH2 0x1A34 JUMPI PUSH0 PUSH1 0x40 MLOAD PUSH32 0x64A0AE9200000000000000000000000000000000000000000000000000000000 DUP2 MSTORE PUSH1 0x4 ADD PUSH2 0x1A2B SWAP2 SWAP1 PUSH2 0x1CC2 JUMP JUMPDEST PUSH1 0x40 MLOAD DUP1 SWAP2 SUB SWAP1 REVERT JUMPDEST PUSH0 PUSH2 0x1A40 DUP4 DUP4 PUSH0 PUSH2 0xD16 JUMP JUMPDEST SWAP1 POP PUSH0 PUSH20 0xFFFFFFFFFFFFFFFFFFFFFFFFFFFFFFFFFFFFFFFF AND DUP2 PUSH20 0xFFFFFFFFFFFFFFFFFFFFFFFFFFFFFFFFFFFFFFFF AND EQ PUSH2 0x1AB2 JUMPI PUSH0 PUSH1 0x40 MLOAD PUSH32 0x73C6AC6E00000000000000000000000000000000000000000000000000000000 DUP2 MSTORE PUSH1 0x4 ADD PUSH2 0x1AA9 SWAP2 SWAP1 PUSH2 0x1CC2 JUMP JUMPDEST PUSH1 0x40 MLOAD DUP1 SWAP2 SUB SWAP1 REVERT JUMPDEST POP POP POP JUMP JUMPDEST PUSH0 PUSH1 0x40 MLOAD SWAP1 POP SWAP1 JUMP JUMPDEST PUSH0 DUP1 REVERT JUMPDEST PUSH0 DUP1 REVERT JUMPDEST PUSH0 PUSH32 0xFFFFFFFF00000000000000000000000000000000000000000000000000000000 DUP3 AND SWAP1 POP SWAP2 SWAP1 POP JUMP JUMPDEST PUSH2 0x1AFC DUP2 PUSH2 0x1AC8 JUMP JUMPDEST DUP2 EQ PUSH2 0x1B06 JUMPI PUSH0 DUP1 REVERT JUMPDEST POP JUMP JUMPDEST PUSH0 DUP2 CALLDATALOAD SWAP1 POP PUSH2 0x1B17 DUP2 PUSH2 0x1AF3 JUMP JUMPDEST SWAP3 SWAP2 POP POP JUMP JUMPDEST PUSH0 PUSH1 0x20 DUP3 DUP5 SUB SLT ISZERO PUSH2 0x1B32 JUMPI PUSH2 0x1B31 PUSH2 0x1AC0 JUMP JUMPDEST JUMPDEST PUSH0 PUSH2 0x1B3F DUP5 DUP3 DUP6 ADD PUSH2 0x1B09 JUMP JUMPDEST SWAP2 POP POP SWAP3 SWAP2 POP POP JUMP JUMPDEST PUSH0 DUP2 ISZERO ISZERO SWAP1 POP SWAP2 SWAP1 POP JUMP JUMPDEST PUSH2 0x1B5C DUP2 PUSH2 0x1B48 JUMP JUMPDEST DUP3 MSTORE POP POP JUMP JUMPDEST PUSH0 PUSH1 0x20 DUP3 ADD SWAP1 POP PUSH2 0x1B75 PUSH0 DUP4 ADD DUP5 PUSH2 0x1B53 JUMP JUMPDEST SWAP3 SWAP2 POP POP JUMP JUMPDEST PUSH0 DUP2 MLOAD SWAP1 POP SWAP2 SWAP1 POP JUMP JUMPDEST PUSH0 DUP3 DUP3 MSTORE PUSH1 0x20 DUP3 ADD SWAP1 POP SWAP3 SWAP2 POP POP JUMP JUMPDEST PUSH0 JUMPDEST DUP4 DUP2 LT ISZERO PUSH2 0x1BB2 JUMPI DUP1 DUP3 ADD MLOAD DUP2 DUP5 ADD MSTORE PUSH1 0x20 DUP2 ADD SWAP1 POP PUSH2 0x1B97 JUMP JUMPDEST PUSH0 DUP5 DUP5 ADD MSTORE POP POP POP POP JUMP JUMPDEST PUSH0 PUSH1 0x1F NOT PUSH1 0x1F DUP4 ADD AND SWAP1 POP SWAP2 SWAP1 POP JUMP JUMPDEST PUSH0 PUSH2 0x1BD7 DUP3 PUSH2 0x1B7B JUMP JUMPDEST PUSH2 0x1BE1 DUP2 DUP6 PUSH2 0x1B85 JUMP JUMPDEST SWAP4 POP PUSH2 0x1BF1 DUP2 DUP6 PUSH1 0x20 DUP7 ADD PUSH2 0x1B95 JUMP JUMPDEST PUSH2 0x1BFA DUP2 PUSH2 0x1BBD JUMP JUMPDEST DUP5 ADD SWAP2 POP POP SWAP3 SWAP2 POP POP JUMP JUMPDEST PUSH0 PUSH1 0x20 DUP3 ADD SWAP1 POP DUP2 DUP2 SUB PUSH0 DUP4 ADD MSTORE PUSH2 0x1C1D DUP2 DUP5 PUSH2 0x1BCD JUMP JUMPDEST SWAP1 POP SWAP3 SWAP2 POP POP JUMP JUMPDEST PUSH0 DUP2 SWAP1 POP SWAP2 SWAP1 POP JUMP JUMPDEST PUSH2 0x1C37 DUP2 PUSH2 0x1C25 JUMP JUMPDEST DUP2 EQ PUSH2 0x1C41 JUMPI PUSH0 DUP1 REVERT JUMPDEST POP JUMP JUMPDEST PUSH0 DUP2 CALLDATALOAD SWAP1 POP PUSH2 0x1C52 DUP2 PUSH2 0x1C2E JUMP JUMPDEST SWAP3 SWAP2 POP POP JUMP JUMPDEST PUSH0 PUSH1 0x20 DUP3 DUP5 SUB SLT ISZERO PUSH2 0x1C6D JUMPI PUSH2 0x1C6C PUSH2 0x1AC0 JUMP JUMPDEST JUMPDEST PUSH0 PUSH2 0x1C7A DUP5 DUP3 DUP6 ADD PUSH2 0x1C44 JUMP JUMPDEST SWAP2 POP POP SWAP3 SWAP2 POP POP JUMP JUMPDEST PUSH0 PUSH20 0xFFFFFFFFFFFFFFFFFFFFFFFFFFFFFFFFFFFFFFFF DUP3 AND SWAP1 POP SWAP2 SWAP1 POP JUMP JUMPDEST PUSH0 PUSH2 0x1CAC DUP3 PUSH2 0x1C83 JUMP JUMPDEST SWAP1 POP SWAP2 SWAP1 POP JUMP JUMPDEST PUSH2 0x1CBC DUP2 PUSH2 0x1CA2 JUMP JUMPDEST DUP3 MSTORE POP POP JUMP JUMPDEST PUSH0 PUSH1 0x20 DUP3 ADD SWAP1 POP PUSH2 0x1CD5 PUSH0 DUP4 ADD DUP5 PUSH2 0x1CB3 JUMP JUMPDEST SWAP3 SWAP2 POP POP JUMP JUMPDEST PUSH2 0x1CE4 DUP2 PUSH2 0x1CA2 JUMP JUMPDEST DUP2 EQ PUSH2 0x1CEE JUMPI PUSH0 DUP1 REVERT JUMPDEST POP JUMP JUMPDEST PUSH0 DUP2 CALLDATALOAD SWAP1 POP PUSH2 0x1CFF DUP2 PUSH2 0x1CDB JUMP JUMPDEST SWAP3 SWAP2 POP POP JUMP JUMPDEST PUSH0 DUP1 PUSH1 0x40 DUP4 DUP6 SUB SLT ISZERO PUSH2 0x1D1B JUMPI PUSH2 0x1D1A PUSH2 0x1AC0 JUMP JUMPDEST JUMPDEST PUSH0 PUSH2 0x1D28 DUP6 DUP3 DUP7 ADD PUSH2 0x1CF1 JUMP JUMPDEST SWAP3 POP POP PUSH1 0x20 PUSH2 0x1D39 DUP6 DUP3 DUP7 ADD PUSH2 0x1C44 JUMP JUMPDEST SWAP2 POP POP SWAP3 POP SWAP3 SWAP1 POP JUMP JUMPDEST PUSH0 DUP1 PUSH0 PUSH1 0x60 DUP5 DUP7 SUB SLT ISZERO PUSH2 0x1D5A JUMPI PUSH2 0x1D59 PUSH2 0x1AC0 JUMP JUMPDEST JUMPDEST PUSH0 PUSH2 0x1D67 DUP7 DUP3 DUP8 ADD PUSH2 0x1CF1 JUMP JUMPDEST SWAP4 POP POP PUSH1 0x20 PUSH2 0x1D78 DUP7 DUP3 DUP8 ADD PUSH2 0x1CF1 JUMP JUMPDEST SWAP3 POP POP PUSH1 0x40 PUSH2 0x1D89 DUP7 DUP3 DUP8 ADD PUSH2 0x1C44 JUMP JUMPDEST SWAP2 POP POP SWAP3 POP SWAP3 POP SWAP3 JUMP JUMPDEST PUSH0 DUP1 REVERT JUMPDEST PUSH0 DUP1 REVERT JUMPDEST PUSH32 0x4E487B7100000000000000000000000000000000000000000000000000000000 PUSH0 MSTORE PUSH1 0x41 PUSH1 0x4 MSTORE PUSH1 0x24 PUSH0 REVERT JUMPDEST PUSH2 0x1DD1 DUP3 PUSH2 0x1BBD JUMP JUMPDEST DUP2 ADD DUP2 DUP2 LT PUSH8 0xFFFFFFFFFFFFFFFF DUP3 GT OR ISZERO PUSH2 0x1DF0 JUMPI PUSH2 0x1DEF PUSH2 0x1D9B JUMP JUMPDEST JUMPDEST DUP1 PUSH1 0x40 MSTORE POP POP POP JUMP JUMPDEST PUSH0 PUSH2 0x1E02 PUSH2 0x1AB7 JUMP JUMPDEST SWAP1 POP PUSH2 0x1E0E DUP3 DUP3 PUSH2 0x1DC8 JUMP JUMPDEST SWAP2 SWAP1 POP JUMP JUMPDEST PUSH0 PUSH8 0xFFFFFFFFFFFFFFFF DUP3 GT ISZERO PUSH2 0x1E2D JUMPI PUSH2 0x1E2C PUSH2 0x1D9B JUMP JUMPDEST JUMPDEST PUSH2 0x1E36 DUP3 PUSH2 0x1BBD JUMP JUMPDEST SWAP1 POP PUSH1 0x20 DUP2 ADD SWAP1 POP SWAP2 SWAP1 POP JUMP JUMPDEST DUP3 DUP2 DUP4 CALLDATACOPY PUSH0 DUP4 DUP4 ADD MSTORE POP POP POP JUMP JUMPDEST PUSH0 PUSH2 0x1E63 PUSH2 0x1E5E DUP5 PUSH2 0x1E13 JUMP JUMPDEST PUSH2 0x1DF9 JUMP JUMPDEST SWAP1 POP DUP3 DUP2 MSTORE PUSH1 0x20 DUP2 ADD DUP5 DUP5 DUP5 ADD GT ISZERO PUSH2 0x1E7F JUMPI PUSH2 0x1E7E PUSH2 0x1D97 JUMP JUMPDEST JUMPDEST PUSH2 0x1E8A DUP5 DUP3 DUP6 PUSH2 0x1E43 JUMP JUMPDEST POP SWAP4 SWAP3 POP POP POP JUMP JUMPDEST PUSH0 DUP3 PUSH1 0x1F DUP4 ADD SLT PUSH2 0x1EA6 JUMPI PUSH2 0x1EA5 PUSH2 0x1D93 JUMP JUMPDEST JUMPDEST DUP2 CALLDATALOAD PUSH2 0x1EB6 DUP5 DUP3 PUSH1 0x20 DUP7 ADD PUSH2 0x1E51 JUMP JUMPDEST SWAP2 POP POP SWAP3 SWAP2 POP POP JUMP JUMPDEST PUSH0 DUP1 PUSH1 0x40 DUP4 DUP6 SUB SLT ISZERO PUSH2 0x1ED5 JUMPI PUSH2 0x1ED4 PUSH2 0x1AC0 JUMP JUMPDEST JUMPDEST PUSH0 PUSH2 0x1EE2 DUP6 DUP3 DUP7 ADD PUSH2 0x1CF1 JUMP JUMPDEST SWAP3 POP POP PUSH1 0x20 DUP4 ADD CALLDATALOAD PUSH8 0xFFFFFFFFFFFFFFFF DUP2 GT ISZERO PUSH2 0x1F03 JUMPI PUSH2 0x1F02 PUSH2 0x1AC4 JUMP JUMPDEST JUMPDEST PUSH2 0x1F0F DUP6 DUP3 DUP7 ADD PUSH2 0x1E92 JUMP JUMPDEST SWAP2 POP POP SWAP3 POP SWAP3 SWAP1 POP JUMP JUMPDEST PUSH2 0x1F22 DUP2 PUSH2 0x1C25 JUMP JUMPDEST DUP3 MSTORE POP POP JUMP JUMPDEST PUSH0 PUSH1 0x20 DUP3 ADD SWAP1 POP PUSH2 0x1F3B PUSH0 DUP4 ADD DUP5 PUSH2 0x1F19 JUMP JUMPDEST SWAP3 SWAP2 POP POP JUMP JUMPDEST PUSH0 PUSH1 0x20 DUP3 DUP5 SUB SLT ISZERO PUSH2 0x1F56 JUMPI PUSH2 0x1F55 PUSH2 0x1AC0 JUMP JUMPDEST JUMPDEST PUSH0 PUSH2 0x1F63 DUP5 DUP3 DUP6 ADD PUSH2 0x1CF1 JUMP JUMPDEST SWAP2 POP POP SWAP3 SWAP2 POP POP JUMP JUMPDEST PUSH2 0x1F75 DUP2 PUSH2 0x1B48 JUMP JUMPDEST DUP2 EQ PUSH2 0x1F7F JUMPI PUSH0 DUP1 REVERT JUMPDEST POP JUMP JUMPDEST PUSH0 DUP2 CALLDATALOAD SWAP1 POP PUSH2 0x1F90 DUP2 PUSH2 0x1F6C JUMP JUMPDEST SWAP3 SWAP2 POP POP JUMP JUMPDEST PUSH0 DUP1 PUSH1 0x40 DUP4 DUP6 SUB SLT ISZERO PUSH2 0x1FAC JUMPI PUSH2 0x1FAB PUSH2 0x1AC0 JUMP JUMPDEST JUMPDEST PUSH0 PUSH2 0x1FB9 DUP6 DUP3 DUP7 ADD PUSH2 0x1CF1 JUMP JUMPDEST SWAP3 POP POP PUSH1 0x20 PUSH2 0x1FCA DUP6 DUP3 DUP7 ADD PUSH2 0x1F82 JUMP JUMPDEST SWAP2 POP POP SWAP3 POP SWAP3 SWAP1 POP JUMP JUMPDEST PUSH0 PUSH8 0xFFFFFFFFFFFFFFFF DUP3 GT ISZERO PUSH2 0x1FEE JUMPI PUSH2 0x1FED PUSH2 0x1D9B JUMP JUMPDEST JUMPDEST PUSH2 0x1FF7 DUP3 PUSH2 0x1BBD JUMP JUMPDEST SWAP1 POP PUSH1 0x20 DUP2 ADD SWAP1 POP SWAP2 SWAP1 POP JUMP JUMPDEST PUSH0 PUSH2 0x2016 PUSH2 0x2011 DUP5 PUSH2 0x1FD4 JUMP JUMPDEST PUSH2 0x1DF9 JUMP JUMPDEST SWAP1 POP DUP3 DUP2 MSTORE PUSH1 0x20 DUP2 ADD DUP5 DUP5 DUP5 ADD GT ISZERO PUSH2 0x2032 JUMPI PUSH2 0x2031 PUSH2 0x1D97 JUMP JUMPDEST JUMPDEST PUSH2 0x203D DUP5 DUP3 DUP6 PUSH2 0x1E43 JUMP JUMPDEST POP SWAP4 SWAP3 POP POP POP JUMP JUMPDEST PUSH0 DUP3 PUSH1 0x1F DUP4 ADD SLT PUSH2 0x2059 JUMPI PUSH2 0x2058 PUSH2 0x1D93 JUMP JUMPDEST JUMPDEST DUP2 CALLDATALOAD PUSH2 0x2069 DUP5 DUP3 PUSH1 0x20 DUP7 ADD PUSH2 0x2004 JUMP JUMPDEST SWAP2 POP POP SWAP3 SWAP2 POP POP JUMP JUMPDEST PUSH0 DUP1 PUSH0 DUP1 PUSH1 0x80 DUP6 DUP8 SUB SLT ISZERO PUSH2 0x208A JUMPI PUSH2 0x2089 PUSH2 0x1AC0 JUMP JUMPDEST JUMPDEST PUSH0 PUSH2 0x2097 DUP8 DUP3 DUP9 ADD PUSH2 0x1CF1 JUMP JUMPDEST SWAP5 POP POP PUSH1 0x20 PUSH2 0x20A8 DUP8 DUP3 DUP9 ADD PUSH2 0x1CF1 JUMP JUMPDEST SWAP4 POP POP PUSH1 0x40 PUSH2 0x20B9 DUP8 DUP3 DUP9 ADD PUSH2 0x1C44 JUMP JUMPDEST SWAP3 POP POP PUSH1 0x60 DUP6 ADD CALLDATALOAD PUSH8 0xFFFFFFFFFFFFFFFF DUP2 GT ISZERO PUSH2 0x20DA JUMPI PUSH2 0x20D9 PUSH2 0x1AC4 JUMP JUMPDEST JUMPDEST PUSH2 0x20E6 DUP8 DUP3 DUP9 ADD PUSH2 0x2045 JUMP JUMPDEST SWAP2 POP POP SWAP3 SWAP6 SWAP2 SWAP5 POP SWAP3 POP JUMP JUMPDEST PUSH0 DUP1 PUSH1 0x40 DUP4 DUP6 SUB SLT ISZERO PUSH2 0x2108 JUMPI PUSH2 0x2107 PUSH2 0x1AC0 JUMP JUMPDEST JUMPDEST PUSH0 PUSH2 0x2115 DUP6 DUP3 DUP7 ADD PUSH2 0x1CF1 JUMP JUMPDEST SWAP3 POP POP PUSH1 0x20 PUSH2 0x2126 DUP6 DUP3 DUP7 ADD PUSH2 0x1CF1 JUMP JUMPDEST SWAP2 POP POP SWAP3 POP SWAP3 SWAP1 POP JUMP JUMPDEST PUSH32 0x4E487B7100000000000000000000000000000000000000000000000000000000 PUSH0 MSTORE PUSH1 0x22 PUSH1 0x4 MSTORE PUSH1 0x24 PUSH0 REVERT JUMPDEST PUSH0 PUSH1 0x2 DUP3 DIV SWAP1 POP PUSH1 0x1 DUP3 AND DUP1 PUSH2 0x2174 JUMPI PUSH1 0x7F DUP3 AND SWAP2 POP JUMPDEST PUSH1 0x20 DUP3 LT DUP2 SUB PUSH2 0x2187 JUMPI PUSH2 0x2186 PUSH2 0x2130 JUMP JUMPDEST JUMPDEST POP SWAP2 SWAP1 POP JUMP JUMPDEST PUSH0 PUSH1 0x60 DUP3 ADD SWAP1 POP PUSH2 0x21A0 PUSH0 DUP4 ADD DUP7 PUSH2 0x1CB3 JUMP JUMPDEST PUSH2 0x21AD PUSH1 0x20 DUP4 ADD DUP6 PUSH2 0x1F19 JUMP JUMPDEST PUSH2 0x21BA PUSH1 0x40 DUP4 ADD DUP5 PUSH2 0x1CB3 JUMP JUMPDEST SWAP5 SWAP4 POP POP POP POP JUMP JUMPDEST PUSH32 0x4E487B7100000000000000000000000000000000000000000000000000000000 PUSH0 MSTORE PUSH1 0x32 PUSH1 0x4 MSTORE PUSH1 0x24 PUSH0 REVERT JUMPDEST PUSH0 DUP2 SWAP1 POP SWAP3 SWAP2 POP POP JUMP JUMPDEST PUSH0 PUSH2 0x2203 DUP3 PUSH2 0x1B7B JUMP JUMPDEST PUSH2 0x220D DUP2 DUP6 PUSH2 0x21EF JUMP JUMPDEST SWAP4 POP PUSH2 0x221D DUP2 DUP6 PUSH1 0x20 DUP7 ADD PUSH2 0x1B95 JUMP JUMPDEST DUP1 DUP5 ADD SWAP2 POP POP SWAP3 SWAP2 POP POP JUMP JUMPDEST PUSH0 PUSH2 0x2234 DUP3 DUP6 PUSH2 0x21F9 JUMP JUMPDEST SWAP2 POP PUSH2 0x2240 DUP3 DUP5 PUSH2 0x21F9 JUMP JUMPDEST SWAP2 POP DUP2 SWAP1 POP SWAP4 SWAP3 POP POP POP JUMP JUMPDEST PUSH32 0x2E706E6700000000000000000000000000000000000000000000000000000000 DUP2 MSTORE POP JUMP JUMPDEST PUSH0 PUSH2 0x227D DUP3 DUP5 PUSH2 0x21F9 JUMP JUMPDEST SWAP2 POP PUSH2 0x2288 DUP3 PUSH2 0x224C JUMP JUMPDEST PUSH1 0x4 DUP3 ADD SWAP2 POP DUP2 SWAP1 POP SWAP3 SWAP2 POP POP JUMP JUMPDEST PUSH32 0x3B20000000000000000000000000000000000000000000000000000000000000 DUP2 MSTORE POP JUMP JUMPDEST PUSH0 PUSH2 0x22C8 DUP3 DUP5 PUSH2 0x21F9 JUMP JUMPDEST SWAP2 POP PUSH2 0x22D3 DUP3 PUSH2 0x2297 JUMP JUMPDEST PUSH1 0x2 DUP3 ADD SWAP2 POP DUP2 SWAP1 POP SWAP3 SWAP2 POP POP JUMP JUMPDEST PUSH32 0x4E487B7100000000000000000000000000000000000000000000000000000000 PUSH0 MSTORE PUSH1 0x11 PUSH1 0x4 MSTORE PUSH1 0x24 PUSH0 REVERT JUMPDEST PUSH0 PUSH2 0x2319 DUP3 PUSH2 0x1C25 JUMP JUMPDEST SWAP2 POP PUSH2 0x2324 DUP4 PUSH2 0x1C25 JUMP JUMPDEST SWAP3 POP DUP3 DUP3 SUB SWAP1 POP DUP2 DUP2 GT ISZERO PUSH2 0x233C JUMPI PUSH2 0x233B PUSH2 0x22E2 JUMP JUMPDEST JUMPDEST SWAP3 SWAP2 POP POP JUMP JUMPDEST PUSH0 DUP2 PUSH1 0x60 SHL SWAP1 POP SWAP2 SWAP1 POP JUMP JUMPDEST PUSH0 PUSH2 0x2358 DUP3 PUSH2 0x2342 JUMP JUMPDEST SWAP1 POP SWAP2 SWAP1 POP JUMP JUMPDEST PUSH0 PUSH2 0x2369 DUP3 PUSH2 0x234E JUMP JUMPDEST SWAP1 POP SWAP2 SWAP1 POP JUMP JUMPDEST PUSH2 0x2381 PUSH2 0x237C DUP3 PUSH2 0x1CA2 JUMP JUMPDEST PUSH2 0x235F JUMP JUMPDEST DUP3 MSTORE POP POP JUMP JUMPDEST PUSH0 DUP2 SWAP1 POP SWAP2 SWAP1 POP JUMP JUMPDEST PUSH0 DUP2 SWAP1 POP SWAP2 SWAP1 POP JUMP JUMPDEST PUSH2 0x23AA PUSH2 0x23A5 DUP3 PUSH2 0x2387 JUMP JUMPDEST PUSH2 0x2390 JUMP JUMPDEST DUP3 MSTORE POP POP JUMP JUMPDEST PUSH0 DUP2 SWAP1 POP SWAP2 SWAP1 POP JUMP JUMPDEST PUSH2 0x23CA PUSH2 0x23C5 DUP3 PUSH2 0x1C25 JUMP JUMPDEST PUSH2 0x23B0 JUMP JUMPDEST DUP3 MSTORE POP POP JUMP JUMPDEST PUSH0 PUSH2 0x23DB DUP3 DUP7 PUSH2 0x2370 JUMP JUMPDEST PUSH1 0x14 DUP3 ADD SWAP2 POP PUSH2 0x23EB DUP3 DUP6 PUSH2 0x2399 JUMP JUMPDEST PUSH1 0x20 DUP3 ADD SWAP2 POP PUSH2 0x23FB DUP3 DUP5 PUSH2 0x23B9 JUMP JUMPDEST PUSH1 0x20 DUP3 ADD SWAP2 POP DUP2 SWAP1 POP SWAP5 SWAP4 POP POP POP POP JUMP JUMPDEST PUSH32 0x4E487B7100000000000000000000000000000000000000000000000000000000 PUSH0 MSTORE PUSH1 0x12 PUSH1 0x4 MSTORE PUSH1 0x24 PUSH0 REVERT JUMPDEST PUSH0 PUSH2 0x2443 DUP3 PUSH2 0x1C25 JUMP JUMPDEST SWAP2 POP PUSH2 0x244E DUP4 PUSH2 0x1C25 JUMP JUMPDEST SWAP3 POP DUP3 PUSH2 0x245E JUMPI PUSH2 0x245D PUSH2 0x240C JUMP JUMPDEST JUMPDEST DUP3 DUP3 MOD SWAP1 POP SWAP3 SWAP2 POP POP JUMP JUMPDEST PUSH0 PUSH2 0x2473 DUP3 PUSH2 0x1C25 JUMP JUMPDEST SWAP2 POP PUSH2 0x247E DUP4 PUSH2 0x1C25 JUMP JUMPDEST SWAP3 POP DUP3 DUP3 ADD SWAP1 POP DUP1 DUP3 GT ISZERO PUSH2 0x2496 JUMPI PUSH2 0x2495 PUSH2 0x22E2 JUMP JUMPDEST JUMPDEST SWAP3 SWAP2 POP POP JUMP JUMPDEST PUSH0 DUP2 SWAP1 POP DUP2 PUSH0 MSTORE PUSH1 0x20 PUSH0 KECCAK256 SWAP1 POP SWAP2 SWAP1 POP JUMP JUMPDEST PUSH0 PUSH1 0x20 PUSH1 0x1F DUP4 ADD DIV SWAP1 POP SWAP2 SWAP1 POP JUMP JUMPDEST PUSH0 DUP3 DUP3 SHL SWAP1 POP SWAP3 SWAP2 POP POP JUMP JUMPDEST PUSH0 PUSH1 0x8 DUP4 MUL PUSH2 0x24F8 PUSH32 0xFFFFFFFFFFFFFFFFFFFFFFFFFFFFFFFFFFFFFFFFFFFFFFFFFFFFFFFFFFFFFFFF DUP3 PUSH2 0x24BD JUMP JUMPDEST PUSH2 0x2502 DUP7 DUP4 PUSH2 0x24BD JUMP JUMPDEST SWAP6 POP DUP1 NOT DUP5 AND SWAP4 POP DUP1 DUP7 AND DUP5 OR SWAP3 POP POP POP SWAP4 SWAP3 POP POP POP JUMP JUMPDEST PUSH0 DUP2 SWAP1 POP SWAP2 SWAP1 POP JUMP JUMPDEST PUSH0 PUSH2 0x253D PUSH2 0x2538 PUSH2 0x2533 DUP5 PUSH2 0x1C25 JUMP JUMPDEST PUSH2 0x251A JUMP JUMPDEST PUSH2 0x1C25 JUMP JUMPDEST SWAP1 POP SWAP2 SWAP1 POP JUMP JUMPDEST PUSH0 DUP2 SWAP1 POP SWAP2 SWAP1 POP JUMP JUMPDEST PUSH2 0x2556 DUP4 PUSH2 0x2523 JUMP JUMPDEST PUSH2 0x256A PUSH2 0x2562 DUP3 PUSH2 0x2544 JUMP JUMPDEST DUP5 DUP5 SLOAD PUSH2 0x24C9 JUMP JUMPDEST DUP3 SSTORE POP POP POP POP JUMP JUMPDEST PUSH0 SWAP1 JUMP JUMPDEST PUSH2 0x257E PUSH2 0x2572 JUMP JUMPDEST PUSH2 0x2589 DUP2 DUP5 DUP5 PUSH2 0x254D JUMP JUMPDEST POP POP POP JUMP JUMPDEST JUMPDEST DUP2 DUP2 LT ISZERO PUSH2 0x25AC JUMPI PUSH2 0x25A1 PUSH0 DUP3 PUSH2 0x2576 JUMP JUMPDEST PUSH1 0x1 DUP2 ADD SWAP1 POP PUSH2 0x258F JUMP JUMPDEST POP POP JUMP JUMPDEST PUSH1 0x1F DUP3 GT ISZERO PUSH2 0x25F1 JUMPI PUSH2 0x25C2 DUP2 PUSH2 0x249C JUMP JUMPDEST PUSH2 0x25CB DUP5 PUSH2 0x24AE JUMP JUMPDEST DUP2 ADD PUSH1 0x20 DUP6 LT ISZERO PUSH2 0x25DA JUMPI DUP2 SWAP1 POP JUMPDEST PUSH2 0x25EE PUSH2 0x25E6 DUP6 PUSH2 0x24AE JUMP JUMPDEST DUP4 ADD DUP3 PUSH2 0x258E JUMP JUMPDEST POP POP JUMPDEST POP POP POP JUMP JUMPDEST PUSH0 DUP3 DUP3 SHR SWAP1 POP SWAP3 SWAP2 POP POP JUMP JUMPDEST PUSH0 PUSH2 0x2611 PUSH0 NOT DUP5 PUSH1 0x8 MUL PUSH2 0x25F6 JUMP JUMPDEST NOT DUP1 DUP4 AND SWAP2 POP POP SWAP3 SWAP2 POP POP JUMP JUMPDEST PUSH0 PUSH2 0x2629 DUP4 DUP4 PUSH2 0x2602 JUMP JUMPDEST SWAP2 POP DUP3 PUSH1 0x2 MUL DUP3 OR SWAP1 POP SWAP3 SWAP2 POP POP JUMP JUMPDEST PUSH2 0x2642 DUP3 PUSH2 0x1B7B JUMP JUMPDEST PUSH8 0xFFFFFFFFFFFFFFFF DUP2 GT ISZERO PUSH2 0x265B JUMPI PUSH2 0x265A PUSH2 0x1D9B JUMP JUMPDEST JUMPDEST PUSH2 0x2665 DUP3 SLOAD PUSH2 0x215D JUMP JUMPDEST PUSH2 0x2670 DUP3 DUP3 DUP6 PUSH2 0x25B0 JUMP JUMPDEST PUSH0 PUSH1 0x20 SWAP1 POP PUSH1 0x1F DUP4 GT PUSH1 0x1 DUP2 EQ PUSH2 0x26A1 JUMPI PUSH0 DUP5 ISZERO PUSH2 0x268F JUMPI DUP3 DUP8 ADD MLOAD SWAP1 POP JUMPDEST PUSH2 0x2699 DUP6 DUP3 PUSH2 0x261E JUMP JUMPDEST DUP7 SSTORE POP PUSH2 0x2700 JUMP JUMPDEST PUSH1 0x1F NOT DUP5 AND PUSH2 0x26AF DUP7 PUSH2 0x249C JUMP JUMPDEST PUSH0 JUMPDEST DUP3 DUP2 LT ISZERO PUSH2 0x26D6 JUMPI DUP5 DUP10 ADD MLOAD DUP3 SSTORE PUSH1 0x1 DUP3 ADD SWAP2 POP PUSH1 0x20 DUP6 ADD SWAP5 POP PUSH1 0x20 DUP2 ADD SWAP1 POP PUSH2 0x26B1 JUMP JUMPDEST DUP7 DUP4 LT ISZERO PUSH2 0x26F3 JUMPI DUP5 DUP10 ADD MLOAD PUSH2 0x26EF PUSH1 0x1F DUP10 AND DUP3 PUSH2 0x2602 JUMP JUMPDEST DUP4 SSTORE POP JUMPDEST PUSH1 0x1 PUSH1 0x2 DUP9 MUL ADD DUP9 SSTORE POP POP POP JUMPDEST POP POP POP POP POP POP JUMP JUMPDEST PUSH0 DUP2 MLOAD SWAP1 POP SWAP2 SWAP1 POP JUMP JUMPDEST PUSH0 DUP3 DUP3 MSTORE PUSH1 0x20 DUP3 ADD SWAP1 POP SWAP3 SWAP2 POP POP JUMP JUMPDEST PUSH0 PUSH2 0x272C DUP3 PUSH2 0x2708 JUMP JUMPDEST PUSH2 0x2736 DUP2 DUP6 PUSH2 0x2712 JUMP JUMPDEST SWAP4 POP PUSH2 0x2746 DUP2 DUP6 PUSH1 0x20 DUP7 ADD PUSH2 0x1B95 JUMP JUMPDEST PUSH2 0x274F DUP2 PUSH2 0x1BBD JUMP JUMPDEST DUP5 ADD SWAP2 POP POP SWAP3 SWAP2 POP POP JUMP JUMPDEST PUSH0 PUSH1 0x80 DUP3 ADD SWAP1 POP PUSH2 0x276D PUSH0 DUP4 ADD DUP8 PUSH2 0x1CB3 JUMP JUMPDEST PUSH2 0x277A PUSH1 0x20 DUP4 ADD DUP7 PUSH2 0x1CB3 JUMP JUMPDEST PUSH2 0x2787 PUSH1 0x40 DUP4 ADD DUP6 PUSH2 0x1F19 JUMP JUMPDEST DUP2 DUP2 SUB PUSH1 0x60 DUP4 ADD MSTORE PUSH2 0x2799 DUP2 DUP5 PUSH2 0x2722 JUMP JUMPDEST SWAP1 POP SWAP6 SWAP5 POP POP POP POP POP JUMP JUMPDEST PUSH0 DUP2 MLOAD SWAP1 POP PUSH2 0x27B2 DUP2 PUSH2 0x1AF3 JUMP JUMPDEST SWAP3 SWAP2 POP POP JUMP JUMPDEST PUSH0 PUSH1 0x20 DUP3 DUP5 SUB SLT ISZERO PUSH2 0x27CD JUMPI PUSH2 0x27CC PUSH2 0x1AC0 JUMP JUMPDEST JUMPDEST PUSH0 PUSH2 0x27DA DUP5 DUP3 DUP6 ADD PUSH2 0x27A4 JUMP JUMPDEST SWAP2 POP POP SWAP3 SWAP2 POP POP JUMP JUMPDEST PUSH0 PUSH1 0x40 DUP3 ADD SWAP1 POP PUSH2 0x27F6 PUSH0 DUP4 ADD DUP6 PUSH2 0x1CB3 JUMP JUMPDEST PUSH2 0x2803 PUSH1 0x20 DUP4 ADD DUP5 PUSH2 0x1F19 JUMP JUMPDEST SWAP4 SWAP3 POP POP POP JUMP INVALID PUSH10 0x7066733A2F2F62616679 PUSH3 0x656968 PUSH19 0x6E686A7634636571766C7467336D7967696669 PUSH22 0x6B657479347375687A62643771326769766862657075 PUSH4 0x766C3278 PUSH15 0x32652FA26469706673582212203389 EQ CODECOPY 0xDF GAS 0xE9 0xE8 0x4F 0xF6 0xB9 PUSH4 0xFB0A33E8 SWAP1 DUP16 PUSH3 0x268F3F 0xCB LOG3 REVERT ADDMOD RETURNDATACOPY 0xCE PUSH15 0xF032BD64736F6C6343000814003300 "
				},
				"gasEstimates": {
					"creation": {
						"codeDepositCost": "2074200",
						"executionCost": "infinite",
						"totalCost": "infinite"
					},
					"external": {
						"MAJOR_ARCANA_URI()": "infinite",
						"approve(address,uint256)": "infinite",
						"balanceOf(address)": "infinite",
						"drawCard()": "infinite",
						"getApproved(uint256)": "infinite",
						"getCurrentTokenId()": "2502",
						"isApprovedForAll(address,address)": "infinite",
						"mintReading(address,string)": "infinite",
						"name()": "infinite",
						"ownerOf(uint256)": "infinite",
						"safeTransferFrom(address,address,uint256)": "infinite",
						"safeTransferFrom(address,address,uint256,bytes)": "infinite",
						"setApprovalForAll(address,bool)": "infinite",
						"supportsInterface(bytes4)": "881",
						"symbol()": "infinite",
						"tokenURI(uint256)": "infinite",
						"transferFrom(address,address,uint256)": "infinite"
					},
					"internal": {
						"indexOf(string memory[] memory,string memory)": "infinite",
						"random(uint256)": "infinite"
					}
				},
				"methodIdentifiers": {
					"MAJOR_ARCANA_URI()": "a8f137c0",
					"approve(address,uint256)": "095ea7b3",
					"balanceOf(address)": "70a08231",
					"drawCard()": "2f5be23e",
					"getApproved(uint256)": "081812fc",
					"getCurrentTokenId()": "56189236",
					"isApprovedForAll(address,address)": "e985e9c5",
					"mintReading(address,string)": "3c2b2ac1",
					"name()": "06fdde03",
					"ownerOf(uint256)": "6352211e",
					"safeTransferFrom(address,address,uint256)": "42842e0e",
					"safeTransferFrom(address,address,uint256,bytes)": "b88d4fde",
					"setApprovalForAll(address,bool)": "a22cb465",
					"supportsInterface(bytes4)": "01ffc9a7",
					"symbol()": "95d89b41",
					"tokenURI(uint256)": "c87b56dd",
					"transferFrom(address,address,uint256)": "23b872dd"
				}
			},
			"storageLayout": {
				"storage": [
					{
						"astId": 201,
						"contract": "art3mis/Art3mis.sol:Art3mis",
						"label": "_name",
						"offset": 0,
						"slot": "0",
						"type": "t_string_storage"
					},
					{
						"astId": 203,
						"contract": "art3mis/Art3mis.sol:Art3mis",
						"label": "_symbol",
						"offset": 0,
						"slot": "1",
						"type": "t_string_storage"
					},
					{
						"astId": 207,
						"contract": "art3mis/Art3mis.sol:Art3mis",
						"label": "_owners",
						"offset": 0,
						"slot": "2",
						"type": "t_mapping(t_uint256,t_address)"
					},
					{
						"astId": 211,
						"contract": "art3mis/Art3mis.sol:Art3mis",
						"label": "_balances",
						"offset": 0,
						"slot": "3",
						"type": "t_mapping(t_address,t_uint256)"
					},
					{
						"astId": 215,
						"contract": "art3mis/Art3mis.sol:Art3mis",
						"label": "_tokenApprovals",
						"offset": 0,
						"slot": "4",
						"type": "t_mapping(t_uint256,t_address)"
					},
					{
						"astId": 221,
						"contract": "art3mis/Art3mis.sol:Art3mis",
						"label": "_operatorApprovals",
						"offset": 0,
						"slot": "5",
						"type": "t_mapping(t_address,t_mapping(t_address,t_bool))"
					},
					{
						"astId": 1340,
						"contract": "art3mis/Art3mis.sol:Art3mis",
						"label": "_tokenURIs",
						"offset": 0,
						"slot": "6",
						"type": "t_mapping(t_uint256,t_string_storage)"
					},
					{
						"astId": 2962,
						"contract": "art3mis/Art3mis.sol:Art3mis",
						"label": "_tokenIdCounter",
						"offset": 0,
						"slot": "7",
						"type": "t_struct(Counter)3421_storage"
					},
					{
						"astId": 2992,
						"contract": "art3mis/Art3mis.sol:Art3mis",
						"label": "MAJOR_ARCANA_NAME",
						"offset": 0,
						"slot": "8",
						"type": "t_array(t_string_storage)22_storage"
					}
				],
				"types": {
					"t_address": {
						"encoding": "inplace",
						"label": "address",
						"numberOfBytes": "20"
					},
					"t_array(t_string_storage)22_storage": {
						"base": "t_string_storage",
						"encoding": "inplace",
						"label": "string[22]",
						"numberOfBytes": "704"
					},
					"t_bool": {
						"encoding": "inplace",
						"label": "bool",
						"numberOfBytes": "1"
					},
					"t_mapping(t_address,t_bool)": {
						"encoding": "mapping",
						"key": "t_address",
						"label": "mapping(address => bool)",
						"numberOfBytes": "32",
						"value": "t_bool"
					},
					"t_mapping(t_address,t_mapping(t_address,t_bool))": {
						"encoding": "mapping",
						"key": "t_address",
						"label": "mapping(address => mapping(address => bool))",
						"numberOfBytes": "32",
						"value": "t_mapping(t_address,t_bool)"
					},
					"t_mapping(t_address,t_uint256)": {
						"encoding": "mapping",
						"key": "t_address",
						"label": "mapping(address => uint256)",
						"numberOfBytes": "32",
						"value": "t_uint256"
					},
					"t_mapping(t_uint256,t_address)": {
						"encoding": "mapping",
						"key": "t_uint256",
						"label": "mapping(uint256 => address)",
						"numberOfBytes": "32",
						"value": "t_address"
					},
					"t_mapping(t_uint256,t_string_storage)": {
						"encoding": "mapping",
						"key": "t_uint256",
						"label": "mapping(uint256 => string)",
						"numberOfBytes": "32",
						"value": "t_string_storage"
					},
					"t_string_storage": {
						"encoding": "bytes",
						"label": "string",
						"numberOfBytes": "32"
					},
					"t_struct(Counter)3421_storage": {
						"encoding": "inplace",
						"label": "struct Counters.Counter",
						"members": [
							{
								"astId": 3420,
								"contract": "art3mis/Art3mis.sol:Art3mis",
								"label": "_value",
								"offset": 0,
								"slot": "0",
								"type": "t_uint256"
							}
						],
						"numberOfBytes": "32"
					},
					"t_uint256": {
						"encoding": "inplace",
						"label": "uint256",
						"numberOfBytes": "32"
					}
				}
			},
			"userdoc": {
				"kind": "user",
				"methods": {},
				"version": 1
			}
		}
	}
}